:04C000006F2000337A
:10C004000000000000000000900000202205002035
:10C01400A9BDF9F594000020000000000000000014
:10C02400960000209800002000000000000000009E
:10C034009A000020000000009C0000200000000086
:10C044009E0000201603002044030020A4000020CA
:10C05400A6000020A8000020AA000020AC000020B8
:10C06400AE000020B0000020C60000205A010020CD
:10C074009E050020B8000020BA000020BC0000206B
:10C08400BE000020EE01002082020020C400002037
:10C0940001A001A001A001A001A001A001A001A094
:10C0A40001A001A001A001A001A001A001A001A084
:10C0B40001A001A001A001A001A001A001A001A074
:10C0C40001A001A001A037370040834747009946EB
:10C0D4004111BD8B638CD70231476384E706114756
:10C0E400639EE702A30301001746000003460644CB
:10C0F40037370040834771006315F6022C0013851F
:10C104000165977001E0E780400009A88347570064
:10C1140093F7F70F2304F100834781004101730073
:10C12400203083477100834687000C08AE97238C28
:10C13400D7FE83477100850793F7F70FA303F10038
:10C1440055BF280097E001E0E780E0821375F50F02
:10C15400A303A1000346710055B737370040834756
:10C16400474099464111BD8B638CD70231476384A4
:10C17400E7061147639EE702A30301001746000088
:10C184000346E63A37370040834771006315F602E9
:10C194002C0013854166977001E0E78000F709A839
:10C1A4008347574093F7F70F2304F1008347810037
:10C1B40041017300203083477100834687400C0897
:10C1C400AE97238CD7FE83477100850793F7F70F4B
:10C1D400A303F10055BF280097E001E0E780608BDE
:10C1E4001375F50FA303A1000346710055B7374734
:10C1F40000408347478099464111BD8B638CD70229
:10C2040031476384E7061147639EE702A3030100F5
:10C2140017460000034696313747004083477100B4
:10C224006315F6022C0013858167977001E0E7809F
:10C23400C0ED09A88347578093F7F70F2304F10053
:10C244008347810041017300203083477100834696
:10C2540087800C08AE97238CD7FE8347710085072F
:10C2640093F7F70FA303F10055BF280097E001E00F
:10C27400E780E0931375F50FA303A1000346710053
:10C2840055B737470040834747C099464111BD8B96
:10C29400638CD70231476384E7061147639EE70244
:10C2A400A3030100174600000346A6673747004072
:10C2B400834771006315F6022C001385C1689770DB
:10C2C40001E0E78080E409A8834757C093F7F70F9C
:10C2D4002304F10083478100410173002030834728
:10C2E4007100834687C00C08AE97238CD7FE834722
:10C2F4007100850793F7F70FA303F10055BF2800DA
:10C3040097E001E0E780609C1375F50FA303A1009B
:10C314000346710055B7411122C6371400408357B4
:10C32400C40913973701635B0700BD45014597C0F6
:10C3340001E0E78020FF8567231EF40832444101B1
:10C3440073002030411122C6371400408357E4099A
:10C354008357E409139717016359070097C001E055
:10C36400E78080F19167231FF40832444101730090
:10C374002030B7170040930670052380D7041307B5
:10C3840080FA2380E7040100010003C6B704137692
:10C39400F60DA385C70423800704137605024DC256
:10C3A40003C6A700118A1DE22380D7042380E70473
:10C3B4000100010003C7A700136747002385E700B6
:10C3C4009307004B01000100FD17EDFFB717004074
:10C3D400930670052380D704130780FA2380E704AB
:10C3E400010001007D892394A700010001000100E0
:10C3F4000100238007042380D7042380E70401007D
:10C404000100010001003727004093061005A30333
:10C41400D78023800704B7170040130770052380D3
:10C42400E704130780FA2380E7040100010003C72F
:10C43400B70413670708A385E704238007048280F1
:10C444001376050441C603C6A700418A1DE2238072
:10C45400D7042380E7040100010003C7A700136782
:10C4640007012385E7009307007D01000100FD1704
:10C47400EDFFB7170040930670052380D704130718
:10C4840080FA2380E704010001001376F5011366A6
:10C4940006042394C7000100010001000100238069
:10C4A40007042380D704130660042380E704631879
:10C4B400C5000100010037270040894689BF0100FB
:10C4C4000100372700409306200591B72380D70445
:10C4D4002380E7040100010003D787001367070CDA
:10C4E4002394E7000DBF4111814601468145114562
:10C4F40006C66922B7170040130770052380E704B6
:10C50400130780FA2380E7040100010003C76704CE
:10C51400136717002383E70423800704B240410113
:10C5240082808146014681451145892AB71700401A
:10C53400930670052380D704130780FA2380E70449
:10C54400010001007D562396C7022380D70423806F
:10C55400E7040100010003C767041367170023837E
:10C56400E7042380070401A0BD473305F502010059
:10C574007D1575FD8280411122C426C206C6AA8497
:10C58400014463179400B2402244924441018280E2
:10C5940005041305803E4204C13F4180DDB7B7174F
:10C5A4000040130700032388E7028547174700006C
:10C5B4002328F74C73002030411106C6852DFDBF9A
:10C5C4002303048015472303E48001002302A4808D
:10C5D400828083076480E3CE07FE23030480828085
:10C5E40083076480E3CE07FE03454480828083078B
:10C5F4006480E3CE07FE2302A4808280411126C416
:10C604004AC24EC006C61377F50BAD47AA892E89D8
:10C6140095446306F70019456537653F8D444E859B
:10C624004537FD59FD1463983401B240A2441249C0
:10C63400824941018280135509011375F50F453F65
:10C644002209CDB7011126CC06CEB7040800513714
:10C654001545BD37713769372AC6A53F32459377EB
:10C66400150089EB136515001375F50FF240E244CC
:10C6740005618280FD14E9FC0145CDBF397126DCDA
:10C684004ADA4ED852D656D45AD25ED006DE62CE9C
:10C6940066CCB7E700E07D5783AA070022C603AA49
:10C6A400470023A0E71823A2E718B7170040130791
:10C6B40070052380E704130780FA2380E70483C707
:10C6C4004704930B75FFB684E20793FBFB0F854683
:10C6D400AA892E8B328937240040E187015763FAF7
:10C6E40076016308D5008946130700026313D50059
:10C6F4000157D98F93F7F70FB71C00402382FC042E
:10C7040011472303E4801305F00F5D3D094CD13537
:10C71400636D7C11B7050700DA95378707007955F3
:10C7240063F2E504B3879500636EF702370B0800E4
:10C73400A94733EB65016399F90689E48144513DC6
:10C7440026850DA0DA850945553D05090345F9FF00
:10C75400FD14050B693D81C49377FB0FFDF7DD35AF
:10C7640069FD7D55B7170040130770052380E70462
:10C77400130780FA2380E70403C74704418B23820D
:10C78400E704F250B7E700E023A0571123A24711B2
:10C79400E25432445259C259325AA25A125B825B51
:10C7A400724CE24C21618280A5476395F906856944
:10C7B4001309F00FB3069900B3742B01B69413490F
:10C7C400F9FFB3749900856B33796901416B9387E1
:10C7D400F9FFB3F7270199E363FC340193D94900C6
:10C7E400C147E3E637FF99BF0569C1697D19D9B728
:10C7F4001305800D638869011305000263847901C0
:10C8040013051008CA85DD3B353D21DD4E99B384FF
:10C814003441D9B7DA852D45D533CA94E30099F26A
:10C8240005097D3BA30FA9FED5BF9387F9FF93F7B5
:10C83400F70F6361FC0C83C71C0413073008631FE4
:10C84400F70437070800636BEB04B3079B00B706D4
:10C85400100063F5D704334BEB0089476393F90663
:10C864008980D549E38C04ECDA850945413B1109FB
:10C874000327C9FF91472320E48003076480E34E24
:10C8840007FE23033481FD17EDFBFD14110B81C456
:10C894009377FB0FE9FF7D3371F5E1B5B7170040DE
:10C8A40003C75704B70708001377070219E3B787CC
:10C8B40007007955E378FBEA33079B00E3FFE7F8C9
:10C8C40055B58547E382F9F2DA852D45053B938911
:10C8D400F4FFE38504E6293393F7390091EB8326CB
:10C8E40004800327090093074900E39AE6E43E899C
:10C8F400CE84F1BFB5476396F9001305900BC93197
:10C9040035BDB1471305B00AE38BF9FE994763912E
:10C91400F904B7050800B365BB002D45C531814452
:10C924008D4BA149753963967401832704802320B4
:10C93400F9008504E39834FF8327048013172B013F
:10C94400635507002312F900D5BB2322F900FDB378
:10C954009D476399F90281451305B0044531BD44EF
:10C964002320090023220900FD599D3993F77400FF
:10C97400CA9703C70700FD14398D2380A700E396E7
:10C9840034FF6DBBA1476392F9046D398144630D93
:10C994000B008D479304C0036308FB009304000558
:10C9A40063048B01930440041375C507E30895D809
:10C9B4001945393139390545213126850D3909455E
:10C9C4003D314931E31C05D669BB91476399F900B0
:10C9D40013056006F536F53E130590090DB7E38F90
:10C9E40009D4F154A9BB19CD91CD09CE8147338720
:10C9F400F500834607003307F50085072300D700B9
:10CA0400E317F6FE828019C991C909CA910583A763
:10CA1400C5FF11057D16232EF5FEC5BF828001C911
:10CA240019C62A960505A30FB5FEE31DA6FE82804E
:10CA340081473307F5000307070019E33E85828029
:10CA44008507C5BF01112E8626CAAA8413150601BF
:10CA54009305F004418122CC06CE32C6EF108063E8
:10CA64002A8401C53246A685BD3F2285F240624430
:10CA7400D24405618280854715C18DC105C28147B5
:10CA8400B306F5003387F50083C6060003470700A5
:10CA94006398E6008507E315F6FE85473E858280A8
:10CAA4008147EDBF9307F6FFBE952A966313C50031
:10CAB4008280FD1583C715000505A30FF5FEFDB79C
:10CAC400AA87014581CF09CE3E96850703C7F7FFA4
:10CAD4006317B700E39BC7FE05458280828001454A
:10CAE40082807971976700009387478222D48043BC
:10CAF40006D626D24AD04ECE52CC56CA5AC85EC6A4
:10CB040062C45DCC37C9C901814B176A0000130A9E
:10CB14006A84975400009384A47F1309F937975AC1
:10CB24000000938A6A79B709C0A8370B4057835726
:10CB3400240095E35C44639D0B00175700002327F2
:10CB4400F77C032CC4002285EF10E061628499A86D
:10CB540023A6FB00FDB783270A008297838664011E
:10CB64001C4463DB06063307F5406367E9089757FF
:10CB7400000023AB07748355240003450400972069
:10CB840002E0E78060FC5C405844A9CF1444B697A7
:10CB94008386640163C5060063E33701DA971CC426
:10CBA400A28B3A8449F4975700009387E7709C4B13
:10CBB40009476378F706F917175700002326F7701B
:10CBC400B250225492540259F249624AD24A424B18
:10CBD400B24B224C45618280E377F5F83387F94004
:10CBE4002A9761B763970B009757000023A0E77259
:10CBF40089BF23A6EB00B1B7D85009CF63DF060085
:10CC04003385A74083A70A016376F5009757000090
:10CC140023ACA76AA28B404471B7E3F3A7FECE9777
:10CC2400C5B79757000023A1076A59BF411122C411
:10CC3400175400001304446B1C4006C626C24AC0A5
:10CC440091C782979757000023A0076A5C4091C35D
:10CC540082971C406391071C9767000083C757871E
:10CC6400858B9DC797670000A3840786176700001C
:10CC740003473786954763FDE700EF005041976708
:10CC8400000083C71785F5178A07A2979C438297EC
:10CC940017690000130989878347C900918B99C3D9
:10CCA400EF10A0321C4491C38297975400009384E0
:10CCB400A465984017560000034616609757000075
:10CCC40083C7875F93961700BA9683D60600D5CAA2
:10CCD4009757000083C7475E63EFC70A9757000062
:10CCE400238C075C1C40639807129757000083C786
:10CCF400777E91CF9757000083C7B77D89EB97570D
:10CD04000000A389077C97B003E0E780603797575A
:10CD14000000938727649C43638F070EB707C0A85E
:10CD2400175700002322F75A6D3B9757000093874B
:10CD3400275EDC53EDC3175700001307E757184B62
:10CD44009757000083C7175E6367F70C17570000F7
:10CD540003473778954763E0E70C8347C900918B15
:10CD6400DDEB90409756000083C6165563CBD70A77
:10CD74002244B240924402494101172302E0670071
:10CD8400C3B9850793F7F70F975600002386F65229
:10CD9400E3E6C7F235BF86073E97835507002310A5
:10CDA400070097570000239F075497570000938765
:10CDB40067539C431755000003450550131725007E
:10CDC400BA979C4382979757000083D7A753175766
:10CDD40000000347674E93C7F7FF7D8D9317170035
:10CDE40098403E97835707005D8D2310A7009757FF
:10CDF400000083C7674C91C7850717570000230DB0
:10CE0400F74A175700000347274B9757000083C77B
:10CE1400B74AE375F7ECB240224492440249410117
:10CE24008280139717003297035707006DF7850721
:10CE340035BFAD6737C70040BD072326F7200F1065
:10CE440000009757000093872747C84F83278726FA
:10CE5400BD66BD0693C7F7FF99836A052326D720CD
:10CE64005D8D82804111B7170040985F3AC6945F88
:10CE74003247E39CE6FE32454101828082800327EB
:10CE8400851163000712411122C406C68347C500F9
:10CE94008345C5042A8493F7C70F2306F500834608
:10CEA40097000356C70013958601618563F1C50891
:10CEB400635A05060345870093F6F607A304D700D3
:10CEC400054693E627006314C50093E6170023067E
:10CED400D4005C4389075CC3A30AB400032504118E
:10CEE4002E864C43090501368327841103465401D9
:10CEF400D44303D7C700B296118FD4C32396E70057
:10CF04008947A30DF400034744039757000083C7E0
:10CF140047416378F7048347C40093E70701230676
:10CF2400F40081A093E717002306F40075B7937605
:10CF3400F60F635D050203458700854513E6270068
:10CF44006314B50013E617002306C400A30AD40033
:10CF5400A30407008547A30DF400832784119C4391
:10CF6400DDF3B240224401454101828093E717007A
:10CF74002306F400A30AD400A30407000325041124
:10CF84004C4309058D348327841103465401D4434B
:10CF940003D7C700B296118FD4C32396E7008D47F9
:10CFA4005DBF05458280975700009387A7509C4337
:10CFB400411122C406C6858B2A84C5EF4165130539
:10CFC40025F5973003E0E780608545C58347A500D4
:10CFD4002315F50083270412BDE72320A41223227E
:10CFE400A41285472310F404232005008347640119
:10CFF40054412316F5000347D4002304E5000547F4
:10D00400A304E500175700001307474C184F138576
:10D01400170215811C437D151375F50F9CC25C43E3
:10D02400DCC21C479CC65C47DCC61C4B9CCA5C4BE0
:10D03400DCCA1C4F9CCE5C4FDCCE19CD9386060215
:10D0440013070702C1BF8327441288C3835704040C
:10D054002322A412850779B79757000083D78754F2
:10D06400850717570000231FF752B240224441019D
:10D0740082808347C40023090400054593C7470001
:10D084002306F400DDB78347850193F7E70FD5EF57
:10D0940083479501DDEB034625018346C50009CA94
:10D0A40083454503175700000347B72763E7E500A7
:10D0B40013F7060141CF014709C6C18A0357651C0E
:10D0C40081C68356A51C369751C31307C71217553B
:10D0D40000000355E520B335A70237460F00411180
:10D0E40013060624814622C426C206C67D5433058F
:10D0F400A702974004E0E780C0E09757000083C789
:10D10400B722B384A700975700009387274903A742
:10D1140007098327070963F387003E84184375FBD7
:10D1240097570000938707239C4382978147636442
:10D13400A400B307A440B2402244B3B7970093C7F6
:10D14400170092443E854101828081473E8582805A
:10D15400797126D206D622D44AD04ECE52CC56CAA3
:10D164005AC85EC68347350303447513AA843E94A4
:10D174001374F40F9307400263F687001304B4FD9D
:10D184001374F40F03AA841383AAC413A38B841205
:10D1940022865285D685974004E0E78000D1058930
:10D1A40015E503CBD41201498149337B6403930B06
:10D1B40050024A865285D685974004E0E780E0CE47
:10D1C400058915C5639169031374F90F238B8412C0
:10D1D400B250225492540259F249624AD24A424B02
:10D1E400B24B456182808509E20993D989410509D9
:10D1F400E31179FDE1BF832785090356E5037971BE
:10D2040093D60701BD8EC206C182358E1357764070
:10D2140093575640898B058B5D8F93573640918B7E
:10D224005D8F93571640A18B5D8F93171600C18BAA
:10D234005D8F9317360093F707025D8F931756009F
:10D244009355860093F707041E065D8F1376F60F39
:10D25400518F93D7554013D63540118A898BD18F7E
:10D2640013D67540D18F13D61540218AD18F1396CA
:10D274001500418AD18F1396350013760602D18F9B
:10D2840013965500137606049E05D18F93F5F50F7A
:10D29400CD8FA20745465D8F3307C70222D42A8467
:10D2A40026D252CC56CA032A8413832AC4135AC8DA
:10D2B40006D6369742074183935777401355574014
:10D2C4000989858BC98F135537401189C98F135527
:10D2D40017402189C98F131517004189C98F131568
:10D2E400370013750502C98F13155700935587002E
:10D2F400137505041E07C98F1377F70FD98F13D53C
:10D30400354013D755401189098B498F13D5754082
:10D31400498F13D515402189498F139515004189EB
:10D32400498F1395350013750502498F13955500E0
:10D33400137505049E05498F93F5F50F4D8F22074C
:10D34400D98FB387C7024AD04ECE5EC662C4B697A1
:10D35400C207C18313D7774013D557400989058B7A
:10D36400498F13D537401189498F13D51740218927
:10D37400498F139517004189498F13953700137509
:10D384000502498F1395570093D58700137505043B
:10D394009E07498F93F7F70FD98F13D5354013D7CD
:10D3A40055401189098B498F13D57540498F13D581
:10D3B40015402189498F139515004189498F13958B
:10D3C400350013750502498F13955500137505042F
:10D3D4009E05498F93F5F50F4D8F2207D98FB3879B
:10D3E400C702130650025285D685B697BD8E939414
:10D3F4000601C18033F6C402137BF60F974004E0A4
:10D40400E780A0AA05890DED8347D412014981491B
:10D41400B3849702130C5002C1804A865285D68584
:10D42400974004E0E78060A80589937BF90F11C554
:10D4340063863403850993F9F90F0509E31F89FD10
:10D44400230B6413B250225492540259F249624A93
:10D45400D24A424BB24B224C456182805E8BCDB79F
:10D46400011122CC604126CA4AC84EC652C406CE17
:10D47400AA841D4A130965058549BC446364F40004
:10D48400054581A803C7D40083474400631B4705AF
:10D4940003C784026304F7000040C5B70347540080
:10D4A40083C75405E31AF7FE1946CA8513056400B9
:10D4B400EFF06FDCE31235FF0347C40083C7940227
:10D4C400E31CF7FC0357E40083D7A402E316F7FC3C
:10D4D4000145F2406244D2444249B249224A0561BC
:10D4E4008280E31BF7FA0347540083C75405E3150E
:10D4F400F7FA1946CA8513056400EFF0CFD7E31D88
:10D5040035F9F9B70111975700009387270922CC01
:10D5140003A4470B26CA06CE2AC42EC6854419E4A2
:10D524000145F2406244D244056182808347910000
:10D5340003471400858B6304F7000044CDB71946F4
:10D544009305A10013052400EFF0EFD2E31795FE35
:10D554000545C1BF011122CC175400001304C4F8BF
:10D5640018402AC62EC432C206CE3C4B93F7F7F7B6
:10D574003CCB97B003E0E78060AD184097560000BD
:10D584009386C6F33C4B93E707083CCB9C42324559
:10D59400A24523A0070003471500034825002207DE
:10D5A4004208429703480500429703483500620841
:10D5B400429798D70347550003486500220742085D
:10D5C4004297034845004297034875006208429712
:10D5D400D8D7034795000348A5002207420842977D
:10D5E4000348850042970348B5006208429798DBD8
:10D5F4000347D5000348E500220742084297034841
:10D60400C5000345F500429762052A97D8DB03C796
:10D61400150003C52500220742052A9703C5050006
:10D624002A9703C5350062052A9798CF03C755008A
:10D6340003C56500220742052A9703C545002A97BA
:10D6440003C5750062052A97D8CF03C7950003C5A3
:10D65400A500220742052A9703C585002A9703C51A
:10D66400B50062052A9798D303C7D50003C5E50022
:10D67400220742052A9703C5C50083C5F5002A97EA
:10D68400E2052E97D8D3D843759BD8C3D8431367E4
:10D694001700D8C398431367170098C312469842DB
:10D6A4005C43858BD1E71C4F01452300F6009C4267
:10D6B4009C4FA183A300F6009C429C4FC18323018D
:10D6C400F6009C429C4FE183A301F6009C42D84F94
:10D6D4002302E600D84F2183A302E600D84F4183FA
:10D6E4002303E600D84F6183A303E6009853230481
:10D6F400E60098532183A304E6009853418323054D
:10D70400E60098536183A305E600D8532306E60098
:10D71400D8532183A306E600D85341832307E600A8
:10D72400DC53E183A307F600F24062440561828082
:10D734000100B5B717570000130787D814434111E8
:10D7440022C49C5E4AC006C6998326C2858B3A844D
:10D7540017590000130989D6D1CB9C5E9754000059
:10D764009384C4D693F7F7F99CDE17570000034758
:10D7740047D693070008631BF700832709009C43DF
:10D7840093F70704175700002305F7D483C7040051
:10D7940093F707049DC3975700009387A7BB9C4347
:10D7A40082979757000023ABA7D283C7040093F74F
:10D7B400F70B17570000230BF7D083C7440093F7E8
:10D7C40007048DE7854717570000A303F7D0975741
:10D7D4000000938767D19C43096798C7130700FC2F
:10D7E400975600002386E6CED844F8D31C40985FB1
:10D7F4001183058B09CB985F3D9B98DF05479756AE
:10D8040000002387E6CC985F1D83058B11CB985FBE
:10D814001377F7F798DF854717570000230AF7CAED
:10D8240083270900D8430583058B19C7D843759B03
:10D83400D8C3D843799BD8C3B24022449244024906
:10D8440041018280397106DE16DC1ADA1ED82AD626
:10D854002ED432D236D03ACE3ECC42CA46C872C654
:10D8640076C47AC27EC0F935F250E2525253C253A2
:10D874003255A255125682567247E2475248C24860
:10D88400324EA24E124F824F2161730020309757BF
:10D894000000938767C5944397570000938707C395
:10D8A40003C70700058B11CB97570000238207C2DB
:10D8B40097570000A38E07C0828003C71700058B0B
:10D8C40065F7F85271FF83C75700DDB7175800009A
:10D8D400130808BF032708001C5F9583858BD1E7D5
:10D8E40009C61C5BBD832300F60085CA8327080094
:10D8F400985B4607935767016356070093E707C091
:10D90400C207C18303970600C207C18709C7BA9734
:10D914000947B3C7E7022390F60085CD8347150076
:10D924008DCB9756000083C6C6BA93F606041387B8
:10D93400970089478DCA3A9503470500854699475C
:10D944001376F7066311D60262076187B947634C01
:10D954000700832708009C5FED838D8B1757000019
:10D96400A30BF7B681473E8582808547EDBF411101
:10D9740022C406C617540000130404B7184049E92A
:10D98400AE877453FDFE3E85B28597570000238011
:10D9940007B497A003E0E78060419757000093879E
:10D9A40027B29C43B70680009843558F98C3D85735
:10D9B400719BD8D797570000A38C07B097570000E6
:10D9C400A38607B01C40094798C3B7F700E003A734
:10D9D40007D16D9B23A8E7D003A707D15D9B23A89C
:10D9E400E7D073005010144017570000130707AE18
:10D9F40083472700858B89EB83473700858BD9C7FD
:10DA040097570000238607ACB2402244410182802C
:10DA14008D476310F50297570000938767AA9C43CC
:10DA2400B70680009843558F98C3D857719BD8D7B1
:10DA34005DBF8547E319F5FAB567BD075CC70F10ED
:10DA440000001C400967094698C7130700F8975659
:10DA54000000238FE6A617570000130767A6144398
:10DA6400984231830D8B6319C7001307E043F8D341
:10DA74003D673D07D8C785BF984231830D8B01E7C9
:10DA840013076019EDB71307E01BD5B7FC52ADF3CC
:10DA9400A5BF5D7152DC175A0000130A6AA203275E
:10DAA4000A0086C6A2C4A6C2CAC04EDE1C43975949
:10DAB4000000938929A8175900001309E9A293F7D4
:10DAC400F7E793E707081CC383A609003707CEFFCF
:10DAD4007D179C46130680022A84F98F9CC68327EF
:10DAE4000900130700082800B8CBAE84930510087A
:10DAF400EFE0FFF297A003E0E780405597A003E032
:10DB0400E780406283270A009376F41F370FFCFFF7
:10DB140023A40700984B4E88CA881367F70398CB51
:10DB2400F84F130510F8D285137707E0558FF8CF17
:10DB34009843F576FD16758F98C39843B70633005E
:10DB4400B70204001377F7E798C398439303401F81
:10DB54007D1F1377F7E71367071098C303A709001E
:10DB6400930F800285491C47D58F1CC78327090062
:10DB74001307900D3400B8CB1149014713533700F4
:10DB840026938347030013767700B3D7C740858B6A
:10DB9400DDCF9C41832E0800239C070423900706B5
:10DBA40003AECE02137EDEFF23A6CE0383AE0700B0
:10DBB400137EF70793FE0EF833EECE0123A0C701C0
:10DBC40003AE4702336E5E0023A2C70383AE080090
:10DBD400014E23A27E0603DA070663074E0303AE53
:10DBE4000703038A0600135EFE00620E135E8E4175
:10DBF4006358CA0103AE0703135EFE002380C60107
:10DC040003DE0706137EFE0F03AA4E0663060A0010
:10DC140003DA8705E37F49FB03AE4702337EEE0157
:10DC240023A2C70383870600635CF400034E03004A
:10DC34003396C9001346F6FF3376C6012300C300AA
:10DC44003E8663D3A7002A861315860161850507DE
:10DC54001377F70F8506E313F7F3B640264496448B
:10DC64000649F259625A6161828097560000938690
:10DC7400A6879C42D8471316170163550602984796
:10DC840013161701635006027D57B8D717470000D3
:10DC940013078762584F050717460000232CE662D6
:10DCA400116798C798470D83058B1DC3175700004C
:10DCB4000347E78113671700175600002309E6801E
:10DCC400130700F8175600002304E680214798C77D
:10DCD4009847058B09CF174700000347377F136721
:10DCE400170017460000A303E67E054798C7984728
:10DCF4000983058B09E798470583058B31CF98473E
:10DD0400174600001306867C174500001305457B63
:10DD14000983058B630307101841184331830D8B66
:10DD240075EBAC4B184E93F5050203471700CDCDA8
:10DD340079EF13077006D8CF03470600136717005F
:10DD4400174600002304E678114798C718415C572A
:10DD5400F19B93E717005CD79C42984793163701D1
:10DD640063D606029756000083C6868AC18A17576F
:10DD740000001307A782C5CE0347470713670702AE
:10DD8400975600002386E688056798C79847931638
:10DD9400270163D106021747000003476773620730
:10DDA4006187635707000547974600002382E672A0
:10DDB400096798C798479316070163D606029756D2
:10DDC400000083C6F684858A174700001307077D81
:10DDD400ADCE034757071367270097560000A38962
:10DDE400E682216798C7828029D785456315B700E5
:10DDF4001307B00689B789456315B7001307F00602
:10DE04001DBF8D456315B700130730072DB71307E2
:10DE1400500715B71307600739BF03473600136768
:10DE2400170017460000A304E66A094739BF834672
:10DE340047070946BD8A6388C600034747078D46DE
:10DE44003D8BE313D7F4114725BF83465707918AC7
:10DE5400C9DA034757071367870041B7397106DEEC
:10DE640016DC1ADA1ED82AD62ED432D236D03ACEBE
:10DE74003ECC42CA46C872C676C47AC27EC0F53366
:10DE8400F250E2525253C2533255A25512568256A0
:10DE94007247E2475248C248324EA24E124F824F56
:10DEA400216173002030174700001307276483465D
:10DEB400B7019747000083C737664C4BB697FD8B75
:10DEC40033D7F50097460000A382F6629746000018
:10DED400A384F664058B15EF174700000347176406
:10DEE400B3F7E702814601471305000233D6E50084
:10DEF400058A1378F70F19CA6397D700974700006C
:10DF0400A386075F8280850693F6F60F0507E31F55
:10DF1400A7FC8280974700009387C7439C43011165
:10DF240022CC4EC606CE26CA4AC852C456C28297CE
:10DF3400974700009387875D804781496305A4065E
:10DF4400BE84974700009387A73C038767013E89F7
:10DF540063550706018D135455009747000083C786
:10DF6400875A9379F501636DF402370AC0A8B70A9A
:10DF74004057153F9C449746000083C6C6581397E4
:10DF840056003E9783076901158C63C507006363D8
:10DF9400470156979747000023AEE756E37BD4FC2E
:10DFA4001604B3693401F24062444E85D2444249B6
:10DFB400B249224A924A05618280E37D85F8B70717
:10DFC400C0A833848740229579B797470000938788
:10DFD40067389C43411122C406C626C282979747DC
:10DFE40000009387A75280476309A406BE8497471D
:10DFF40000009387E7318387670163D80704018DA5
:10E00400135455009747000083C7E74F6367F40430
:10E01400593D98449747000083C7E74E93965700AD
:10E0240036971D8C9746000023A6E64EE372F4FE55
:10E034002244B2409244174500000345354B8145C4
:10E04400410117A303E067000355E37A85FAB70794
:10E05400C0A833848740229565B7B24022449244D5
:10E0640041018280974700009387C74C9843B75774
:10E0740002009387079F8326070913965600635867
:10E084000600832607091396660063440600FD17FD
:10E09400FDF3828071C5AA870145E9C58D07C207D2
:10E0A400C183F19BC207C18313074003636FF70267
:10E0B400174700001307074E0843174700001307CC
:10E0C400E74C14436398A60217470000130747243C
:10E0D400185B014541CB4111C20706C60545DD8DDC
:10E0E4000297B2400145410182801747000013079F
:10E0F400274AD9B70357650035E303574500636FD3
:10E10400F704B306F7402146637CD60203280500D2
:10E11400938687001D8FAA96611717460000035641
:10E12400061A2392E60023A006012393060014C1D5
:10E134002312F500130786FF974600002391E61883
:10E144002313B5009745000083D56517B387F540C1
:10E15400174700002315F7162105828008419DB753
:10E164000145828082800DC19747000093878742D2
:10E1740003A30700974700009387474183A807003C
:10E1840081469A8763E31701828003A80700636DC1
:10E19400F50A636BA80A13878700E367E5FE03D6D5
:10E1A4006700216705076317E60003C74199050760
:10E1B400238AE198974500009385051003D647000C
:10E1C40003D765002393070032974207418317451D
:10E1D40000002316E50E638A670217450000130545
:10E1E400253B08416303F50203D5660019ED83D787
:10E1F400460023A0060121073E9621062392C6006D
:10E2040097470000239DE70AB6879843E30E17F764
:10E21400974600009386C6379442E307D7F68356A1
:10E224006700BDF283D64700035647001843A10692
:10E23400B2962392D70098C383D76500A1071747E6
:10E244000000231EF7068280BE86C28725BF011107
:10E25400974700009387873422CC03A4C70B26CAB0
:10E264004AC84EC606CEAA8413092500854915C09E
:10E2740083C7140003473400858B6304F700405CB4
:10E28400FDB71946930544004A85EFE0CFFEE31835
:10E2940035FF2285F2406244D2444249B2490561C5
:10E2A40082804111974700009387472F22C403A41B
:10E2B400C70B26C24AC006C693042500054901E8D7
:10E2C4002285B24022449244024941018280A685BB
:10E2D4001305A402972004E0E7802077E30225FFDA
:10E2E400405CF1BF4111974700009387272B22C45C
:10E2F40003A4C70B26C24AC006C6930425000549D9
:10E3040001E82285B24022449244024941018280BC
:10E31400A6851305A401972004E0E7800073E302B7
:08E3240025FF405CF1BF000081
:10E330009751FF1F938181B017A1FF1F130181CC5B
:10E3400017E5FFFF130545CC9725FF1F938585CB68
:10E350001746FF1F130686FD63FAC50083220500DA
:10E3600023A0550011059105E3EAC5FE1735040009
:10E37000130545BB9745FF1F938545FB1386818594
:10E3800063FAC5008322050023A0550011059105FD
:10E39000E3EAC5FE138581859785FF1F93850532C6
:10E3A0006377B500232005001105E36DB5FEFD423E
:10E3B000739002BC8D4273904280B722000093821A
:10E3C000828873A002309722FF1F9382A2C393E238
:10E3D000320073905230971201009382A23C7390E6
:10E3E0001234730020303D432A876373C30293774E
:10E3F000F700BDEFADE5937606FF3D8ABA960CC3F4
:10E400004CC30CC74CC74107E36BD7FE11E28280B7
:10E41000B306C3408A069702000096966780A6005E
:10E420002307B700A306B7002306B700A305B7006C
:10E430002305B700A304B7002304B700A303B70064
:10E440002303B700A302B7002302B700A301B7005C
:10E450002301B700A300B7002300B700828093F523
:10E46000F50F93968500D58D93960501D58D61B7EF
:10E47000939627009702000096968682E78086FA98
:10E480009680C1171D8F3E96E374C3F8A5B7336716
:10E49000B500FD530D8B79E7B7877F7F9387F7F73B
:10E4A00010419441B372F6003363F600BE92B3E2BA
:10E4B00062006397720C6318D6065041D441B37260
:10E4C000F6003363F600BE92B3E262006398720A0C
:10E4D000631BD60410459445B372F6003363F6000F
:10E4E000BE92B3E262006391720A631ED602504587
:10E4F000D445B372F6003363F600BE92B3E2620015
:10E50000639A72086311D60210499449B372F600F7
:10E510003363F600BE92B3E2620063937208510562
:10E52000D105E30FD6F61317060193970601631C76
:10E53000F7001357060193D706013305F74093758B
:10E54000F50F91E982804183C1833305F7409375CC
:10E55000F50F91E182801377F70F93F7F70F3305EB
:10E56000F74082800346050083C605000505850542
:10E570006313D60065FA3305D640828011059105F4
:10E58000E312D6FE014582802105A105E31CD6FCDD
:10E59000014582803105B105E316D6FC0145828034
:10E5A0004105C105E310D6FC01458280411106C634
:10E5B000EF80E064B240AA8617E703001307C7A5FF
:10E5C0001766FF1F1306469197E50300938505A67E
:10E5D000114541016FC09049130101DB23248124BF
:10E5E000232021252326112423229124232E312385
:10E5F000232C4123232A5123232861230347050089
:10E60000930710042A892E84631FF76603471500B9
:10E61000930740056319F766034725009307E00554
:10E620006313F7662E86AA852545EFC0D0391306F9
:10E63000D003A2854A85EFC0F050AA84635A050032
:10E640003546A2854A85EFC0F04FAA846344050889
:10E650009389D4FF9307100363CE37074E86930543
:10E6600039002808EFA0033D1C1CBE9917EA0300DF
:10E67000130A0ACA238409DED28A8149594B8325A9
:10E680004A002808EFC0D0450DC18E09D69983D71E
:10E6900009005547636FF70017E703001307479218
:10E6A0008A07BA979C43BA9782878509210AE3981B
:10E6B00069FD97E503009385E5C4CDA89305F4FFB4
:10E6C000858D13851400C20581460146C1814A9596
:10E6D000EF40407D8320C1240324812483244124EE
:10E6E000032901248329C123032A8123832A412367
:10E6F000032B01231301012582801306F4FF058EED
:10E700009385140042064182CA95E800EFC0D06BA1
:10E710001305D104EFA0232E93150501C181130524
:10E72000D104EFC0D07897E5030093856591130578
:10E73000D104EFC0F03A19CD97E503009385C59059
:10E740000545EFC0F01D1765FF1F0345352FEF602E
:10E75000A01E49B797E50300938545901305D104A2
:10E76000EFC0103819CD97E503009385A58F0545B7
:10E77000EFC0101B1765FF1F0345552CEF60801E6F
:10E7800091BF97E503009385E58E1305D104EFC093
:10E7900030350DC1371700408327C70AA16697E5BA
:10E7A00003009385A58DD58F2326F70A2545EFC055
:10E7B00030170DB797E503009385058D1305D10438
:10E7C000EFC0103211CD371700408327870AA166AA
:10E7D00097E503009385C58BD58F2324F70AF9B7F6
:10E7E00097E503009385458B1305D104EFC0502FA7
:10E7F00011CD371700408327C70A916697E50300BC
:10E800009385458AD58F2326F70A4DB797E50300F0
:10E810009385458A1305D104EFC0902C11CD37178D
:10E8200000408327870A916697E503009385458911
:10E83000D58F2324F70A9DBF97E50300938545896B
:10E840001305D104EFC0D02997E50300938505890E
:10E8500031FD97E50300938525891305D104EFC0A9
:10E86000302897E503009385E58829F197E50300B3
:10E87000938505891305D104EFC0902611C59767CC
:10E88000FF1F23AB071CB9B597E5030093850588E7
:10E890001305D104EFC0D02401C5EF6070511DBD38
:10E8A00097E50300938545871305D104EFC05023F6
:10E8B00001C5EF60105739BD97E503009385858644
:10E8C0001305D104EFC0D02101C5EF60606D19B50B
:10E8D00097E503009385C5851305D104EFC050204B
:10E8E00001C5EF903000FDB397E503009385C58423
:10E8F0001305D104EFC0D01E01C5EF90007FD9BB36
:10E9000097E503009385C5831305D104EFC0501D1F
:10E9100001C5EF90E07D7DBB97E5030093850583FE
:10E920001305D104EFC0D01B01C5EFB0707B5DB300
:10E9300097E50300938505821305D104EFC0501AB3
:10E9400001C5EFF0F02779B397E5030093850581C2
:10E950001305D104EFC0D01801CD9767FF1F83D7EF
:10E96000270D0567D98F1767FF1F2313F70C9DB37A
:10E9700097D503009385C57E1305D104EFC05016CB
:10E9800009C9FD771767FF1F0357870AFD17F98F1E
:10E99000D9BF1305D104EF90232A9767FF1FA387E0
:10E9A000A70A1376F50F97D503009385A57B01453C
:10E9B000EFC0D00B05B31306F4FF058E13851400CA
:10E9C0004206418297E503009385855D4A95EFC035
:10E9D000D0241764FF1F1304A40531C597D5030085
:10E9E00093858579E800EF90F37FE800EFA0A3001E
:10E9F000131605014182EC001385C168EF80704653
:10EA000097D503009385057A1145EFC06071835750
:10EA10000400414593E717001767FF1F231AF7000B
:10EA2000EFD0C02C45B997D5030093856578114583
:10EA3000EFC0006F7D55EFD0003183570400F99B84
:10EA40001DB7AD3641B91306F4FF058E13851400CA
:10EA50004206418297E50300938585544A95EFC0AD
:10EA6000D01B1764FF1F1304A4FC29C183570400A3
:10EA700097D5030093858574E80093E7170017671F
:10EA8000FF1F2317F7FAEF90F375E800EF90B376C6
:10EA900013160501EC0041821385C168EF80703CBC
:10EAA00097D5030093854573114511B397D503009E
:10EAB00093854573E800EF90F372E800EF90B3732D
:10EAC00013160501EC0041821385C168EF8070398F
:10EAD0008357040097D5030093858572F99B1767C8
:10EAE000FF1F2317F7F4C9B7EF7050539767FF1F45
:10EAF000938707F4C85FEF80136BAE862A8697D59D
:10EB000003009385A5701145EFC04076E1B6EF5044
:10EB1000507AC9B617E603001306064997D50300D5
:10EB20009385856F114569B5EF80E01097D5030097
:10EB30009385456F35F997D503009385A56FADB7DC
:10EB40003545EF90404FAA84EF80F3652A86AE8664
:10EB5000254597D503009385256FEFC0207197D782
:10EB600003009387A74D8843A6851754FF1F1304FE
:10EB7000E44DEF80633A2326A422EF8000120325A0
:10EB8000C422EF805362AE862A8697D50300938510
:10EB9000656C95BF81450D45EF605010EF806005B5
:10EBA0002A8697D503009385A56DADBF81452D4578
:10EBB000EF60D00E81456945EF60500E81453145CB
:10EBC000EF60D00DEF8040032AC6EF80A003B2466D
:10EBD0002A871756FF1F1306263097D50300938503
:10EBE000256B1145EFC08068F5B41757FF1F035719
:10EBF00027689756FF1F9386764F1756FF1F1306F9
:10EC0000A62D97D503009385E56AE1BF8547175781
:10EC1000FF1F230BF766EF80400897D5030093850D
:10EC2000A56A59B51757FF1F03470766854797D54C
:10EC300003009385E569E319F7E6C5B785471757DC
:10EC4000FF1F2306F764EF80400597D503009385E7
:10EC5000E56899BD9757FF1F83C7676397D5030082
:10EC600093854568E38207E4CDB79767FF1F9387D5
:10EC700027DC885FEF803353AE862A8697D5030062
:10EC80009385056749B50146A2854A85EF60A06274
:10EC900091B41D71A2CCA6CACAC82A843289AE8496
:10ECA0001306E0038145130521013AC486CE36C61A
:10ECB000EFF06FF32247B1472308F10093071700E5
:10ECC000A308F100230921018D471DC3B2460C089A
:10ECD000368605068347F6FF85052381F500B38751
:10ECE000C640BA9793F7F70FEDF70D079377F70F35
:10ECF00081460147850613F6F60F636BF604940808
:10ED0000BE962380E6FC1387170094081377F70F4D
:10ED10003697B5462300D7FC9386270093F6F60F67
:10ED20001008A6852285EFF0A077DD47631CF5006B
:10ED3000194597E5030093856592EFC0603E2285F3
:10ED4000EFF00074F6406644D6444649256182805F
:10ED5000100836960346060032971377F70F59BF0F
:10ED6000011106CE2AC62EC4EFF0F05303478500EA
:10ED700095476314F70283470500A2463246C18BCC
:10ED800089CF1C4D97E5030093854588D58F1CCD11
:10ED9000F240194505616FC0604D1041BA8697E594
:10EDA00003009385A5881182058ADDB75D71A6C22F
:10EDB000CAC04EDE2A89AE89B284B6853D46280097
:10EDC00086C6A2C4231B01003A84231C0100231D14
:10EDD0000100231501022316010223170102EF800F
:10EDE00073683D46CE856808EF80D3676808EFB04A
:10EDF000605F63440504930404023D466C08268565
:10EE0000EF80536683470400A3070402680893E772
:10EE100007042300F400EFB0E05CA304A4009145D4
:10EE20004A853D3F83069400268697E50300938537
:10EE3000A5831945EFC080438DA08547639BF408E7
:10EE40003D469755FF1F938525092800EF90D33B3A
:10EE500021ED930404023D466C082685EF80936003
:10EE600083470400A3070402268593E707042300D1
:10EE7000F400EFB0E05CA304A40091454A85CD35D1
:10EE8000268734001756FF1F1306060597E5030073
:10EE9000938545811945EFC0603DB64026449644B0
:10EEA0000649F259616182806808EFB0E064680841
:10EEB000EFB040531375F50FEFB0506F7808340082
:10EEC0001756FF1F1306460197E5030093854582F9
:10EED000D1B7EFB0E050635A050097E50300938582
:10EEE000E5851945EFC080384DBF930404023D46C7
:10EEF0006C082685EF80135783470400A30704029C
:10EF0000268593E707042300F400EFB06053914592
:10EF1000A304A4004A85A93503459400EFB0106905
:10EF200083069400268697E503009385A58311B791
:10EF3000011106CE2EC42AC6EFF0F036A2461C4DB3
:10EF4000324613C7F6FFF240F98F1CCD97D5030068
:10EF500093858569194505616FC04031954763F216
:10EF6000C7245D71A6C293140501C1802AC22685FB
:10EF7000A2C4CAC04EDE2E89B28986C652DC56DAD9
:10EF80005AD85ED662D466D26AD06ECEEFF0502DDB
:10EF90002A84124697D5030093854552630F0510C6
:10EFA000268532C2EFF07031FD578146124663026A
:10EFB000F510354C97DC0300938CCC56176DFF1F72
:10EFC000130D0DA797DD0300938DCD4E130A040298
:10EFD0009374F50FB30BD90003C70B00B147631649
:10EFE000F70A138846006357380B03CB1B00938A3C
:10EFF000360033876A01635A37094A970347070087
:10F000006315870901470146B385EB0083C51500E9
:10F0100005071377F70F2E961376F60FE376EBFEC0
:10F0200033876B01034727006311C7063307590174
:10F0300003460700E68519453AC242C636C4EFC00A
:10F04000E0220326CD02124750CC034707001306E7
:10F0500010036309C708130620036308C70E1306CD
:10F060000003A2463248631FC70003C63B01B30535
:10F0700009012DC6D1062287CA962685053B8545FE
:10F0800026857D35DA9A93F6FA0F850693F6F60F04
:10F09000E3E236F5B640264496440649F259625AF0
:10F0A000D25A425BB25B225C925C025DF24D6161BE
:10F0B000828097D503009385A5432644B6409644A5
:10F0C0000649F259625AD25A425BB25B225C925CA8
:10F0D000025DF24D194561616FC04019228781467A
:10F0E000014661BF03C74B0003C55B002207598D72
:10F0F000EF70F35403A60D0083A64D00EF70C30418
:10F10000EF80331548D803C86B002308040383C875
:10F110007B0083C78B0042C4A208B3E8F800231C1D
:10F12000140346C2EF803308924822482A87AE87EC
:10F13000528697D503009385A53F1945EFC000136C
:10F140005285EFB0A046894525BF83C74B009DEF90
:10F150005285EFB02029634205025285EFB0C039D5
:10F160005285EFB020281375F50FEFB03044834778
:10F17000040093F7F7FB2300F40097D50300938571
:10F18000A53E1945EFC0800E9145DDBD83470400C3
:10F1900097D503009385C53E93E707042300F40049
:10F1A000CDB78280797103C5818506D622D402C687
:10F1B00002C802CA02CC02CEEFF0F00E034785006F
:10F1C00095476319F70A1C4D2A84CDC713F717001A
:10F1D0000DC797D503009385653C1945EFB0507472
:10F1E0000147740013060003835524010355C4002E
:10F1F0004D34B25022544561828013F7470029CF25
:10F2000097D503009385453B1945EFB070711C40BD
:10F210009983858B2306F1008347040093F7070445
:10F220009DC31757FF1F1307E7CA8547C14683458C
:10F23000470070003E962300B60085070507E39857
:10F24000D7FE230E01006800EF90E37A1377F50FE5
:10F2500074001306200349BF898B89CF97D503001B
:10F26000938505371945EFB0B06B0147740013065D
:10F2700010039DBF83C781858507858B238CF1840F
:10F280008DBF011122CC26CA4AC84EC606CEEFF069
:10F29000100B2A84814415499309C00283478400D6
:10F2A000639B27018347A400850793F7F70F63E06B
:10F2B000F9022305F4001304C40381C8F240624438
:10F2C000D2444249B249056182808544C1BF2305C9
:10F2D00004008945268569348347040093F70704B1
:10F2E000F9FB85452685AD3CF9B7411122C421645F
:10F2F0009305048099460146254506C69710FF1FD1
:10F30000E7800038930504802244B2409946138672
:10F31000C185294541011713FF1F6700633699E135
:10F320000145828075DD011152C403DA018626CAC7
:10F3300093548A008504A204C204C18056C2B38AD1
:10F340004441C20A22CC4AC82E862E842A8997D5E7
:10F3500003009385E552254593DA0A014EC606CE91
:10F360009389C185EFB0907063ED8A0883D50186DB
:10F3700093F7F50FB1CF8D6783D50186938707800B
:10F38000A2864A86BE9529459710FF1FE780402F29
:10F390001375F50F29ED83D749001566A2972390C1
:10F3A000F18603D7018683D7E1856309F70063F30C
:10F3B000E700B297998F139607014182254597D5AB
:10F3C00003009385654DEFB0706A1375F40F0DA0BF
:10F3D0008D6793870780930600100146BE952545EB
:10F3E0009710FF1FE780C0291375F50F49D5014518
:10F3F000F2406244D2444249B249224A924A0561EB
:10F400008280B3079440D297C207C183A18303C708
:10F410004900850793F7F70F9396870011EB9386C2
:10F42000170093740AF0A206C204C206C180C1820A
:10F4300083D7E18563F6F40033879600E3C9E7FAE2
:10F440000D6A130A0A800146B385440125459710C9
:10F45000FF1FE780E0221375F50F51F983D5018670
:10F46000A2864A86D29505B7411122C41384C1856C
:10F4700022858145194606C69710FF1FE780605A0E
:10F480009307B0FA2300F4008D352244B24097D59B
:10F49000030093856537254541016FB07048A1652C
:10F4A000411199461386C185938505802D4506C671
:10F4B0009710FF1FE780C01C03C7C1859307B00AE0
:10F4C0006303F7005537B24083D6018603D6E18542
:10F4D00097D5030093850534254541016FB0105938
:10F4E00083D7C1A00145638B071003D5E1A06366F4
:10F4F000F50023A601A0014582803385A740D147AE
:10F500003355F5021375F50F01E5239601A08280AE
:10F51000130101BD2324814223261142232291425B
:10F5200023202143232E3141232C4141232A5141C1
:10F5300095471374F50F63F3A7001544228697D5FA
:10F540000300938525372545EFB05052014981448A
:10F55000938901A1514AA14A9377F90F03D5E1A0FC
:10F560001757FF1F034717C563EA8704D1473304C2
:10F57000F40226860C082A94239781A0A147631BD6
:10F58000F7060945EF40806503D7E1A083D7C1A006
:10F5900005456364F70023A601A08320C14203242C
:10F5A000814283244142032901428329C141032A24
:10F5B0008141832A4141130101438280B3074903FA
:10F5C0001408AA97CE9733859600631E5701BE850F
:10F5D000EF40D0022317A1008357E1000509BE9434
:10F5E000C204C18095BFAA851306E1003E85EF9055
:10F5F0000072DDB70145EF60A06079B7828001112C
:10F6000006CE22CC26CA4AC84EC691E901442285BC
:10F61000F2406244D2444249B24905618280AA89DB
:10F6200075D583D7018603D6E1852E849564638AD8
:10F63000C7006374F60015673A961D8E9314060191
:10F64000C180268697D50300938505192545EFB01F
:10F65000F041938714F06356F4009307F00F63EAC8
:10F66000970097D503009385A5182545EFB0104066
:10F6700071BF83D4018633878400956763C7E70031
:10F68000A2854E856939953159B715693309994075
:10F69000420913590901CA854E85513125D9ED75A5
:10F6A000A695A295C20523900186C18133852901C3
:10F6B000D1BF83D6C1A081EA97D503009385C51930
:10F6C00025456FB0F02503D6E1A04111918E97D565
:10F6D000030093856519254506C6EFB030391387B9
:10F6E000C1A08355070083D7E1A0138501A19D8D9B
:10F6F000C2053E95C1812137B24023A601A0410138
:10F700008280411183D7C1A022C426C206C6AE970B
:10F7100013070020AA842E84635AF700593F97D517
:10F720000300938525112545EFB0901F83D7C1A015
:10F73000138501A12286A6853E95EF80A35203D6AC
:10F74000C1A0229642062244B240924441822396AE
:10F75000C1A097D503009385650F254541016FB082
:10F76000F030011126CA06CE22CC4AC84EC652C479
:10F7700056C2814459C1D1C183D7E18503D40186E2
:10F78000638D870663F587081D8C42044180AE892E
:10F790002A89228697D50300938585000145EFB01D
:10F7A000F02CA28463F38900CE84C2040D6A83D74F
:10F7B000E18503D70186C180938AC185130A0A8037
:10F7C00063FAE704A6864A86B38547012D4597105C
:10F7D000FF1FE780E0EA83D72A00A697239FF184E2
:10F7E000EFF0BFB083D6018603D6E18597D503003D
:10F7F000938545FC2545EFB07027F240624426858D
:10F800004249D244B249224A924A05618280156730
:10F810003A949DBF15671D8FB385470163D5E400FA
:10F82000A6864A8665B79569B389F9406D743E949A
:10F83000C20993D909012694CE864A8642042D45F1
:10F840009710FF1FE780C0E34180A286330639018D
:10F85000D2852D45239F01849710FF1FE78040E24A
:10F8600083D72A003E94239F81849DBF93870105FF
:10F870000547238CE70018411045544598C30357AA
:10F88000450090C7D4C7104954492392E70090CB54
:10F89000D4CB239DB7008280184193870107104580
:10F8A00098C303574500544590C72392E700585525
:10F8B0001049D4C7544998CF97D503009385C50DF7
:10F8C0000547254590CBD4CB238EE7006FB050057C
:10F8D000397126DA4AD84ED652D456D25AD006DEDC
:10F8E00022DC62CE66CC2A89EF90E3109374F50F88
:10F8F0008149254BE54A17DA0300130AAAFF91EC68
:10F90000F25062544E85D2544259B259225A925AF8
:10F91000025B724CE24C216182800347090093072D
:10F9200007FD93F7F70F637CFB009307F7F993F755
:10F93000F70F63E2FA06930797FA93F7F70F13941A
:10F9400087016184FD14230089002685EF70234F11
:10F950002A86AE8603250A0083254A0093F4F40F15
:10F960000509EF0021162AC422852EC6EF70234D0B
:10F970002246B246EF60437D2A8C4E85AE8CEF70F6
:10F9800023532A86AE866285E685EF50D310EF704A
:10F990004345AA89ADB79306F7FB93F6F60F814767
:10F9A000E3EFDAF8930797FC49BF411122C406C67A
:10F9B000830795022A8499C713059502EF80C32710
:10F9C0002385A1008307D41291CB1305D412EF80B5
:10F9D0004326EF800308938781FDC8D3B2402244B9
:10F9E00041018280011126CA9304150022CC97D5CB
:10F9F0000300938565FE2A84268506CE4AC84EC636
:10FA0000EFB01016631E051097D50300938505FD12
:10FA10002685EFB0F0146302050E85448307D403F6
:10FA20006386070C13059402EF800321854913793F
:10FA3000F50F1305D4036387340F8947638CF418DB
:10FA4000EF80831FA386A100631A3901794681459F
:10FA50001385F10223810186EFE0FF988307D40824
:10FA600085C31305D408EF80231D03C721869307A0
:10FA700017002381F186938781FDBA97A38BA70492
:10FA80008307D40D85C31305D40DEF80E31A03C794
:10FA90002186930717002381F186938781FDBA970A
:10FAA000A38BA7048307D41285C31305D412EF8058
:10FAB000A31803C72186930717002381F186938734
:10FAC00081FDBA97A38BA7048307D41785C31305B9
:10FAD000D417EF80631603C721869307170023818D
:10FAE000F186938781FDBA97A38BA704F240624405
:10FAF000D2444249B2490561828097D5030093857B
:10FB000025EE2685EFB0D005E31905F0268597D5BB
:10FB10000300938525EDEFB0B0048944E31005F0B0
:10FB20008144EDBDEF8043112387A100631A990042
:10FB3000794681451385110123810186EFE0BF8A53
:10FB40008307D40885C31305D408EF80E30E03C7E9
:10FB50002186930717002381F186938781FDBA9749
:10FB6000A38CA7028307D40D85C31305D40DEF80A2
:10FB7000A30C03C72186930717002381F18693877F
:10FB800081FDBA97A38CA7028307D41285C31305FE
:10FB9000D412EF80630A03C72186930717002381DD
:10FBA000F186938781FDBA97A38CA7028307D417A8
:10FBB000E38E07F21305D417EF80030803C72186ED
:10FBC000930717002381F186938781FDBA97A38C51
:10FBD000A70229BFEF804306A387A10001BF4111FF
:10FBE00022C406C6830795072A8499C7130595077B
:10FBF000EF808304A385A1008307D40899C7130568
:10FC0000D408EF8063032386A1008307540B91CBB4
:10FC10001305540BEF80E301EF70B363938781FD0D
:10FC200088D7B240224441018280411122C426C2B9
:10FC300006C6830715058144014499C70344450559
:10FC4000130404FD1374F40F8307550699C71305B5
:10FC50005506EF70737E9374F50F2286A68697D5AE
:10FC60000300938525D92545EFB040601374B40F88
:10FC70008D47631FF4009D4763FC97009757FF1F54
:10FC800083C727DB93E747001757FF1F2303F7DAE4
:10FC9000B2402244924441018280011126CA814629
:10FCA000B284014652C456C206CE22CC4AC84EC6C1
:10FCB0002A8AAE8AEF60632C41CD9307E004638605
:10FCC000F400930730056395F40897D903009389EE
:10FCD00069CE03A6090083A649005285D685EF6048
:10FCE000A34637949800EF70C30F130404682A8961
:10FCF00033758502EF70C31B03A6090083A6490074
:10FD0000EF50734C97D70300938747CB9043D4436E
:10FD1000EF50734B2A8A33558902AE8AEF7043192C
:10FD20002A86AE865285D685EF50E35613073005F6
:10FD3000AE876395E400B7070080AD8FF240624460
:10FD4000D2444249B249224A924ABE850561828024
:10FD500001458147E5B7011126CA8146B2840146B3
:10FD600052C456C206CE22CC4AC84EC62A8AAE8A91
:10FD7000EF60A32041CD930750046386F4009307FE
:10FD800070056395F40897D903009389A9C203A667
:10FD9000090083A649005285D685EF60E33A37947F
:10FDA0009800EF700304130404682A8933758502F0
:10FDB000EF70031003A6090083A64900EF50B3407B
:10FDC00097D70300938787BF9043D443EF50B33F47
:10FDD0002A8A33558902AE8AEF70830D2A86AE8651
:10FDE0005285D685EF50234B13077005AE87639578
:10FDF000E400B7070080AD8FF2406244D24442492C
:10FE0000B249224A924ABE850561828001458147F6
:10FE1000E5B7135785009357050113D885009376EE
:10FE2000F50F01111377F70F93F7F70F618593F52E
:10FE3000F50F1378F80F99C211C3B9E3230CD10061
:10FE4000A30CE100230DF100A30DA10003459101D6
:10FE5000834781010347A1012205A30E0101420747
:10FE6000C98F230EB1000345B101D98F0347D101DA
:10FE70008345C101620522075D8DD98D05618280B0
:10FE800032951375F50F13138501135383415D46A6
:10FE90006357660861463363C30285071376D70F3D
:10FEA000114593F7F70F6305A6002545631AA600D1
:10FEB0007946637FF60205071377F70F85470DA88C
:10FEC00009466312C7041386067D93084006B3688B
:10FED00016036385080013F5360011C513050019D4
:10FEE0003366A60219EE75466374F60085470D4722
:10FEF000230CD100A30CE100230DF100A30D610040
:10FF0000B1B77146D5B77D46E374F6FEB147E31449
:10FF1000F7FA850693F6F60F85470547D1BFE359F3
:10FF200003FC6105FD171313850193F7F70F1353B6
:10FF30008341DDFF7D171377F70F1146F947E3097A
:10FF4000C7FA1946E306C7FA2546E303C7FA2D4662
:10FF5000E300C7FA89476316F7021386067D930705
:10FF60004006B367F60291C793F83600F547E38180
:10FF700008F893070019B367F60293B71700F10763
:10FF800085BFFD4735F7FD1693F6F60F31478DB760
:10FF900083471500034705000111A2075D8F8347C2
:10FFA00025008346350006CEC207D98F034755008A
:10FFB000834545001746FF1F130646090306E62042
:10FFC000E206220733E5F600D98DA13513588500E6
:10FFD0001356050193D7850013F7F50F93F7F70F25
:10FFE000935685011376F60F9375F80F1375F50F79
:10FFF000EF7030649747FF1F83C757050547638538
:020000021000EC
:10000000E70011476396E700F24005616F70F071F9
:10001000F24005618280497123248116138481FD99
:100020008307340083C8D1FD03C8C1FD03C7A1FD08
:1000300083C691FD03C681FD97D503009385859EF8
:100040004810232611162322911623202117232E30
:100050003115EF80D3124810EF80F31918485C482F
:10006000030604033AC03EC2030814035C44184468
:10007000541097D503009385E59C3695EF80331097
:100080004810EF8053175C103E958307640017D625
:1000900003001306A69889C717D603001306869790
:1000A00097D5030093854526EF80730D4810EF80A8
:1000B0009314544C104C5C1097D50300938585998C
:1000C0003E95EF80D30B4810EF80F3120306340304
:1000D0005C103E9597D5030093858598EF80330A91
:1000E0004810EF80531103072403AA8448503ACEE6
:1000F000138481FDEF70330B72475C10AE862A8645
:1001000097D503009385C59633859700EF80330715
:100110004810EF80530E5C1003C6C10097D5030052
:10012000938585963E95EF8093054810EF80B30C3C
:100130005C1097D50300938525963E95EF80930A32
:10014000138961FFA28497D903009389691B03C6B1
:10015000740519CA481032CEEF80F30972465C105C
:10016000CE853E95EF80B3018504E39224FF4810CD
:10017000EF8073085C1097D50300938565923E95D8
:10018000EF80530697D403009384841703469403A7
:1001900019CA481032CEEF80130672465C10A6854D
:1001A0003E95EF80C37D0504E31224FF4C102545E6
:1001B000EFA010778320C1160324811683244116F3
:1001C000032901168329C11575618280411122C45A
:1001D00006C626C2830755012A84B9C7A946938754
:1001E00007FDB387D70203476501130707FDBA97D9
:1001F000A38DF1FC0307750183478501130707FDF4
:100200003307D702938707FD3E97238EE1FC8307D0
:1002100095010347A501938707FDB387D70213070D
:1002200007FDBA97A38EF1FC8307940281CB1307D5
:1002300010046391E7148547238FF1FC8307D403EF
:10024000938481FD99C71305D403EF70931E88C46E
:10025000CCC40306140509CA8844CC442384C100D5
:10026000EFF0BFA388C4CCC48307540699C7130515
:100270005406EF70131C88C8CCC80306940709CA3B
:100280008848CC48A384C100EFF0FFAC88C8CCC834
:100290008307D40899CF1305D408EF70931997C733
:1002A00003009387A7749043D443EF50F36988CC3D
:1002B000CCCC8307140A99C71305140AEF70D3171F
:1002C000239CA1FE8307540BB9C7A946938707FD5A
:1002D000B387D7020347640B130707FDBA97238D33
:1002E000F1FC0307740B8347840B130707FD3307E7
:1002F000D702938707FD3E97A38CE1FC8307940BFD
:100300000347A40B938707FDB387D702130707FDA5
:10031000BA97238CF1FC83853400856703C6C1FD41
:10032000938707E11307C0033307E60283C6D1FDB5
:10033000B387F502BA97B69723A2F1001747FF1FBC
:100340001307076F835707003A8413F5870039E1D5
:10035000038564000547631FE50203C7A1FD11EF94
:100360008844CC4401468146EF50334105E9238F50
:1003700001FCB9A0238F01FCD1B5FDD175D2EDD21E
:1003800093E78700138581FD1747FF1F2312F76A44
:10039000EFF01FC083876400E1F7D1BF8848CC48E5
:1003A00001468146EF50733D79D183C7A1FDE1D36A
:1003B00013068007938581FD138501F6EF70930A7C
:1003C00003C501C19D4705053365F5021306800786
:1003D000938581FD2388A1C0930780073305F5022B
:1003E000938781C13E95EF70F307EFF0DFC25C5455
:1003F0002244B24092441747FF1F2325F766130695
:1004000080078145138581FD41016FD0DFFD0171BA
:10041000232C811E232A911E1306101E2A84AE84CB
:1004200068008145232E111E2328211FEFD0BFFB1A
:1004300081458147014701465148CD485D436340AE
:10044000960899C12306F1001306A002A68522850D
:10045000EFA0506F8347C10051473386A440B38754
:10046000E7029305150078007D16A29585073305F0
:10047000F700EF70237F1306A002A68522850349AB
:100480001400EFA0306C894763C3A7080345C1007F
:10049000D1473305F5027C0005053E95EFF04FC3CB
:1004A000631CA904194697C503009385A55113053C
:1004B000D100EFA0907625C56800093B35A8B306AA
:1004C000C40003C50600930665FD93F6D60F91EAB6
:1004D000850793F7F70F6361F3028545014705062A
:1004E000B9BFB3860703130E011FF296BA96A38E07
:1004F000A6E00507E3D5E8FE8320C11F0324811F82
:100500008324411F0329011F130101208280330727
:10051000F4000347070085073349E900B5B71946DA
:1005200097C503009385454A1305D100EFA0F06EEF
:1005300039E9194697C50300938545491305D1004C
:10054000EFA0B06D0DED194697C5030093854548A2
:100550001305D100EFA0706C19ED194697C5030083
:10056000938545471305D100EFA0306B51D5680046
:10057000EFF0AFEB51B76800EFF0CFC6B5BF680042
:10058000EFF0EFE595BF6800EFF02FC2B5B77571DA
:1005900022C526C34AC1CEDED2DCD6DADAD806C7F7
:1005A000AA892E89814401448147130A4002854A61
:1005B000354B139704014183636C2701BA402A44E9
:1005C0009A440A49F659665AD65A465B496182806E
:1005D000338799000347070063004703639C570173
:1005E000631D67019C18A297A2856800238E07F8F7
:1005F000393D8147850475BF01449C18A2970504C5
:100600001374F40F238EE7F893373406E5B74111DE
:1006100006C6138501C1834705001307800781457E
:10062000B387E70213068007A1073E95EFD0BFDB33
:10063000B2408145114541016FB0C064138501C1CD
:100640008347050013078007B387E702A1073E959C
:100650008280138501F68280397126DA97C40300FF
:100660009384C42662CC66CA328CB68C9040D44047
:1006700006DE22DC4AD84ED652D456D25AD05ECEAE
:100680006AC842C046C217C403001304A4243AC473
:100690003EC6EF50732B1040544017CD0300130D8E
:1006A000ED23EF5043322247B2479040D4402A8A8C
:1006B000AE8A3A85BE85EF50332910405440EF5042
:1006C00083302A89AE892A86AE865285D685EF5038
:1006D000337303260D0083264D00EF50F326EFF011
:1006E00040292A8BAE8B5285D685EFF0601F2A8A6F
:1006F000AE8A4A85CE85EFF0A01E024892482A892C
:100700004286C686AE896285E685EF50736F90405B
:10071000D440EF50732310405440EF50C32A0326B7
:100720000D0083264D00EF503322EFF080242A8401
:10073000AE844A86CE865285D685EF50F320228637
:10074000A686EF5073202286A686EF50F31F2A84D8
:10075000AE845A86DE865A85DE85EF50F31E2A86E1
:10076000AE862285A685EF401333EFF00068EFF0E8
:1007700080292A86AE86EF40133297C703009387FD
:1007800067169043D443EF50331C97C703009387F9
:10079000E7159043D443EF50331BF2506254D254C8
:1007A0004259B259225A925A025BF24B624CD24CD5
:1007B000424D216182809747FF1F83C7F72781CF72
:1007C0009747FF1F83D787A9FD17C207C183130768
:1007D000A0036375F70023A40186828071714ECF58
:1007E0009389818683A7090056CB938A01C1850727
:1007F00022D526D352CD5AC95EC762C566C36AC127
:1008000006D74AD123A4F18683C401C1014A130C3F
:100810008007568497CC0300938CCC14054D9D4BD8
:10082000154B3389840356998307E900F1CF03A65A
:100830000C0083A64C000325090283254902EF50D2
:1008400053056343050C83470904638FA70B931774
:100850001A001808BA97035789022390E7003C0052
:10086000D29723809700050A9904B3E47403E31A2E
:100870006AFB0357810183570101998F13D7F74111
:10088000B98F998F939407011307400BC180635868
:10089000F70093078016B3849740C204C180268670
:1008A00097C503009385850C6808EF80430D6C089D
:1008B0002545EFA0F006938714FFC207C18379474F
:1008C000636FF70803499100130A800785450145C6
:1008D00033094903210922994A86EF80302F834446
:1008E000B10085450145B3844403A104A294268642
:1008F000EF80D02D4A868D450945EF3080522686FF
:100900008D450945EF30E05183A709001747FF1FC8
:100910000357C79463E7E70203C501C19304800747
:1009200033059502B307A4000387E70019CB03C77B
:10093000C10893850107631B070E21052295EFE08F
:10094000BFF5BA502A549A540A59FA496A4ADA4AFF
:100950004A4BBA4B2A4C9A4C0A4D4D618280930700
:10096000D002E3F397FA834B8100930A8007854511
:10097000B38B5B030145138C8B00229C6286EF8056
:10098000F024034B910085450145330B5B03A29B8B
:10099000210B229B5A86EF807023034AA1008545D4
:1009A0000145330A5A03210A229A5286EF80102207
:1009B0000349B100854501453309590321092299AD
:1009C0004A86EF80B0208344C10085450145B38449
:1009D0005403A104A2942686EF80501F62868D45A1
:1009E0000945EF3000445A868D450945EF30604394
:1009F00052868D450945EF30C0424A868D450945EE
:100A0000EF30204226868D450945EF30804183C76F
:100A100001C1B38A570303A74B03A29A83A74A03D2
:100A2000E314F7EE85472380FA04F9BD03A8870194
:100A300083A8C701984B9049DC4BD4498845CC45E5
:100A4000EFF09FC12A86AE862A89AE89680897C5CD
:100A500003009385A5F2EF7093726C082545EFA013
:100A6000206C1735FF1F03456568EF60433D2A86FC
:100A7000AE864A85CE85EF50E356E354A0EC03C61C
:100A800001C1330696028545014521062296EF8075
:100A9000F01303C601C1330696028D4509452106B0
:100AA0002296EF30003803C501C1330595022105B8
:100AB0002295EFE07FDE23A4018661B513060002D4
:100AC0008145138501056FD01F929747FF1F83C78C
:100AD000B7F691E723A6018623A201868280973785
:100AE000FF1F83C7B75609476388E700F11793F7DD
:100AF000F70F0547E360F7FE797122D426D24AD07A
:100B000006D64ECE52CC56CA5AC8138901C103C468
:100B100001C1EFB0A00CCA846301051893068007D9
:100B2000B305D4029387C1869C43850723A6F1862B
:100B3000CA950387E50063020716138741861843A9
:100B40001306170023A2C18611466362E6022254EF
:100B5000B25092540259F249624AD24A424B97C566
:100B60000300938525DB254545616FA0207003C6F2
:100B700081061387010515E603C501C13305D502BA
:100B80009745FF1F83D585ED21054A952254B25024
:100B900092540259F249624AD24A424B45616FE08F
:100BA000FFCC638C070E23A6018603280701832848
:100BB00047015C47904DD44D18478849CC4917CB25
:100BC0000300130BABD31744FF1F130464E6EFF0CD
:100BD000BFA803260B0083264B002A89AE89EF505D
:100BE000434B173AFF1F130A6A4683DAA106635084
:100BF000A00497C703009387E7D09043D4434A8566
:100C0000CE85EF50233E634805005C540547B3870B
:100C10005741637EF70003250A2583254A254A8626
:100C2000CE86EF4043672328AA24232ABA24032828
:100C3000C4021735FF1F0345E5663308584142C615
:100C4000EF60E31F97C70300938747CC9043D443DB
:100C5000EF40735703260B0083264B00EF40A3633E
:100C600003260A2583264A25EF50034E3248AE87D5
:100C70002A8797C50300938525CB25454A86CE86CE
:100C8000EFA0C05E03C501C1930780073305F502DD
:100C90008355C40221052695D5BDB25022549254E5
:100CA0000259F249624AD24A424B456182809147D9
:100CB00063E1C70A17C70300130747DF0A063A961E
:100CC0001C42411122C406C6BA972A84828797D54E
:100CD0000300938565FE1145EFA08044A285114570
:100CE000EFA000442244B24097D50300938585FECF
:100CF000114541016FA0C042A9CA9042EF40107D4A
:100D00002244B240014697650000938505AD3D45FC
:100D100041016F30D01E95CA2244C8C2B24003C5FB
:100D2000A6002394B6003686954541016F80006A7F
:100D30002244B24041016FE0B0282244B2402E86E6
:100D4000AA85410109456F30C059B2402244410192
:100D500082808280411106C6EF90802FB24041010F
:100D60006F80907B411122C426C206C6138401877E
:100D70009734FF1F9384944D83C7018791E7B24056
:100D8000224492444101828081452685EFD000793A
:100D90008347040085072388F186F9BF55715810F1
:100DA00093063102130621029305110293075102A3
:100DB0001305610286C7EF70A0019747FF1F938755
:100DC00027C783D70700BD9B1747FF1F2312F7C60E
:100DD000EFF0DF86030305039305E0048356610209
:100DE000034711028347210203483102834841022D
:100DF000034E510217D60300130686756316B3001F
:100E000017D6030013064661830E1503130350041F
:100E1000032F8500832FC50097D503009385C55FF9
:100E200063866E0097D503009385857203230501C1
:100E3000832345017AC41ACC1ECE7EC672C02EC84A
:100E400032C297D50300938525CE1736FF1F1306B0
:100E5000A6082810EF70B332EF8040712810EF70B1
:100E60009339938741879043931505019386010930
:100E70002810C1812D3DBE4069618280411106C6A6
:100E800023AAB18601C61C4223A8F1089737FF1F89
:100E900083C7371C8DEB0545EFB0A04197C5030014
:100EA000938505CD2545EFA0A0279747FF1F83D742
:100EB00027B8B24093E707011747FF1F231AF7B679
:100EC00041016F80E06905470545639CE700EFB08D
:100ED000403E0545EFA0906197C50300938585CA04
:100EE000D1B7EFB0003D0545EFB000400545EFA09C
:100EF000F05F97C50300938565CA6DB7411122C4A1
:100F00002A848307D40306C626C22E8589C7130701
:100F1000F003639CE7029737FF1F83C7F737173744
:100F2000FF1F130777199736FF1F9386D6151736BD
:100F3000FF1F1306361297C50300938565D122441F
:100F4000B240924441016F7093239737FF1FA383F0
:100F500007109737FF1FA38807129737FF1FA38D2E
:100F60000714034704008547AE8463FAE70093053E
:100F7000D4031735FF1F1305F50DEF70B326830754
:100F8000940791CF03470400894763FAE70093056C
:100F900094071735FF1F1305150FEF70B324830750
:100FA000540B91CF034704008D4763FAE700930584
:100FB000540B1735FF1F13053510EF70B32283074D
:100FC000140F91CF03470400914763FAE70013051C
:100FD000140FEF6073469737FF1FA38FA72A0146B0
:100FE00097450000938525641305C012EF302071EA
:100FF000EF50B04A9737FF1F83C7172A1737FF1FD5
:101000001307970B9736FF1F9386F6071736FF1FB8
:101010001306560497C503009385C5C6268505B7F4
:10102000411126C206C622C4034705008947AE8483
:1010300063F5E7029305D5032A841735FF1F1305CF
:1010400065FAEF70331A13059407EF60F33E973794
:10105000FF1F239BA7FEEF50D03EEF5090429736E4
:10106000FF1F83D666FE1736FF1F1306A6F797C528
:1010700003009385251A2685EF70731085479735F1
:10108000FF1F938565E51735FF1F130565F41737B7
:10109000FF1FA303F7EAEF70F3149735FF1F938543
:1010A00075FB1735FF1F130545E9EF70B31397352F
:1010B000FF1F938555FD1735FF1F130525EBEF70B7
:1010C00073129735FF1F938535FF1735FF1F1305E3
:1010D00005EDEF70331197B503009385E5F31735F0
:1010E000FF1F130545F3EF70F30FEF5090350146E6
:1010F000974500009385054C7945EF3040602244C8
:10110000B24092440146976500009385056313053C
:10111000000541016F30A05E411122C426C24AC0C1
:1011200006C68307D503AE8417C90300130909E96E
:101130001744FF1F1304C48F89C71307F00363917B
:10114000E7041735FF1F034555FAEF50534F0326A9
:10115000090083264900EF401307EF60930F28C072
:10116000EF607304AE862A8697C50300938585E5F4
:101170002244B24002492685924441016F703300F7
:101180001305D503EF60532B9737FF1FA38FA7F4E9
:101190001375F50FEF50B34A032609008326490063
:1011A000EF407302EF60F30A28C0EF50102F284081
:1011B000EF60637FAE862A8697C50300938585E23C
:1011C00045BFAA870387D7032E8509C79306F00377
:1011D0006315D7029737FF1F83C797E717C603002A
:1011E0001306C6DA89E717C603001306A6DA97C501
:1011F00003009385A5DB6F70837841111385D703B6
:1012000006C622C42E84EF6033239737FF1FA381C5
:10121000A7E4EF5090289737FF1F83C777E397C560
:1012200003009385A5D789E797C50300938585D7E4
:1012300022852244B24041016F70C37A411126C217
:1012400006C6AA8422C48387D4032E8589C71307C0
:10125000F0036396E7049737FF1F83C797DF0547BF
:101260006385E70289CB09476386E702B2402244DF
:1012700092444101828097C503009385E5DA2244B8
:10128000B240924441016F70E37597C503009385A6
:1012900025DCF5B797C50300938545DECDB793846C
:1012A000D4032E84268597C50300938525E0EF702F
:1012B000A37A1DC189471737FF1FA30CF7D897C51D
:1012C00003009385E5E22285EF70C3712244B240AA
:1012D000924441016F50701C2685EF60F315137521
:1012E000F50F9737FF1FA386A7D6854797C503003D
:1012F000938505DEE309F5FC97C50300938585DB3F
:1013000079D18947E30DF5FA1737FF1FA303F7D407
:1013100097C50300938505E07DB741112E8597C5DC
:101320000300938525E706C6EF70C36B014697451A
:101330000000938525287945EF30603CB240014696
:10134000976500009385653F1305000541016F30E7
:10135000003B411122C426C206C68307D503AE84D2
:101360001734FF1F130484CE89C71307F003639B50
:10137000E7028306E42017C603001306A6ED63D632
:10138000060017D6030013062609268597C5030015
:10139000938585ECEF70A35E2244B24092444101F4
:1013A0006FA0A0331305D503EF6013099737FF1F14
:1013B0002385A7EAEFA060320306E42097C5030067
:1013C000938545EB2545EF90706A8347E42061479C
:1013D000B10793F7F70F6377F700A1471737FF1FA0
:1013E000230DF7E6EF50700B8306E42017C60300C9
:1013F000130646E663D6060017D603001306C60199
:101400002244B2402685924497C50300938505E7A0
:1014100041016F70C35679719307D1017808930623
:10142000B1011306A10122D41305E1012E84930515
:10143000910106D626D24AD0EF609019EF90E0498C
:101440008348D1010348C1018347B1010347A1018A
:10145000834691010356E10197C503009385059EDC
:10146000AA842285EF70A3512285EF70C358973765
:10147000FF1F9387E75BCC5703A847030566130656
:1014800006E19306C00333F3C50222953377D802F1
:10149000B378C8023AC09C5733F7D502B3D8D80204
:1014A0003358C802B356D30233D6C50297C50300DA
:1014B0009385059BEF70A34C2285EF70C3533309CE
:1014C000A400EF90607E17C603001306E69609C5D8
:1014D00017C603001306069697C503009385459C1F
:1014E0004A85EF70C3492285EF70E3501736FF1F1E
:1014F0000346465897C503009385859B2295EF7058
:1015000003482285EF70234F9040D454CC40894744
:101510002295058A858A17C703001307A79163865A
:10152000F50017C703001307279103A80403894593
:1015300097C70300938707906306B80097C7030017
:101540009387878F97C503009385C597EF702343D3
:10155000B25022549254025945618280AA8703876F
:10156000D7032E8509C79306F0036311D702973777
:10157000FF1F83C727AE97B503009385E56389E70F
:1015800097B50300938545666F70C3454111138578
:10159000D70322C406C62E84EF60036A1375F50FC5
:1015A0009737FF1F2388A7AA1737FF1F034717AADC
:1015B00089476316F7000DE91145EFA020739737AF
:1015C000FF1F83C727A997B503009385656389E744
:1015D00097B50300938505662285EF70A3402244EA
:1015E000B24041016F50606B1145EFA0C075C1BFA3
:1015F000AA870387D7032E8509C79306F003631EC6
:10160000D7029737FF1F83C7C7A40547638DE7003D
:1016100089C70947638EE700828097B503009385E9
:10162000256A6F70233C97B503009385A56DD5BFE0
:1016300097B503009385C572EDB741111385D703A4
:1016400022C406C62E84EF60235F1375F50F97370B
:10165000FF1F2380A7A0854797B503009385856A60
:101660006306F50297B503009385856505C1894733
:1016700097B503009385C56E630AF5001737FF1F02
:101680002309F79C97B50300938545732285EF7076
:1016900063352244B24041016F502060AA8703871E
:1016A000D7032E8509C79306F003631CD7001736AE
:1016B000FF1F0346A6A397C503009385A5876F70F8
:1016C000032C41111385D70306C622C42E84EF6074
:1016D00023579737FF1F238BA7A0EF50005C22856D
:1016E0002244B2401736FF1F034646A097C50300A9
:1016F000938585864101E1B7411122C469452E8455
:10170000814506C6EF309059EF50C04F2A8622859A
:101710002244B24097C503009385858641016F70CE
:101720000326411122C41305D5032E8497B5030067
:101730009385457B06C6EF90B04211CD0145EF5031
:10174000406097B503009385A57A22852244B24074
:1017500041016F7023290545EF50A05E97B5030046
:101760009385C57ADDB7411122C42A848307D40347
:1017700006C626C22E8589C71307F003639CE702BD
:101780009737FF1F9387F79F1737FF1F1307579C44
:101790009736FF1F83D666AD1736FF1F13063698A0
:1017A00097C50300938545A12244B240924441016C
:1017B0006F70E31CAE841735FF1F13055596930514
:1017C000D403EF7023221735FF1F13055595EF70D3
:1017D000832293150501C1811735FF1F1305359429
:1017E000EF9090738307940789CB13059407EF60FC
:1017F000A3449737FF1F239AA7A68307540B85CBD3
:101800009305540B1735FF1F13059594EF70831D37
:101810001735FF1F1305D593EF70E31D93150501D1
:10182000C1811735FF1F1305B592EF90F06E830746
:10183000140F85CB9305140F1735FF1F13057594EF
:10184000EF70431A1735FF1F1305B593EF70A31AF6
:1018500093150501C1811735FF1F13059592EF9070
:10186000B06BEF5080439737FF1F938797911737DF
:10187000FF1F1307F78D9736FF1F83D6069F173676
:10188000FF1F1306D68997C50300938525942685E7
:1018900021BF011106CE2EC6EFA0A0318547173714
:1018A000FF1FA30BF79AEF50403F3245F24097B528
:1018B00003009385255705616F70C312011106CE91
:1018C0002EC6EFA060309737FF1FA3870798EF5011
:1018D000C03C3245F24097B503009385255505611C
:1018E0006F704310411122C426C206C68307D50378
:1018F0002E849724FF1F9384647589C71307F00310
:101900006393E70203A58423EF60E3092A86228517
:101910002244B2409244AE8697C503009385058366
:1019200041016F70C3051305D503EF60E330EF503D
:10193000035197B70300938767689043D443EF4000
:101940008308EF60031123ACA422EF60C3052A864D
:10195000AE86228597C5030093858581EF702302AB
:101960002244B240924441016F502033AA8703873A
:10197000D7032E8509C79306F003631CD7001736DB
:10198000FF1F0356A68D97C50300938525866F60BC
:10199000137F41111385D70306C622C42E84EF603E
:1019A000A329131605019737FF1F2399A78A4182A0
:1019B00097C503009385C5842285EF60537C9727E4
:1019C000FF1F83C7B76809476388E700F11793F7DC
:1019D000F70F0547636AF7009737FF1F83D707881C
:1019E00089EB0945EFA020362244B24041016F50F7
:1019F000C02AEFA0A01E75D51737FF1F0357078613
:101A00009307B003E3EFE7FC0945EFA0202EE9BF01
:101A1000130101D736C493160501232A5127232821
:101A2000612723261128232481282322912823207B
:101A30002129232E3127232C4127232671272324D4
:101A40008127232291272320A127232EB125230894
:101A50000104C182130760022E8BB28A6374D7001F
:101A60006F10403C97B503009385850593162500BC
:101A7000AE9698422E9702871727FF1F034797734A
:101A8000A1476312F70C19462C101725FF1F1305E9
:101A9000F545EF90F0218808230A01028008EF60E5
:101AA00093759727FF1F83D7677C1727FF1F13079F
:101AB000B7739726FF1F93862642301097C5030001
:101AC000938585812295EF60936B8808EF60B372F0
:101AD0009C081726FF1F1306F6573E9597C503006F
