:040000006F2000333A
:1000040000000000000000009000002022050020F5
:10001400A9BDF9F5940000200000000000000000D4
:10002400960000209800002000000000000000005E
:100034009A000020000000009C0000200000000046
:100044009E0000201603002044030020A40000208A
:10005400A6000020A8000020AA000020AC00002078
:10006400AE000020B0000020C60000205A0100208D
:100074009E050020B8000020BA000020BC0000202B
:10008400BE000020EE01002082020020C4000020F7
:1000940001A001A001A001A001A001A001A001A054
:1000A40001A001A001A001A001A001A001A001A044
:1000B40001A001A001A001A001A001A001A001A034
:1000C40001A001A001A037370040834747009946AB
:1000D4004111BD8B638CD70231476384E706114716
:1000E400639EE702A30301001746000003468667E8
:1000F40037370040834771006315F6022C001385DF
:10010400817897C000E0E780E00B09A88347570097
:1001140093F7F70F2304F100834781004101730033
:10012400203083477100834687000C08AE97238CE8
:10013400D7FE83477100850793F7F70FA303F100F8
:1001440055BF2800973001E0E78060B31375F50FC1
:10015400A303A1000346710055B737370040834716
:10016400474099464111BD8B638CD7023147638464
:10017400E7061147639EE702A30301001746000048
:100184000346665E37370040834771006315F60205
:100194002C001385C17997C000E0E780A00209A86C
:1001A4008347574093F7F70F2304F10083478100F7
:1001B40041017300203083477100834687400C0857
:1001C400AE97238CD7FE83477100850793F7F70F0B
:1001D400A303F10055BF2800973001E0E780E0BB9E
:1001E4001375F50FA303A1000346710055B73747F4
:1001F40000408347478099464111BD8B638CD702E9
:1002040031476384E7061147639EE702A3030100B5
:1002140017460000034616553747004083477100D0
:100224006315F6022C001385017B97C000E0E7807C
:1002340060F909A88347578093F7F70F2304F10067
:100244008347810041017300203083477100834656
:1002540087800C08AE97238CD7FE834771008507EF
:1002640093F7F70FA303F10055BF2800973001E07F
:10027400E78060C41375F50FA303A1000346710062
:1002840055B737470040834747C099464111BD8B56
:10029400638CD70231476384E7061147639EE70204
:1002A400A3030100175600000346268B374700407E
:1002B400834771006315F6022C001385417C97C0B7
:1002C40000E0E78020F009A8834757C093F7F70FB1
:1002D4002304F100834781004101730020308347E8
:1002E4007100834687C00C08AE97238CD7FE8347E2
:1002F4007100850793F7F70FA303F10055BF28009A
:10030400973001E0E780E0CC1375F50FA303A1005B
:100314000346710055B7411122C637140040835774
:10032400C40913973701635B0700BD450145971066
:1003340001E0E78060098567231EF4083244410127
:1003440073002030411122C6371400408357E4095A
:100354008357E4091397170163590700971001E0C5
:10036400E780C0FB9167231FF40832444101730006
:100374002030B7170040930670052380D704130775
:1003840080FA2380E7040100010003C6B704137652
:10039400F60DA385C70423800704137605024DC216
:1003A40003C6A700118A1DE22380D7042380E70433
:1003B4000100010003C7A700136747002385E70076
:1003C4009307004B01000100FD17EDFFB717004034
:1003D400930670052380D704130780FA2380E7046B
:1003E400010001007D892394A700010001000100A0
:1003F4000100238007042380D7042380E70401003D
:100404000100010001003727004093061005A303F3
:10041400D78023800704B717004013077005238093
:10042400E704130780FA2380E7040100010003C7EF
:10043400B70413670708A385E704238007048280B1
:100444001376050441C603C6A700418A1DE2238032
:10045400D7042380E7040100010003C7A700136742
:1004640007012385E7009307007D01000100FD17C4
:10047400EDFFB7170040930670052380D7041307D8
:1004840080FA2380E704010001001376F501136666
:1004940006042394C7000100010001000100238029
:1004A40007042380D704130660042380E704631839
:1004B400C5000100010037270040894689BF0100BB
:1004C4000100372700409306200591B72380D70405
:1004D4002380E7040100010003D787001367070C9A
:1004E4002394E7000DBF4111814601468145114522
:1004F40006C66922B7170040130770052380E70476
:10050400130780FA2380E7040100010003C767048E
:10051400136717002383E70423800704B2404101D3
:1005240082808146014681451145892AB7170040DA
:10053400930670052380D704130780FA2380E70409
:10054400010001007D562396C7022380D70423802F
:10055400E7040100010003C767041367170023833E
:10056400E7042380070401A0BD473305F502010019
:100574007D1575FD8280411122C426C206C6AA8457
:10058400014463179400B2402244924441018280A2
:1005940005041305803E4204C13F4180DDB7B7170F
:1005A4000040130700032388E7028547174700002C
:1005B4002324F77073002030411106C6852DFDBF3A
:1005C4002303048015472303E48001002302A4804D
:1005D400828083076480E3CE07FE23030480828045
:1005E40083076480E3CE07FE03454480828083074B
:1005F4006480E3CE07FE2302A4808280411126C4D6
:100604004AC24EC006C61377F50BAD47AA892E8998
:1006140095446306F70019456537653F8D444E855B
:100624004537FD59FD1463983401B240A244124980
:10063400824941018280135509011375F50F453F25
:100644002209CDB7011126CC06CEB70408005137D4
:100654001545BD37713769372AC6A53F32459377AB
:10066400150089EB136515001375F50FF240E2448C
:1006740005618280FD14E9FC0145CDBF397126DC9A
:100684004ADA4ED852D656D45AD25ED006DE62CE5C
:1006940066CCB7E700E07D5783AA070022C603AA09
:1006A400470023A0E71823A2E718B7170040130751
:1006B40070052380E704130780FA2380E70483C7C7
:1006C4004704930B75FFB684E20793FBFB0F854643
:1006D400AA892E8B328937240040E187015763FAB7
:1006E40076016308D5008946130700026313D50019
:1006F4000157D98F93F7F70FB71C00402382FC04EE
:1007040011472303E4801305F00F5D3D094CD135F7
:10071400636D7C11B7050700DA95378707007955B3
:1007240063F2E504B3879500636EF702370B0800A4
:10073400A94733EB65016399F90689E48144513D86
:1007440026850DA0DA850945553D05090345F9FFC0
:10075400FD14050B693D81C49377FB0FFDF7DD356F
:1007640069FD7D55B7170040130770052380E70422
:10077400130780FA2380E70403C74704418B2382CD
:10078400E704F250B7E700E023A0571123A2471172
:10079400E25432445259C259325AA25A125B825B11
:1007A400724CE24C21618280A5476395F906856904
:1007B4001309F00FB3069900B3742B01B6941349CF
:1007C400F9FFB3749900856B33796901416B9387A1
:1007D400F9FFB3F7270199E363FC340193D9490086
:1007E400C147E3E637FF99BF0569C1697D19D9B7E8
:1007F4001305800D63886901130500026384790180
:1008040013051008CA85DD3B353D21DD4E99B384BF
:100814003441D9B7DA852D45D533CA94E30099F22A
:1008240005097D3BA30FA9FED5BF9387F9FF93F775
:10083400F70F6361FC0C83C71C0413073008631FA4
:10084400F70437070800636BEB04B3079B00B70694
:10085400100063F5D704334BEB0089476393F90623
:100864008980D549E38C04ECDA850945413B1109BB
:100874000327C9FF91472320E48003076480E34EE4
:1008840007FE23033481FD17EDFBFD14110B81C416
:100894009377FB0FE9FF7D3371F5E1B5B71700409E
:1008A40003C75704B70708001377070219E3B7878C
:1008B40007007955E378FBEA33079B00E3FFE7F889
:1008C40055B58547E382F9F2DA852D45053B9389D1
:1008D400F4FFE38504E6293393F7390091EB83268B
:1008E40004800327090093074900E39AE6E43E895C
:1008F400CE84F1BFB5476396F9001305900BC93157
:1009040035BDB1471305B00AE38BF9FE99476391EE
:10091400F904B7050800B365BB002D45C531814412
:100924008D4BA14975396396740183270480232074
:10093400F9008504E39834FF8327048013172B01FF
:10094400635507002312F900D5BB2322F900FDB338
:100954009D476399F90281451305B0044531BD44AF
:100964002320090023220900FD599D3993F77400BF
:10097400CA9703C70700FD14398D2380A700E396A7
:1009840034FF6DBBA1476392F9046D398144630D53
:100994000B008D479304C0036308FB009304000518
:1009A40063048B01930440041375C507E30895D8C9
:1009B4001945393139390545213126850D3909451E
:1009C4003D314931E31C05D669BB91476399F90070
:1009D40013056006F536F53E130590090DB7E38F50
:1009E40009D4F154A9BB19CD91CD09CE81473387E0
:1009F400F500834607003307F50085072300D70079
:100A0400E317F6FE828019C991C909CA910583A723
:100A1400C5FF11057D16232EF5FEC5BF828001C9D1
:100A240019C62A960505A30FB5FEE31DA6FE82800E
:100A340081473307F5000307070019E33E858280E9
:100A44008507C5BF01112E8626CAAA84131506017F
:100A54009305F004418122CC06CE32C6EF108063A8
:100A64002A8401C53246A685BD3F2285F2406244F0
:100A7400D24405618280854715C18DC105C2814775
:100A8400B306F5003387F50083C606000347070065
:100A94006398E6008507E315F6FE85473E85828068
:100AA4008147EDBF9307F6FFBE952A966313C500F1
:100AB4008280FD1583C715000505A30FF5FEFDB75C
:100AC400AA87014581CF09CE3E96850703C7F7FF64
:100AD4006317B700E39BC7FE05458280828001450A
:100AE40082807971976700009387C7A522D48043D9
:100AF40006D626D24AD04ECE52CC56CA5AC85EC664
:100B040062C45DCC37C9C901814B176A0000130A5E
:100B1400EAA797640000938424A31309F937976A1A
:100B24000000938AEA9CB709C0A8370B4057835743
:100B3400240095E35C44639D0B00176700002323A6
:100B4400F7A0032CC4002285EF10E061628499A809
:100B540023A6FB00FDB783270A00829783866401DE
:100B64001C4463DB06063307F5406367E9089767AF
:100B7400000023A7079883552400034504009780A9
:100B840001E0E78080A05C405844A9CF1444B697A4
:100B94008386640163C5060063E33701DA971CC4E6
:100BA400A28B3A8449F497670000938767949C4B1F
:100BB40009476378F706F917176700002322F794AB
:100BC400B250225492540259F249624AD24A424BD8
:100BD400B24B224C45618280E377F5F83387F940C4
:100BE4002A9761B763970B009767000023ACE794DB
:100BF40089BF23A6EB00B1B7D85009CF63DF060045
:100C04003385A74083A70A016376F5009767000040
:100C140023A8A78EA28B404471B7E3F3A7FECE9717
:100C2400C5B79767000023AD078C59BF411122C493
:100C3400176400001304C48E1C4006C626C24AC0B2
:100C440091C782979767000023AC078C5C4091C3DF
:100C540082971C406391071C9767000083C7D7AA3B
:100C6400858B9DC797670000A38007AA17670000BC
:100C74000347B7A9954763FDE700EF005041976725
:100C8400000083C797A8F5178A07A2979C43829709
:100C940017690000130909AB8347C900918B99C3F5
:100CA400EF10A0321C4491C3829797640000938490
:100CB40024899840176600000346968397670000CE
:100CC40083C7078393961700BA9683D60600D5CABE
:100CD4009767000083C7C78163EFC70A976700005F
:100CE400238807801C40639807129767000083C716
:100CF400F7A191CF9767000083C737A189EB976766
:100D04000000A38507A0971003E0E780E0729767CF
:100D140000009387A7879C43638F070EB707C0A87B
:100D240017570000232EF77C6D3B976700009387CD
:100D3400A781DC53EDC3175700001307677B184BDB
:100D44009767000083C797816367F70C17670000F4
:100D54000347B79B954763E0E70C8347C900918B32
:100D6400DDEB90409756000083C6967863CBD70A94
:100D74002244B240924402494101177301E06700E2
:100D8400E35D850793F7F70F975600002382F67605
:100D9400E3E6C7F235BF86073E9783550700231065
:100DA400070097570000239B077897570000938705
:100DB400E7769C43175500000345857313172500F8
:100DC400BA979C4382979757000083D72777175782
:100DD40000000347E77193C7F7FF7D8D9317170052
:100DE40098403E97835707005D8D2310A7009757BF
:100DF400000083C7E76F91C78507175700002309D1
:100E0400F76E175700000347A76E9757000083C774
:100E1400376EE375F7ECB240224492440249410133
:100E24008280139717003297035707006DF78507E1
:100E340035BFAD6737C70040BD072326F7200F1025
:100E44000000975700009387A76AC84F8327872617
:100E5400BD66BD0693C7F7FF99836A052326D7208D
:100E64005D8D82804111B7170040985F3AC6945F48
:100E74003247E39CE6FE32454101828082800327AB
:100E8400851163000712411122C406C68347C500B9
:100E94008345C5042A8493F7C70F2306F5008346C8
:100EA40097000356C70013958601618563F1C50851
:100EB400635A05060345870093F6F607A304D70093
:100EC400054693E627006314C50093E6170023063E
:100ED400D4005C4389075CC3A30AB400032504114E
:100EE4002E864C4309050136832784110346540199
:100EF400D44303D7C700B296118FD4C32396E70017
:100F04008947A30DF400034744039757000083C7A0
:100F1400C7646378F7048347C40093E70701230693
:100F2400F40081A093E717002306F40075B79376C5
:100F3400F60F635D050203458700854513E6270028
:100F44006314B50013E617002306C400A30AD400F3
:100F5400A30407008547A30DF400832784119C4351
:100F6400DDF3B240224401454101828093E717003A
:100F74002306F400A30AD400A304070003250411E4
:100F84004C4309058D348327841103465401D4430B
:100F940003D7C700B296118FD4C32396E7008D47B9
:100FA4005DBF0545828097570000938727749C4353
:100FB400411122C406C6858B2A84C5EF41651305F9
:100FC40025F5978002E0E780206E45C58347A5009C
:100FD4002315F50083270412BDE72320A41223223E
:100FE400A41285472310F4042320050083476401D9
:100FF40054412316F5000347D4002304E5000547B4
:10100400A304E500175700001307C76F184F138593
:10101400170215811C437D151375F50F9CC25C43A3
:10102400DCC21C479CC65C47DCC61C4B9CCA5C4BA0
:10103400DCCA1C4F9CCE5C4FDCCE19CD93860602D5
:1010440013070702C1BF8327441288C383570404CC
:101054002322A412850779B79757000083D707780E
:10106400850717570000231BF776B240224441013D
:1010740082808347C40023090400054593C74700C1
:101084002306F400DDB78347850193F7E70FD5EF17
:1010940083479501DDEB034625018346C50009CA54
:1010A40083454503175700000347374B63E7E500C3
:1010B40013F7060141CF014709C6C18A0357651CCE
:1010C40081C68356A51C369751C31307C7121755FB
:1010D400000003556544B335A70237460F0041119C
:1010E40013060624814622C426C206C67D5433054F
:1010F400A70297E003E0E780808B9757000083C73F
:101104003746B384A700975700009387A76C03A7BB
:1011140007098327070963F387003E84184375FB97
:1011240097570000938787469C438297814763645F
:10113400A400B307A440B2402244B3B7970093C7B6
:10114400170092443E854101828081473E8582801A
:10115400797126D206D622D44AD04ECE52CC56CA63
:101164005AC85EC68347350303447513AA843E9464
:101174001374F40F9307400263F687001304B4FD5D
:101184001374F40F03AA841383AAC413A38B8412C5
:1011940022865285D68597D003E0E780C07B0589F7
:1011A40015E503CBD41201498149337B6403930BC6
:1011B40050024A865285D68597D003E0E780A0790D
:1011C400058915C5639169031374F90F238B841280
:1011D400B250225492540259F249624AD24A424BC2
:1011E400B24B456182808509E20993D98941050999
:1011F400E31179FDE1BF832785090356E50379717E
:1012040093D60701BD8EC206C182358E1357764030
:1012140093575640898B058B5D8F93573640918B3E
:101224005D8F93571640A18B5D8F93171600C18B6A
:101234005D8F9317360093F707025D8F931756005F
:101244009355860093F707041E065D8F1376F60FF9
:10125400518F93D7554013D63540118A898BD18F3E
:1012640013D67540D18F13D61540218AD18F13968A
:101274001500418AD18F1396350013760602D18F5B
:1012840013965500137606049E05D18F93F5F50F3A
:10129400CD8FA20745465D8F3307C70222D42A8427
:1012A40026D252CC56CA032A8413832AC4135AC89A
:1012B40006D63697420741839357774013555740D4
:1012C4000989858BC98F135537401189C98F1355E7
:1012D40017402189C98F131517004189C98F131528
:1012E400370013750502C98F1315570093558700EE
:1012F400137505041E07C98F1377F70FD98F13D5FC
:10130400354013D755401189098B498F13D5754042
:10131400498F13D515402189498F139515004189AB
:10132400498F1395350013750502498F13955500A0
:10133400137505049E05498F93F5F50F4D8F22070C
:10134400D98FB387C7024AD04ECE5EC662C4B69761
:10135400C207C18313D7774013D557400989058B3A
:10136400498F13D537401189498F13D517402189E7
:10137400498F139517004189498F139537001375C9
:101384000502498F1395570093D5870013750504FB
:101394009E07498F93F7F70FD98F13D5354013D78D
:1013A40055401189098B498F13D57540498F13D541
:1013B40015402189498F139515004189498F13954B
:1013C400350013750502498F1395550013750504EF
:1013D4009E05498F93F5F50F4D8F2207D98FB3875B
:1013E400C702130650025285D685B697BD8E9394D4
:1013F4000601C18033F6C402137BF60F97D003E0D5
:10140400E780605505890DED8347D4120149814970
:10141400B3849702130C5002C1804A865285D68544
:1014240097D003E0E78020530589937BF90F11C51A
:1014340063863403850993F9F90F0509E31F89FDD0
:10144400230B6413B250225492540259F249624A53
:10145400D24A424BB24B224C456182805E8BCDB75F
:10146400011122CC604126CA4AC84EC652C406CED7
:10147400AA841D4A130965058549BC446364F400C4
:10148400054581A803C7D40083474400631B47056F
:1014940003C784026304F7000040C5B70347540040
:1014A40083C75405E31AF7FE1946CA851305640079
:1014B400EFF06FDCE31235FF0347C40083C79402E7
:1014C400E31CF7FC0357E40083D7A402E316F7FCFC
:1014D4000145F2406244D2444249B249224A05617C
:1014E4008280E31BF7FA0347540083C75405E315CE
:1014F400F7FA1946CA8513056400EFF0CFD7E31D48
:1015040035F9F9B70111975700009387A72C22CC1E
:1015140003A4470B26CA06CE2AC42EC6854419E462
:101524000145F2406244D2440561828083479100C0
:1015340003471400858B6304F7000044CDB71946B4
:101544009305A10013052400EFF0EFD2E31795FEF5
:101554000545C1BF011122CC175400001304441CDB
:1015640018402AC62EC432C206CE3C4B93F7F7F776
:101574003CCB971003E0E780E0E818409756000062
:10158400938646173C4B93E707083CCB9C42324575
:10159400A24523A00700034715000348250022079E
:1015A4004208429703480500429703483500620801
:1015B400429798D70347550003486500220742081D
:1015C40042970348450042970348750062084297D2
:1015D400D8D7034795000348A5002207420842973D
:1015E4000348850042970348B5006208429798DB98
:1015F4000347D5000348E500220742084297034801
:10160400C5000345F500429762052A97D8DB03C756
:10161400150003C52500220742052A9703C50500C6
:101624002A9703C5350062052A9798CF03C755004A
:1016340003C56500220742052A9703C545002A977A
:1016440003C5750062052A97D8CF03C7950003C563
:10165400A500220742052A9703C585002A9703C5DA
:10166400B50062052A9798D303C7D50003C5E500E2
:10167400220742052A9703C5C50083C5F5002A97AA
:10168400E2052E97D8D3D843759BD8C3D8431367A4
:101694001700D8C398431367170098C3124698429B
:1016A4005C43858BD1E71C4F01452300F6009C4227
:1016B4009C4FA183A300F6009C429C4FC18323014D
:1016C400F6009C429C4FE183A301F6009C42D84F54
:1016D4002302E600D84F2183A302E600D84F4183BA
:1016E4002303E600D84F6183A303E6009853230441
:1016F400E60098532183A304E6009853418323050D
:10170400E60098536183A305E600D8532306E60058
:10171400D8532183A306E600D85341832307E60068
:10172400DC53E183A307F600F24062440561828042
:101734000100B5B717570000130707FC1443411104
:1017440022C49C5E4AC006C6998326C2858B3A840D
:1017540017590000130909FAD1CB9C5E9754000075
:10176400938444FA93F7F7F99CDE17570000034774
:10177400C7F993070008631BF700832709009C43FC
:1017840093F70704175700002301F7F883C70400F1
:1017940093F707049DC397570000938727DF9C4363
:1017A40082979757000023A7A7F683C7040093F7EF
:1017B400F70B175700002307F7F483C7440093F788
:1017C40007048DE7854717570000A30FF7F29757D3
:1017D40000009387E7F49C43096798C7130700FC4C
:1017E400975600002382E6F2D844F8D31C40985F51
:1017F4001183058B09CB985F3D9B98DF054797566E
:1018040000002383E6F0985F1D83058B11CB985F5E
:101814001377F7F798DF8547175700002306F7EE8D
:1018240083270900D8430583058B19C7D843759BC3
:10183400D8C3D843799BD8C3B240224492440249C6
:1018440041018280397106DE16DC1ADA1ED82AD6E6
:101854002ED432D236D03ACE3ECC42CA46C872C614
:1018640076C47AC27EC0F935F250E2525253C25362
:101874003255A255125682567247E2475248C24820
:10188400324EA24E124F824F21617300203097577F
:1018940000009387E7E8944397570000938787E60F
:1018A40003C70700058B11CB97570000238E07E46D
:1018B40097570000A38A07E4828003C71700058BAB
:1018C40065F7F85271FF83C75700DDB7175800005A
:1018D400130888E2032708001C5F9583858BD1E7F2
:1018E40009C61C5BBD832300F60085CA8327080054
:1018F400985B4607935767016356070093E707C051
:10190400C207C18303970600C207C18709C7BA97F4
:101914000947B3C7E7022390F60085CD8347150036
:101924008DCB9756000083C646DE93F606041387D4
:10193400970089478DCA3A9503470500854699471C
:101944001376F7066311D60262076187B947634CC1
:101954000700832708009C5FED838D8B17570000D9
:10196400A307F7DA81473E8582808547EDBF4111A1
:1019740022C406C617540000130484DA184049E947
:10198400AE877453FDFE3E85B28597570000238CC5
:1019940007D6970003E0E780E07C97570000938721
:1019A400A7D59C43B70680009843558F98C3D85752
:1019B400719BD8D797570000A38807D49757000086
:1019C400A38207D41C40094798C3B7F700E003A7D4
:1019D40007D16D9B23A8E7D003A707D15D9B23A85C
:1019E400E7D073005010144017570000130787D135
:1019F40083472700858B89EB83473700858BD9C7BD
:101A040097570000238207D0B240224441018280CC
:101A14008D476310F502975700009387E7CD9C43E9
:101A2400B70680009843558F98C3D857719BD8D771
:101A34005DBF8547E319F5FAB567BD075CC70F10AD
:101A440000001C400967094698C7130700F8975619
:101A54000000238BE6CA175700001307E7C9144395
:101A6400984231830D8B6319C7001307E043F8D301
:101A74003D673D07D8C785BF984231830D8B01E789
:101A840013076019EDB71307E01BD5B7FC52ADF38C
:101A9400A5BF5D7152DC175A0000130AEAC503277B
:101AA4000A0086C6A2C4A6C2CAC04EDE1C43975909
:101AB40000009389A9CB17590000130969C693F74D
:101AC400F7E793E707081CC383A609003707CEFF8F
:101AD4007D179C46130680022A84F98F9CC68327AF
:101AE4000900130700082800B8CBAE84930510083A
:101AF400EFE0FFF2971003E0E780C090971003E057
:101B0400E780C09D83270A009376F41F370FFCFFFC
:101B140023A40700984B4E88CA881367F70398CB11
:101B2400F84F130510F8D285137707E0558FF8CFD7
:101B34009843F576FD16758F98C39843B70633001E
:101B4400B70204001377F7E798C398439303401F41
:101B54007D1F1377F7E71367071098C303A70900DE
:101B6400930F800285491C47D58F1CC78327090022
:101B74001307900D3400B8CB1149014713533700B4
:101B840026938347030013767700B3D7C740858B2A
:101B9400DDCF9C41832E0800239C07042390070675
:101BA40003AECE02137EDEFF23A6CE0383AE070070
:101BB400137EF70793FE0EF833EECE0123A0C70180
:101BC40003AE4702336E5E0023A2C70383AE080050
:101BD400014E23A27E0603DA070663074E0303AE13
:101BE4000703038A0600135EFE00620E135E8E4135
:101BF4006358CA0103AE0703135EFE002380C601C7
:101C040003DE0706137EFE0F03AA4E0663060A00D0
:101C140003DA8705E37F49FB03AE4702337EEE0117
:101C240023A2C70383870600635CF400034E03000A
:101C34003396C9001346F6FF3376C6012300C3006A
:101C44003E8663D3A7002A8613158601618505079E
:101C54001377F70F8506E313F7F3B640264496444B
:101C64000649F259625A6161828097560000938650
:101C740026AB9C42D84713161701635506029847B2
:101C840013161701635006027D57B8D71757000083
:101C940013070786584F0507175600002328E686C2
:101CA400116798C798470D83058B1DC3175700000C
:101CB400034767A513671700175600002305E6A41A
:101CC400130700F8175600002300E6A4214798C71D
:101CD4009847058B09CF175700000347B7A213672E
:101CE400170017560000A30FE6A0054798C79847AA
:101CF4000983058B09E798470583058B31CF9847FE
:101D040017560000130606A0175500001305C59EBC
:101D14000983058B630307101841184331830D8B26
:101D240075EBAC4B184E93F5050203471700CDCD68
:101D340079EF13077006D8CF03470600136717001F
:101D4400175600002300E69C114798C718415C57BA
:101D5400F19B93E717005CD79C4298479316370191
:101D640063D606029756000083C606AEC18A17578B
:101D74000000130727A6C5CE0347470713670702CA
:101D8400975600002382E6AC056798C798479316D8
:101D9400270163D10602175700000347E79662073D
:101DA400618763570700054797560000238EE69422
:101DB400096798C798479316070163D60602975692
:101DC400000083C676A8858A17570000130787A0EA
:101DD400ADCE034757071367270097560000A38526
:101DE400E6A6216798C7828029D785456315B70081
:101DF4001307B00689B789456315B7001307F006C2
:101E04001DBF8D456315B700130730072DB71307A2
:101E1400500715B71307600739BF03473600136728
:101E2400170017560000A300E68E094739BF834602
:101E340047070946BD8A6388C600034747078D469E
:101E44003D8BE313D7F4114725BF83465707918A87
:101E5400C9DA034757071367870041B7397106DEAC
:101E640016DC1ADA1ED82AD62ED432D236D03ACE7E
:101E74003ECC42CA46C872C676C47AC27EC0F53326
:101E8400F250E2525253C2533255A2551256825660
:101E94007247E2475248C248324EA24E124F824F16
:101EA400216173002030175700001307A78783466A
:101EB400B7019757000083C7B7894C4BB697FD8B82
:101EC40033D7F50097560000A38EF684975600008A
:101ED400A380F688058B15EF1757000003479787F3
:101EE400B3F7E702814601471305000233D6E50044
:101EF400058A1378F70F19CA6397D700975700001C
:101F0400A38207838280850693F6F60F0507E31FF5
:101F1400A7FC828097470000938747679C43011181
:101F240022CC4EC606CE26CA4AC852C456C282978E
:101F34009757000093870781804781496305A4066A
:101F4400BE849747000093872760038767013E8913
:101F540063550706018D135455009747000083C746
:101F6400077E9379F501636DF402370AC0A8B70AB6
:101F74004057153F9C449746000083C6467C139700
:101F840056003E9783076901158C63C50700636398
:101F9400470156979747000023AAE77AE37BD4FCCE
:101FA4001604B3693401F24062444E85D244424976
:101FB400B249224A924A05618280E37D85F8B707D7
:101FC400C0A833848740229579B797470000938748
:101FD400E75B9C43411122C406C626C282979747F9
:101FE40000009387277680476309A406BE84974739
:101FF4000000938767558387670163D80704018DC1
:10200400135455009747000083C767736367F4044C
:10201400593D98449747000083C7677293965700C9
:1020240036971D8C9746000023A2E672E372F4FEF5
:102034002244B2409244174500000345B56E8145E1
:102044004101171303E067008390E37A85FAB70729
:10205400C0A833848740229565B7B2402244924495
:102064004101828097470000938747709843B75790
:1020740002009387079F8326070913965600635827
:102084000600832607091396660063440600FD17BD
:10209400FDF3828071C5AA870145E9C58D07C20792
:1020A400C183F19BC207C18313074003636FF70227
:1020B40017470000130787710843174700001307E9
:1020C400677014436398A602174700001307C747B5
:1020D400185B014541CB4111C20706C60545DD8D9C
:1020E4000297B2400145410182801747000013075F
:1020F400A76DD9B70357650035E303574500636FF0
:10210400F704B306F7402146637CD6020328050092
:10211400938687001D8FAA96611717460000035601
:10212400863D2392E60023A006012393060014C1F2
:102134002312F500130786FF97460000239DE63A15
:102144002313B5009745000083D5E53AB387F540DE
:10215400174700002311F73A2105828008419DB7F3
:102164000145828082800DC19747000093870766EE
:1021740003A30700974700009387C76483A8070059
:1021840081469A8763E31701828003A80700636D81
:10219400F50A636BA80A13878700E367E5FE03D695
:1021A4006700216705076317E60003C7819B0507DE
:1021B400238CE19A974500009385853303D6470025
:1021C40003D76500239307003297420741831745DD
:1021D40000002312E532638A6702174500001305E5
:1021E400A55E08416303F50203D5660019ED83D7A4
:1021F400460023A0060121073E9621062392C6002D
:10220400974700002399E72EB6879843E30E17F704
:10221400974600009386465B9442E307D7F68356BD
:102224006700BDF283D64700035647001843A10652
:10223400B2962392D70098C383D76500A1071747A6
:102244000000231AF72A8280BE86C28725BF0111A7
:10225400974700009387075822CC03A4C70B26CACC
:102264004AC84EC606CEAA8413092500854915C05E
:1022740083C7140003473400858B6304F700405C74
:10228400FDB71946930544004A85EFE0CFFEE318F5
:1022940035FF2285F2406244D2444249B249056185
:1022A40082804111974700009387C75222C403A438
:1022B400C70B26C24AC006C693042500054901E897
:1022C4002285B24022449244024941018280A6857B
:1022D4001305A40297C003E0E780201DE30225FF55
:1022E400405CF1BF4111974700009387A74E22C479
:1022F40003A4C70B26C24AC006C693042500054999
:1023040001E82285B240224492440249410182807C
:10231400A6851305A40197C003E0E7800019E30232
:0823240025FF405CF1BF000041
:1023300097110020938101B717610020130181CC10
:102340001305400097E5FF1F9385C5CB17060020B6
:102350001306C6FD63FAC5008322050023A05500BD
:1023600011059105E3EAC5FE17950400130585F2F2
:1023700097050020938585FB1386818663FAC50047
:102380008322050023A0550011059105E3EAC5FE4F
:1023900013858186974500209385C5556377B500E1
:1023A000232005001105E36DB5FEFD42739002BCCC
:1023B0008D4273904280B72200009382828873A07E
:1023C000023097E2FF1F9382E2C393E232007390E0
:1023D0005230972201009382E22F739012347300DF
:1023E00020303D432A876373C3029377F700BDEF24
:1023F000ADE5937606FF3D8ABA960CC34CC30CC775
:102400004CC74107E36BD7FE11E28280B306C3409D
:102410008A069702000096966780A6002307B700F9
:10242000A306B7002306B700A305B7002305B7002E
:10243000A304B7002304B700A303B7002303B70026
:10244000A302B7002302B700A301B7002301B7001E
:10245000A300B7002300B700828093F5F50F939691
:102460008500D58D93960501D58D61B7939627008C
:102470009702000096968682E78086FA9680C117BA
:102480001D8F3E96E374C3F8A5B73367B500FD53BF
:102490000D8B79E7B7877F7F9387F7F710419441DA
:1024A000B372F6003363F600BE92B3E26200639744
:1024B000720C6318D6065041D441B372F6003363F0
:1024C000F600BE92B3E262006398720A631BD60400
:1024D00010459445B372F6003363F600BE92B3E242
:1024E00062006391720A631ED6025045D445B372EE
:1024F000F6003363F600BE92B3E26200639A72089C
:102500006311D60210499449B372F6003363F600A2
:10251000BE92B3E26200639372085105D105E30FE6
:10252000D6F61317060193970601631CF70013579D
:10253000060193D706013305F7409375F50F91E92E
:1025400082804183C1833305F7409375F50F91E194
:1025500082801377F70F93F7F70F3305F7408280E8
:102560000346050083C60500050585056313D600EF
:1025700065FA3305D640828011059105E312D6FE37
:10258000014582802105A105E31CD6FC014582801E
:102590003105B105E316D6FC014582804105C10530
:1025A000E310D6FC01458280014711464148B386BD
:1025B000E5008147B308F50083C808008507C10618
:1025C00023A816FFE398C7FE11071105E31107FFC3
:1025D0008280935785019CC19357054193F7F70F6C
:1025E000DCC19357854093F7F70F1375F50F9CC522
:1025F000C8C582801C414111130705013EC05C41E2
:102600003EC21C453EC45C453EC693972500140857
:10261000B69783A707FF85051105232EF5FE8D8943
:10262000E315E5FE41018280397122DC41661384A5
:1026300041A306DE26DA4AD84ED652D456D25AD014
:102640005ECE93050501A2863708FF007D1683073D
:102650000500034735001105E207D98F0307D5FFB1
:102660009106420733770701D98F0307E5FF220759
:10267000718FD98F23AEF6FEE39BA5FC814991446F
:10268000930A0101173B0400130BCB40973B040056
:10269000938BCB3D130AC00293F734000329040047
:1026A0004844BDE78A85353785450A85A1370A87BD
:1026B0001C43110793F6F70093F7070FDA97B697C5
:1026C00083C70700232EF7FEE394EAFE02459247F4
:1026D0006205C2075D8DB2475D8DA247A2075D8D81
:1026E00093972900DE979C4385093D8D334525014D
:1026F00008C885041104E39144FBF2506254D2549B
:102700004259B259225A925A025BF24B216182809D
:102710003345A90008C8F1BF797122D426D24AD026
:102720004ECE52CC56CA06D62A8A93994500014409
:10273000938A41A313090101C144B3073401D69719
:1027400088438A85793533078A008A871443904302
:1027500091074107B18E2328D7FEE39927FF110483
:10276000E31D94FCB250225492540259F249624A39
:10277000D24A45618280397122DC1304050106DEEC
:1027800022878147C1460C433306F10011070CC272
:102790004C4710083E960CC24C4F10103E960CC28F
:1027A0009107E392D7FE85450A85A9358945080832
:1027B00091358D4508103D3D81474147B306F100F5
:1027C00094421104232ED4FE1408BE96944254C49D
:1027D0001410BE969442910754CCE391E7FEF25058
:1027E00062542161828006059377051089C71375AD
:1027F000F50F1345B5018280411106C6ED37B24091
:102800004101D5B781471148C1483386F500B30669
:10281000F500014703AE06003303E6000507230079
:10282000C301C106E31807FF9107E39017FF8280F9
:1028300093060501173604001306C6351305050572
:10284000138706FF1C43110793F5F70093F7070F53
:10285000B297AE9783C70700232EF7FEE394E6FEF8
:10286000C106E31FD5FC82801C414111FD563EC0CC
:102870005C413EC21C453EC45C453EC68D47B385A7
:10288000B7409307C5001397250010083297032718
:1028900007FFFD1598C36393D5008D451387C7FFC8
:1028A0006314F50041018280BA87F1BF397122DCDF
:1028B0001304050106DE22878147C1460C43330617
:1028C000F10011070CC24C4710083E960CC24C4F49
:1028D00010103E960CC29107E392D7FE85450A85FB
:1028E00061378945080849378D450810B53F81474C
:1028F0004147B306F10094421104232ED4FE14087C
:10290000BE96944254C41410BE969442910754CC7F
:10291000E391E7FEF2506254216182809306050143
:10292000173604001306061713050505138706FF5F
:102930001C43110793F5F70093F7070FB297AE9773
:1029400083C70700232EF7FEE394E6FEC106E31FCC
:10295000D5FC8280411122C406C626C285472E843A
:102960006301F50289476318F5002244B24092449E
:102970002E8541018DBD8D47631BF5002E85A53544
:10298000298C2285B2402244924441018280A5478D
:102990006315F5002E858D35DDB7AD47631AF5005B
:1029A0002E85993D8935AA842285353D258DC9BF5F
:1029B000B5476316F5002E858135AA84FDB7B94762
:1029C000E311F5FC2E850D3DAA84313DA98C2285AD
:1029D000193D3344950075B7597186D6A2D4A6D255
:1029E000CAD0CECED2CCD6CADAC8DEC6E2C4E6C2DF
:1029F000930605040A87AA879043C1074107232845
:102A0000C7FE03A647FF232AC7FE03A687FF232C82
:102A1000C7FE03A6C7FF232EC7FEE39FD7FC1739C7
:102A200004001309292B130A050193090505832CBA
:102A30000900032C4900832B8900032BC900930A4A
:102A40000AFF8A848C406685910A29378C482A843B
:102A5000628509378C50298C5E85ED3D8C58298C18
:102A60005A85CD3D218D23AEAAFE9104E31C5AFD6B
:102A7000410A4109E39D49FBB65026549654065934
:102A8000F649664AD64A464BB64B264C964C65618B
:102A900082806382051493F7F500639E0712157117
:102AA000D6C3AA8A3285A2CDA6CB86CFCAC9CEC745
:102AB000D2C5DAC15EDF62DD66DB6AD96ED73284E9
:102AC000AE84EFF0131EC147631EF5002285A93EB8
:102AD0000149130A0106973B0400938BAB1F294C55
:102AE00063419902FE406E44DE444E49BE492E4A7F
:102AF0009E4A0E4BFA5B6A5CDA5C4A5DBA5D2D61F8
:102B00008280338B2A010C105A85793C814508104C
:102B100021318549081019350810B1391C10D286A9
:102B20003E8710434107C10623A8C6FE032647FF80
:102B300023AAC6FE032687FF23ACC6FE0326C7FFD3
:102B400023AEC6FEE31FEAFC173704001307871401
:102B500003280700832D4700032D8700832CC7001F
:102B60005284138607010C4042853ECE3ACC32CACD
:102B700042C8CD330C482AC66E85E93BB2460C509C
:102B80001104A98E6A8536C6F133B2464C54A98E1B
:102B9000668536C6C133B246F2475246358D88C384
:102BA000910742486247E310F6FC4107B287E39180
:102BB000EBFACE85081085098536E39D89F5081066
:102BC000B13B08104D3EA9450810B936DA8508100A
:102BD0001539410931B78280638D051093F7F500EF
:102BE000639907105171CECFAA893285A2D5A6D399
:102BF00086D7CAD1D2CDD6CBDAC9DEC73284AE846D
:102C0000EFF0330AC1476319F5002285313C0149D1
:102C1000138B41A3634D9900BE502E549E540E5900
:102C2000FE496E4ADE4A4E4BBE4B6D618280338A4E
:102C300029018C0052858D3AA9458800F13C138406
:102C400041ACC14A930B00048800DD368800B939D5
:102C50008800593308408A85AD3A48400C08953AB7
:102C600008440C10BD3248440C18A53218018147A5
:102C7000B306F100944241072328D7FE1408BE96FC
:102C80009442232AD7FE1410BE969442232CD7FEDA
:102C90001418BE9694429107232ED7FEE39A57FD4F
:102CA00008011D3B01479C003385E7001C01B3056B
:102CB000F70081473306F5003388F50014420328F6
:102CC00008009107B3C6060114C2E39557FF4107F8
:102CD000E31B77FD4114E31964F78800913E8800F7
:102CE000F136814588000D3CD2858800213E41099E
:102CF00015B782809307F00F6385F60A2D71232A9A
:102D0000911023282111B2842326311113060010BB
:102D10002E89AA89930530020A85232E1110232CAF
:102D200081103684EFF0EFEBA2852685EFD02041AD
:102D300013178500935785003365F7002310A10012
:102D4000A6852286130531009304340023018100F7
:102D500093F4F40FEFE0D31B93F6F40089C64D040F
:102D6000158C9374F40F1C02A697A6850A85173656
:102D700004001306E6FB238007F0213B26868A85A4
:102D80004E85EFE0F318230099008320C11103243E
:102D9000811183244111032901118329C110156177
:102DA00082808280797122D432844AD04ECE2A89A0
:102DB000AE892285B68517360400130666F726D23B
:102DC00052CC06D636C6093DB246130A34005285A7
:102DD000A2962380060083440400834714008345A1
:102DE0002400A204DD8CEFD08035639AA402034650
:102DF0002400D2854A852380C900EFF0636E254503
:102E000097350400938505F1EFD020370545B25082
:102E1000225492540259F249624A456182802380C9
:102E2000090025452300090097350400938545EFE7
:102E3000EFD0A0340145E1BF411106C6EF80F05C40
:102E4000B240AA8617370400130747F5171600206B
:102E50001306062697350400938585F51145410133
:102E60006FD06046130101DB232481242320212518
:102E70002326112423229124232E3123232C412382
:102E8000232A5123232861230347050093071004B5
:102E90002A892E846312F7680347150093074005BB
:102EA000631CF766034725009307E0056316F76682
:102EB0002E86AA852545EFD0A0361306D003A2851D
:102EC0004A85EFD0804EAA84635A05003546A28514
:102ED0004A85EFD0804DAA84634405089389D4FFC6
:102EE0009307100363CE37074E86930539002808F1
:102EF000EFF0035F1C1CBE99173A0400130A8A19ED
:102F0000238409DED28A8149594B83254A00280847
:102F1000EFD060430DC18E09D69983D7090055477C
:102F2000636FF700173704001307C7E18A07BA97E2
:102F30009C43BA9782878509210AE39869FD9735F2
:102F4000040093856514CDA89305F4FF858D138542
:102F50001400C20581460146C1814A95EF30C07315
:102F60008320C124032481248324412403290124B0
:102F70008329C123032A8123832A4123032B01238D
:102F80001301012582801306F4FF058E938514003A
:102F900042064182CA95E800EFD060691305D1046A
:102FA000EFF0235093150501C1811305D104EFD033
:102FB0006076973504009385E5E01305D104EFD0E2
:102FC000803819CD97350400938545E00545EFD04D
:102FD000C01A172500200345F5C9EF60301249B724
:102FE000973504009385C5DF1305D104EFD0A035D4
:102FF00019CD97350400938525DF0545EFD0E017FF
:1030000017250020034515C7EF60101291BF9735B3
:103010000400938565DE1305D104EFD0C0320DC1E5
:10302000371700408327C70AA166973504009385A8
:1030300025DDD58F2326F70A2545EFD000140DB7DF
:1030400097350400938585DC1305D104EFD0A02FBC
:1030500011CD371700408327870AA16697350400F2
:10306000938545DBD58F2324F70AF9B797350400FC
:103070009385C5DA1305D104EFD0E02C11CD3717B5
:1030800000408327C70A9166973504009385C5D908
:10309000D58F2326F70A4DB7973504009385C5D9F8
:1030A0001305D104EFD0202A11CD37170040832714
:1030B000870A9166973504009385C5D8D58F232458
:1030C000F70A9DBF973504009385C5D81305D10431
:1030D000EFD0602797350400938585D831FD97356B
:1030E00004009385A5D81305D104EFD0C0259735EA
:1030F0000400938565D829F197350400938585D818
:103100001305D104EFD0202411C59727002023A157
:1031100007B8B9B597350400938585D71305D10451
:10312000EFD0602201C5EF7020471DBD9735040028
:103130009385C5D61305D104EFD0E02001C5EF700B
:10314000C04C39BD97350400938505D61305D104CD
:10315000EFD0601F01C5EF60906119B5973504008D
:10316000938545D51305D104EFD0E01D01C5EFA02F
:103170000003FDB397350400938545D41305D104AE
:10318000EFD0601C01C5EFA0E001D9BB973504006A
:10319000938545D31305D104EFD0E01A01C5EFA004
:1031A000C0007DBB97350400938585D21305D104FB
:1031B000EFD0601901C5EFC000745DB3973504000E
:1031C000938585D11305D104EFD0E01701C5EF0039
:1031D000014D79B397350400938585D01305D1044B
:1031E000EFD0601601CD9727002083D7E7A70567AA
:1031F000D98F172700202319F7A69DB39735040010
:10320000938545CE1305D104EFD0E01309C9FD77AE
:1032100017270020035747A5FD17F98FD9BF03468D
:10322000D104A547130606FD1376F60FE3EAC7D2CD
:1032300097270020A388C7A4973504009385C5CAA3
:103240000145EFD0400829BB1306F4FF058E138516
:1032500014004206418297450400938525A34A95B0
:10326000EFD0002217240020130404A031C59735A5
:1032700004009385A5C8E800EFF08321E800EFF093
:103280004322131605014182EC001385417CEF9027
:10329000E04897350400938525C91145EFC0F06DCE
:1032A00083570400414593E7170017270020231D8B
:1032B000F79AEFD0F02D6DB197350400938585C74F
:1032C0001145EFC0906B7D55EFD03032835704002D
:1032D000F99B05B7953669B11306F4FF058E138582
:1032E000140042064182974504009385259A4A9529
:1032F000EFD00019172400201304049729C1835725
:103300000400973504009385A5C3E80093E71700F0
:1033100017270020231AF794EFF08317E800EFF047
:10332000431813160501EC0041821385417CEF9090
:10333000E03E97350400938565C21145FDB9973588
:103340000400938565C2E800EFF08314E800EFF015
:10335000431513160501EC0041821385417CEF9063
:10336000E03B83570400973504009385A5C1F99B82
:1033700017270020231AF78EC9B7EF80604B9727D5
:1033800000209387678EC85FEFE0A30CAE862A8685
:10339000973504009385C5BF1145EFC0D072C9B6FB
:1033A000EF60006E75BE174604001306A68E9735B3
:1033B00004009385A5BE114569B5EF809008973547
:1033C0000400938565BE35F9973504009385C5BE25
:1033D000ADB73545EF90D051AA84EFE083072A8638
:1033E000AE86254597350400938545BEEFC0B06D88
:1033F000973704009387C79C8843A685171400203D
:10340000130444E2EFD0035C2328A422EF80D00D04
:1034100003250423EFE0E303AE862A8697350400F4
:10342000938585BB95BF81450D45EF70A003EF8067
:10343000007D2A86973504009385C5BCADBF8145C4
:103440002D45EF70200281456945EF70A00181454F
:103450003145EF702001EF80E07A2AC6EF80407B93
:10346000B2462A8717160020130686C49735040033
:10347000938545BA1145EFC01065DDB417170020DC
:103480000357E7FC971600209386D6E31716002013
:10349000130606C297350400938505BAE1BF854738
:1034A000171700202300F7FCEF8010049735040065
:1034B0009385C5B959B5171700200347A7FA854763
:1034C00097350400938505B9E319F7E6C5B7854735
:1034D00017170020A303F7FEEF80100197350400B3
:1034E000938505B899BD9717002083C717FD9735B9
:1034F0000400938565B7E38207E4CDB797170020F2
:1035000093878776885FEFD0D374AE862A86973507
:103510000400938525B649B50146A2854A85EF602A
:1035200010563DBC59719307C0102307C100050612
:10353000A2D4A6D22A84AE842316F100A307C10028
:10354000B54715466C0068102308F10086D6EFD009
:103550000001701097350400938505EB2545230B7A
:103560000102EFC0505695467000A6852285EF00F7
:10357000E11CDD47631CF500154597350400938574
:10358000A5E9EFC0903F2285EF004119B6502654BF
:10359000965465618280011106CE2AC62EC4EF00C2
:1035A00041640347850095476314F702834705008C
:1035B000A2463246C18B89CF1C4D973504009385B6
:1035C000A5DFD58F1CCDF240254505616FC0B04FFA
:1035D0001041BA8697350400938505E01182058A6B
:1035E000DDB7011106CE2AC62EC4EF00815F034766
:1035F000850095476316F70283470500A2463246C9
:10360000C18B99CF1C4D13C7F6FF973504009385E6
:1036100025D5F98F1CCDF240254505616FC0B04A14
:103620001041BA86973504009385C5D51182058A65
:10363000DDB715476376C71E5D71A2C4A6C2CAC0B6
:10364000B2842E8986C64EDE52DC56DA5AD85ED651
:1036500062D466D26AD06ECE2AC4EF0021542A8486
:10366000224697350400938565BD7DC9328532C4F5
:10367000EF00E159FD5701472246630FF50C354C29
:10368000973C0400938C0CC2171D0020130DCD5DD8
:1036900093090402137AF50F973D0400938D8DB9B9
:1036A000B30BE90083C60B00B1476393F608130818
:1036B00047006354980803CB1B00930A3700B38676
:1036C0006A0163D79606CA9683C606006392860788
:1036D00081460146B385DB0083C51500850693F658
:1036E000F60F2E961376F60FE376DBFEB3866B01AC
:1036F00083C62600639EC6023307590103460700AE
:10370000E685154542C63AC4EFC0F03B8326CD029C
:103710002247324854CC0347070093060003630254
:10372000D70693061003630AD708DA9A13F7FA0F3D
:1037300005071377F70FE36597F6B64026449644DE
:103740000649F259625AD25A425BB25B225C925CE1
:10375000025DF24D6161828097350400938545B129
:103760002644B64096440649F259625AD25A425B00
:10377000B25B225C925C025DF24D154561616FC0E7
:1037800090343D46B30509014E85EFD07378A30709
:10379000040283C73B0181C74E85EFB0505C8306AE
:1037A0009400973504009385A5B04E862545EFC05B
:1037B00090318545528535358DBF03C74B0003C514
:1037C0005B002207598DEFD0431203A60D0083A69C
:1037D0004D00EFC02342EFD0935248D803C86B008E
:1037E0002308040383C87B0083C78B0042C6A2085A
:1037F000B3E8F800231C140346C4EFD09345A24855
:1038000032482A87AE874E8697350400938505ADEA
:103810001545EFC0502B4E85EFB0505E894559BF1E
:103820008280797103C5818606D622D4EF00613B80
:103830000347850095476313F7061C4D2A84B9CFCB
:1038400013F7170005C7973504009385A5AC1545F8
:10385000EFC0B01274001306000383552401035512
:10386000C400C931B25022544561828013F7270049
:1038700001CF973504009385A5AB1545EFC0F00F38
:10388000740013061003D1BF918B89CB97350400C8
:10389000938585AB1545EFC0500EE9B783C7818688
:1038A0008507858B2384F18675BF411122C421646D
:1038B0009305048099460146254506C697D0FF1F0B
:1038C000E78000DC930504802244B24099461386C9
:1038D000C1862945410117D3FF1F670063DA99E1CB
:1038E0000145828075DD011152C403DA018726CAC1
:1038F00093548A008504A204C204C18056C2B38ACC
:103900004441C20A22CC4AC82E862E842A89973581
:103910000400938525BF254593DA0A014EC606CEDD
:103920009389C186EFC0301A63ED8A0883D5018779
:1039300093F7F50FB1CF8D6783D501879387078004
:10394000A2864A86BE95294597D0FF1FE78040D3BF
:103950001375F50F29ED83D749001566A2972398B3
:10396000F18603D7018783D7E1866309F70063F304
:10397000E700B297998F1396070141822545973545
:1039800004009385A5B9EFC010141375F40F0DA0B2
:103990008D6793870780930600100146BE952545E5
:1039A00097D0FF1FE780C0CD1375F50F49D50145AE
:1039B000F2406244D2444249B249224A924A0561E5
:1039C0008280B3079440D297C207C183A18303C703
:1039D0004900850793F7F70F9396870011EB9386BD
:1039E000170093740AF0A206C204C206C180C18205
:1039F00083D7E18663F6F40033879600E3C9E7FADC
:103A00000D6A130A0A800146B3854401254597D003
:103A1000FF1FE780E0C61375F50F51F983D50187C5
:103A2000A2864A86D29505B7411122C41384C18665
:103A300022858145194606C697D0FF1FE78060FEA4
:103A40009307B0FA2300F4008D352244B240973535
:103A500004009385A5A3254541016FC00072A165AF
:103A6000411199461386C186938505802D4506C66A
:103A700097D0FF1FE780C0C003C7C1869307B00A75
:103A80006303F7005537B24083D6018703D6E1863A
:103A900097350400938545A0254541016FC0B002CC
:103AA00083D741AE0145638B071003D561AE6366D2
:103AB000F50023A201AE014582803385A740D1479E
:103AC0003355F5021375F50F01E5239201AE82809F
:103AD000130101BD23248142232611422322914256
:103AE00023202143232E3141232C4141232A5141BC
:103AF00095471374F50F63F3A70015442286973595
:103B00000400938565A32545EFC0E07B014981440E
:103B1000938981AE514AA14A9377F90F03D561AEDB
:103B2000171700200347978663EA8704D1473304B9
:103B3000F40226860C082A94239381AEA147631BC6
:103B4000F7060945EF40F06303D761AE83D741AE76
:103B500005456364F70023A201AE8320C14203241C
:103B6000814283244142032901428329C141032A1E
:103B70008141832A4141130101438280B3074903F4
:103B80001408AA97CE9733859600631E5701BE8509
:103B9000EF5060282317A1008357E1000509BE9468
:103BA000C204C18095BFAA851306E1003E85EFA03F
:103BB0002022DDB70145EF70A00279B782800111A4
:103BC00006CE22CC26CA4AC84EC691E901442285B7
:103BD000F2406244D2444249B24905618280AA89D6
:103BE00075D583D7018703D6E1862E849564638AD1
:103BF000C7006374F60015673A961D8E931406018C
:103C0000C180268697350400938545852545EFC0FC
:103C1000806B938714F06356F4009307F00F63EA08
:103C20009700973504009385E5842545EFC0A0698A
:103C300071BF83D4018733878400956763C7E7002A
:103C4000A2854E856939953159B71569330999406F
:103C5000420913590901CA854E85513125D9ED759F
:103C6000A695A295C20523980186C18133852901B5
:103C7000D1BF83D641AE81EA97350400938505868E
:103C800025456FC0804F03D661AE4111918E9735A7
:103C900004009385A585254506C6EFC0C06213873D
:103CA00041AE8355070083D761AE138581AE9D8DEC
:103CB000C2053E95C1812137B24023A201AE410128
:103CC0008280411183D741AE22C426C206C6AE9778
:103CD0001307401FAA842E84635AF700593F972583
:103CE00004009385657D2545EFC0204983D741AE0B
:103CF000138581AE2286A6853E95EFD0732103D62B
:103D000041AE229642062244B2409244418223921E
:103D1000C1AE972504009385A57B254541016FC061
:103D2000805A011126CA06CE22CC4AC84EC652C4B9
:103D300056C2814459C1D1C183D7E18603D40187DA
:103D4000638D870663F587081D8C42044180AE8928
:103D50002A892286972504009385C56C0145EFC00A
:103D60008056A28463F38900CE84C2040D6A83D78F
:103D7000E18603D70187C180938AC186130A0A802E
:103D800063FAE704A6864A86B38547012D4597D096
:103D9000FF1FE780E08E83D72A00A6972397F1863E
:103DA000EFF0BFB083D6018703D6E18697250400E4
:103DB000938585682545EFC00051F2406244268511
:103DC0004249D244B249224A924A0561828015672B
:103DD0003A949DBF15671D8FB385470163D5E400F5
:103DE000A6864A8665B79569B389F9406D743E9495
:103DF000C20993D909012694CE864A8642042D45EC
:103E000097D0FF1FE780C0874180A2863306390123
:103E1000D2852D452397018697D0FF1FE7804086E6
:103E200083D72A003E94239781869DBF397106DE91
:103E300022DC26DA4AD84ED652D456D25AD05ECE9A
:103E400062CCE9C9328455CA368CE9C6BA8B79C3CB
:103E50002A89AE8A2300AC0085448149114B330680
:103E600034416353CB001146137AF60F5286B38563
:103E70003A01480002C2EFD0B3090347510083471B
:103E8000610003467100834641004A97CA974A96EB
:103E9000050789070D06CA962307E100A306F1006E
:103EA000A307D1002306C10078008147034607001D
:103EB000B306F9008507B18E2300D70093F7F70FFB
:103EC0000507E39567FF8357C1000357E100D299C7
:103ED00033059C00B98F2316F100B24711462C0020
:103EE000910493F9F90F3EC493F4F40FEFD0530209
:103EF000E3E789F623809B0005442285F250625453
:103F0000D2544259B259225A925A025BF24B624C35
:103F1000216182800144D5B71D7186CEA2CCA6CA8C
:103F2000CAC8CEC6D2C4D6C2DAC05EDE62DC66DAE9
:103F30006AD86ED67DC52E84E9C532897DC2368C9D
:103F4000EDC2834D0500AA84814C054D9149138A29
:103F50003D00938A1D00138B2D00930B0010330638
:103F6000A44163D3C90011469377F60F3E86B3850B
:103F7000A40148083EC602CAEFD083798346610196
:103F8000034741010346710183475101358F230ADD
:103F9000E100B18F33C7ED00B346DB00A30AF100A7
:103FA0003346CA00B3C7FA00A30FE100A30ED10045
:103FB000230EC100230FF1007408014783C70600D8
:103FC0003386ED00050793870710918FB3E77703DA
:103FD0008506A38FF6FEE31337FFF24733059901F9
:103FE00011462C083ECCEFD0A372B247910C93FC43
:103FF000FC0F3E9D137DFD0FE3638DF623009C01B6
:1040000005442285F6406644D6444649B649264AC8
:10401000964A064BF25B625CD25C425DB25D256102
:1040200082800144F9BF39719307400622DC33F4E2
:10403000F50226DA13077100B684740806DEB3773A
:10404000F6023304F402B387C5003E9493978500CB
:10405000A181DD8D9317860021825D8E2314B1002E
:104060002315C1002C001146D13389C4834571004A
:10407000680882942285F2506254D2542161828071
:10408000938701120547238CE700184110455445DA
:1040900098C30357450090C7D4C710495449239289
:1040A000E70090CBD4CB239DB70082801841938743
:1040B0000114104598C303574500544590C72392F7
:1040C000E70058551049D4C7544998CF97250400A4
:1040D000938585540547254590CBD4CB238EE700A7
:1040E0006FC0A009397126DA4AD84ED652D456D2BA
:1040F0005AD006DE22DC62CE66CC2A89EFE0633A33
:104100009374F50F8149254BE54A172A0400130AD9
:104110006A4691ECF25062544E85D2544259B259DB
:10412000225A925A025B724CE24C21618280034710
:104130000900930707FD93F7F70F637CFB009307D4
:10414000F7F993F7F70F63E2FA06930797FA93F7F5
:10415000F70F139487016184FD14230089002685DD
:10416000EFC0A3782A86AE8603250A0083254A007D
:1041700093F4F40F0509EF1001392AC422852EC6E5
:10418000EFC0A3762246B246EFB0D3262A8C4E85E6
:10419000AE8CEFC0A37C2A86AE866285E685EFA052
:1041A000533AEFC0C36EAA89ADB79306F7FB93F6F7
:1041B000F60F8147E3EFDAF8930797FC49BF411107
:1041C00022C406C6830795022A8499C7130595025F
:1041D000EFD04351238DA10C8307D41291CB13054B
:1041E000D412EFD0C34FEFD083319387810AC8D365
:1041F000B240224441018280011126CA9304150075
:1042000022CC97250400938525452A84268506CE51
:104210004AC84EC6EFC0201B631E05109725040038
:104220009385C5432685EFC0001A6302050E8544B9
:104230008307D4036386070C13059402EFD0834AE7
:1042400085491379F50F1305D4036387340F894724
:10425000638CF418EFD00349A38EA10C631A3901C3
:10426000794681451385F10F23890186EFE06F9729
:104270008307D40885C31305D408EFD0A34603C72A
:104280002187930717002389F1869387810ABA97BC
:10429000A38BA7048307D40D85C31305D40DEFD0DA
:1042A000634403C72187930717002389F186938707
:1042B000810ABA97A38BA7048307D41285C3130579
:1042C000D412EFD0234203C7218793071700238915
:1042D000F1869387810ABA97A38BA7048307D41723
:1042E00085C31305D417EFD0E33F03C72187930796
:1042F00017002389F1869387810ABA97A38BA704B5
:10430000F2406244D2444249B24905618280972515
:1043100004009385E5342685EFC0E00AE31905F033
:104320002685972504009385E533EFC0C0098944AD
:10433000E31005F08144EDBDEFD0C33A238FA10C0B
:10434000631A9900794681451385110E23890186E8
:10435000EFE02F898307D40885C31305D408EFD075
:10436000633803C72187930717002389F186938752
:10437000810ABA97A38CA7028307D40D85C31305BE
:10438000D40DEFD0233603C7218793071700238965
:10439000F1869387810ABA97A38CA7028307D41268
:1043A00085C31305D412EFD0E33303C721879307E6
:1043B00017002389F1869387810ABA97A38CA702F5
:1043C0008307D417E38E07F21305D417EFD0833198
:1043D00003C72187930717002389F1869387810AF2
:1043E000BA97A38CA70229BFEFD0C32FA38FA10C2C
:1043F00001BF411122C406C6830795072A8499C7C5
:1044000013059507EFD0032EA38DA10C8307D408C5
:1044100099C71305D408EFD0E32C238EA10C830792
:10442000540B91CB1305540BEFD0632BEFD0230D1E
:104430009387810A88D7B24022444101828041118A
:1044400022C426C206C6830715058144014499C7C4
:1044500003444505130404FD1374F40F8307550644
:1044600099C713055506EFD0E3279374F50F2286FD
:10447000A686972504009385E51F2545EFB0B06417
:104480001374B40F8D47631FF4009D4763FC9700BE
:104490009707002083C7677D93E747001707002031
:1044A0002305F77CB24022449244410182800111ED
:1044B00026CA8146B284014652C456C206CE22CCD8
:1044C0004AC84EC62A8AAE8AEFB0E35541CD93075B
:1044D000E0046386F400930730056395F408972998
:1044E00004009389291503A6090083A64900528573
:1044F000D685EFB0237037949800EFC0433913048A
:1045000004682A8933758502EFC0434503A6090074
:1045100083A64900EFA0F37597270400938707123D
:104520009043D443EFA0F3742A8A33558902AE8AAC
:10453000EFC0C3422A86AE865285D685EFA07300AF
:1045400013073005AE876395E400B7070080AD8F91
:10455000F2406244D2444249B249224A924ABE855C
:104560000561828001458147E5B7011126CA814670
:10457000B284014652C456C206CE22CC4AC84EC6A8
:104580002A8AAE8AEFB0234A41CD9307500463864E
:10459000F400930770056395F40897290400938944
:1045A000690903A6090083A649005285D685EFB0A4
:1045B000636437949800EFC0832D130404682A893C
:1045C00033758502EFC0833903A6090083A649002D
:1045D000EFA0336A97270400938747069043D4439C
:1045E000EFA033692A8A33558902AE8AEFC00337B8
:1045F0002A86AE865285D685EFA0A3741307700570
:10460000AE876395E400B7070080AD8FF240624447
:10461000D2444249B249224A924ABE85056182800B
:1046200001458147E5B7135785009357050113D816
:1046300085009376F50F01111377F70F93F7F70FB6
:10464000618593F5F50F1378F80F99C211C3B9E39B
:10465000230CD100A30CE100230DF100A30DA10058
:1046600003459101834781010347A1012205A30E60
:1046700001014207C98F230EB1000345B101D98F53
:104680000347D1018345C101620522075D8DD98DA4
:104690000561828032951375F50F1313850113534D
:1046A00083415D466357660861463363C3028507ED
:1046B0001376D70F114593F7F70F6305A60025452D
:1046C000631AA6007946637FF60205071377F70F92
:1046D00085470DA809466312C7041386067D930813
:1046E0004006B36816036385080013F5360011C54C
:1046F000130500193366A60219EE75466374F600B9
:1047000085470D47230CD100A30CE100230DF100D8
:10471000A30D6100B1B77146D5B77D46E374F6FECF
:10472000B147E314F7FA850693F6F60F8547054778
:10473000D1BFE35903FC6105FD171313850193F7FE
:10474000F70F13538341DDFF7D171377F70F1146E2
:10475000F947E309C7FA1946E306C7FA2546E30312
:10476000C7FA2D46E300C7FA89476316F702138696
:10477000067D93074006B367F60291C793F83600AB
:10478000F547E38108F893070019B367F60293B77A
:104790001700F10785BFFD4735F7FD1693F6F60FB5
:1047A00031478DB783471500034705000111A20764
:1047B0005D8F834725008346350006CEC207D98F1B
:1047C000034755008345450017060020130686A5BC
:1047D00003065621E206220733E5F600D98DA135FE
:1047E000135885001356050193D7850013F7F50F6D
:1047F00093F7F70F935685011376F60F9375F80F1D
:104800001375F50FEF80806E9707002083C797A17F
:1048100005476385E70011476396E700F2400561AD
:104820006F80407CF24005618280497123248116AB
:104830001384810A8307340083C8D10A03C8C10ADC
:1048400003C7A10A83C6910A03C6810A97250400FB
:10485000938545E54810232611162322911623201F
:104860002117232E3115EFD0533C4810EFD073435E
:1048700018485C48030604033AC03EC20308140308
:104880005C4418445410972504009385A5E336959D
:10489000EFD0B3394810EFD0D3405C103E9583077A
:1048A000640017260400130666DF89C71726040074
:1048B000130646DE97350400938585ACEFD0F336BA
:1048C0004810EFD0133E544C104C5C109725040058
:1048D000938545E03E95EFD053354810EFD0733CBB
:1048E000030634035C103E9597250400938545DF4D
:1048F000EFD0B3334810EFD0D33A03072403AA8490
:1049000048503ACE1384810AEFC0B33472475C102A
:10491000AE862A8697250400938585DD338597002A
:10492000EFD0B3304810EFD0D3375C1003C6C10DC1
:1049300097250400938545DD3E95EFD0132F481051
:10494000EFD033365C10972504009385E5DC3E9567
:10495000EFD013341389610CA28497390400938932
:10496000A9A103C6740519CA481032CEEFD073331B
:1049700072465C10CE853E95EFD0332B8504E392D2
:1049800024FF4810EFD0F3315C1097250400938585
:1049900025D93E95EFD0D32F973404009384C49D3E
:1049A0000346940319CA481032CEEFD0932F7246B3
:1049B0005C10A6853E95EFD053270504E31224FF33
:1049C0004C102545EFB0607B8320C116032481166F
:1049D00083244116032901168329C115756182803C
:1049E000411122C406C626C2830755012A84B9C7CD
:1049F000A946938707FDB387D702034765011307CD
:104A000007FDBA97A385F10A03077501834785015E
:104A1000130707FD3307D702938707FD3E972386C9
:104A2000E10A830795010347A501938707FDB38733
:104A3000D702130707FDBA97A386F10A83079402EA
:104A400081CB130710046391E71485472387F10A8C
:104A50008307D4039384810A99C71305D403EFC055
:104A6000134888C4CCC40306140509CA8844CC443E
:104A7000238CC10CEFF0BFA388C4CCC483075406B9
:104A800099C713055406EFC0934588C8CCC80306E0
:104A9000940709CA8848CC48A38CC10CEFF0FFAC3E
:104AA00088C8CCC88307D40899CF1305D408EFC0B1
:104AB000134397270400938767BB9043D443EFB019
:104AC000631388CCCCCC8307140A99C71305140A46
:104AD000EFC053412394A10C8307540BB9C7A946D7
:104AE000938707FDB387D7020347640B130707FDBE
:104AF000BA972385F10A0307740B8347840B1307C6
:104B000007FD3307D702938707FD3E97A384E10A89
:104B10008307940B0347A40B938707FDB387D70242
:104B2000130707FDBA972384F10A8385340085674C
:104B300003C6C10A938707E11307C0033307E602E0
:104B400083C6D10AB387F502BA97B69723AAF10CA8
:104B50001707002013074711835707003A8413F5FE
:104B6000870039E1038564000547631FE50203C739
:104B7000A10A11EF8844CC4401468146EFA0B36AF4
:104B800005E92387010AB9A02387010AD1B5FDD120
:104B900075D2EDD293E787001385810A17070020AD
:104BA0002314F70CEFF01FC083876400E1F7D1BF37
:104BB0008848CC4801468146EFA0F36679D183C787
:104BC000A10AE1D3130680079385810A13850103A7
:104BD000EFC0133403C501CE9D4705053365F502CB
:104BE000130680079385810A2380A1CE930780074F
:104BF0003305F502938781CE3E95EFC07331EFF018
:104C0000DFC25C542244B24092441707002023279D
:104C1000F7081306800781451385810A41016FD08B
:104C20004FFC0171232C811E232A911E1306101E96
:104C30002A84AE8468008145232E111E2328211F5B
:104C4000EFD02FFA81458147014701465148CD48B1
:104C50005D436341960899C12306F1001306A00243
:104C6000A6852285EFB060748347C1005147338623
:104C7000A440B387E7029305150078007D16A2953E
:104C800085073305F700EFC0B3281306A002A685F9
:104C9000228503491400EFB04071894763C4A70817
:104CA0000345C100D1473305F5027C0005053E955B
:104CB000EFF04FC3631DA90419469725040093859F
:104CC00065981305D100EFB0A07B2DC56800EFF00B
:104CD0003FD135A8B306C40003C50600930665FDA1
:104CE00093F6D60F91EA850793F7F70F6361F30206
:104CF000854501470506B1BFB3860703130E011FA3
:104D0000F296BA96A38EA6E00507E3D5E8FE8320C7
:104D1000C11F0324811F8324411F0329011F130185
:104D2000012082803307F4000347070085073349D9
:104D3000E900ADB71946972504009385E590130562
:104D4000D100EFB0E07339E9194697250400938547
:104D5000E58F1305D100EFB0A0720DED1946972530
:104D600004009385E58E1305D100EFB0607119ED55
:104D70001946972504009385E58D1305D100EFB002
:104D8000207051D56800EFF08FEB51B76800EFF05D
:104D9000AFC6B5BF6800EFF0CFE595BF6800EFF094
:104DA0000FC2B5B7757122C526C34AC1CEDED2DCAB
:104DB000D6DADAD806C7AA892E8981440144814708
:104DC000130A4002854A354B139704014183636CF3
:104DD0002701BA402A449A440A49F659665AD65AD3
:104DE000465B49618280338799000347070063006F
:104DF0004703639C5701631D67019C18A297A28516
:104E00006800238E07F8313D8147850475BF014452
:104E10009C18A29705041374F40F238EE7F89337B8
:104E20003406E5B7411106C6138501CE8347050058
:104E3000130780078145B387E70213068007A107A0
:104E40003E95EFD00FDAB2408145114541016FB078
:104E5000B06D138501CE8347050013078007B38724
:104E6000E702A1073E958280138501038280397194
:104E700026DA971404009384646D62CC66CA328C7F
:104E8000B68C9040D44006DE22DC4AD84ED652D4AE
:104E900056D25AD05ECE6AC842C046C21714040029
:104EA0001304446B3AC43EC6EFA0D35410405440A0
:104EB000171D0400130D8D6AEFA0A35B2247B247B4
:104EC0009040D4402A8AAE8A3A85BE85EFA093529C
:104ED00010405440EFA0E3592A89AE892A86AE8655
:104EE0005285D685EFB0831C03260D0083264D0026
:104EF000EFA05350EF00014C2A8BAE8B5285D68524
:104F0000EF0021422A8AAE8A4A85CE85EF006141B0
:104F1000024892482A894286C686AE896285E6851D
:104F2000EFB0C3189040D440EFA0D34C1040544091
:104F3000EFA0235403260D0083264D00EFA0934BD2
:104F4000EF0041472A84AE844A86CE865285D685B4
:104F5000EFA0534A2286A686EFA0D3492286A686D2
:104F6000EFA053492A84AE845A86DE865A85DE85B0
:104F7000EFA053482A86AE862285A685EF90735C03
:104F8000EF00D10AEF00414C2A86AE86EF90735BAA
:104F9000971704009387075D9043D443EFA0934590
:104FA000971704009387875C9043D443EFA0934402
:104FB000F2506254D2544259B259225A925A025B68
:104FC000F24B624CD24C424D216182809707002007
:104FD00083C717CA81CF97F7FF1F83D70746FD17EF
:104FE000C207C1831307A0036375F70023AC0186D2
:104FF000828071714ECF9389818783A7090056CB38
:10500000938A01CE850722D526D352CD5AC95EC7D1
:1050100062C566C36AC106D74AD123ACF18683C490
:1050200001CE014A130C80075684971C0400938C10
:105030006C5B054D9D4B154B338984035699830753
:10504000E900F1CF03A60C0083A64C00032509025A
:1050500083254902EFA0B32E6343050C834709045F
:10506000638FA70B93171A001808BA970357890282
:105070002390E7003C00D29723809700050A99040B
:10508000B3E47403E31A6AFB0357810183570101F8
:10509000998F13D7F741B98F998F9394070113070D
:1050A000400BC1806358F70093078016B384974084
:1050B000C204C1802686971504009385255368088D
:1050C000EFD0A3366C082545EFB0200B938714FF73
:1050D000C207C1837947636FF70803499100130A38
:1050E00080078545014533094903210922994A86EC
:1050F000EF90E0398344B10085450145B384440312
:10510000A104A2942686EF9080384A868D450945F1
:10511000EF30105326868D450945EF30705283A736
:10512000090017F7FF1F0357473163E7E70203C57D
:1051300001CE9304800733059502B307A4000387CB
:10514000E70019CB03C7C11593850114631B070E34
:1051500021052295EFE09FF5BA502A549A540A5936
:10516000FA496A4ADA4A4A4BBA4B2A4C9A4C0A4DD7
:105170004D6182809307D002E3F397FA834B81005D
:10518000930A80078545B38B5B030145138C8B0025
:10519000229C6286EF90A02F034B9100854501452C
:1051A000330B5B03A29B210B229B5A86EF90202E90
:1051B000034AA10085450145330A5A03210A229A70
:1051C0005286EF90C02C0349B10085450145330953
:1051D0005903210922994A86EF90602B8344C1002C
:1051E00085450145B3845403A104A2942686EF901B
:1051F000002A62868D450945EF3090445A868D45D8
:105200000945EF30F04352868D450945EF30504354
:105210004A868D450945EF30B04226868D450945C1
:10522000EF30104283C701CEB38A570303A74B0365
:10523000A29A83A74A03E314F7EE85472380FA0472
:10524000F9BD03A8870183A8C701984B9049DC4B9F
:10525000D4498845CC45EFF09FC12A86AE862A897D
:10526000AE8968089715040093854539EFD0E31B94
:105270006C082545EFA0707017F5FF1F03458504E6
:10528000EFB0A3662A86AE864A85CE85EFA053008E
:10529000E354A0EC03C601CE3306960285450145D2
:1052A00021062296EF90A01E03C601CE3306960279
:1052B0008D45094521062296EF30903803C501CE71
:1052C0003305950221052295EFE05FDE23AC0186D0
:1052D00061B5130600028145138501126FD06F90EE
:1052E0009707002083C7D79891E723AE018623AAAA
:1052F0000186828097F7FF1F83C7D7F2094763882B
:10530000E700F11793F7F70F0547E360F7FE7971B0
:1053100022D426D24AD006D64ECE52CC56CA5AC82D
:10532000138901CE03C401CEEFB09015CA84630186
:10533000051893068007B305D4029387C1879C4361
:10534000850723AEF186CA950387E5006302071639
:105350001387418718431306170023AAC1861146F5
:105360006362E6022254B25092540259F249624AF0
:10537000D24A424B971504009385C52125454561C6
:105380006FA0707403C681131387011215E603C55D
:1053900001CE3305D5029705002083D5A58F2105C1
:1053A0004A952254B25092540259F249624AD24A62
:1053B000424B45616FE0DFCC638C070E23AE018664
:1053C00003280701832847015C47904DD44D1847B7
:1053D0008849CC49171B0400130B4B1A17040020F3
:1053E00013048488EFF0BFA803260B0083264B002C
:1053F0002A89AE89EFA0A37417FAFF1F130A8AE265
:1054000083DAA1136350A0049717040093878717CA
:105410009043D4434A85CE85EFA083676348050057
:105420005C540547B3875741637EF70003250A2B79
:1054300083254A2B4A86CE86EF90B3102328AA2ACA
:10544000232ABA2A0328C40217F5FF1F03450509BA
:105450003308584142C6EFB0434997170400938779
:10546000E7129043D443EFA0C30003260B0083262A
:105470004B00EF90130D03260A2B83264A2BEFA037
:1054800063773248AE872A87971504009385C51144
:1054900025454A86CE86EFA0106303C501CE93074B
:1054A00080073305F5028355C40221052695D5BD35
:1054B000B250225492540259F249624AD24A424BA3
:1054C00045618280914763E1C70A171704001307FB
:1054D000E7250A063A961C42411122C406C6BA972D
:1054E0002A84828797250400938585691145EFA05A
:1054F000D048A2851145EFA050482244B2409725DC
:1055000004009385A569114541016FA01047A9CA00
:105510009042EF50A0792244B240014697650000C6
:105520009385E52C3D4541016F40A01995CA224461
:10553000C8C2B24003C5A6002394B600368695457E
:1055400041016F80D0742244B24041016FF0605D30
:105550002244B2402E86AA85410109456F30B042EF
:10556000B2402244410182808280411106C6EF9000
:105570009032EF90C07AB24041016F90F073557154
:105580005810930631021306210293051102930766
:1055900051021305610286C7EF70300F97F7FF1FA6
:1055A0009387876C83D70700BD9B17F7FF1F231DC9
:1055B000F76AEFF01F8A030305039305E00483569F
:1055C00061020347110283472102034831028348E5
:1055D0004102034E5102175604001306A69E63169D
:1055E000B300173604001306A6DB830E150313035E
:1055F0005004032F8500832FC50097350400938541
:1056000025DA63866E00975504009385A59B0323D6
:105610000501832345017AC41ACC1ECE7EC672C012
:105620002EC832C297250400938545B117F6FF1F97
:10563000130606A82810EFC0535FEF80D07D281016
:10564000EFC03366938701889043931505019386D5
:1056500001162810C181EFF0FFE6BE40696182802B
:10566000411106C623A0B18801C61C4223A0F11631
:1056700097F7FF1F83C777BB8DEB0545EFB0B04DA4
:1056800097150400938545192545EFA0102F97F72E
:10569000FF1F83D7675DB24093E7070117F7FF1F2E
:1056A0002314F75C41016F80507605470545639CE4
:1056B000E700EFB0504A0545EFB0806D9715040044
:1056C0009385C516D1B7EFB010490545EFB0104C22
:1056D0000545EFB0E06B971504009385A5166DB7EF
:1056E000411122C42A848307D40306C626C22E850C
:1056F00089C71307F003639CE70297F7FF1F83C76F
:1057000037DD17F7FF1F1307B7B897F6FF1F93860C
:1057100016B517F6FF1F130676B19715040093858B
:10572000A51D2244B240924441016FC0135097F727
:10573000FF1FA38D07AE97F7FF1FA38207B297F74E
:10574000FF1FA38707B4034704008547AE8463FAAD
:10575000E7009305D40317F5FF1F130535ADEFC020
:1057600033538307940791CF03470400894763FAB3
:10577000E7009305940717F5FF1F130555AEEFC01B
:1057800033518307540B91CF034704008D4763FACD
:10579000E7009305540B17F5FF1F130575AFEFC016
:1057A000334F8307140F91CF03470400914763FAE7
:1057B000E7001305140FEFB0F37297F7FF1FA389EB
:1057C000A7D0014697550000938565E41305C012E4
:1057D000EF30306FEF60405197F7FF1F83C757CF0F
:1057E00017F7FF1F1307D7AA97F6FF1F938636A751
:1057F00017F6FF1F130696A397150400938505134C
:10580000268505B7411126C206C622C403470500F6
:105810008947AE8463F5E7029305D5032A8417F51B
:10582000FF1F1305A599EFC0B34613059407EFB00A
:10583000736B97F7FF1F2395A79EEF606045EF609E
:10584000204997F6FF1F83D6A69D17F6FF1F130664
:10585000E69697250400938565852685EFC0F33C81
:10586000854797F5FF1F9385A58417F5FF1F13053F
:10587000A59317F7FF1FA30DF788EFC0734197F5A6
:10588000FF1F9385B59A17F5FF1F13058588EFC095
:10589000334097F5FF1F9385959C17F5FF1F130560
:1058A000658AEFC0F33E97F5FF1F9385759E17F548
:1058B000FF1F1305458CEFC0B33D9705040093858A
:1058C000E54D17F5FF1F13058592EFC0733CEF60A0
:1058D000203C014697550000938545CC7945EF3033
:1058E000505E2244B2409244014697750000938571
:1058F00065F01305000541016F30B05C411122C411
:1059000026C24AC006C68307D503AE841719040011
:105910001309493917F4FF1F1304043589C7130706
:10592000F0036391E70417F5FF1F03459599EFA076
:10593000D37B0326090083264900EF909333EFB011
:10594000133C28C0EFB0F330AE862A8697150400CA
:105950009385C5352244B2400249268592444101CF
:105960006FC0B32C1305D503EFB0D35797F7FF1FC4
:10597000A389A7941375F50FEFA0337703260900C9
:1059800083264900EF90F32EEFB0733728C0EF6005
:10599000A0352840EFB0F32BAE862A869715040079
:1059A0009385C53245BFAA870387D7032E8509C7CC
:1059B0009306F0036315D70297F7FF1F83C7D786B7
:1059C000171604001306462B89E717160400130662
:1059D000262B971504009385252C6FC013254111A4
:1059E0001385D70306C622C42E84EFB0B34F97F7B2
:1059F000FF1FA38BA782EF60202F97F7FF1F83C79E
:105A0000B782971504009385252889E79715040028
:105A10009385052822852244B24041016FC0532757
:105A2000411126C206C6AA8422C48387D4032E85C8
:105A300089C71307F0036396E70497E7FF1F83C73F
:105A4000D77E05476385E70289CB09476386E7026E
:105A5000B24022449244410182809715040093850C
:105A6000252B2244B240924441016FC07322971506
:105A700004009385652CF5B7971504009385852E52
:105A8000CDB79384D4032E8426859715040093857F
:105A90006530EFC033271DC1894717E7FF1FA306F5
:105AA000F77897150400938525332285EFC0531EA0
:105AB0002244B240924441016F6000232685EFB03A
:105AC00073421375F50F97E7FF1FA380A7768547ED
:105AD000971504009385452EE309F5FC97150400FE
