:040000006F2000333A
:1000040000000000000000009000002022050020F5
:10001400A9BDF9F5940000200000000000000000D4
:10002400960000209800002000000000000000005E
:100034009A000020000000009C0000200000000046
:100044009E0000201603002044030020A40000208A
:10005400A6000020A8000020AA000020AC00002078
:10006400AE000020B0000020C60000205A0100208D
:100074009E050020B8000020BA000020BC0000202B
:10008400BE000020EE01002082020020C4000020F7
:1000940001A001A001A001A001A001A001A001A054
:1000A40001A001A001A001A001A001A001A001A044
:1000B40001A001A001A001A001A001A001A001A034
:1000C40001A001A001A037370040834747009946AB
:1000D4004111BD8B638CD70231476384E706114716
:1000E400639EE702A303010017460000034606448B
:1000F40037370040834771006315F6022C001385DF
:10010400016597B000E0E780C0EE09A88347570077
:1001140093F7F70F2304F100834781004101730033
:10012400203083477100834687000C08AE97238CE8
:10013400D7FE83477100850793F7F70FA303F100F8
:1001440055BF2800971001E0E78060661375F50F2E
:10015400A303A1000346710055B737370040834716
:10016400474099464111BD8B638CD7023147638464
:10017400E7061147639EE702A30301001746000048
:100184000346E63A37370040834771006315F602A9
:100194002C001385416697B000E0E78080E509A84C
:1001A4008347574093F7F70F2304F10083478100F7
:1001B40041017300203083477100834687400C0857
:1001C400AE97238CD7FE83477100850793F7F70F0B
:1001D400A303F10055BF2800971001E0E780E06E0B
:1001E4001375F50FA303A1000346710055B73747F4
:1001F40000408347478099464111BD8B638CD702E9
:1002040031476384E7061147639EE702A3030100B5
:100214001746000003469631374700408347710074
:100224006315F6022C001385816797B000E0E78020
:1002340040DC09A88347578093F7F70F2304F100A4
:100244008347810041017300203083477100834656
:1002540087800C08AE97238CD7FE834771008507EF
:1002640093F7F70FA303F10055BF2800971001E09F
:10027400E78060771375F50FA303A10003467100AF
:1002840055B737470040834747C099464111BD8B56
:10029400638CD70231476384E7061147639EE70204
:1002A400A3030100174600000346A6673747004032
:1002B400834771006315F6022C001385C16897B05B
:1002C40000E0E78000D309A8834757C093F7F70FEE
:1002D4002304F100834781004101730020308347E8
:1002E4007100834687C00C08AE97238CD7FE8347E2
:1002F4007100850793F7F70FA303F10055BF28009A
:10030400971001E0E780E07F1375F50FA303A100C8
:100314000346710055B7411122C637140040835774
:10032400C40913973701635B0700BD450145970076
:1003340001E0E780A0E28567231EF408324441010E
:1003440073002030411122C6371400408357E4095A
:100354008357E4091397170163590700970001E0D5
:10036400E78000D59167231FF408324441017300EC
:100374002030B7170040930670052380D704130775
:1003840080FA2380E7040100010003C6B704137652
:10039400F60DA385C70423800704137605024DC216
:1003A40003C6A700118A1DE22380D7042380E70433
:1003B4000100010003C7A700136747002385E70076
:1003C4009307004B01000100FD17EDFFB717004034
:1003D400930670052380D704130780FA2380E7046B
:1003E400010001007D892394A700010001000100A0
:1003F4000100238007042380D7042380E70401003D
:100404000100010001003727004093061005A303F3
:10041400D78023800704B717004013077005238093
:10042400E704130780FA2380E7040100010003C7EF
:10043400B70413670708A385E704238007048280B1
:100444001376050441C603C6A700418A1DE2238032
:10045400D7042380E7040100010003C7A700136742
:1004640007012385E7009307007D01000100FD17C4
:10047400EDFFB7170040930670052380D7041307D8
:1004840080FA2380E704010001001376F501136666
:1004940006042394C7000100010001000100238029
:1004A40007042380D704130660042380E704631839
:1004B400C5000100010037270040894689BF0100BB
:1004C4000100372700409306200591B72380D70405
:1004D4002380E7040100010003D787001367070C9A
:1004E4002394E7000DBF4111814601468145114522
:1004F40006C66922B7170040130770052380E70476
:10050400130780FA2380E7040100010003C767048E
:10051400136717002383E70423800704B2404101D3
:1005240082808146014681451145892AB7170040DA
:10053400930670052380D704130780FA2380E70409
:10054400010001007D562396C7022380D70423802F
:10055400E7040100010003C767041367170023833E
:10056400E7042380070401A0BD473305F502010019
:100574007D1575FD8280411122C426C206C6AA8457
:10058400014463179400B2402244924441018280A2
:1005940005041305803E4204C13F4180DDB7B7170F
:1005A4000040130700032388E7028547174700002C
:1005B4002328F74C73002030411106C6852DFDBF5A
:1005C4002303048015472303E48001002302A4804D
:1005D400828083076480E3CE07FE23030480828045
:1005E40083076480E3CE07FE03454480828083074B
:1005F4006480E3CE07FE2302A4808280411126C4D6
:100604004AC24EC006C61377F50BAD47AA892E8998
:1006140095446306F70019456537653F8D444E855B
:100624004537FD59FD1463983401B240A244124980
:10063400824941018280135509011375F50F453F25
:100644002209CDB7011126CC06CEB70408005137D4
:100654001545BD37713769372AC6A53F32459377AB
:10066400150089EB136515001375F50FF240E2448C
:1006740005618280FD14E9FC0145CDBF397126DC9A
:100684004ADA4ED852D656D45AD25ED006DE62CE5C
:1006940066CCB7E700E07D5783AA070022C603AA09
:1006A400470023A0E71823A2E718B7170040130751
:1006B40070052380E704130780FA2380E70483C7C7
:1006C4004704930B75FFB684E20793FBFB0F854643
:1006D400AA892E8B328937240040E187015763FAB7
:1006E40076016308D5008946130700026313D50019
:1006F4000157D98F93F7F70FB71C00402382FC04EE
:1007040011472303E4801305F00F5D3D094CD135F7
:10071400636D7C11B7050700DA95378707007955B3
:1007240063F2E504B3879500636EF702370B0800A4
:10073400A94733EB65016399F90689E48144513D86
:1007440026850DA0DA850945553D05090345F9FFC0
:10075400FD14050B693D81C49377FB0FFDF7DD356F
:1007640069FD7D55B7170040130770052380E70422
:10077400130780FA2380E70403C74704418B2382CD
:10078400E704F250B7E700E023A0571123A2471172
:10079400E25432445259C259325AA25A125B825B11
:1007A400724CE24C21618280A5476395F906856904
:1007B4001309F00FB3069900B3742B01B6941349CF
:1007C400F9FFB3749900856B33796901416B9387A1
:1007D400F9FFB3F7270199E363FC340193D9490086
:1007E400C147E3E637FF99BF0569C1697D19D9B7E8
:1007F4001305800D63886901130500026384790180
:1008040013051008CA85DD3B353D21DD4E99B384BF
:100814003441D9B7DA852D45D533CA94E30099F22A
:1008240005097D3BA30FA9FED5BF9387F9FF93F775
:10083400F70F6361FC0C83C71C0413073008631FA4
:10084400F70437070800636BEB04B3079B00B70694
:10085400100063F5D704334BEB0089476393F90623
:100864008980D549E38C04ECDA850945413B1109BB
:100874000327C9FF91472320E48003076480E34EE4
:1008840007FE23033481FD17EDFBFD14110B81C416
:100894009377FB0FE9FF7D3371F5E1B5B71700409E
:1008A40003C75704B70708001377070219E3B7878C
:1008B40007007955E378FBEA33079B00E3FFE7F889
:1008C40055B58547E382F9F2DA852D45053B9389D1
:1008D400F4FFE38504E6293393F7390091EB83268B
:1008E40004800327090093074900E39AE6E43E895C
:1008F400CE84F1BFB5476396F9001305900BC93157
:1009040035BDB1471305B00AE38BF9FE99476391EE
:10091400F904B7050800B365BB002D45C531814412
:100924008D4BA14975396396740183270480232074
:10093400F9008504E39834FF8327048013172B01FF
:10094400635507002312F900D5BB2322F900FDB338
:100954009D476399F90281451305B0044531BD44AF
:100964002320090023220900FD599D3993F77400BF
:10097400CA9703C70700FD14398D2380A700E396A7
:1009840034FF6DBBA1476392F9046D398144630D53
:100994000B008D479304C0036308FB009304000518
:1009A40063048B01930440041375C507E30895D8C9
:1009B4001945393139390545213126850D3909451E
:1009C4003D314931E31C05D669BB91476399F90070
:1009D40013056006F536F53E130590090DB7E38F50
:1009E40009D4F154A9BB19CD91CD09CE81473387E0
:1009F400F500834607003307F50085072300D70079
:100A0400E317F6FE828019C991C909CA910583A723
:100A1400C5FF11057D16232EF5FEC5BF828001C9D1
:100A240019C62A960505A30FB5FEE31DA6FE82800E
:100A340081473307F5000307070019E33E858280E9
:100A44008507C5BF01112E8626CAAA84131506017F
:100A54009305F004418122CC06CE32C6EF108063A8
:100A64002A8401C53246A685BD3F2285F2406244F0
:100A7400D24405618280854715C18DC105C2814775
:100A8400B306F5003387F50083C606000347070065
:100A94006398E6008507E315F6FE85473E85828068
:100AA4008147EDBF9307F6FFBE952A966313C500F1
:100AB4008280FD1583C715000505A30FF5FEFDB75C
:100AC400AA87014581CF09CE3E96850703C7F7FF64
:100AD4006317B700E39BC7FE05458280828001450A
:100AE40082807971976700009387478222D480437C
:100AF40006D626D24AD04ECE52CC56CA5AC85EC664
:100B040062C45DCC37C9C901814B176A0000130A5E
:100B14006A84975400009384A47F1309F937975A81
:100B24000000938A6A79B709C0A8370B40578357E6
:100B3400240095E35C44639D0B00175700002327B2
:100B4400F77C032CC4002285EF10E061628499A82D
:100B540023A6FB00FDB783270A00829783866401DE
:100B64001C4463DB06063307F5406367E9089757BF
:100B7400000023AB077483552400034504009760E9
:100B840001E0E780C0CB5C405844A9CF1444B69739
:100B94008386640163C5060063E33701DA971CC4E6
:100BA400A28B3A8449F4975700009387E7709C4BD3
:100BB40009476378F706F917175700002326F770DB
:100BC400B250225492540259F249624AD24A424BD8
:100BD400B24B224C45618280E377F5F83387F940C4
:100BE4002A9761B763970B009757000023A0E77219
:100BF40089BF23A6EB00B1B7D85009CF63DF060045
:100C04003385A74083A70A016376F5009757000050
:100C140023ACA76AA28B404471B7E3F3A7FECE9737
:100C2400C5B79757000023A1076A59BF411122C4D1
:100C3400175400001304446B1C4006C626C24AC065
:100C440091C782979757000023A0076A5C4091C31D
:100C540082971C406391071C9767000083C75787DE
:100C6400858B9DC797670000A384078617670000DC
:100C740003473786954763FDE700EF0050419767C8
:100C8400000083C71785F5178A07A2979C438297AC
:100C940017690000130989878347C900918B99C399
:100CA400EF10A0321C4491C38297975400009384A0
:100CB400A465984017560000034616609757000035
:100CC40083C7875F93961700BA9683D60600D5CA62
:100CD4009757000083C7475E63EFC70A9757000022
:100CE400238C075C1C40639807129757000083C746
:100CF400777E91CF9757000083C7B77D89EB9757CD
:100D04000000A389077C97F002E0E780000397576F
:100D14000000938727649C43638F070EB707C0A81E
:100D2400175700002322F75A6D3B9757000093870B
:100D3400275EDC53EDC3175700001307E757184B22
:100D44009757000083C7175E6367F70C17570000B7
:100D540003473778954763E0E70C8347C900918BD5
:100D6400DDEB90409756000083C6165563CBD70A37
:100D74002244B240924402494101176301E06700F2
:100D84002389850793F7F70F975600002386F652B9
:100D9400E3E6C7F235BF86073E9783550700231065
:100DA400070097570000239F075497570000938725
:100DB40067539C431755000003450550131725003E
:100DC400BA979C4382979757000083D7A753175726
:100DD40000000347674E93C7F7FF7D8D93171700F5
:100DE40098403E97835707005D8D2310A7009757BF
:100DF400000083C7674C91C7850717570000230D70
:100E0400F74A175700000347274B9757000083C73B
:100E1400B74AE375F7ECB2402244924402494101D7
:100E24008280139717003297035707006DF78507E1
:100E340035BFAD6737C70040BD072326F7200F1025
:100E440000009757000093872747C84F83278726BA
:100E5400BD66BD0693C7F7FF99836A052326D7208D
:100E64005D8D82804111B7170040985F3AC6945F48
:100E74003247E39CE6FE32454101828082800327AB
:100E8400851163000712411122C406C68347C500B9
:100E94008345C5042A8493F7C70F2306F5008346C8
:100EA40097000356C70013958601618563F1C50851
:100EB400635A05060345870093F6F607A304D70093
:100EC400054693E627006314C50093E6170023063E
:100ED400D4005C4389075CC3A30AB400032504114E
:100EE4002E864C4309050136832784110346540199
:100EF400D44303D7C700B296118FD4C32396E70017
:100F04008947A30DF400034744039757000083C7A0
:100F140047416378F7048347C40093E70701230636
:100F2400F40081A093E717002306F40075B79376C5
:100F3400F60F635D050203458700854513E6270028
:100F44006314B50013E617002306C400A30AD400F3
:100F5400A30407008547A30DF400832784119C4351
:100F6400DDF3B240224401454101828093E717003A
:100F74002306F400A30AD400A304070003250411E4
:100F84004C4309058D348327841103465401D4430B
:100F940003D7C700B296118FD4C32396E7008D47B9
:100FA4005DBF05458280975700009387A7509C43F7
:100FB400411122C406C6858B2A84C5EF41651305F9
:100FC40025F5976002E0E780005145C58347A500F9
:100FD4002315F50083270412BDE72320A41223223E
:100FE400A41285472310F4042320050083476401D9
:100FF40054412316F5000347D4002304E5000547B4
:10100400A304E500175700001307474C184F138536
:10101400170215811C437D151375F50F9CC25C43A3
:10102400DCC21C479CC65C47DCC61C4B9CCA5C4BA0
:10103400DCCA1C4F9CCE5C4FDCCE19CD93860602D5
:1010440013070702C1BF8327441288C383570404CC
:101054002322A412850779B79757000083D78754B2
:10106400850717570000231FF752B240224441015D
:1010740082808347C40023090400054593C74700C1
:101084002306F400DDB78347850193F7E70FD5EF17
:1010940083479501DDEB034625018346C50009CA54
:1010A40083454503175700000347B72763E7E50067
:1010B40013F7060141CF014709C6C18A0357651CCE
:1010C40081C68356A51C369751C31307C7121755FB
:1010D40000000355E520B335A70237460F00411140
:1010E40013060624814622C426C206C67D5433054F
:1010F400A702978003E0E780E0AB9757000083C71F
:10110400B722B384A700975700009387274903A702
:1011140007098327070963F387003E84184375FB97
:1011240097570000938707239C4382978147636402
:10113400A400B307A440B2402244B3B7970093C7B6
:10114400170092443E854101828081473E8582801A
:10115400797126D206D622D44AD04ECE52CC56CA63
:101164005AC85EC68347350303447513AA843E9464
:101174001374F40F9307400263F687001304B4FD5D
:101184001374F40F03AA841383AAC413A38B8412C5
:1011940022865285D685978003E0E780209C0589C6
:1011A40015E503CBD41201498149337B6403930BC6
:1011B40050024A865285D685978003E0E780009ADC
:1011C400058915C5639169031374F90F238B841280
:1011D400B250225492540259F249624AD24A424BC2
:1011E400B24B456182808509E20993D98941050999
:1011F400E31179FDE1BF832785090356E50379717E
:1012040093D60701BD8EC206C182358E1357764030
:1012140093575640898B058B5D8F93573640918B3E
:101224005D8F93571640A18B5D8F93171600C18B6A
:101234005D8F9317360093F707025D8F931756005F
:101244009355860093F707041E065D8F1376F60FF9
:10125400518F93D7554013D63540118A898BD18F3E
:1012640013D67540D18F13D61540218AD18F13968A
:101274001500418AD18F1396350013760602D18F5B
:1012840013965500137606049E05D18F93F5F50F3A
:10129400CD8FA20745465D8F3307C70222D42A8427
:1012A40026D252CC56CA032A8413832AC4135AC89A
:1012B40006D63697420741839357774013555740D4
:1012C4000989858BC98F135537401189C98F1355E7
:1012D40017402189C98F131517004189C98F131528
:1012E400370013750502C98F1315570093558700EE
:1012F400137505041E07C98F1377F70FD98F13D5FC
:10130400354013D755401189098B498F13D5754042
:10131400498F13D515402189498F139515004189AB
:10132400498F1395350013750502498F13955500A0
:10133400137505049E05498F93F5F50F4D8F22070C
:10134400D98FB387C7024AD04ECE5EC662C4B69761
:10135400C207C18313D7774013D557400989058B3A
:10136400498F13D537401189498F13D517402189E7
:10137400498F139517004189498F139537001375C9
:101384000502498F1395570093D5870013750504FB
:101394009E07498F93F7F70FD98F13D5354013D78D
:1013A40055401189098B498F13D57540498F13D541
:1013B40015402189498F139515004189498F13954B
:1013C400350013750502498F1395550013750504EF
:1013D4009E05498F93F5F50F4D8F2207D98FB3875B
:1013E400C702130650025285D685B697BD8E9394D4
:1013F4000601C18033F6C402137BF60F977003E035
:10140400E780C07505890DED8347D41201498149F0
:10141400B3849702130C5002C1804A865285D68544
:10142400977003E0E78080730589937BF90F11C5FA
:1014340063863403850993F9F90F0509E31F89FDD0
:10144400230B6413B250225492540259F249624A53
:10145400D24A424BB24B224C456182805E8BCDB75F
:10146400011122CC604126CA4AC84EC652C406CED7
:10147400AA841D4A130965058549BC446364F400C4
:10148400054581A803C7D40083474400631B47056F
:1014940003C784026304F7000040C5B70347540040
:1014A40083C75405E31AF7FE1946CA851305640079
:1014B400EFF06FDCE31235FF0347C40083C79402E7
:1014C400E31CF7FC0357E40083D7A402E316F7FCFC
:1014D4000145F2406244D2444249B249224A05617C
:1014E4008280E31BF7FA0347540083C75405E315CE
:1014F400F7FA1946CA8513056400EFF0CFD7E31D48
:1015040035F9F9B70111975700009387270922CCC1
:1015140003A4470B26CA06CE2AC42EC6854419E462
:101524000145F2406244D2440561828083479100C0
:1015340003471400858B6304F7000044CDB71946B4
:101544009305A10013052400EFF0EFD2E31795FEF5
:101554000545C1BF011122CC175400001304C4F87F
:1015640018402AC62EC432C206CE3C4B93F7F7F776
:101574003CCB97E002E0E7800079184097560000E2
:101584009386C6F33C4B93E707083CCB9C42324519
:10159400A24523A00700034715000348250022079E
:1015A4004208429703480500429703483500620801
:1015B400429798D70347550003486500220742081D
:1015C40042970348450042970348750062084297D2
:1015D400D8D7034795000348A5002207420842973D
:1015E4000348850042970348B5006208429798DB98
:1015F4000347D5000348E500220742084297034801
:10160400C5000345F500429762052A97D8DB03C756
:10161400150003C52500220742052A9703C50500C6
:101624002A9703C5350062052A9798CF03C755004A
:1016340003C56500220742052A9703C545002A977A
:1016440003C5750062052A97D8CF03C7950003C563
:10165400A500220742052A9703C585002A9703C5DA
:10166400B50062052A9798D303C7D50003C5E500E2
:10167400220742052A9703C5C50083C5F5002A97AA
:10168400E2052E97D8D3D843759BD8C3D8431367A4
:101694001700D8C398431367170098C3124698429B
:1016A4005C43858BD1E71C4F01452300F6009C4227
:1016B4009C4FA183A300F6009C429C4FC18323014D
:1016C400F6009C429C4FE183A301F6009C42D84F54
:1016D4002302E600D84F2183A302E600D84F4183BA
:1016E4002303E600D84F6183A303E6009853230441
:1016F400E60098532183A304E6009853418323050D
:10170400E60098536183A305E600D8532306E60058
:10171400D8532183A306E600D85341832307E60068
:10172400DC53E183A307F600F24062440561828042
:101734000100B5B717570000130787D814434111A8
:1017440022C49C5E4AC006C6998326C2858B3A840D
:1017540017590000130989D6D1CB9C5E9754000019
:101764009384C4D693F7F7F99CDE17570000034718
:1017740047D693070008631BF700832709009C439F
:1017840093F70704175700002305F7D483C7040011
:1017940093F707049DC3975700009387A7BB9C4307
:1017A40082979757000023ABA7D283C7040093F70F
:1017B400F70B17570000230BF7D083C7440093F7A8
:1017C40007048DE7854717570000A303F7D0975701
:1017D4000000938767D19C43096798C7130700FCEF
:1017E400975600002386E6CED844F8D31C40985F71
:1017F4001183058B09CB985F3D9B98DF054797566E
:1018040000002387E6CC985F1D83058B11CB985F7E
:101814001377F7F798DF854717570000230AF7CAAD
:1018240083270900D8430583058B19C7D843759BC3
:10183400D8C3D843799BD8C3B240224492440249C6
:1018440041018280397106DE16DC1ADA1ED82AD6E6
:101854002ED432D236D03ACE3ECC42CA46C872C614
:1018640076C47AC27EC0F935F250E2525253C25362
:101874003255A255125682567247E2475248C24820
:10188400324EA24E124F824F21617300203097577F
:101894000000938767C5944397570000938707C355
:1018A40003C70700058B11CB97570000238207C29B
:1018B40097570000A38E07C0828003C71700058BCB
:1018C40065F7F85271FF83C75700DDB7175800005A
:1018D400130808BF032708001C5F9583858BD1E795
:1018E40009C61C5BBD832300F60085CA8327080054
:1018F400985B4607935767016356070093E707C051
:10190400C207C18303970600C207C18709C7BA97F4
:101914000947B3C7E7022390F60085CD8347150036
:101924008DCB9756000083C6C6BA93F60604138778
:10193400970089478DCA3A9503470500854699471C
:101944001376F7066311D60262076187B947634CC1
:101954000700832708009C5FED838D8B17570000D9
:10196400A30BF7B681473E8582808547EDBF4111C1
:1019740022C406C617540000130404B7184049E9EA
:10198400AE877453FDFE3E85B285975700002380D1
:1019940007B497E002E0E780000D975700009387B3
:1019A40027B29C43B70680009843558F98C3D857F5
:1019B400719BD8D797570000A38C07B097570000A6
:1019C400A38607B01C40094798C3B7F700E003A7F4
:1019D40007D16D9B23A8E7D003A707D15D9B23A85C
:1019E400E7D073005010144017570000130707AED8
:1019F40083472700858B89EB83473700858BD9C7BD
:101A040097570000238607ACB240224441018280EC
:101A14008D476310F50297570000938767AA9C438C
:101A2400B70680009843558F98C3D857719BD8D771
:101A34005DBF8547E319F5FAB567BD075CC70F10AD
:101A440000001C400967094698C7130700F8975619
:101A54000000238FE6A617570000130767A6144358
:101A6400984231830D8B6319C7001307E043F8D301
:101A74003D673D07D8C785BF984231830D8B01E789
:101A840013076019EDB71307E01BD5B7FC52ADF38C
:101A9400A5BF5D7152DC175A0000130A6AA203271E
:101AA4000A0086C6A2C4A6C2CAC04EDE1C43975909
:101AB4000000938929A8175900001309E9A293F794
:101AC400F7E793E707081CC383A609003707CEFF8F
:101AD4007D179C46130680022A84F98F9CC68327AF
:101AE4000900130700082800B8CBAE84930510083A
:101AF400EFE0FFF297E002E0E780E02097E002E009
:101B0400E780E02D83270A009376F41F370FFCFF4C
:101B140023A40700984B4E88CA881367F70398CB11
:101B2400F84F130510F8D285137707E0558FF8CFD7
:101B34009843F576FD16758F98C39843B70633001E
:101B4400B70204001377F7E798C398439303401F41
:101B54007D1F1377F7E71367071098C303A70900DE
:101B6400930F800285491C47D58F1CC78327090022
:101B74001307900D3400B8CB1149014713533700B4
:101B840026938347030013767700B3D7C740858B2A
:101B9400DDCF9C41832E0800239C07042390070675
:101BA40003AECE02137EDEFF23A6CE0383AE070070
:101BB400137EF70793FE0EF833EECE0123A0C70180
:101BC40003AE4702336E5E0023A2C70383AE080050
:101BD400014E23A27E0603DA070663074E0303AE13
:101BE4000703038A0600135EFE00620E135E8E4135
:101BF4006358CA0103AE0703135EFE002380C601C7
:101C040003DE0706137EFE0F03AA4E0663060A00D0
:101C140003DA8705E37F49FB03AE4702337EEE0117
:101C240023A2C70383870600635CF400034E03000A
:101C34003396C9001346F6FF3376C6012300C3006A
:101C44003E8663D3A7002A8613158601618505079E
:101C54001377F70F8506E313F7F3B640264496444B
:101C64000649F259625A6161828097560000938650
:101C7400A6879C42D8471316170163550602984756
:101C840013161701635006027D57B8D71747000093
:101C940013078762584F050717460000232CE66296
:101CA400116798C798470D83058B1DC3175700000C
:101CB4000347E78113671700175600002309E680DE
:101CC400130700F8175600002304E680214798C73D
:101CD4009847058B09CF174700000347377F1367E1
:101CE400170017460000A303E67E054798C79847E8
:101CF4000983058B09E798470583058B31CF9847FE
:101D0400174600001306867C174500001305457B23
:101D14000983058B630307101841184331830D8B26
:101D240075EBAC4B184E93F5050203471700CDCD68
:101D340079EF13077006D8CF03470600136717001F
:101D4400174600002304E678114798C718415C57EA
:101D5400F19B93E717005CD79C4298479316370191
:101D640063D606029756000083C6868AC18A17572F
:101D740000001307A782C5CE03474707136707026E
:101D8400975600002386E688056798C798479316F8
:101D9400270163D1060217470000034767736207F0
:101DA4006187635707000547974600002382E67260
:101DB400096798C798479316070163D60602975692
:101DC400000083C6F684858A174700001307077D41
:101DD400ADCE034757071367270097560000A38922
:101DE400E682216798C7828029D785456315B700A5
:101DF4001307B00689B789456315B7001307F006C2
:101E04001DBF8D456315B700130730072DB71307A2
:101E1400500715B71307600739BF03473600136728
:101E2400170017460000A304E66A094739BF834632
:101E340047070946BD8A6388C600034747078D469E
:101E44003D8BE313D7F4114725BF83465707918A87
:101E5400C9DA034757071367870041B7397106DEAC
:101E640016DC1ADA1ED82AD62ED432D236D03ACE7E
:101E74003ECC42CA46C872C676C47AC27EC0F53326
:101E8400F250E2525253C2533255A2551256825660
:101E94007247E2475248C248324EA24E124F824F16
:101EA400216173002030174700001307276483461D
:101EB400B7019747000083C737664C4BB697FD8B35
:101EC40033D7F50097460000A382F66297460000D8
:101ED400A384F664058B15EF1747000003471764C6
:101EE400B3F7E702814601471305000233D6E50044
:101EF400058A1378F70F19CA6397D700974700002C
:101F0400A386075F8280850693F6F60F0507E31F15
:101F1400A7FC8280974700009387C7439C43011125
:101F240022CC4EC606CE26CA4AC852C456C282978E
:101F3400974700009387875D804781496305A4061E
:101F4400BE84974700009387A73C038767013E89B7
:101F540063550706018D135455009747000083C746
:101F6400875A9379F501636DF402370AC0A8B70A5A
:101F74004057153F9C449746000083C6C6581397A4
:101F840056003E9783076901158C63C50700636398
:101F9400470156979747000023AEE756E37BD4FCEE
:101FA4001604B3693401F24062444E85D244424976
:101FB400B249224A924A05618280E37D85F8B707D7
:101FC400C0A833848740229579B797470000938748
:101FD40067389C43411122C406C626C2829797479C
:101FE40000009387A75280476309A406BE849747DD
:101FF40000009387E7318387670163D80704018D65
:10200400135455009747000083C7E74F6367F404F0
:10201400593D98449747000083C7E74E939657006D
:1020240036971D8C9746000023A6E64EE372F4FE15
:102034002244B2409244174500000345354B814584
:10204400410117E302E06700A320E37A85FAB707AA
:10205400C0A833848740229565B7B2402244924495
:1020640041018280974700009387C74C9843B75734
:1020740002009387079F8326070913965600635827
:102084000600832607091396660063440600FD17BD
:10209400FDF3828071C5AA870145E9C58D07C20792
:1020A400C183F19BC207C18313074003636FF70227
:1020B400174700001307074E08431747000013078C
:1020C400E74C14436398A6021747000013074724FC
:1020D400185B014541CB4111C20706C60545DD8D9C
:1020E4000297B2400145410182801747000013075F
:1020F400274AD9B70357650035E303574500636F93
:10210400F704B306F7402146637CD6020328050092
:10211400938687001D8FAA96611717460000035601
:10212400061A2392E60023A006012393060014C195
:102134002312F500130786FF974600002391E61843
:102144002313B5009745000083D56517B387F54081
:10215400174700002315F7162105828008419DB713
:102164000145828082800DC1974700009387874292
:1021740003A30700974700009387474183A80700FC
:1021840081469A8763E31701828003A80700636D81
:10219400F50A636BA80A13878700E367E5FE03D695
:1021A4006700216705076317E60003C70199050760
:1021B4002388E198974500009385051003D64700CE
:1021C40003D76500239307003297420741831745DD
:1021D40000002316E50E638A670217450000130505
:1021E400253B08416303F50203D5660019ED83D747
:1021F400460023A0060121073E9621062392C6002D
:1022040097470000239DE70AB6879843E30E17F724
:10221400974600009386C6379442E307D7F6835661
:102224006700BDF283D64700035647001843A10652
:10223400B2962392D70098C383D76500A1071747A6
:102244000000231EF7068280BE86C28725BF0111C7
:10225400974700009387873422CC03A4C70B26CA70
:102264004AC84EC606CEAA8413092500854915C05E
:1022740083C7140003473400858B6304F700405C74
:10228400FDB71946930544004A85EFE0CFFEE318F5
:1022940035FF2285F2406244D2444249B249056185
:1022A40082804111974700009387472F22C403A4DB
:1022B400C70B26C24AC006C693042500054901E897
:1022C4002285B24022449244024941018280A6857B
:1022D4001305A402976003E0E7804042E30225FF70
:1022E400405CF1BF4111974700009387272B22C41C
:1022F40003A4C70B26C24AC006C693042500054999
:1023040001E82285B240224492440249410182807C
:10231400A6851305A401976003E0E780203EE3024D
:0823240025FF405CF1BF000041
:1023300097110020938181B017610020130181CC97
:102340001305400097E5FF1F9385C5CB17060020B6
:102350001306C6FD63FAC5008322050023A05500BD
:1023600011059105E3EAC5FE17350400130505883C
:1023700097050020938585FB1386818563FAC50048
:102380008322050023A0550011059105E3EAC5FE4F
:102390001385818597450020938545326377B50085
:1023A000232005001105E36DB5FEFD42739002BCCC
:1023B0008D4273904280B72200009382828873A07E
:1023C000023097E2FF1F9382E2C393E232007390E0
:1023D0005230971201009382420C739012347300B2
:1023E00020303D432A876373C3029377F700BDEF24
:1023F000ADE5937606FF3D8ABA960CC34CC30CC775
:102400004CC74107E36BD7FE11E28280B306C3409D
:102410008A069702000096966780A6002307B700F9
:10242000A306B7002306B700A305B7002305B7002E
:10243000A304B7002304B700A303B7002303B70026
:10244000A302B7002302B700A301B7002301B7001E
:10245000A300B7002300B700828093F5F50F939691
:102460008500D58D93960501D58D61B7939627008C
:102470009702000096968682E78086FA9680C117BA
:102480001D8F3E96E374C3F8A5B73367B500FD53BF
:102490000D8B79E7B7877F7F9387F7F710419441DA
:1024A000B372F6003363F600BE92B3E26200639744
:1024B000720C6318D6065041D441B372F6003363F0
:1024C000F600BE92B3E262006398720A631BD60400
:1024D00010459445B372F6003363F600BE92B3E242
:1024E00062006391720A631ED6025045D445B372EE
:1024F000F6003363F600BE92B3E26200639A72089C
:102500006311D60210499449B372F6003363F600A2
:10251000BE92B3E26200639372085105D105E30FE6
:10252000D6F61317060193970601631CF70013579D
:10253000060193D706013305F7409375F50F91E92E
:1025400082804183C1833305F7409375F50F91E194
:1025500082801377F70F93F7F70F3305F7408280E8
:102560000346050083C60500050585056313D600EF
:1025700065FA3305D640828011059105E312D6FE37
:10258000014582802105A105E31CD6FC014582801E
:102590003105B105E316D6FC014582804105C10530
:1025A000E310D6FC01458280411106C6EF80A0539E
:1025B000B240AA8617D70300130707711726002019
:1025C0001306869197D50300938545711145410106
:1025D0006FC0502D130101DB2324812423202125EA
:1025E0002326112423229124232E3123232C41231B
:1025F000232A51232328612303470500930710044E
:102600002A892E84631FF766034715009307400548
:102610006319F766034725009307E0056313F76620
:102620002E86AA852545EFC0901D1306D003A285EE
:102630004A85EFC0B034AA84635A05003546A285A6
:102640004A85EFC0B033AA84634405089389D4FF58
:102650009307100363CE37074E8693053900280889
:10266000EFA063081C1CBE9917EA0300130A4A95E1
:10267000238409DED28A8149594B83254A002808E0
:10268000EFC090290DC18E09D69983D7090055470F
:10269000636FF70017D703001307875D8A07BA97A0
:1026A0009C43BA9782878509210AE39869FD97E5DB
:1026B000030093852590CDA89305F4FF858D1385A0
:1026C0001400C20581460146C1814A95EF3080322F
:1026D0008320C12403248124832441240329012449
:1026E0008329C123032A8123832A4123032B012326
:1026F0001301012582801306F4FF058E93851400D3
:1027000042064182CA95E800EFC0904F1305D104FC
:10271000EF90937993150501C1811305D104EFC0A2
:10272000905C97D503009385A55C1305D104EFC099
:10273000B01E19CD97D503009385055C0545EFC004
:10274000B001172500200345752FEF60600D49B7D4
:1027500097D503009385855B1305D104EFC0D01B8B
:1027600019CD97D503009385E55A0545EFC0C07E86
:10277000172500200345952CEF60400D91BF97D59C
:1027800003009385255A1305D104EFC0F0180DC13D
:10279000371700408327C70AA16697D503009385A2
:1027A000E558D58F2326F70A2545EFC0E07A0DB707
:1027B00097D50300938545581305D104EFC0D01574
:1027C00011CD371700408327870AA16697D50300EC
:1027D00093850557D58F2324F70AF9B797D50300BA
:1027E000938585561305D104EFC0101311CD37170B
:1027F00000408327C70A916697D5030093858555C6
:10280000D58F2326F70A4DB797D5030093858555B5
:102810001305D104EFC0501011CD371700408327A6
:10282000870A916697D5030093858554D58F232415
:10283000F70A9DBF97D50300938585541305D104EE
:10284000EFC0900D97D503009385455431FD97D582
:102850000300938565541305D104EFC0F00B97D5A1
:1028600003009385255429F197D50300938545549A
:102870001305D104EFC0500A11C59727002023ADDE
:10288000071CB9B597D50300938545531305D104AB
:10289000EFC0900801C5EF6030401DBD97D5030023
:1028A000938585521305D104EFC0100701C5EF6071
:1028B000D04539BD97D503009385C5511305D10483
:1028C000EFC0900501C5EF60205C19B597D50300F6
:1028D000938505511305D104EFC0100401C5EF9095
:1028E000E06EFDB397D50300938505501305D10421
:1028F000EFC0900201C5EF90C06DD9BB97D5030022
:102900009385054F1305D104EFC0100101C5EF9069
:10291000A06C7DBB97D503009385454E1305D1046C
:10292000EFC0807F01C5EFB0305F5DB397D5030086
:102930009385454D1305D104EFC0007E01C5EFF02E
:10294000900B79B397D503009385454C1305D104BB
:10295000EFC0807C01CD9727002083D7670D0567E6
:10296000D98F172700202315F70C9DB397D50300A7
:102970009385054A1305D104EFC0007A09C9FD7794
:10298000172700200357C70AFD17F98FD9BF130572
:10299000D104EF80937597270020A389A70A1376A7
:1029A000F50F97D503009385E5460145EFC0806F8D
:1029B00005B31306F4FF058E138514004206418209
:1029C00097E503009385452E4A95EFC0900817249C
:1029D00000201304E40531C597D503009385C54451
:1029E000E800EF90534BE800EF90134C13160501ED
:1029F0004182EC001385C168EF80303597D5030024
:102A0000938545451145EFC0205583570400414546
:102A100093E7170017270020231CF700EFD0801042
:102A200045B997D503009385A5431145EFC0C05222
:102A30007D55EFD0C01483570400F99B1DB7AD3608
:102A400041B91306F4FF058E138514004206418236
:102A500097E50300938545254A95EFC0807F1724AD
:102A600000201304E4FC29C18357040097D5030018
:102A70009385C53FE80093E7170017270020231927
:102A8000F7FAEF905341E800EF9013421316050157
:102A9000EC0041821385C168EF80302B97D503008D
:102AA0009385853E114511B397D503009385853EE7
:102AB000E800EF90533EE800EF90133F1316050136
:102AC000EC0041821385C168EF80302883570400F1
:102AD00097D503009385C53DF99B1727002023193F
:102AE000F7F4C9B7EF70104297270020938747F497
:102AF000C85FEF807336AE862A8697D5030093852C
:102B0000E53B1145EFC0005AE1B6EF501069C9B678
:102B100017E603001306C61997D503009385C53A37
:102B2000114569B5EF70B07F97D503009385853A5D
:102B300035F997D503009385E53AADB73545EF9064
:102B4000003EAA84EF8053312A86AE86254597D56C
:102B500003009385653AEFC0E05497D7030093874D
:102B6000E7188843A685171400201304244EEF802D
:102B7000C3052326A422EF80C0000325C422EF80D2
:102B8000B32DAE862A8697D503009385A53795BFCA
:102B900081450D45EF60007FEF7030742A8697D530
:102BA00003009385E538ADBF81452D45EF60807DFD
:102BB00081456945EF60007D81453145EF60807C4E
:102BC000EF7010722AC6EF707072B2462A8717161D
:102BD00000201306663097D50300938565361145AE
:102BE000EFC0404CF5B417170020035767689716DD
:102BF00000209386B64F171600201306E62D97D5B2
:102C0000030093852536E1BF854717170020230D64
:102C1000F766EF70107797D503009385E53559B5C2
:102C20001717002003474766854797D5030093850C
:102C30002535E319F7E6C5B78547171700202308A0
:102C4000F764EF70107497D503009385253499BD10
:102C50009717002083C7A76397D503009385853313
:102C6000E38207E4CDB797270020938767DC885F6E
:102C7000EF80931EAE862A8697D503009385453252
:102C800049B50146A2854A85EF60605191B41D7136
:102C9000A2CCA6CACAC82A843289AE841306E0032D
:102CA0008145130521013AC486CE36C6EFF06FF395
:102CB0002247B1472308F10093071700A308F1004A
:102CC000230921018D471DC3B2460C08368605062F
:102CD0008347F6FF85052381F500B387C640BA9781
:102CE00093F7F70FEDF70D079377F70F814601473D
:102CF000850613F6F60F636BF6049408BE962380E0
:102D0000E6FC1387170094081377F70F3697B5463C
:102D10002300D7FC9386270093F6F60F1008A685AC
:102D20002285EFF02057DD47631CF500194597D544
:102D300003009385E560EFC020222285EFF08053E9
:102D4000F6406644D644464925618280100836968E
:102D50000346060032971377F70F59BF011106CECD
:102D60002AC62EC4EFF0502C034785009547631404
:102D7000F70283470500A2463246C18B89CF1C4D1E
:102D800097D503009385C556D58F1CCDF2401945C4
:102D900005616FC020311041BA8697D50300938535
:102DA00025571182058ADDB75D71A6C2CAC04EDE05
:102DB0002A89AE89B284B6853D46280086C6A2C45B
:102DC000231B01003A84231C0100231D010023154D
:102DD00001022316010223170102EF80D3333D467F
:102DE000CE856808EF8033336808EFB02044634431
:102DF0000504930404023D466C082685EF80B33138
:102E000083470400A3070402680893E707F8230038
:102E1000F400EFB0A041A304A40091454A853D3FD2
:102E200083069400268697D503009385255219457D
:102E3000EFC040278DA08547639BF4083D4697155A
:102E40000020938565092800EF90330721ED930456
:102E500004023D466C082685EF80F32B834704006F
:102E6000A3070402268593E707F82300F400EFB0D8
:102E7000A041A304A40091454A85CD35268734009E
:102E8000171600201306460597D503009385C54FF6
:102E90001945EFC02021B640264496440649F25910
:102EA000616182806808EFB0A0496808EFB000381F
:102EB0001375F50FEFB01053780834001716002083
:102EC0001306860197D503009385C550D1B7EFB09F
:102ED000A035635A050097D50300938565541945BD
:102EE000EFC0401C4DBF930404023D466C0826858C
:102EF000EF80732283470400A3070402268593E72B
:102F000007F82300F400EFB020389145A304A40093
:102F10004A85A93503459400EFB0D04C8306940050
:102F2000268697D503009385255211B7011106CE49
:102F30002AC62EC4EFF0500F03478500954763164D
:102F4000F70283470500A2463246C18B99CF1C4D3C
:102F500013C7F6FF97D5030093850534F98F1CCD71
:102F6000F240194505616FC0E0131041BA8697D54C
:102F700003009385A5341182058ADDB7954763F276
:102F8000C7245D71A6C293140501C1802AC226859B
:102F9000A2C4CAC04EDE2E89B28986C652DC56DA79
:102FA0005AD85ED662D466D26AD06ECEEFF0700385
:102FB0002A84124697D503009385451B630F05109D
:102FC000268532C2EFF01009FD5781461246630292
:102FD000F510354C97DC0300938CCC1F172D002087
:102FE000130D0DA597DD0300938DCD17130A040271
:102FF0009374F50FB30BD90003C70B00B1476316E9
:10300000F70A138846006357380B03CB1B00938ADB
:10301000360033876A01635A37094A970347070026
:103020006315870901470146B385EB0083C5150089
:1030300005071377F70F2E961376F60FE376EBFE60
:1030400033876B01034727006311C7063307590114
:1030500003460700E68519453AC242C636C4EFC0AA
:1030600060040326CD02124750CC03470700130625
:1030700010036309C708130620036308C70E13066D
:103080000003A2463248631FC70003C63B01B305D5
:1030900009012DC6D1062287CA962685313385457A
:1030A00026856935DA9A93F6FA0F850693F6F60FB8
:1030B000E3E236F5B640264496440649F259625A90
:1030C000D25A425BB25B225C925C025DF24D61615E
:1030D000828097D503009385A50C2644B64096447C
:1030E0000649F259625AD25A425BB25B225C925C48
:1030F000025DF24D194561616FB0D07A2287814639
:10310000014661BF03C74B0003C55B002207598D11
:10311000EF70131E03A60D0083A64D00EF60F34D64
:10312000EF80435E48D803C86B002308040383C8BC
:103130007B0083C78B0042C4A208B3E8F800231CBD
:10314000140346C2EF804351924822482A87AE8733
:10315000528697D503009385A5081945EFB0907462
:103160005285EFB02029894525BF83C74B009DEFCD
:103170005285EFB0A00B634205025285EFB0401CB0
:103180005285EFB0A00A1375F50FEFB0B025834755
:10319000040093F7F7072300F40097D50300938505
:1031A000A5071945EFB010709145DDBD83470400B8
:1031B00097D503009385C50793E707F82300F4002C
:1031C000CDB78280797103C5818506D622D402C627
:1031D00002C802CA02CC02CEEFF0006503478500A8
:1031E00095476318F70A1C4D2A84C5C713F71700C3
:1031F0000DC797D50300938565051945EFB0D055E8
:103200000147740013060003835524010355C400CD
:10321000BD3CB25022544561828013F7270009CF8C
:1032200097D50300938545041945EFB0F052014747
:10323000740013061003C9BF918BA1CF97D503006B
:10324000938505041945EFB030511C409D83858B53
:103250002306F1008307040063D407021717002038
:10326000130747C78547C1468345470070003E9610
:103270002300B60085070507E398D7FE230E01005B
:103280006800EF9063421377F50F74001306200374
:10329000A5BF83C781858507858B238CF18495BF66
:1032A000011122CC26CA4AC84EC606CEEFF0C06233
:1032B0002A84814415499309C00283478400639B93
:1032C00027018347A400850793F7F70F63E0F9020E
:1032D0002305F4001304C40381C8F2406244D244BD
:1032E0004249B249056182808544C1BF230504007B
:1032F00089452685A53483070400E3CD07FC854571
:103300002685A93CC1BF411122C4216493050480D4
:1033100099460146254506C697D0FF1FE7804036EF
:10332000930504802244B24099461386C1852945FD
:10333000410117D3FF1F6700A33499E10145828043
:1033400075DD011152C403DA018626CA93548A003E
:103350008504A204C204C18056C2B38A4441C20A91
:1033600022CC4AC82E862E842A8997D503009385BD
:10337000651F254593DA0A014EC606CE9389C1859D
:10338000EFB0505263ED8A0883D5018693F7F50FAD
:10339000B1CF8D6783D5018693870780A2864A8641
:1033A000BE95294597D0FF1FE780802D1375F50F37
:1033B00029ED83D749001566A2972390F18603D79C
:1033C000018683D7E1856309F70063F3E700B297CD
:1033D000998F139607014182254597D50300938560
:1033E000E519EFB0304C1375F40F0DA08D6793877E
:1033F0000780930600100146BE95254597D0FF1F14
:10340000E78000281375F50F49D50145F240624465
:10341000D2444249B249224A924A05618280B307A6
:103420009440D297C207C183A18303C7490085078F
:1034300093F7F70F9396870011EB93861700937419
:103440000AF0A206C204C206C180C18283D7E18508
:1034500063F6F40033879600E3C9E7FA0D6A130AAE
:103460000A800146B3854401254597D0FF1FE780B8
:1034700020211375F50F51F983D50186A2864A865E
:10348000D29505B7411122C41384C1852285814597
:10349000194606C697D0FF1FE780A0589307B0FAD9
:1034A0002300F4008D352244B24097D50300938564
:1034B000E503254541016FB0302AA16541119946C8
:1034C0001386C185938505802D4506C697D0FF1FBD
:1034D000E780001B03C7C1859307B00A6303F700A9
:1034E0005537B24083D6018603D6E18597D50300D0
:1034F00093858500254541016FB0D03A83D781A0DF
:103500000145638B071003D5A1A06366F50023A4D2
:1035100001A0014582803385A740D1473355F5028C
:103520001375F50F01E5239401A08280130101BDFD
:103530002324814223261142232291422320214326
:10354000232E3141232C4141232A514195471374A5
:10355000F50F63F3A7001544228697D503009385E2
:10356000A5032545EFB01034014981449389C1A0DA
:10357000514AA14A9377F90F03D5A1A0171700204C
:10358000034757C363EA8704D1473304F40226860E
:103590000C082A94239581A0A147631BF7060945CF
:1035A000EF40405203D7A1A083D781A005456364B3
:1035B000F70023A401A08320C14203248142832475
:1035C0004142032901428329C141032A8141832ABF
:1035D0004141130101438280B30749031408AA97AC
:1035E000CE9733859600631E5701BE85EF40806FEE
:1035F0002317A1008357E1000509BE94C204C180CE
:1036000095BFAA851306E1003E85EF90C05EDDB749
:103610000145EF60604D79B78280011106CE22CC62
:1036200026CA4AC84EC691E901442285F240624446
:10363000D2444249B24905618280AA8975D583D7AF
:10364000018603D6E1852E849564638AC70063747E
:10365000F60015673A961D8E93140601C1802686E2
:1036600097D50300938585E52545EFB0B023938773
:1036700014F06356F4009307F00F63EA970097D5B0
:103680000300938525E52545EFB0D02171BF83D494
:10369000018633878400956763C7E700A2854E855E
:1036A0006939953159B71569330999404209135958
:1036B0000901CA854E85513125D9ED75A695A2958A
:1036C000C20523900186C18133852901D1BF83D6EC
:1036D00081A081EA97D50300938545E625456FB023
:1036E000B00703D6A1A04111918E97D50300938511
:1036F000E5E5254506C6EFB0F01A138781A083558E
:10370000070083D7A1A01385C1A09D8DC2053E955A
:10371000C1812137B24023A401A04101828041111F
:1037200083D781A022C426C206C6AE971307002005
:10373000AA842E84635AF700593F97D503009385D6
:10374000A5DD2545EFB0500183D781A01385C1A029
:103750002286A6853E95EF80031C03D681A0229683
:1037600042062244B240924441822394C1A097D59C
:1037700003009385E5DB254541016FB0B0120111CF
:1037800026CA06CE22CC4AC84EC652C456C281446E
:1037900059C1D1C183D7E18503D40186638D8706E2
:1037A00063F587081D8C42044180AE892A892286F0
:1037B00097D50300938505CD0145EFB0B00EA284E7
:1037C00063F38900CE84C2040D6A83D7E18503D7F1
:1037D0000186C180938AC185130A0A8063FAE704CF
:1037E000A6864A86B38547012D4597D0FF1FE780FF
:1037F00020E983D72A00A697239FF184EFF0BFB07A
:1038000083D6018603D6E18597D503009385C5C885
:103810002545EFB03009F240624426854249D24442
:10382000B249224A924A0561828015673A949DBF47
:1038300015671D8FB385470163D5E400A6864A86C8
:1038400065B79569B389F9406D743E94C20993D9FF
:1038500009012694CE864A8642042D4597D0FF1F43
:10386000E78000E24180A28633063901D2852D45EA
:10387000239F018497D0FF1FE78080E083D72A0031
:103880003E94239F81849DBF938701050547238C28
:10389000E70018411045544598C30357450090C7A9
:1038A000D4C7104954492392E70090CBD4CB239D31
:1038B000B7008280184193870107104598C30357CA
:1038C0004500544590C72392E70058551049D4C786
:1038D000544998CF97D50300938505DA05472545C8
:1038E00090CBD4CB238EE7006FB00067397126DA16
:1038F0004AD84ED652D456D25AD006DE22DC62CEF8
:1039000066CC2A89EF80535A9374F50F8149254B71
:10391000E54A17DA0300130AEACB91ECF25062543D
:103920004E85D2544259B259225A925A025B724C75
:10393000E24C2161828003470900930707FD93F75A
:10394000F70F637CFB009307F7F993F7F70F63E238
:10395000FA06930797FA93F7F70F13948701618498
:10396000FD14230089002685EF7083182A86AE8611
:1039700003250A0083254A0093F4F40F0509EFF0AC
:10398000D0632AC422852EC6EF7083162246B24623
:10399000EF60A3462A8C4E85AE8CEF70831C2A867E
:1039A000AE866285E685EF50235AEF70A30EAA8992
:1039B000ADB79306F7FB93F6F60F8147E3EFDAF81E
:1039C000930797FC49BF411122C406C6830795029D
:1039D0002A8499C713059502EF7033712385A100DE
:1039E0008307D41291CB1305D412EF70B36FEF702D
:1039F0007351938781FDC8D3B24022444101828034
:103A0000011126CA9304150022CC97D50300938593
:103A1000A5CA2A84268506CE4AC84EC6EFB0C0770E
:103A2000631E051097D50300938545C92685EFB021
:103A3000A0766302050E85448307D4036386070CD2
:103A400013059402EF70736A85491379F50F130516
:103A5000D4036387340F8947638CF418EF70F368DD
:103A6000A386A100631A3901794681451385F102C5
:103A700023810186EFE0FF968307D40885C31305F1
:103A8000D408EF70936603C721869307170023813C
:103A9000F186938781FDBA97A38BA7048307D40D82
:103AA00085C31305D40DEF70536403C721869307B4
:103AB00017002381F186938781FDBA97A38BA70412
:103AC0008307D41285C31305D412EF70136203C7A2
:103AD0002186930717002381F186938781FDBA978A
:103AE000A38BA7048307D41785C31305D417EF70DE
:103AF000D35F03C72186930717002381F18693873D
:103B000081FDBA97A38BA704F2406244D244424994
:103B1000B2490561828097D50300938565BA2685F1
:103B2000EFB08067E31905F0268597D503009385EC
:103B300065B9EFB060668944E31005F08144EDBDDE
:103B4000EF70B35A2387A100631A99007946814523
:103B50001385110123810186EFE0BF888307D40814
:103B600085C31305D408EF70535803C72186930704
:103B700017002381F186938781FDBA97A38CA70252
:103B80008307D40D85C31305D40DEF70135603C7F7
:103B90002186930717002381F186938781FDBA97C9
:103BA000A38CA7028307D41285C31305D412EF7028
:103BB000D35303C72186930717002381F186938788
:103BC00081FDBA97A38CA7028307D417E38E07F26F
:103BD0001305D417EF70735103C72186930717009D
:103BE0002381F186938781FDBA97A38CA70229BF11
:103BF000EF70B34FA387A10001BF411122C406C6D5
:103C0000830795072A8499C713059507EF70F34D2D
:103C1000A385A1008307D40899C71305D408EF70C2
:103C2000D34C2386A1008307540B91CB1305540B6F
:103C3000EF70534BEF70132D938781FD88D7B240FF
:103C4000224441018280411122C426C206C6830754
:103C500015058144014499C703444505130404FD37
:103C60001374F40F8307550699C713055506EF70B3
:103C7000D3479374F50F2286A68697D503009385C4
:103C800065A52545EFB000421374B40F8D47631F3F
:103C9000F4009D4763FC97009717002083C767D9FE
:103CA00093E74700171700202305F7D8B2402244B6
:103CB000924441018280011126CA8146B2840146A4
:103CC00052C456C206CE22CC4AC84EC62A8AAE8AF2
:103CD000EF50D37541CD9307E0046386F40093075A
:103CE00030056395F40897D903009389A99A03A630
:103CF000090083A649005285D685EF6003103794EA
:103D00009800EF603359130404682A8933758502DB
:103D1000EF60336503A6090083A64900EF50D31571
:103D200097D70300938787979043D443EF50D314DA
:103D30002A8A33558902AE8AEF60B3622A86AE863C
:103D40005285D685EF50432013073005AE87639523
:103D5000E400B7070080AD8FF2406244D24442498C
:103D6000B249224A924ABE85056182800145814757
:103D7000E5B7011126CA8146B284014652C456C233
:103D800006CE22CC4AC84EC62A8AAE8AEF50136AA3
:103D900041CD930750046386F40093077005639543
:103DA000F40897D903009389E98E03A6090083A636
:103DB00049005285D685EF60430437949800EF6040
:103DC000734D130404682A8933758502EF607359B3
:103DD00003A6090083A64900EF50130A97D70300F2
:103DE0009387C78B9043D443EF5013092A8A3355E6
:103DF0008902AE8AEF60F3562A86AE865285D68552
:103E0000EF50831413077005AE876395E400B7077E
:103E10000080AD8FF2406244D2444249B249224A06
:103E2000924ABE850561828001458147E5B71357F7
:103E300085009357050113D885009376F50F01117E
:103E40001377F70F93F7F70F618593F5F50F137855
:103E5000F80F99C211C3B9E3230CD100A30CE10000
:103E6000230DF100A30DA1000345910183478101BA
:103E70000347A1012205A30E01014207C98F230EAA
:103E8000B1000345B101D98F0347D1018345C10179
:103E9000620522075D8DD98D05618280329513758B
:103EA000F50F13138501135383415D46635766086D
:103EB00061463363C30285071376D70F114593F725
:103EC000F70F6305A6002545631AA6007946637FB0
:103ED000F60205071377F70F85470DA80946631209
:103EE000C7041386067D93084006B36816036385EE
:103EF000080013F5360011C5130500193366A60234
:103F000019EE75466374F60085470D47230CD10002
:103F1000A30CE100230DF100A30D6100B1B77146C0
:103F2000D5B77D46E374F6FEB147E314F7FA85068C
:103F300093F6F60F85470547D1BFE35903FC6105AA
:103F4000FD171313850193F7F70F13538341DDFF1B
:103F50007D171377F70F1146F947E309C7FA19469A
:103F6000E306C7FA2546E303C7FA2D46E300C7FA7E
:103F700089476316F7021386067D93074006B367E9
:103F8000F60291C793F83600F547E38108F89307E6
:103F90000019B367F60293B71700F10785BFFD4715
:103FA00035F7FD1693F6F60F31478DB783471500A9
:103FB000034705000111A2075D8F83472500834653
:103FC000350006CEC207D98F03475500834545000B
:103FD00017060020130686070306E620E2062207DE
:103FE00033E5F600D98DA135135885001356050128
:103FF00093D7850013F7F50F93F7F70F93568501C5
:104000001376F60F9375F80F1375F50FEF70F050E8
:104010009707002083C7970305476385E70011478B
:104020006396E700F24005616F70B05EF240056193
:104030008280497123248116138481FD8307340013
:1040400083C8D1FD03C8C1FD03C7A1FD83C691FD8F
:1040500003C681FD97C503009385C56A48102326D2
:1040600011162322911623202117232E3115EF80BC
:10407000235C4810EF80436318485C480306040340
:104080003AC03EC2030814035C441844541097C558
:104090000300938525693695EF8083594810EF809A
:1040A000A3605C103E958307640017C603001306E7
:1040B000E66489C717C603001306C66397D50300D5
:1040C00093850513EF80C3564810EF80E35D544C91
:1040D000104C5C1097C503009385C5653E95EF8035
:1040E00023554810EF80435C030634035C103E9573
:1040F00097C503009385C564EF8083534810EF8014
:10410000A35A03072403AA8448503ACE138481FD9E
:10411000EF70835472475C10AE862A8697C5030001
:104120009385056333859700EF8083504810EF80B7
:10413000A3575C1003C6C10097C503009385C562F1
:104140003E95EF80E34E4810EF8003565C1097C514
:104150000300938565623E95EF80E353138961FF09
:10416000A28497D903009389290803C6740519CA44
:10417000481032CEEF80435372465C10CE853E9598
:10418000EF80034B8504E39224FF4810EF80C35176
:104190005C1097C503009385A55E3E95EF80A34F05
:1041A00097D40300938444040346940319CA481027
:1041B00032CEEF80634F72465C10A6853E95EF804D
:1041C00023470504E31224FF4C102545EFA0D058E7
:1041D0008320C11603248116832441160329011666
:1041E0008329C11575618280411122C406C626C289
:1041F000830755012A84B9C7A946938707FDB3876A
:10420000D70203476501130707FDBA97A38DF1FC99
:104210000307750183478501130707FD3307D7029D
:10422000938707FD3E97238EE1FC830795010347A3
:10423000A501938707FDB387D702130707FDBA9738
:10424000A38EF1FC8307940281CB130710046391C2
:10425000E7148547238FF1FC8307D403938481FD02
:1042600099C71305D403EF70E36788C4CCC4030671
:10427000140509CA8844CC442384C100EFF0BFA3CD
:1042800088C4CCC48307540699C713055406EF703D
:10429000636588C8CCC80306940709CA8848CC4817
:1042A000A384C100EFF0FFAC88C8CCC88307D40852
:1042B00099CF1305D408EF70E36297C70300938783
:1042C000E7409043D443EF50533388CCCCCC8307A2
:1042D000140A99C71305140AEF702361239CA1FEE9
:1042E0008307540BB9C7A946938707FDB387D70245
:1042F0000347640B130707FDBA97238DF1FC0307EF
:10430000740B8347840B130707FD3307D70293878A
:1043100007FD3E97A38CE1FC8307940B0347A40B96
:10432000938707FDB387D702130707FDBA97238C3E
:10433000F1FC83853400856703C6C1FD938707E1DF
:104340001307C0033307E60283C6D1FDB387F50226
:10435000BA97B69723A2F100170700201307476DFD
:10436000835707003A8413F5870039E10385640019
:104370000547631FE50203C7A1FD11EF8844CC4444
:1043800001468146EF50930A05E9238F01FCB9A04D
:10439000238F01FCD1B5FDD175D2EDD293E7870013
:1043A000138581FD170700202314F768EFF01FC065
:1043B00083876400E1F7D1BF8848CC480146814635
:1043C000EF50D30679D183C7A1FDE1D3130680074F
:1043D000938581FD138501F6EF70E35303C501C199
:1043E0009D4705053365F50213068007938581FD1A
:1043F0002388A1C0930780073305F502938781C105
:104400003E95EF704351EFF0DFC25C542244B2405E
:104410009244170700202327F7641306800781457D
:10442000138581FD41016FD0DFFB0171232C811EBB
:10443000232A911E1306101E2A84AE84680081452B
:10444000232E111E2328211FEFD0BFF9814581475C
:10445000014701465148CD485D436340960899C1E4
:104460002306F1001306A002A6852285EFA01051B5
:104470008347C10051473386A440B387E7029305C1
:10448000150078007D16A29585073305F700EF70BB
:1044900083481306A002A685228503491400EFA0D5
:1044A000F04D894763C3A7080345C100D1473305D1
:1044B000F5027C0005053E95EFF04FC3631CA9048F
:1044C000194697C503009385E51D1305D100EFA09C
:1044D000505825C56800093B35A8B306C40003C57C
:1044E0000600930665FD93F6D60F91EA850793F7CC
:1044F000F70F6361F302854501470506B9BFB3862F
:104500000703130E011FF296BA96A38EA6E00507C5
:10451000E3D5E8FE8320C11F0324811F8324411FAC
:104520000329011F1301012082803307F400034790
:10453000070085073349E900B5B7194697C5030059
:10454000938585161305D100EFA0B05039E91946BF
:1045500097C50300938585151305D100EFA0704F13
:104560000DED194697C50300938585141305D100F9
:10457000EFA0304E19ED194697C5030093858513BA
:104580001305D100EFA0F04C51D56800EFF0AFEB70
:1045900051B76800EFF0CFC6B5BF6800EFF0EFE5A8
:1045A00095BF6800EFF02FC2B5B7757122C526C35D
:1045B0004AC1CEDED2DCD6DADAD806C7AA892E897D
:1045C000814401448147130A4002854A354B1397C1
:1045D00004014183636C2701BA402A449A440A4982
:1045E000F659665AD65A465B4961828033879900EC
:1045F0000347070063004703639C5701631D67017E
:104600009C18A297A2856800238E07F8393D814740
:10461000850475BF01449C18A29705041374F40F18
:10462000238EE7F893373406E5B7411106C61385A4
:1046300001C183470500130780078145B387E7025F
:1046400013068007A1073E95EFD0BFD9B240814540
:10465000114541016FB08046138501C183470500B4
:1046600013078007B387E702A1073E958280138571
:1046700001F68280397126DA97C40300938404F32B
:1046800062CC66CA328CB68C9040D44006DE22DC06
:104690004AD84ED652D456D25AD05ECE6AC842C0FC
:1046A00046C217C403001304E4F03AC43EC6EF50F8
:1046B000C3741040544017CD0300130D2DF0EF408C
:1046C000B37B2247B2479040D4402A8AAE8A3A85CB
:1046D000BE85EF50837210405440EF40F3792A8931
:1046E000AE892A86AE865285D685EF50933C032646
:1046F0000D0083264D00EF504370EFE0F0762A8BDB
:10470000AE8B5285D685EFE0106D2A8AAE8A4A8537
:10471000CE85EFE0506C024892482A894286C686D0
:10472000AE896285E685EF50D3389040D440EF5093
:10473000C36C10405440EF40337403260D008326B1
:104740004D00EF50836BEFE030722A84AE844A86CE
:10475000CE865285D685EF50436A2286A686EF50D4
:10476000C3692286A686EF5043692A84AE845A869E
:10477000DE865A85DE85EF5043682A86AE8622851E
:10478000A685EF40637CEFF0A035EFE030772A8616
:10479000AE86EF40637B97C703009387A7E2904301
:1047A000D443EF50836597C70300938727E2904374
:1047B000D443EF508364F2506254D2544259B259F8
:1047C000225A925A025BF24B624CD24C424D21610A
:1047D00082809707002083C7372681CF9707002064
:1047E00083D7C7A7FD17C207C1831307A00363754B
:1047F000F70023A40186828071714ECF9389818650
:1048000083A7090056CB938A01C1850722D526D3F9
:1048100052CD5AC95EC762C566C36AC106D74AD1BE
:1048200023A4F18683C401C1014A130C8007568476
:1048300097CC0300938C0CE1054D9D4B154B3389B0
:10484000840356998307E900F1CF03A60C0083A6E1
:104850004C000325090283254902EF50A34E634310
:10486000050C83470904638FA70B93171A001808D8
:10487000BA97035789022390E7003C00D297238020
:104880009700050A9904B3E47403E31A6AFB03571B
:10489000810183570101998F13D7F741B98F998F00
:1048A000939407011307400BC1806358F7009307E7
:1048B0008016B3849740C204C180268697C5030042
:1048C0009385C5D86808EF70B3566C082545EFA0EE
:1048D000A068938714FFC207C1837947636FF70805
:1048E00003499100130A80078545014533094903AF
:1048F000210922994A86EF80F01B8344B100854547
:104900000145B3844403A104A2942686EF80901A43
:104910004A868D450945EF30403F26868D4509453D
:10492000EF30A03E83A70900170700200357079325
:1049300063E7E70203C501C19304800733059502CD
:10494000B307A4000387E70019CB03C7C108938509
:104950000107631B070E21052295EFE0BFF5BA5052
:104960002A549A540A59FA496A4ADA4A4A4BBA4BC3
:104970002A4C9A4C0A4D4D6182809307D002E3F392
:1049800097FA834B8100930A80078545B38B5B03BD
:104990000145138C8B00229C6286EF80B011034B83
:1049A000910085450145330B5B03A29B210B229BA4
:1049B0005A86EF803010034AA10085450145330A2D
:1049C0005A03210A229A5286EF80D00E0349B10081
:1049D0008545014533095903210922994A86EF800B
:1049E000700D8344C10085450145B3845403A1047F
:1049F000A2942686EF80100C62868D450945EF3023
:104A0000C0305A868D450945EF30203052868D459D
:104A10000945EF30802F4A868D450945EF30E02E5D
:104A200026868D450945EF30402E83C701C1B38AE4
:104A3000570303A74B03A29A83A74A03E314F7EE95
:104A400085472380FA04F9BD03A8870183A8C7011D
:104A5000984B9049DC4BD4498845CC45EFF09FC139
:104A60002A86AE862A89AE89680897C50300938591
:104A7000E5BEEF70F33B6C082545EFA0E04D17F560
:104A8000FF1F0345A566EF60A3062A86AE864A850A
:104A9000CE85EF504320E354A0EC03C601C133069A
:104AA00096028545014521062296EF80B00003C697
:104AB00001C1330696028D45094521062296EF3045
:104AC000C02403C501C13305950221052295EFE0FD
:104AD0007FDE23A4018661B513060002814513859C
:104AE00001056FD01F909707002083C7F7F491E767
:104AF00023A6018623A20186828097F7FF1F83C722
:104B0000F75409476388E700F11793F7F70F054754
:104B1000E360F7FE797122D426D24AD006D64ECE73
:104B200052CC56CA5AC8138901C103C401C1EFA0AF
:104B3000706ECA846301051893068007B305D4021A
:104B40009387C1869C43850723A6F186CA95038770
:104B5000E500630207161387418618431306170002
:104B600023A2C18611466362E6022254B2509254D7
:104B70000259F249624AD24A424B97C503009385D3
:104B800065A7254545616FA0E05103C681061387DF
:104B9000010515E603C501C13305D50297050020BF
:104BA00083D5C5EB21054A952254B250925402593F
:104BB000F249624AD24A424B45616FE0FFCC638CB6
:104BC000070E23A6018603280701832847015C47B7
:104BD000904DD44D18478849CC4917CB0300130B8F
:104BE000EB9F170400201304A4E4EFF0BFA80326F2
:104BF0000B0083264B002A89AE89EF50A31417FAC5
:104C0000FF1F130AAA4483DAA1066350A00497C7C2
:104C100003009387279D9043D4434A85CE85EF5068
:104C20008307634805005C540547B3875741637E9B
:104C3000F70003250A2583254A254A86CE86EF40BC
:104C4000A3302328AA24232ABA240328C40217F550
:104C5000FF1F034525653308584142C6EF5053698D
:104C600097C70300938787989043D443EF40D3209E
:104C700003260B0083264B00EF40032D03260A2555
:104C800083264A25EF5063173248AE872A8797C597
:104C900003009385659725454A86CE86EFA0804020
:104CA00003C501C1930780073305F5028355C4028C
:104CB00021052695D5BDB250225492540259F2498D
:104CC000624AD24A424B45618280914763E1C70AFA
:104CD00017C70300130787AB0A063A961C42411117
:104CE00022C406C6BA972A84828797D50300938583
:104CF000A5C61145EFA04026A2851145EFA0C0250D
:104D00002244B24097D503009385C5C611454101A1
:104D10006FA08024A9CA9042EF40D0692244B240DB
:104D20000146976500009385C5993D4541016F3067
:104D3000900B95CA2244C8C2B24003C5A600239472
:104D4000B6003686954541016F80C0562244B24078
:104D500041016FE040762244B2402E86AA8541018F
:104D600009456F308046B2402244410182808280F2
:104D7000411106C6EF904012B24041016F80505E73
:104D80005571581093063102130621029305110242
:104D9000930751021305610286C7EF60F071970710
:104DA00000209387E7C883D70700BD9B1707002023
:104DB0002310F7C8EFF05F8A030305039305E004AF
:104DC00083566102034711028347210203483102DF
:104DD00083484102034E510217D60300130646478B
:104DE0006316B30017D6030013060633830E1503AC
:104DF00013035004032F8500832FC50097D50300AC
:104E00009385853163866E0097D50300938545446D
:104E100003230501832345017AC41ACC1ECE7EC626
:104E200072C02EC832C297C503009385251817F6A5
:104E3000FF1F1306660A2810EF70837FEF808061E2
:104E40002810EF707306938701879043931505012F
:104E5000938601092810C1818D3DBE406961828021
:104E6000411106C623A8B18601C61C4223A8F10839
:104E700097F7FF1F83C7F71D8DEB0545EFB0E026C1
:104E800097C503009385459F2545EFA0E00C970744
:104E9000002083D7E7B9B24093E707011707002046
:104EA0002318F7B841016F80205A05470545639CD8
:104EB000E700EFB080230545EFA0D04697C503007B
:104EC0009385C59CD1B7EFB040220545EFB0402592
:104ED0000545EFA0304597C503009385A59C6DB7A8
:104EE000411122C42A848307D40306C626C22E8514
:104EF00089C71307F003639CE70297F7FF1F83C777
:104F0000B73917F7FF1F1307371B97F6FF1F938655
:104F1000961717F6FF1F1306F61397C50300938520
:104F2000A5A32244B240924441016F70637097F789
:104F3000FF1FA381071297F7FF1FA386071497F798
:104F4000FF1FA38B0716034704008547AE8463FA4F
:104F5000E7009305D40317F5FF1F1305B50FEF7096
:104F600083738307940791CF03470400894763FA4B
:104F7000E7009305940717F5FF1F1305D510EF7091
:104F800083718307540B91CF034704008D4763FA65
:104F9000E7009305540B17F5FF1F1305F511EF708C
:104FA000836F8307140F91CF03470400914763FA7F
:104FB000E7001305140FEF60531397F7FF1FA38D3E
:104FC000A72C014697450000938565541305C01230
:104FD000EF306061EF50F03A97F7FF1F83C7D72B90
:104FE00017F7FF1F1307570D97F6FF1F9386B60994
:104FF00017F6FF1F1306160697C50300938505993C
:10500000268505B7411126C206C622C403470500FE
:105010008947AE8463F5E7029305D5032A8417F523
:10502000FF1F130525FCEF70036713059407EF605E
:10503000D30B97F7FF1F2399A700EF50102FEF50C6
:10504000D03297F6FF1F83D6260017F6FF1F1306F0
:1050500066F997C50300938565EC2685EF70435D7F
:10506000854797F5FF1F938525E717F5FF1F130564
:1050700025F617F7FF1FA301F7ECEF70C36197F553
:10508000FF1F938535FD17F5FF1F130505EBEF7027
:10509000836097F5FF1F938515FF17F5FF1F130515
:1050A000E5ECEF70435F97F5FF1F9385F50017F56B
:1050B000FF1F1305C5EEEF70035E97B503009385E0
:1050C000A5C017F5FF1F130505F5EF70C35CEF5082
:1050D000D0250146974500009385453C7945EF3042
:1050E00080502244B2409244014697650000938567
:1050F00045531305000541016F30E04E411122C4B4
:1051000026C24AC006C68307D503AE8417C903006A
:10511000130949BB170400201304849189C713079E
:10512000F0036391E70417F5FF1F034515FCEF50EB
:10513000331C0326090083264900EF40E353EF6048
:10514000635C28C0EF604351AE862A8697C5030092
:105150009385C5B72244B240024926859244410155
:105160006F70034D1305D503EF60237897F7FF1F8A
:10517000A38DA7F61375F50FEF50931703260900BB
:1051800083264900EF40434FEF60C35728C0EF50DC
:10519000501F2840EF60434CAE862A8697C5030017
:1051A0009385C5B445BFAA870387D7032E8509C752
:1051B0009306F0036315D70297F7FF1F83C757E9DC
:1051C00017C60300130606AD89E717C603001306CA
:1051D000E6AC97C503009385E5AD6F70634541115B
:1051E0001385D70306C622C42E84EF60037097F799
:1051F000FF1FA38FA7E4EF50D01897F7FF1F83C7B7
:1052000037E597C503009385E5A989E797C50300AE
:105210009385C5A922852244B24041016F70A347FE
:10522000411126C206C6AA8422C48387D4032E85D0
:1052300089C71307F0036396E70497F7FF1F83C737
:1052400057E105476385E70289CB09476386E70293
:10525000B240224492444101828097C50300938565
:1052600025AD2244B240924441016F70C34297C5BC
:105270000300938565AEF5B797C50300938585B0A8
:10528000CDB79384D4032E84268597C503009385D8
:1052900065B2EF7083471DC1894717F7FF1FA30A47
:1052A000F7DA97C50300938525B52285EF70A33EF5
:1052B0002244B240924441016F50B00C2685EF6009
:1052C000C3621375F50F97F7FF1FA384A7D885470F
:1052D00097C50300938545B0E309F5FC97C5030026
:1052E0009385C5AD79D18947E30DF5FA17F7FF1F0F
:1052F000A301F7D697C50300938545B27DB7411149
:105300002E8597C50300938565B906C6EF70A3384F
:10531000014697450000938565187945EF30A02C2C
:10532000B2400146976500009385A52F130500053F
:1053300041016F30402B411122C426C206C68307AB
:10534000D503AE8417F4FF1F130444D089C7130795
:10535000F003639BE7028306E42017C603001306ED
:10536000E6BF63D6060017D603001306E6DA2685E5
:1053700097C503009385C5BEEF70832B2244B240CE
:10538000924441016FA0E0181305D503EF60E35587
:1053900097F7FF1F2383A7ECEFA0A0170306E420D5
:1053A00097C50300938585BD2545EF90B04F834792
:1053B000E4206147B10793F7F70F6377F700A14740
:1053C00017F7FF1F230BF7E8EF50A07B8306E420BD
:1053D00017C60300130686B863D6060017D6030067
:1053E000130686D32244B2402685924497C5030013
:1053F000938545B941016F70A32379719307D1015A
:1054000078089306B1011306A10122D41305E10126
:105410002E849305910106D626D24AD0EF60D0099A
:10542000EF90202F8348D1010348C1018347B10188
:105430000347A101834691010356E10197B503009B
:1054400093854570AA842285EF70831E2285EF70B4
:10545000A32597F7FF1F9387A75DCC5703A84703A2
:105460000566130606E19306C00333F3C5022295D1
:105470003377D802B378C8023AC09C5733F7D502C5
:10548000B3D8D8023358C802B356D30233D6C502B4
:1054900097B503009385456DEF7083192285EF70F2
:1054A000A3203309A400EF90A06317B603001306EE
:1054B000266909C517B603001306466897B50300A9
:1054C0009385856E4A85EF70A3162285EF70C31D04
:1054D00017F6FF1F0346065A97B503009385C56D5F
:1054E0002295EF70E3142285EF70031C9040D45492
:1054F000CC4089472295058A858A17B70300130790
:10550000E7636386F50017B703001307676303A813
:105510000403894597B70300938747626306B80081
:1055200097B703009387C76197B503009385056A12
:10553000EF700310B2502254925402594561828098
:10554000AA870387D7032E8509C79306F003631143
:10555000D70297F7FF1F83C7E7AF97B5030093857F
:10556000253689E797B50300938585386F70A312B8
:1055700041111385D70322C406C62E84EF60E3369B
:105580001375F50F97F7FF1F2386A7AC17F7FF1FBB
:105590000347D7AB89476316F7000DE91145EFA024
:1055A000605897F7FF1F83C7E7AA97B50300938555
:1055B000A53589E797B50300938545382285EF70B7
:1055C000830D2244B24041016F50A05B1145EFA012
:1055D000005BC1BFAA870387D7032E8509C793063F
:1055E000F003631ED70297F7FF1F83C787A60547FF
:1055F000638DE70089C70947638EE700828097B50E
:1056000003009385653C6F70030997B5030093858C
:10561000E53FD5BF97B5030093850545EDB741112B
:105620001385D70322C406C62E84EF60032C13759E
:10563000F50F97F7FF1F238EA7A0854797B50300A7
:105640009385C53C6306F50297B503009385C5377E
:1056500005C1894797B5030093850541630AF500A5
:1056600017F7FF1F2307F79E97B50300938585451E
:105670002285EF7043022244B24041016F506050D6
:10568000AA870387D7032E8509C79306F003631CF7
:10569000D70017F6FF1F034666A597B5030093854D
:1056A000E5596F60F37841111385D70306C622C40C
:1056B0002E84EF60032497F7FF1F2389A7A2EF50E2
:1056C000404C22852244B24017F6FF1F034606A233
:1056D00097B503009385C5584101E1B7411122C434
:1056E00069452E84814506C6EF30D049EF50004011
:1056F0002A8622852244B24097B503009385C55877
:1057000041016F60F372411122C41305D5032E8449
:1057100097B503009385854D06C6EF90F02711CD10
:105720000145EF50805097B503009385E54C2285E5
:105730002244B24041016F6013760545EF50E04EC0
:1057400097B503009385054DDDB7411122C42A8426
:105750008307D40306C626C22E8589C71307F00324
:10576000639CE70297F7FF1F9387B7A117F7FF1F07
:105770001307179E97F6FF1F83D626AF17F6FF1F56
:105780001306F69997B50300938585732244B240BA
:10579000924441016F60D369AE8417F5FF1F130572
:1057A00015989305D403EF60136F17F5FF1F1305CA
:1057B0001597EF60736F93150501C18117F5FF1FF2
:1057C0001305F595EF90D0588307940789CB1305FF
:1057D0009407EF60831197F7FF1F2398A7A883070B
:1057E000540B85CB9305540B17F5FF1F13055596E6
:1057F000EF60736A17F5FF1F13059595EF60D36A85
:1058000093150501C18117F5FF1F13057594EF90DE
:1058100030548307140F85CB9305140F17F5FF1F22
:1058200013053596EF60336717F5FF1F1305759560
:10583000EF60936793150501C18117F5FF1F1305ED
:105840005594EF90F050EF50C03397F7FF1F9387B8
:10585000579317F7FF1F1307B78F97F6FF1F83D6CE
:10586000C6A017F6FF1F1306968B97B50300938506
:105870006566268521BF011106CE2EC6EFA0E01673
:10588000854717F7FF1FA309F79CEF50802F32457C
:10589000F24097B503009385652905616F60B35F9A
:1058A000011106CE2EC6EFA0A01597F7FF1FA38506
:1058B000079AEF50002D3245F24097B503009385CB
:1058C000652705616F60335D411122C426C206C69B
:1058D0008307D5032E8497E4FF1F9384247789C719
:1058E0001307F0036393E70203A58423EF50D35615
:1058F0002A8622852244B2409244AE8697B50300A0
:105900009385455541016F60B3521305D503EF50A0
:10591000D37DEF50E31D97B703009387A73A9043D9
:10592000D443EF307355EF50F35D23ACA422EF5016
:10593000B3522A86AE86228597B503009385C55358
:10594000EF60134F2244B240924441016F506023F4
:10595000AA870387D7032E8509C79306F003631C24
:10596000D70017F6FF1F0356668F97B50300938580
:1059700065586F60F34B41111385D70306C622C4E7
:105980002E84EF5093761316050197F7FF1F239788
:10599000A78C418297B50300938505572285EF6058
:1059A000334997E7FF1F83C7776A09476388E70092
:1059B000F11793F7F70F0547636AF70097F7FF1F93
:1059C00083D7C78989EB0945EFA0601B2244B24009
:1059D00041016F50001BEFA0E00375D517F7FF1FC3
:1059E0000357C7879307B003E3EFE7FC0945EFA030
:1059F0006013E9BF130101B923267145B28B2E86CE
:105A0000AA85E800232611462324814623229146B5
:105A100023202147232E3145232C4145232A51455C
:105A200023286145B68A23248145232291452320DA
:105A3000A145232EB143EF90B01C1305D104EF60B4
:105A4000B34693150501C1811305D10497B4030032
:105A50009384445B0149EF9010290144A689130AFD
:105A60001003C8409305D104EF90007315C90E04CC
:105A70004E948317040013970701230801224183E2
:105A80009306000363F4E6006F10403217B603007C
:105A9000130606D193962700B29698423297028752
:105AA0000504A104E31F44FBFD57F1B717E7FF1FEF
:105AB00003475770A1476312F70C19464C1017E5BE
:105AC000FF1F1305B542EF903002081C23080102A6
:105AD000001CEF60733D97E7FF1F83D7277917E717
