:04C000006F2000337A
:10C004000000000000000000900000202205002035
:10C01400A9BDF9F594000020000000000000000014
:10C02400960000209800002000000000000000009E
:10C034009A000020000000009C0000200000000086
:10C044009E0000201603002044030020A4000020CA
:10C05400A6000020A8000020AA000020AC000020B8
:10C06400AE000020B0000020C60000205A010020CD
:10C074009E050020B8000020BA000020BC0000206B
:10C08400BE000020EE01002082020020C400002037
:10C0940001A001A001A001A001A001A001A001A094
:10C0A40001A001A001A001A001A001A001A001A084
:10C0B40001A001A001A001A001A001A001A001A074
:10C0C40001A001A001A037370040834747009946EB
:10C0D4004111BD8B638CD70231476384E706114756
:10C0E400639EE702A30301001746000003460644CB
:10C0F40037370040834771006315F6022C0013851F
:10C104000165977001E0E780200809A8834757007C
:10C1140093F7F70F2304F100834781004101730073
:10C12400203083477100834687000C08AE97238C28
:10C13400D7FE83477100850793F7F70FA303F10038
:10C1440055BF280097E001E0E78040881375F50F9C
:10C15400A303A1000346710055B737370040834756
:10C16400474099464111BD8B638CD70231476384A4
:10C17400E7061147639EE702A30301001746000088
:10C184000346E63A37370040834771006315F602E9
:10C194002C0013854166977001E0E780E0FE09A852
:10C1A4008347574093F7F70F2304F1008347810037
:10C1B40041017300203083477100834687400C0897
:10C1C400AE97238CD7FE83477100850793F7F70F4B
:10C1D400A303F10055BF280097E001E0E780C09079
:10C1E4001375F50FA303A1000346710055B7374734
:10C1F40000408347478099464111BD8B638CD70229
:10C2040031476384E7061147639EE702A3030100F5
:10C2140017460000034696313747004083477100B4
:10C224006315F6022C0013858167977001E0E7809F
:10C23400A0F509A88347578093F7F70F2304F1006B
:10C244008347810041017300203083477100834696
:10C2540087800C08AE97238CD7FE8347710085072F
:10C2640093F7F70FA303F10055BF280097E001E00F
:10C27400E78040991375F50FA303A10003467100ED
:10C2840055B737470040834747C099464111BD8B96
:10C29400638CD70231476384E7061147639EE70244
:10C2A400A3030100174600000346A6673747004072
:10C2B400834771006315F6022C001385C1689770DB
:10C2C40001E0E78060EC09A8834757C093F7F70FB4
:10C2D4002304F10083478100410173002030834728
:10C2E4007100834687C00C08AE97238CD7FE834722
:10C2F4007100850793F7F70FA303F10055BF2800DA
:10C3040097E001E0E780C0A11375F50FA303A10036
:10C314000346710055B7411122C6371400408357B4
:10C32400C40913973701635B0700BD45014597C0F6
:10C3340001E0E78080048567231EF408324441014C
:10C3440073002030411122C6371400408357E4099A
:10C354008357E409139717016359070097C001E055
:10C36400E780E0F69167231FF4083244410173002B
:10C374002030B7170040930670052380D7041307B5
:10C3840080FA2380E7040100010003C6B704137692
:10C39400F60DA385C70423800704137605024DC256
:10C3A40003C6A700118A1DE22380D7042380E70473
:10C3B4000100010003C7A700136747002385E700B6
:10C3C4009307004B01000100FD17EDFFB717004074
:10C3D400930670052380D704130780FA2380E704AB
:10C3E400010001007D892394A700010001000100E0
:10C3F4000100238007042380D7042380E70401007D
:10C404000100010001003727004093061005A30333
:10C41400D78023800704B7170040130770052380D3
:10C42400E704130780FA2380E7040100010003C72F
:10C43400B70413670708A385E704238007048280F1
:10C444001376050441C603C6A700418A1DE2238072
:10C45400D7042380E7040100010003C7A700136782
:10C4640007012385E7009307007D01000100FD1704
:10C47400EDFFB7170040930670052380D704130718
:10C4840080FA2380E704010001001376F5011366A6
:10C4940006042394C7000100010001000100238069
:10C4A40007042380D704130660042380E704631879
:10C4B400C5000100010037270040894689BF0100FB
:10C4C4000100372700409306200591B72380D70445
:10C4D4002380E7040100010003D787001367070CDA
:10C4E4002394E7000DBF4111814601468145114562
:10C4F40006C66922B7170040130770052380E704B6
:10C50400130780FA2380E7040100010003C76704CE
:10C51400136717002383E70423800704B240410113
:10C5240082808146014681451145892AB71700401A
:10C53400930670052380D704130780FA2380E70449
:10C54400010001007D562396C7022380D70423806F
:10C55400E7040100010003C767041367170023837E
:10C56400E7042380070401A0BD473305F502010059
:10C574007D1575FD8280411122C426C206C6AA8497
:10C58400014463179400B2402244924441018280E2
:10C5940005041305803E4204C13F4180DDB7B7174F
:10C5A4000040130700032388E7028547174700006C
:10C5B4002322F75073002030411106C6852DFDBF9C
:10C5C4002303048015472303E48001002302A4808D
:10C5D400828083076480E3CE07FE23030480828085
:10C5E40083076480E3CE07FE03454480828083078B
:10C5F4006480E3CE07FE2302A4808280411126C416
:10C604004AC24EC006C61377F50BAD47AA892E89D8
:10C6140095446306F70019456537653F8D444E859B
:10C624004537FD59FD1463983401B240A2441249C0
:10C63400824941018280135509011375F50F453F65
:10C644002209CDB7011126CC06CEB7040800513714
:10C654001545BD37713769372AC6A53F32459377EB
:10C66400150089EB136515001375F50FF240E244CC
:10C6740005618280FD14E9FC0145CDBF397126DCDA
:10C684004ADA4ED852D656D45AD25ED006DE62CE9C
:10C6940066CCB7E700E07D5783AA070022C603AA49
:10C6A400470023A0E71823A2E718B7170040130791
:10C6B40070052380E704130780FA2380E70483C707
:10C6C4004704930B75FFB684E20793FBFB0F854683
:10C6D400AA892E8B328937240040E187015763FAF7
:10C6E40076016308D5008946130700026313D50059
:10C6F4000157D98F93F7F70FB71C00402382FC042E
:10C7040011472303E4801305F00F5D3D094CD13537
:10C71400636D7C11B7050700DA95378707007955F3
:10C7240063F2E504B3879500636EF702370B0800E4
:10C73400A94733EB65016399F90689E48144513DC6
:10C7440026850DA0DA850945553D05090345F9FF00
:10C75400FD14050B693D81C49377FB0FFDF7DD35AF
:10C7640069FD7D55B7170040130770052380E70462
:10C77400130780FA2380E70403C74704418B23820D
:10C78400E704F250B7E700E023A0571123A24711B2
:10C79400E25432445259C259325AA25A125B825B51
:10C7A400724CE24C21618280A5476395F906856944
:10C7B4001309F00FB3069900B3742B01B69413490F
:10C7C400F9FFB3749900856B33796901416B9387E1
:10C7D400F9FFB3F7270199E363FC340193D94900C6
:10C7E400C147E3E637FF99BF0569C1697D19D9B728
:10C7F4001305800D638869011305000263847901C0
:10C8040013051008CA85DD3B353D21DD4E99B384FF
:10C814003441D9B7DA852D45D533CA94E30099F26A
:10C8240005097D3BA30FA9FED5BF9387F9FF93F7B5
:10C83400F70F6361FC0C83C71C0413073008631FE4
:10C84400F70437070800636BEB04B3079B00B706D4
:10C85400100063F5D704334BEB0089476393F90663
:10C864008980D549E38C04ECDA850945413B1109FB
:10C874000327C9FF91472320E48003076480E34E24
:10C8840007FE23033481FD17EDFBFD14110B81C456
:10C894009377FB0FE9FF7D3371F5E1B5B7170040DE
:10C8A40003C75704B70708001377070219E3B787CC
:10C8B40007007955E378FBEA33079B00E3FFE7F8C9
:10C8C40055B58547E382F9F2DA852D45053B938911
:10C8D400F4FFE38504E6293393F7390091EB8326CB
:10C8E40004800327090093074900E39AE6E43E899C
:10C8F400CE84F1BFB5476396F9001305900BC93197
:10C9040035BDB1471305B00AE38BF9FE994763912E
:10C91400F904B7050800B365BB002D45C531814452
:10C924008D4BA149753963967401832704802320B4
:10C93400F9008504E39834FF8327048013172B013F
:10C94400635507002312F900D5BB2322F900FDB378
:10C954009D476399F90281451305B0044531BD44EF
:10C964002320090023220900FD599D3993F77400FF
:10C97400CA9703C70700FD14398D2380A700E396E7
:10C9840034FF6DBBA1476392F9046D398144630D93
:10C994000B008D479304C0036308FB009304000558
:10C9A40063048B01930440041375C507E30895D809
:10C9B4001945393139390545213126850D3909455E
:10C9C4003D314931E31C05D669BB91476399F900B0
:10C9D40013056006F536F53E130590090DB7E38F90
:10C9E40009D4F154A9BB19CD91CD09CE8147338720
:10C9F400F500834607003307F50085072300D700B9
:10CA0400E317F6FE828019C991C909CA910583A763
:10CA1400C5FF11057D16232EF5FEC5BF828001C911
:10CA240019C62A960505A30FB5FEE31DA6FE82804E
:10CA340081473307F5000307070019E33E85828029
:10CA44008507C5BF01112E8626CAAA8413150601BF
:10CA54009305F004418122CC06CE32C6EF108063E8
:10CA64002A8401C53246A685BD3F2285F240624430
:10CA7400D24405618280854715C18DC105C28147B5
:10CA8400B306F5003387F50083C6060003470700A5
:10CA94006398E6008507E315F6FE85473E858280A8
:10CAA4008147EDBF9307F6FFBE952A966313C50031
:10CAB4008280FD1583C715000505A30FF5FEFDB79C
:10CAC400AA87014581CF09CE3E96850703C7F7FFA4
:10CAD4006317B700E39BC7FE05458280828001454A
:10CAE40082807971976700009387878522D4804379
:10CAF40006D626D24AD04ECE52CC56CA5AC85EC6A4
:10CB040062C45DCC37C9C901814B176A0000130A9E
:10CB1400AA87976400009384E4821309F937975A2B
:10CB24000000938AAA7CB709C0A8370B40578357E3
:10CB3400240095E35C44639D0B00176700002321E8
:10CB4400F780032CC4002285EF10E061628499A869
:10CB540023A6FB00FDB783270A008297838664011E
:10CB64001C4463DB06063307F5406367E9089757FF
:10CB7400000023A50778835524000345040097206B
:10CB840002E0E78000065C405844A9CF1444B697FD
:10CB94008386640163C5060063E33701DA971CC426
:10CBA400A28B3A8449F497570000938727749C4BCF
:10CBB40009476378F706F917175700002320F7741D
:10CBC400B250225492540259F249624AD24A424B18
:10CBD400B24B224C45618280E377F5F83387F94004
:10CBE4002A9761B763970B009757000023AAE7744D
:10CBF40089BF23A6EB00B1B7D85009CF63DF060085
:10CC04003385A74083A70A016376F5009757000090
:10CC140023A6A76EA28B404471B7E3F3A7FECE9779
:10CC2400C5B79757000023AB076C59BF411122C405
:10CC3400175400001304846E1C4006C626C24AC062
:10CC440091C782979757000023AA076C5C4091C351
:10CC540082971C406391071C9767000083C7978ADB
:10CC6400858B9DC797670000A38E07881767000010
:10CC740003477789954763FDE700EF0050419767C5
:10CC8400000083C75788F5178A07A2979C438297A9
:10CC9400176900001309C98A8347C900918B99C396
:10CCA400EF10A0321C4491C38297975400009384E0
:10CCB400E4689840175600000346566397570000EF
:10CCC40083C7C76293961700BA9683D60600D5CA5F
:10CCD4009757000083C7876163EFC70A975700001F
:10CCE400238607601C40639807129767000083C778
:10CCF400B78191CF9767000083C7F78089EB976767
:10CD04000000A383078097B003E0E78000419757B2
:10CD14000000938767679C43638F070EB707C0A81B
:10CD240017570000232CF75C6D3B9757000093873F
:10CD34006761DC53EDC3175700001307275B184BDB
:10CD44009757000083C757616367F70C17570000B4
:10CD54000347777B954763E0E70C8347C900918BD2
:10CD6400DDEB90409756000083C6565863CBD70A34
:10CD74002244B240924402494101172302E0670071
:10CD840063C3850793F7F70F975600002380F65681
:10CD9400E3E6C7F235BF86073E97835507002310A5
:10CDA4000700975700002399075897570000938767
:10CDB400A7569C43175500000345455313172500F8
:10CDC400BA979C4382979757000083D7E756175723
:10CDD40000000347A75193C7F7FF7D8D93171700F2
:10CDE40098403E97835707005D8D2310A7009757FF
:10CDF400000083C7A74F91C7850717570000230773
:10CE0400F74E175700000347674E9757000083C734
:10CE1400F74DE375F7ECB2402244924402494101D4
:10CE24008280139717003297035707006DF7850721
:10CE340035BFAD6737C70040BD072326F7200F1065
:10CE44000000975700009387674AC84F83278726B7
:10CE5400BD66BD0693C7F7FF99836A052326D720CD
:10CE64005D8D82804111B7170040985F3AC6945F88
:10CE74003247E39CE6FE32454101828082800327EB
:10CE8400851163000712411122C406C68347C500F9
:10CE94008345C5042A8493F7C70F2306F500834608
:10CEA40097000356C70013958601618563F1C50891
:10CEB400635A05060345870093F6F607A304D700D3
:10CEC400054693E627006314C50093E6170023067E
:10CED400D4005C4389075CC3A30AB400032504118E
:10CEE4002E864C43090501368327841103465401D9
:10CEF400D44303D7C700B296118FD4C32396E70057
:10CF04008947A30DF400034744039757000083C7E0
:10CF140087446378F7048347C40093E70701230633
:10CF2400F40081A093E717002306F40075B7937605
:10CF3400F60F635D050203458700854513E6270068
:10CF44006314B50013E617002306C400A30AD40033
:10CF5400A30407008547A30DF400832784119C4391
:10CF6400DDF3B240224401454101828093E717007A
:10CF74002306F400A30AD400A30407000325041124
:10CF84004C4309058D348327841103465401D4434B
:10CF940003D7C700B296118FD4C32396E7008D47F9
:10CFA4005DBF05458280975700009387E7539C43F4
:10CFB400411122C406C6858B2A84C5EF4165130539
:10CFC40025F5973003E0E780008F45C58347A5002A
:10CFD4002315F50083270412BDE72320A41223227E
:10CFE400A41285472310F404232005008347640119
:10CFF40054412316F5000347D4002304E5000547F4
:10D00400A304E500175700001307874F184F138533
:10D01400170215811C437D151375F50F9CC25C43E3
:10D02400DCC21C479CC65C47DCC61C4B9CCA5C4BE0
:10D03400DCCA1C4F9CCE5C4FDCCE19CD9386060215
:10D0440013070702C1BF8327441288C3835704040C
:10D054002322A412850779B79757000083D78757EF
:10D064008507175700002317F756B24022444101A1
:10D0740082808347C40023090400054593C7470001
:10D084002306F400DDB78347850193F7E70FD5EF57
:10D0940083479501DDEB034625018346C50009CA94
:10D0A40083454503175700000347F72A63E7E50064
:10D0B40013F7060141CF014709C6C18A0357651C0E
:10D0C40081C68356A51C369751C31307C71217553B
:10D0D400000003552524B335A70237460F0041113C
:10D0E40013060624814622C426C206C67D5433058F
:10D0F400A702974004E0E78060EA9757000083C7DF
:10D10400F725B384A700975700009387274C03A7FC
:10D1140007098327070963F387003E84184375FBD7
:10D1240097570000938747269C43829781476364FF
:10D13400A400B307A440B2402244B3B7970093C7F6
:10D14400170092443E854101828081473E8582805A
:10D15400797126D206D622D44AD04ECE52CC56CAA3
:10D164005AC85EC68347350303447513AA843E94A4
:10D174001374F40F9307400263F687001304B4FD9D
:10D184001374F40F03AA841383AAC413A38B841205
:10D1940022865285D685974004E0E780A0DA058987
:10D1A40015E503CBD41201498149337B6403930B06
:10D1B40050024A865285D685974004E0E78080D89D
:10D1C400058915C5639169031374F90F238B8412C0
:10D1D400B250225492540259F249624AD24A424B02
:10D1E400B24B456182808509E20993D989410509D9
:10D1F400E31179FDE1BF832785090356E5037971BE
:10D2040093D60701BD8EC206C182358E1357764070
:10D2140093575640898B058B5D8F93573640918B7E
:10D224005D8F93571640A18B5D8F93171600C18BAA
:10D234005D8F9317360093F707025D8F931756009F
:10D244009355860093F707041E065D8F1376F60F39
:10D25400518F93D7554013D63540118A898BD18F7E
:10D2640013D67540D18F13D61540218AD18F1396CA
:10D274001500418AD18F1396350013760602D18F9B
:10D2840013965500137606049E05D18F93F5F50F7A
:10D29400CD8FA20745465D8F3307C70222D42A8467
:10D2A40026D252CC56CA032A8413832AC4135AC8DA
:10D2B40006D6369742074183935777401355574014
:10D2C4000989858BC98F135537401189C98F135527
:10D2D40017402189C98F131517004189C98F131568
:10D2E400370013750502C98F13155700935587002E
:10D2F400137505041E07C98F1377F70FD98F13D53C
:10D30400354013D755401189098B498F13D5754082
:10D31400498F13D515402189498F139515004189EB
:10D32400498F1395350013750502498F13955500E0
:10D33400137505049E05498F93F5F50F4D8F22074C
:10D34400D98FB387C7024AD04ECE5EC662C4B697A1
:10D35400C207C18313D7774013D557400989058B7A
:10D36400498F13D537401189498F13D51740218927
:10D37400498F139517004189498F13953700137509
:10D384000502498F1395570093D58700137505043B
:10D394009E07498F93F7F70FD98F13D5354013D7CD
:10D3A40055401189098B498F13D57540498F13D581
:10D3B40015402189498F139515004189498F13958B
:10D3C400350013750502498F13955500137505042F
:10D3D4009E05498F93F5F50F4D8F2207D98FB3879B
:10D3E400C702130650025285D685B697BD8E939414
:10D3F4000601C18033F6C402137BF60F974004E0A4
:10D40400E78040B405890DED8347D4120149814971
:10D41400B3849702130C5002C1804A865285D68584
:10D42400974004E0E78000B20589937BF90F11C5AA
:10D4340063863403850993F9F90F0509E31F89FD10
:10D44400230B6413B250225492540259F249624A93
:10D45400D24A424BB24B224C456182805E8BCDB79F
:10D46400011122CC604126CA4AC84EC652C406CE17
:10D47400AA841D4A130965058549BC446364F40004
:10D48400054581A803C7D40083474400631B4705AF
:10D4940003C784026304F7000040C5B70347540080
:10D4A40083C75405E31AF7FE1946CA8513056400B9
:10D4B400EFF06FDCE31235FF0347C40083C7940227
:10D4C400E31CF7FC0357E40083D7A402E316F7FC3C
:10D4D4000145F2406244D2444249B249224A0561BC
:10D4E4008280E31BF7FA0347540083C75405E3150E
:10D4F400F7FA1946CA8513056400EFF0CFD7E31D88
:10D5040035F9F9B70111975700009387270C22CCFE
:10D5140003A4470B26CA06CE2AC42EC6854419E4A2
:10D524000145F2406244D244056182808347910000
:10D5340003471400858B6304F7000044CDB71946F4
:10D544009305A10013052400EFF0EFD2E31795FE35
:10D554000545C1BF011122CC17540000130404FC7B
:10D5640018402AC62EC432C206CE3C4B93F7F7F7B6
:10D574003CCB97B003E0E78000B718409756000013
:10D58400938606F73C4B93E707083CCB9C42324515
:10D59400A24523A0070003471500034825002207DE
:10D5A4004208429703480500429703483500620841
:10D5B400429798D70347550003486500220742085D
:10D5C4004297034845004297034875006208429712
:10D5D400D8D7034795000348A5002207420842977D
:10D5E4000348850042970348B5006208429798DBD8
:10D5F4000347D5000348E500220742084297034841
:10D60400C5000345F500429762052A97D8DB03C796
:10D61400150003C52500220742052A9703C5050006
:10D624002A9703C5350062052A9798CF03C755008A
:10D6340003C56500220742052A9703C545002A97BA
:10D6440003C5750062052A97D8CF03C7950003C5A3
:10D65400A500220742052A9703C585002A9703C51A
:10D66400B50062052A9798D303C7D50003C5E50022
:10D67400220742052A9703C5C50083C5F5002A97EA
:10D68400E2052E97D8D3D843759BD8C3D8431367E4
:10D694001700D8C398431367170098C312469842DB
:10D6A4005C43858BD1E71C4F01452300F6009C4267
:10D6B4009C4FA183A300F6009C429C4FC18323018D
:10D6C400F6009C429C4FE183A301F6009C42D84F94
:10D6D4002302E600D84F2183A302E600D84F4183FA
:10D6E4002303E600D84F6183A303E6009853230481
:10D6F400E60098532183A304E6009853418323054D
:10D70400E60098536183A305E600D8532306E60098
:10D71400D8532183A306E600D85341832307E600A8
:10D72400DC53E183A307F600F24062440561828082
:10D734000100B5B7175700001307C7DB14434111A5
:10D7440022C49C5E4AC006C6998326C2858B3A844D
:10D75400175900001309C9D9D1CB9C5E9754000016
:10D76400938404DA93F7F7F99CDE17570000034714
:10D7740087D993070008631BF700832709009C439C
:10D7840093F7070417570000230FF7D683C7040045
:10D7940093F707049DC3975700009387E7BE9C4304
:10D7A40082979757000023A5A7D683C7040093F751
:10D7B400F70B175700002305F7D483C7440093F7EA
:10D7C40007048DE7854717570000A30DF7D2975735
:10D7D40000009387A7D49C43096798C7130700FCEC
:10D7E400975600002380E6D2D844F8D31C40985FB3
:10D7F4001183058B09CB985F3D9B98DF05479756AE
:10D8040000002381E6D0985F1D83058B11CB985FC0
:10D814001377F7F798DF8547175700002304F7CEEF
:10D8240083270900D8430583058B19C7D843759B03
:10D83400D8C3D843799BD8C3B24022449244024906
:10D8440041018280397106DE16DC1ADA1ED82AD626
:10D854002ED432D236D03ACE3ECC42CA46C872C654
:10D8640076C47AC27EC0F935F250E2525253C253A2
:10D874003255A255125682567247E2475248C24860
:10D88400324EA24E124F824F2161730020309757BF
:10D8940000009387A7C8944397570000938747C60F
:10D8A40003C70700058B11CB97570000238C07C4CF
:10D8B40097570000A38807C4828003C71700058B0D
:10D8C40065F7F85271FF83C75700DDB7175800009A
:10D8D400130848C2032708001C5F9583858BD1E792
:10D8E40009C61C5BBD832300F60085CA8327080094
:10D8F400985B4607935767016356070093E707C091
:10D90400C207C18303970600C207C18709C7BA9734
:10D914000947B3C7E7022390F60085CD8347150076
:10D924008DCB9756000083C606BE93F60604138774
:10D93400970089478DCA3A9503470500854699475C
:10D944001376F7066311D60262076187B947634C01
:10D954000700832708009C5FED838D8B1757000019
:10D96400A305F7BA81473E8582808547EDBF411103
:10D9740022C406C617540000130444BA184049E9E7
:10D98400AE877453FDFE3E85B28597570000238A07
:10D9940007B697A003E0E780004B975700009387F2
:10D9A40067B59C43B70680009843558F98C3D857F2
:10D9B400719BD8D797570000A38607B497570000E8
:10D9C400A38007B41C40094798C3B7F700E003A736
:10D9D40007D16D9B23A8E7D003A707D15D9B23A89C
:10D9E400E7D073005010144017570000130747B1D5
:10D9F40083472700858B89EB83473700858BD9C7FD
:10DA040097570000238007B0B2402244410182802E
:10DA14008D476310F502975700009387A7AD9C4389
:10DA2400B70680009843558F98C3D857719BD8D7B1
:10DA34005DBF8547E319F5FAB567BD075CC70F10ED
:10DA440000001C400967094698C7130700F8975659
:10DA540000002389E6AA175700001307A7A9144357
:10DA6400984231830D8B6319C7001307E043F8D341
:10DA74003D673D07D8C785BF984231830D8B01E7C9
:10DA840013076019EDB71307E01BD5B7FC52ADF3CC
:10DA9400A5BF5D7152DC175A0000130AAAA503271B
:10DAA4000A0086C6A2C4A6C2CAC04EDE1C43975949
:10DAB4000000938969AB17590000130929A693F74D
:10DAC400F7E793E707081CC383A609003707CEFFCF
:10DAD4007D179C46130680022A84F98F9CC68327EF
:10DAE4000900130700082800B8CBAE84930510087A
:10DAF400EFE0FFF297A003E0E780E05E97A003E089
:10DB0400E780E06B83270A009376F41F370FFCFF4E
:10DB140023A40700984B4E88CA881367F70398CB51
:10DB2400F84F130510F8D285137707E0558FF8CF17
:10DB34009843F576FD16758F98C39843B70633005E
:10DB4400B70204001377F7E798C398439303401F81
:10DB54007D1F1377F7E71367071098C303A709001E
:10DB6400930F800285491C47D58F1CC78327090062
:10DB74001307900D3400B8CB1149014713533700F4
:10DB840026938347030013767700B3D7C740858B6A
:10DB9400DDCF9C41832E0800239C070423900706B5
:10DBA40003AECE02137EDEFF23A6CE0383AE0700B0
:10DBB400137EF70793FE0EF833EECE0123A0C701C0
:10DBC40003AE4702336E5E0023A2C70383AE080090
:10DBD400014E23A27E0603DA070663074E0303AE53
:10DBE4000703038A0600135EFE00620E135E8E4175
:10DBF4006358CA0103AE0703135EFE002380C60107
:10DC040003DE0706137EFE0F03AA4E0663060A0010
:10DC140003DA8705E37F49FB03AE4702337EEE0157
:10DC240023A2C70383870600635CF400034E03004A
:10DC34003396C9001346F6FF3376C6012300C300AA
:10DC44003E8663D3A7002A861315860161850507DE
:10DC54001377F70F8506E313F7F3B640264496448B
:10DC64000649F259625A6161828097560000938690
:10DC7400E68A9C42D8471316170163550602984753
:10DC840013161701635006027D57B8D717470000D3
:10DC94001307C765584F0507174600002326E66695
:10DCA400116798C798470D83058B1DC3175700004C
:10DCB4000347278513671700175600002303E684DC
:10DCC400130700F817560000230EE682214798C771
:10DCD4009847058B09CF17570000034777821367CE
:10DCE400170017560000A30DE680054798C798470C
:10DCF4000983058B09E798470583058B31CF98473E
:10DD0400174600001306C67F174500001305857EDD
:10DD14000983058B630307101841184331830D8B66
:10DD240075EBAC4B184E93F5050203471700CDCDA8
:10DD340079EF13077006D8CF03470600136717005F
:10DD440017460000230EE67A114798C718415C571E
:10DD5400F19B93E717005CD79C42984793163701D1
:10DD640063D606029756000083C6868DC18A17576C
:10DD740000001307A785C5CE0347470713670702AB
:10DD840097560000238EE68A056798C7984793162E
:10DD9400270163D10602174700000347A7766207ED
:10DDA400618763570700054797460000238CE67494
:10DDB400096798C798479316070163D606029756D2
:10DDC400000083C6F687858A17570000130707806B
:10DDD400ADCE034757071367270097560000A3816A
:10DDE400E686216798C7828029D785456315B700E1
:10DDF4001307B00689B789456315B7001307F00602
:10DE04001DBF8D456315B700130730072DB71307E2
:10DE1400500715B71307600739BF03473600136768
:10DE2400170017460000A30EE66C094739BF834666
:10DE340047070946BD8A6388C600034747078D46DE
:10DE44003D8BE313D7F4114725BF83465707918AC7
:10DE5400C9DA034757071367870041B7397106DEEC
:10DE640016DC1ADA1ED82AD62ED432D236D03ACEBE
:10DE74003ECC42CA46C872C676C47AC27EC0F53366
:10DE8400F250E2525253C2533255A25512568256A0
:10DE94007247E2475248C248324EA24E124F824F56
:10DEA400216173002030174700001307676783461A
:10DEB400B7019747000083C777694C4BB697FD8B32
:10DEC40033D7F50097460000A38CF664974600000C
:10DED400A38EF666058B15EF1747000003475767B7
:10DEE400B3F7E702814601471305000233D6E50084
:10DEF400058A1378F70F19CA6397D700974700006C
:10DF0400A38007638280850693F6F60F0507E31F57
:10DF1400A7FC828097470000938707479C43011121
:10DF240022CC4EC606CE26CA4AC852C456C28297CE
:10DF3400974700009387C760804781496305A4061B
:10DF4400BE84974700009387E73F038767013E89B4
:10DF540063550706018D135455009747000083C786
:10DF6400C75D9379F501636DF402370AC0A8B70A57
:10DF74004057153F9C449746000083C6065C1397A0
:10DF840056003E9783076901158C63C507006363D8
:10DF9400470156979747000023A8E75AE37BD4FC30
:10DFA4001604B3693401F24062444E85D2444249B6
:10DFB400B249224A924A05618280E37D85F8B70717
:10DFC400C0A833848740229579B797470000938788
:10DFD400A73B9C43411122C406C626C28297974799
:10DFE40000009387E75580476309A406BE849747DA
:10DFF4000000938727358387670163D80704018D61
:10E00400135455009747000083C727536367F404EC
:10E01400593D98449747000083C727529396570069
:10E0240036971D8C9746000023A0E652E372F4FE57
:10E034002244B2409244174500000345754E814581
:10E04400410117A303E06700A35EE37A85FAB707EB
:10E05400C0A833848740229565B7B24022449244D5
:10E064004101828097470000938707509843B75730
:10E0740002009387079F8326070913965600635867
:10E084000600832607091396660063440600FD17FD
:10E09400FDF3828071C5AA870145E9C58D07C207D2
:10E0A400C183F19BC207C18313074003636FF70267
:10E0B4001747000013074751084317470000130789
:10E0C400275014436398A6021747000013078727B5
:10E0D400185B014541CB4111C20706C60545DD8DDC
:10E0E4000297B2400145410182801747000013079F
:10E0F400674DD9B70357650035E303574500636F90
:10E10400F704B306F7402146637CD60203280500D2
:10E11400938687001D8FAA96611717460000035641
:10E12400461D2392E60023A006012393060014C192
:10E134002312F500130786FF97460000239BE61A77
:10E144002313B5009745000083D5A51AB387F5407E
:10E1540017470000231FF7182105828008419DB747
:10E164000145828082800DC1974700009387C7458F
:10E1740003A30700974700009387874483A80700F9
:10E1840081469A8763E31701828003A80700636DC1
:10E19400F50A636BA80A13878700E367E5FE03D6D5
:10E1A4006700216705076317E60003C74199050760
:10E1B400238AE198974500009385451303D64700C9
:10E1C40003D765002393070032974207418317451D
:10E1D40000002310E512638A670217450000130547
:10E1E400653E08416303F50203D5660019ED83D744
:10E1F400460023A0060121073E9621062392C6006D
:10E20400974700002397E70EB6879843E30E17F766
:10E21400974600009386063B9442E307D7F683565D
:10E224006700BDF283D64700035647001843A10692
:10E23400B2962392D70098C383D76500A1071747E6
:10E2440000002318F70A8280BE86C28725BF011109
:10E25400974700009387873722CC03A4C70B26CAAD
:10E264004AC84EC606CEAA8413092500854915C09E
:10E2740083C7140003473400858B6304F700405CB4
:10E28400FDB71946930544004A85EFE0CFFEE31835
:10E2940035FF2285F2406244D2444249B2490561C5
:10E2A40082804111974700009387473222C403A418
:10E2B400C70B26C24AC006C693042500054901E8D7
:10E2C4002285B24022449244024941018280A685BB
:10E2D4001305A402973004E0E780C080E30225FF21
:10E2E400405CF1BF4111974700009387272E22C459
:10E2F40003A4C70B26C24AC006C6930425000549D9
:10E3040001E82285B24022449244024941018280BC
:10E31400A6851305A401972004E0E780A07CE3020E
:08E3240025FF405CF1BF000081
:10E330009751FF1F938181B017A1FF1F130181CC5B
:10E3400017E5FFFF130545CC9725FF1F938585CB68
:10E350001746FF1F130686FD63FAC50083220500DA
:10E3600023A0550011059105E3EAC5FE1735040009
:10E37000130545CB9745FF1F938545FB1386818584
:10E3800063FAC5008322050023A0550011059105FD
:10E39000E3EAC5FE138581859785FF1F93850535C3
:10E3A0006377B500232005001105E36DB5FEFD423E
:10E3B000739002BC8D4273904280B722000093821A
:10E3C000828873A002309722FF1F9382A2C393E238
:10E3D000320073905230971201009382424673903C
:10E3E0001234730020303D432A876373C30293774E
:10E3F000F700BDEFADE5937606FF3D8ABA960CC3F4
:10E400004CC30CC74CC74107E36BD7FE11E28280B7
:10E41000B306C3408A069702000096966780A6005E
:10E420002307B700A306B7002306B700A305B7006C
:10E430002305B700A304B7002304B700A303B70064
:10E440002303B700A302B7002302B700A301B7005C
:10E450002301B700A300B7002300B700828093F523
:10E46000F50F93968500D58D93960501D58D61B7EF
:10E47000939627009702000096968682E78086FA98
:10E480009680C1171D8F3E96E374C3F8A5B7336716
:10E49000B500FD530D8B79E7B7877F7F9387F7F73B
:10E4A00010419441B372F6003363F600BE92B3E2BA
:10E4B00062006397720C6318D6065041D441B37260
:10E4C000F6003363F600BE92B3E262006398720A0C
:10E4D000631BD60410459445B372F6003363F6000F
:10E4E000BE92B3E262006391720A631ED602504587
:10E4F000D445B372F6003363F600BE92B3E2620015
:10E50000639A72086311D60210499449B372F600F7
:10E510003363F600BE92B3E2620063937208510562
:10E52000D105E30FD6F61317060193970601631C76
:10E53000F7001357060193D706013305F74093758B
:10E54000F50F91E982804183C1833305F7409375CC
:10E55000F50F91E182801377F70F93F7F70F3305EB
:10E56000F74082800346050083C605000505850542
:10E570006313D60065FA3305D640828011059105F4
:10E58000E312D6FE014582802105A105E31CD6FCDD
:10E59000014582803105B105E316D6FC0145828034
:10E5A0004105C105E310D6FC01458280411106C634
:10E5B000EF80C06CB240AA8617E70300130747AF8D
:10E5C0001766FF1F1306469197E50300938585AFF5
:10E5D000114541016FC0F04E130101DB232481245A
:10E5E000232021252326112423229124232E312385
:10E5F000232C4123232A5123232861230347050089
:10E60000930710042A892E84631FF76603471500B9
:10E61000930740056319F766034725009307E00554
:10E620006313F7662E86AA852545EFC0303F130693
:10E63000D003A2854A85EFC05056AA84635A0500CC
:10E640003546A2854A85EFC05055AA846344050823
:10E650009389D4FF9307100363CE37074E86930543
:10E6600039002808EFA0A3461C1CBE9917EA030036
:10E67000130A8AD3238409DED28A8149594B832520
:10E680004A002808EFC0304B0DC18E09D69983D7B8
:10E6900009005547636FF70017E703001307C79B8F
:10E6A0008A07BA979C43BA9782878509210AE3981B
:10E6B00069FD97E50300938565CECDA89305F4FF2A
:10E6C000858D13851400C20581460146C1814A9596
:10E6D000EF40407E8320C1240324812483244124ED
:10E6E000032901248329C123032A8123832A412367
:10E6F000032B01231301012582801306F4FF058EED
:10E700009385140042064182CA95E800EFC030713B
:10E710001305D104EFA0C33793150501C18113057B
:10E72000D104EFC0307E97E503009385E59A130589
:10E73000D104EFC0504019CD97E503009385459A69
:10E740000545EFC050231765FF1F03457532EF6085
:10E75000A01F49B797E503009385C5991305D10418
:10E76000EFC0703D19CD97E50300938525990545C8
:10E77000EFC070201765FF1F0345952FEF60801FC6
:10E7800091BF97E50300938565981305D104EFC009
:10E79000903A0DC1371700408327C70AA16697E555
:10E7A000030093852597D58F2326F70A2545EFC0CB
:10E7B000901C0DB797E50300938585961305D1044A
:10E7C000EFC0703711CD371700408327870AA16645
:10E7D00097E5030093854595D58F2324F70AF9B76C
:10E7E00097E503009385C5941305D104EFC0B034B9
:10E7F00011CD371700408327C70A916697E50300BC
:10E800009385C593D58F2326F70A4DB797E5030067
:10E810009385C5931305D104EFC0F03111CD37179F
:10E8200000408327870A916697E503009385C59288
:10E83000D58F2324F70A9DBF97E503009385C592E2
:10E840001305D104EFC0302F97E50300938585921F
:10E8500031FD97E503009385A5921305D104EFC020
:10E86000902D97E503009385659229F197E50300C4
:10E87000938585921305D104EFC0F02B11C59767DE
:10E88000FF1F23A50720B9B597E503009385859160
:10E890001305D104EFC0302A01C5EF6090511DBDB2
:10E8A00097E503009385C5901305D104EFC0B02808
:10E8B00001C5EF60305739BD97E50300938505909A
:10E8C0001305D104EFC0302701C5EF60606E19B5A4
:10E8D00097E503009385458F1305D104EFC0B0255C
:10E8E00001C5EF901008FDB397E503009385458EB1
:10E8F0001305D104EFC0302401C5EF90F006D9BB59
:10E9000097E503009385458D1305D104EFC0B02230
:10E9100001C5EF90D0057DBB97E503009385858CFD
:10E920001305D104EFC0302101C5EFC0E0005DB395
:10E9300097E503009385858B1305D104EFC0B01FC5
:10E9400001C5EFF0102D79B397E503009385858A13
:10E950001305D104EFC0301E01CD9767FF1F83D789
:10E9600067100567D98F1767FF1F231DF70E9DB32B
:10E9700097E50300938545881305D104EFC0B01BCC
:10E9800009C9FD771767FF1F0357C70DFD17F98FDB
:10E99000D9BF1305D104EF90C3339767FF1FA3813D
:10E9A000A70E1376F50F97E503009385258501459E
:10E9B000EFC0301105B31306F4FF058E1385140064
:10E9C0004206418297E50300938505674A95EFC0AB
:10E9D000302A1764FF1F1304E40831C597E50300CC
:10E9E00093850583E800EFA08309E800EFA0430AC0
:10E9F000131605014182EC001385C168EF80504E6B
:10EA000097E50300938585831145EFC0C076835752
:10EA10000400414593E717001767FF1F2314F7040D
:10EA2000EFD0203245B997E503009385E581114584
:10EA3000EFC060747D55EFD0603683570400F99BBA
:10EA40001DB7AD3641B91306F4FF058E13851400CA
:10EA50004206418297E503009385055E4A95EFC023
:10EA600030211764FF1F1304E4FF29C183570400FA
:10EA700097D503009385057EE80093E71700176795
:10EA8000FF1F2311F7FEEF90937FE800EFA04300F4
:10EA900013160501EC0041821385C168EF805044D4
:10EAA00097D503009385C57C114511B397D5030015
:10EAB0009385C57CE800EF90937CE800EF90537D50
:10EAC00013160501EC0041821385C168EF805041A7
:10EAD0008357040097D503009385057CF99B17673E
:10EAE000FF1F2311F7F8C9B7EF70305B9767FF1F5F
:10EAF000938747F7C85FEF80B374AE862A8697D5B1
:10EB000003009385257A1145EFC0A07BE1B6EF5055
:10EB1000507BC9B617E603001306865297D503004B
:10EB200093850579114569B5EF80C01897D5030025
:10EB30009385C57835F997D5030093852579ADB7C9
:10EB40003545EF902057AA84EF80936F2A86AE86D2
:10EB5000254597D503009385A578EFC0807697D794
:10EB60000300938727578843A6851754FF1F130474
:10EB7000E44DEF8003442326A422EF80E01903250F
:10EB8000C422EF80F36BAE862A8697D50300938567
:10EB9000E57595BF81450D45EF607010EF80400D24
:10EBA0002A8697D5030093852577ADBF81452D45EE
:10EBB000EF60F00E81456945EF60700E814531458B
:10EBC000EF60F00DEF80200B2AC6EF80800BB2467D
:10EBD0002A871756FF1F1306263097D50300938503
:10EBE000A5741145EFC0E06DF5B41757FF1F03572B
:10EBF00027689756FF1F9386764F1756FF1F1306F9
:10EC0000A62D97D5030093856574E1BF85471757F7
:10EC1000FF1F230BF766EF80201097D50300938525
:10EC2000257459B51757FF1F03470766854797D5C2
:10EC3000030093856573E319F7E6C5B78547175752
:10EC4000FF1F2306F764EF80200D97D503009385FF
:10EC5000657299BD9757FF1F83C7676397D50300F8
:10EC60009385C571E38207E4CDB79767FF1F93874C
:10EC700067DF885FEF80D35CAE862A8697D5030076
:10EC80009385857049B50146A2854A85EF60A063EA
:10EC900091B41D71A2CCA6CACAC82A843289AE8496
:10ECA0001306E0038145130521013AC486CE36C61A
:10ECB000EFF06FF32247B1472308F10093071700E5
:10ECC000A308F100230921018D471DC3B2460C089A
:10ECD000368605068347F6FF85052381F500B38751
:10ECE000C640BA9793F7F70FEDF70D079377F70F35
:10ECF00081460147850613F6F60F636BF604940808
:10ED0000BE962380E6FC1387170094081377F70F4D
:10ED10003697B5462300D7FC9386270093F6F60F67
:10ED20001008A6852285EFF0607BDD47631CF500A7
:10ED3000194597E503009385E59BEFC0C043228505
:10ED4000EFF0C077F6406644D6444649256182809C
:10ED5000100836960346060032971377F70F59BF0F
:10ED6000011106CE2AC62EC4EFF0905C0347850041
:10ED700095476314F70283470500A2463246C18BCC
:10ED800089CF1C4D97E503009385C591D58F1CCD88
:10ED9000F240194505616FC0C0521041BA8697E52F
:10EDA0000300938525921182058ADDB75D71A6C2A5
:10EDB000CAC04EDE2A89AE89B284B6853D46280097
:10EDC00086C6A2C4231B01003A84231C0100231D14
:10EDD0000100231501022316010223170102EF800F
:10EDE00013723D46CE856808EF8073716808EFB0F6
:10EDF000A06963480504930404023D466C08268517
:10EE0000EF80F36F83470400A3070402680893E7C9
:10EE100007042300F400EFB020671375F50FEFB07F
:10EE2000C062A304A40091454A851D3F8306940057
:10EE3000268697E503009385A58C1945EFC06048A9
:10EE40008DA08547639DF4083D469755FF1F938528
:10EE5000A5082800EF90F34421ED930404023D46F9
:10EE60006C082685EF80B36983470400A30704027A
:10EE7000268593E707042300F400EFB0E065A304C0
:10EE8000A40091454A85E93D268734001756FF1FA7
:10EE90001306860497E503009385458A1945EFC05C
:10EEA0004042B640264496440649F2596161828048
:10EEB0006808EFB0E06D6808EFB0005D1375F50FFE
:10EEC000EFB0A058EFB01074780834001756FF1F49
:10EED0001306860097E503009385058BC1B7EFB055
:10EEE000605A635A050097E503009385A58E19457E
:10EEF000EFC0203D7DB7930404023D466C08268593
:10EF0000EF80F35F83470400A3070402268593E79D
:10EF100007042300F400EFB0205C9145A304A40093
:10EF20004A853D3D03459400EFB0D06D83069400C3
:10EF3000268697E503009385658C01B7011106CEFF
:10EF40002EC42AC6EFF0D03EA2461C4D324613C74F
:10EF5000F6FFF240F98F1CCD97D5030093854572DB
:10EF6000194505616FC0E035954763F4C7245D71AD
:10EF7000A6C293140501C1802AC22685A2C4CAC0B4
:10EF80004EDE2E89B28986C652DC56DA5AD85ED653
:10EF900062D466D26AD06ECEEFF030352A84124643
:10EFA00097D503009385055B630F0510268532C254
:10EFB000EFF05039FD57814612466302F510354C8B
:10EFC00097DC0300938C8C5F176DFF1F130D8DA9C9
:10EFD00097DD0300938D8D57130A04029374F50F88
:10EFE000B30BD90003C70B00B1476316F70A1388A8
:10EFF00046006357380B03CB1B00938A36003387D8
:10F000006A01635A37094A9703470700631587095E
:10F0100001470146B385EB0083C51500050713774B
:10F02000F70F2E961376F60FE376EBFE33876B0120
:10F03000034727006311C70633075901034607003A
:10F04000E68519453AC242C636C4EFC0802703267A
:10F05000CD02124750CC0347070013061003630983
:10F06000C708130620036308C70E13060003A24651
:10F070003248631FC70003C63B01B30509012DC613
:10F08000D1062287CA9626851533854526857D3586
:10F09000DA9A93F6FA0F850693F6F60FE3E236F561
:10F0A000B640264496440649F259625AD25A425B07
:10F0B000B25B225C925C025DF24D6161828097D509
:10F0C00003009385654C2644B64096440649F259A0
:10F0D000625AD25A425BB25B225C925C025DF24D94
:10F0E000194561616FC0E01D22878146014661BFFD
:10F0F00003C74B0003C55B002207598DEF70D35D3A
:10F1000003A60D0083A64D00EF70A30DEF80131E24
:10F1100048D803C86B002308040383C87B0083C757
:10F120008B0042C4A208B3E8F800231C140346C2B3
:10F13000EF801311924822482A87AE87528697D5CE
:10F140000300938565481945EFC0A0175285EFB0BD
:10F15000604F894525BF83C74B00A9E35285EFB0B7
:10F16000A032634405025285EFB080425285EFB071
:10F17000A0311375F50FEFB0402DEFB0B0488347C5
:10F18000040093F7F7FB2300F40097D50300938561
:10F1900025471945EFC0E0129145CDBD83470400D6
:10F1A00097D503009385454793E707042300F400B0
:10F1B000CDB78280797103C5818506D622D402C677
:10F1C00002C802CA02CC02CEEFF0901603478500B7
:10F1D00095476319F70A1C4D2A84CDC713F717000A
:10F1E0000DC797D503009385E5441945EFB0B07876
:10F1F0000147740013060003835524010355C4001E
:10F20000493CB25022544561828013F7470029CF10
:10F2100097D503009385C5431945EFB0D0751C40C1
:10F220009983858B2306F1008347040093F7070435
:10F230009DC31757FF1F1307E7C98547C14683457D
:10F24000470070003E962300B60085070507E39847
:10F25000D7FE230E01006800EF9093031377F50F9C
:10F2600074001306200349BF898B89CF97D503000B
:10F270009385853F1945EFB0107001477400130660
:10F2800010039DBF83C781858507858B238CF184FF
:10F290008DBF011122CC26CA4AC84EC606CEEFF059
:10F2A000B0122A84814415499309C002834784001F
:10F2B000639B27018347A400850793F7F70F63E05B
:10F2C000F9022305F4001304C40381C8F240624428
:10F2D000D2444249B249056182808544C1BF2305B9
:10F2E000040089452685AD3C8347040093F7070455
:10F2F000F9FB85452685AD34F9B7411122C4216457
:10F300009305048099460146254506C69710FF1FC0
:10F31000E7800037930504802244B2409946138663
:10F32000C185294541011713FF1F6700633599E126
:10F330000145828075DD011152C403DA018626CAB7
:10F3400093548A008504A204C204C18056C2B38AC1
:10F350004441C20A22CC4AC82E862E842A8997D5D7
:10F3600003009385655B254593DA0A014EC606CEF8
:10F370009389C185EFB0F07463ED8A0883D5018667
:10F3800093F7F50FB1CF8D6783D5018693870780FB
:10F39000A2864A86BE9529459710FF1FE780402E1A
:10F3A0001375F50F29ED83D749001566A2972390B1
:10F3B000F18603D7018683D7E1856309F70063F3FC
:10F3C000E700B297998F139607014182254597D59B
:10F3D00003009385E555EFB0D06E1375F40F0DA0C3
:10F3E0008D6793870780930600100146BE952545DB
:10F3F0009710FF1FE780C0281375F50F49D5014509
:10F40000F2406244D2444249B249224A924A0561DA
:10F410008280B3079440D297C207C183A18303C7F8
:10F420004900850793F7F70F9396870011EB9386B2
:10F43000170093740AF0A206C204C206C180C182FA
:10F4400083D7E18563F6F40033879600E3C9E7FAD2
:10F450000D6A130A0A800146B385440125459710B9
:10F46000FF1FE780E0211375F50F51F983D5018661
:10F47000A2864A86D29505B7411122C41384C1855C
:10F4800022858145194606C69710FF1FE7806059FF
:10F490009307B0FA2300F4008D352244B24097D58B
:10F4A00003009385E53F254541016FB0D04CA16530
:10F4B000411199461386C185938505802D4506C661
:10F4C0009710FF1FE780C01B03C7C1859307B00AD1
:10F4D0006303F7005537B24083D6018603D6E18532
:10F4E00097D503009385853C254541016FB0705D3C
:10F4F00083D7C1A00145638B071003D5E1A06366E4
:10F50000F50023A601A0014582803385A740D1479D
:10F510003355F5021375F50F01E5239601A082809E
:10F52000130101BD2324814223261142232291424B
:10F5300023202143232E3141232C4141232A5141B1
:10F5400095471374F50F63F3A7001544228697D5EA
:10F5500003009385A53F2545EFB0B056014981448E
:10F56000938901A1514AA14A9377F90F03D5E1A0EC
:10F570001757FF1F034717C463EA8704D1473304B3
:10F58000F40226860C082A94239781A0A147631BC6
:10F59000F7060945EF40806503D7E1A083D7C1A0F6
:10F5A00005456364F70023A601A08320C14203241C
:10F5B000814283244142032901428329C141032A14
:10F5C0008141832A4141130101438280B3074903EA
:10F5D0001408AA97CE9733859600631E5701BE85FF
:10F5E000EF40D0022317A1008357E1000509BE9424
:10F5F000C204C18095BFAA851306E1003E85EF9045
:10F60000E078DDB70145EF60C05F79B78280011116
:10F6100006CE22CC26CA4AC84EC691E901442285AC
:10F62000F2406244D2444249B24905618280AA89CB
:10F6300075D583D7018603D6E1852E849564638AC8
:10F64000C7006374F60015673A961D8E9314060181
:10F65000C180268697D50300938585212545EFB087
:10F660005046938714F06356F4009307F00F63EA53
:10F67000970097D50300938525212545EFB0704469
:10F6800071BF83D4018633878400956763C7E70021
:10F69000A2854E856939953159B715693309994065
:10F6A000420913590901CA854E85513125D9ED7595
:10F6B000A695A295C20523900186C18133852901B3
:10F6C000D1BF83D6C1A081EA97D503009385452297
:10F6D00025456FB0502A03D6E1A04111918E97D5F0
:10F6E00003009385E521254506C6EFB0903D1387BD
:10F6F000C1A08355070083D7E1A0138501A19D8D8B
:10F70000C2053E95C1812137B24023A601A0410127
:10F710008280411183D7C1A022C426C206C6AE97FB
:10F7200013070020AA842E84635AF700593F97D507
:10F7300003009385A5192545EFB0F02383D7C1A019
:10F74000138501A12286A6853E95EF80435B03D6F3
:10F75000C1A0229642062244B2409244418223969E
:10F76000C1A097D503009385E517254541016FB0EA
:10F770005035011126CA06CE22CC4AC84EC652C404
:10F7800056C2814459C1D1C183D7E18503D40186D2
:10F79000638D870663F587081D8C42044180AE891E
:10F7A0002A89228697D50300938505090145EFB084
:10F7B0005031A28463F38900CE84C2040D6A83D7DA
:10F7C000E18503D70186C180938AC185130A0A8027
:10F7D00063FAE704A6864A86B38547012D4597104C
:10F7E000FF1FE780E0E983D72A00A697239FF184D3
:10F7F000EFF0BFB083D6018603D6E18597D503002D
:10F800009385C5042545EFB0D02BF2406244268590
:10F810004249D244B249224A924A05618280156720
:10F820003A949DBF15671D8FB385470163D5E400EA
:10F83000A6864A8665B79569B389F9406D743E948A
:10F84000C20993D909012694CE864A8642042D45E1
:10F850009710FF1FE780C0E24180A286330639017E
:10F86000D2852D45239F01849710FF1FE78040E13B
:10F8700083D72A003E94239F81849DBF93870105EF
:10F880000547238CE70018411045544598C303579A
:10F89000450090C7D4C7104954492392E70090CB44
:10F8A000D4CB239DB7008280184193870107104570
:10F8B00098C303574500544590C72392E700585515
:10F8C0001049D4C7544998CF97D50300938545165E
:10F8D0000547254590CBD4CB238EE7006FB0B00908
:10F8E000397126DA4AD84ED652D456D25AD006DECC
:10F8F00022DC62CE66CC2A89EF9083199374F50FCF
:10F900008149254BE54A17DA0300130A2A0891ECCE
:10F91000F25062544E85D2544259B259225A925AE8
:10F92000025B724CE24C216182800347090093071D
:10F9300007FD93F7F70F637CFB009307F7F993F745
:10F94000F70F63E2FA06930797FA93F7F70F13940A
:10F9500087016184FD14230089002685EF70C35759
:10F960002A86AE8603250A0083254A0093F4F40F05
:10F970000509EF00C11E2AC422852EC6EF70C355AB
:10F980002246B246EF60F3052A8C4E85AE8CEF70AE
:10F99000C35B2A86AE866285E685EF507319EF70E9
:10F9A000E34DAA89ADB79306F7FB93F6F60F8147AF
:10F9B000E3EFDAF8930797FC49BF411122C406C66A
:10F9C000830795022A8499C713059502EF80633057
:10F9D0002385A1008307D41291CB1305D412EF80A5
:10F9E000E32EEF80A310938781FDC8D3B240224459
:10F9F00041018280011126CA9304150022CC97D5BB
:10FA000003009385E5062A84268506CE4AC84EC69D
:10FA1000EFB0701A631E051097D503009385850516
:10FA20002685EFB050196302050E85448307D40381
:10FA30006386070C13059402EF80A3298549137987
:10FA4000F50F1305D4036387340F8947638CF418CB
:10FA5000EF802328A386A100631A390179468145E6
:10FA60001385F10223810186EFE0FF978307D40815
:10FA700085C31305D408EF80C32503C721869307E8
:10FA800017002381F186938781FDBA97A38BA70482
:10FA90008307D40D85C31305D40DEF80832303C7DB
:10FAA0002186930717002381F186938781FDBA97FA
:10FAB000A38BA7048307D41285C31305D412EF8048
:10FAC000432103C72186930717002381F18693877B
:10FAD00081FDBA97A38BA7048307D41785C31305A9
:10FAE000D417EF80031F03C72186930717002381D4
:10FAF000F186938781FDBA97A38BA704F2406244F5
:10FB0000D2444249B2490561828097D5030093856A
:10FB1000A5F62685EFB0300AE31905F0268597D5BE
:10FB200003009385A5F5EFB010098944E31005F0B3
:10FB30008144EDBDEF80E3192387A100631A99008A
:10FB4000794681451385110123810186EFE0BF8944
:10FB50008307D40885C31305D408EF80831703C730
:10FB60002186930717002381F186938781FDBA9739
:10FB7000A38CA7028307D40D85C31305D40DEF8092
:10FB8000431503C72186930717002381F1869387C6
:10FB900081FDBA97A38CA7028307D41285C31305EE
:10FBA000D412EF80031303C7218693071700238124
:10FBB000F186938781FDBA97A38CA7028307D41798
:10FBC000E38E07F21305D417EF80A31003C7218635
:10FBD000930717002381F186938781FDBA97A38C41
:10FBE000A70229BFEF80E30EA387A10001BF411147
:10FBF00022C406C6830795072A8499C7130595076B
:10FC0000EF80230DA385A1008307D40899C71305AE
:10FC1000D408EF80030C2386A1008307540B91CBFB
:10FC20001305540BEF80830AEF70536C938781FDAB
:10FC300088D7B240224441018280411122C426C2A9
:10FC400006C6830715058144014499C70344450549
:10FC5000130404FD1374F40F8307550699C71305A5
:10FC60005506EF8003079374F50F2286A68697D575
:10FC700003009385A5E12545EFB0A0641374B40F8C
:10FC80008D47631FF4009D4763FC97009757FF1F44
:10FC900083C767DD93E747001757FF1F2305F7DC8E
:10FCA000B2402244924441018280011126CA814619
:10FCB000B284014652C456C206CE22CC4AC84EC6B1
:10FCC0002A8AAE8AEF60033541CD9307E00463864C
:10FCD000F400930730056395F40897D903009389DE
:10FCE000E9D603A6090083A649005285D685EF60B0
:10FCF000434F37949800EF706318130404682A89FF
:10FD000033758502EF70632403A6090083A64900BA
:10FD1000EF50135597D703009387C7D39043D4432D
:10FD2000EF5013542A8A33558902AE8AEF70E321CB
:10FD30002A86AE865285D685EF50835F130730053D
:10FD4000AE876395E400B7070080AD8FF240624450
:10FD5000D2444249B249224A924ABE850561828014
:10FD600001458147E5B7011126CA8146B2840146A3
:10FD700052C456C206CE22CC4AC84EC62A8AAE8A81
:10FD8000EF60432941CD930750046386F400930745
:10FD900070056395F40897D90300938929CB03A6CE
:10FDA000090083A649005285D685EF6083433794C6
:10FDB0009800EF70A30C130404682A893375850238
:10FDC000EF70A31803A6090083A64900EF5053491A
:10FDD00097D70300938707C89043D443EF50534805
:10FDE0002A8A33558902AE8AEF7023162A86AE8698
:10FDF0005285D685EF50C35313077005AE876395C0
:10FE0000E400B7070080AD8FF2406244D24442491B
:10FE1000B249224A924ABE850561828001458147E6
:10FE2000E5B7135785009357050113D885009376DE
:10FE3000F50F01111377F70F93F7F70F618593F51E
:10FE4000F50F1378F80F99C211C3B9E3230CD10051
:10FE5000A30CE100230DF100A30DA10003459101C6
:10FE6000834781010347A1012205A30E0101420737
:10FE7000C98F230EB1000345B101D98F0347D101CA
:10FE80008345C101620522075D8DD98D05618280A0
:10FE900032951375F50F13138501135383415D4696
:10FEA0006357660861463363C30285071376D70F2D
:10FEB000114593F7F70F6305A6002545631AA600C1
:10FEC0007946637FF60205071377F70F85470DA87C
:10FED00009466312C7041386067D93084006B3687B
:10FEE00016036385080013F5360011C513050019C4
:10FEF0003366A60219EE75466374F60085470D4712
:10FF0000230CD100A30CE100230DF100A30D61002F
:10FF1000B1B77146D5B77D46E374F6FEB147E31439
:10FF2000F7FA850693F6F60F85470547D1BFE359E3
:10FF300003FC6105FD171313850193F7F70F1353A6
:10FF40008341DDFF7D171377F70F1146F947E3096A
:10FF5000C7FA1946E306C7FA2546E303C7FA2D4652
:10FF6000E300C7FA89476316F7021386067D9307F5
:10FF70004006B367F60291C793F83600F547E38170
:10FF800008F893070019B367F60293B71700F10753
:10FF900085BFFD4735F7FD1693F6F60F31478DB750
:10FFA00083471500034705000111A2075D8F8347B2
:10FFB00025008346350006CEC207D98F034755007A
:10FFC000834545001746FF1F130646080306E62033
:10FFD000E206220733E5F600D98DA13513588500D6
:10FFE0001356050193D7850013F7F50F93F7F70F15
:10FFF000935685011376F60F9375F80F1375F50F69
:020000021000EC
:10000000EF70106B9747FF1F83C757040547638541
:10001000E70011476396E700F24005616F70D07802
:10002000F24005618280497123248116138481FD89
:100030008307340083C8D1FD03C8C1FD03C7A1FDF8
:1000400083C691FD03C681FD97D50300938505A75F
:100050004810232611162322911623202117232E20
:100060003115EF80731B4810EF80932218485C48CD
:10007000030604033AC03EC2030814035C44184458
:10008000541097D50300938565A53695EF80D31856
:100090004810EF80F31F5C103E958307640017D66D
:1000A0000300130626A189C717D60300130606A06E
:1000B00097D503009385C52EEF8013164810EF8067
:1000C000331D544C104C5C1097D50300938505A24A
:1000D0003E95EF8073144810EF80931B03063403A2
:1000E0005C103E9597D50300938505A1EF80D31250
:1000F0004810EF80F31903072403AA8448503ACE2E
:10010000138481FDEF70D31372475C10AE862A868C
:1001100097D503009385459F33859700EF80D30FD4
:100120004810EF80F3165C1003C6C10097D503009A
:100130009385059F3E95EF80330E4810EF80531551
:100140005C1097D503009385A59E3E95EF803313F1
:10015000138961FFA28497D903009389E92303C619
:10016000740519CA481032CEEF80931272465C10A3
:10017000CE853E95EF80530A8504E39224FF481014
:10018000EF8013115C1097D503009385E59A3E9597
:10019000EF80F30E97D40300938404200346940366
:1001A00019CA481032CEEF80B30E72465C10A68595
:1001B0003E95EF8073060504E31224FF4C1025459D
:1001C000EFA0707B8320C11603248116832441167F
:1001D000032901168329C11575618280411122C44A
:1001E00006C626C2830755012A84B9C7A946938744
:1001F00007FDB387D70203476501130707FDBA97C9
:10020000A38DF1FC0307750183478501130707FDE3
:100210003307D702938707FD3E97238EE1FC8307C0
:1002200095010347A501938707FDB387D7021307FD
:1002300007FDBA97A38EF1FC8307940281CB1307C5
:1002400010046391E7148547238FF1FC8307D403DF
:10025000938481FD99C71305D403EF70332788C4B5
:10026000CCC40306140509CA8844CC442384C100C5
:10027000EFF0BFA388C4CCC48307540699C7130505
:100280005406EF70B32488C8CCC80306940709CA83
:100290008848CC48A384C100EFF0FFAC88C8CCC824
:1002A0008307D40899CF1305D408EF70332297C77A
:1002B00003009387277D9043D443EF50937288CCFB
:1002C000CCCC8307140A99C71305140AEF70732066
:1002D000239CA1FE8307540BB9C7A946938707FD4A
:1002E000B387D7020347640B130707FDBA97238D23
:1002F000F1FC0307740B8347840B130707FD3307D7
:10030000D702938707FD3E97A38CE1FC8307940BEC
:100310000347A40B938707FDB387D702130707FD95
:10032000BA97238CF1FC83853400856703C6C1FD31
:10033000938707E11307C0033307E60283C6D1FDA5
:10034000B387F502BA97B69723A2F1001747FF1FAC
:1003500013074771835707003A8413F5870039E183
:10036000038564000547631FE50203C7A1FD11EF84
:100370008844CC4401468146EF50D34905E9238F98
:1003800001FCB9A0238F01FCD1B5FDD175D2EDD20E
:1003900093E78700138581FD1747FF1F2314F76C30
:1003A000EFF01FC083876400E1F7D1BF8848CC48D5
:1003B00001468146EF50134679D183C7A1FDE1D3B1
:1003C00013068007938581FD138501F6EF703313C3
:1003D00003C501C19D4705053365F5021306800776
:1003E000938581FD2388A1C0930780073305F5021B
:1003F000938781C13E95EF709310EFF0DFC25C549C
:100400002244B24092441747FF1F2327F768130680
:1004100080078145138581FD41016FD0DFFC0171AB
:10042000232C811E232A911E1306101E2A84AE84BB
:1004300068008145232E111E2328211FEFD0BFFA0B
:1004400081458147014701465148CD485D4363409E
:10045000960899C12306F1001306A002A6852285FD
:10046000EFA0B0738347C10051473386A440B387E0
:10047000E7029305150078007D16A29585073305E0
:10048000F700EF70D3071306A002A6852285034963
:100490001400EFA09070894763C3A7080345C1000B
:1004A000D1473305F5027C0005053E95EFF04FC3BB
:1004B000631CA904194697C503009385255A1305A3
:1004C000D100EFA0F07A25C56800093B35A8B30636
:1004D000C40003C50600930665FD93F6D60F91EAA6
:1004E000850793F7F70F6361F3028545014705061A
:1004F000B9BFB3860703130E011FF296BA96A38EF7
:10050000A6E00507E3D5E8FE8320C11F0324811F71
:100510008324411F0329011F130101208280330717
:10052000F4000347070085073349E900B5B71946CA
:1005300097C503009385C5521305D100EFA05073F2
:1005400039E9194697C503009385C5511305D100B4
:10055000EFA010720DED194697C503009385C550A5
:100560001305D100EFA0D07019ED194697C503000F
:100570009385C54F1305D100EFA0906F51D568004A
:10058000EFF0AFEB51B76800EFF0CFC6B5BF680032
:10059000EFF0EFE595BF6800EFF02FC2B5B77571CA
:1005A00022C526C34AC1CEDED2DCD6DADAD806C7E7
:1005B000AA892E89814401448147130A4002854A51
:1005C000354B139704014183636C2701BA402A44D9
:1005D0009A440A49F659665AD65A465B496182805E
:1005E000338799000347070063004703639C570163
:1005F000631D67019C18A297A2856800238E07F8E7
:10060000393D8147850475BF01449C18A2970504B4
:100610001374F40F238EE7F893373406E5B74111CE
:1006200006C6138501C1834705001307800781456E
:10063000B387E70213068007A1073E95EFD0BFDA24
:10064000B2408145114541016FB02069138501C158
:100650008347050013078007B387E702A1073E958C
:100660008280138501F68280397126DA97C40300EF
:100670009384442F62CC66CA328CB68C9040D440AE
:1006800006DE22DC4AD84ED652D456D25AD05ECE9E
:100690006AC842C046C217C403001304242D3AC4DA
:1006A0003EC6EF5013341040544017CD0300130DD5
:1006B0006D2CEF50E33A2247B2479040D4402A8A4B
:1006C000AE8A3A85BE85EF50D33110405440EF508A
:1006D00023392A89AE892A86AE865285D685EF507F
:1006E000D37B03260D0083264D00EF50932FEFF0B0
:1006F000E0312A8BAE8B5285D685EFF000282A8A0E
:10070000AE8A4A85CE85EFF04027024892482A8972
:100710004286C686AE896285E685EF5013789040A2
:10072000D440EF50132C10405440EF506333032655
:100730000D0083264D00EF50D32AEFF0202D2A84A0
:10074000AE844A86CE865285D685EF50932922867E
:10075000A686EF5013292286A686EF5093282A8476
:10076000AE845A86DE865A85DE85EF5093272A8628
:10077000AE862285A685EF40B33BEFF0A070EFF088
:1007800020322A86AE86EF40B33A97C7030093879C
:10079000E71E9043D443EF50D32497C703009387B9
:1007A000671E9043D443EF50D323F2506254D25487
:1007B0004259B259225A925A025BF24B624CD24CC5
:1007C000424D216182809747FF1F83C7372A81CF1F
:1007D0009747FF1F83D787A8FD17C207C183130759
:1007E000A0036375F70023A40186828071714ECF48
:1007F0009389818683A7090056CB938A01C1850717
:1008000022D526D352CD5AC95EC762C566C36AC116
:1008100006D74AD123A4F18683C401C1014A130C2F
:100820008007568497CC0300938C4C1D054D9D4B3F
:10083000154B3389840356998307E900F1CF03A64A
:100840000C0083A64C000325090283254902EF50C2
:10085000F30D6343050C83470904638FA70B9317BC
:100860001A001808BA97035789022390E7003C0042
:10087000D29723809700050A9904B3E47403E31A1E
:100880006AFB0357810183570101998F13D7F74101
:10089000B98F998F939407011307400BC180635858
:1008A000F70093078016B3849740C204C180268660
:1008B00097C50300938505156808EF80E3156C085C
:1008C0002545EFA0500B938714FFC207C1837947DA
:1008D000636FF70803499100130A800785450145B6
:1008E00033094903210922994A86EF80103683444F
:1008F000B10085450145B3844403A104A294268632
:10090000EF80B0344A868D450945EF308052268607
:100910008D450945EF30E05183A709001747FF1FB8
:100920000357C79363E7E70203C501C19304800738
:1009300033059502B307A4000387E70019CB03C76B
:10094000C10893850107631B070E21052295EFE07F
:10095000BFF5BA502A549A540A59FA496A4ADA4AEF
:100960004A4BBA4B2A4C9A4C0A4D4D6182809307F0
:10097000D002E3F397FA834B8100930A8007854501
:10098000B38B5B030145138C8B00229C6286EF8046
:10099000D02B034B910085450145330B5B03A29B94
:1009A000210B229B5A86EF80502A034AA1008545DD
:1009B0000145330A5A03210A229A5286EF80F02811
:1009C0000349B1008545014533095903210922999D
:1009D0004A86EF8090278344C10085450145B38452
:1009E0005403A104A2942686EF80302662868D45AA
:1009F0000945EF3000445A868D450945EF30604384
:100A000052868D450945EF30C0424A868D450945DD
:100A1000EF30204226868D450945EF30804183C75F
:100A200001C1B38A570303A74B03A29A83A74A03C2
:100A3000E314F7EE85472380FA04F9BD03A8870184
:100A400083A8C701984B9049DC4BD4498845CC45D5
:100A5000EFF09FC12A86AE862A89AE89680897C5BD
:100A60000300938525FBEF70337B6C082545EFA0D1
:100A700080701735FF1F03456567EF60E3452A86E1
:100A8000AE864A85CE85EF50835FE354A0EC03C663
:100A900001C1330696028545014521062296EF8065
:100AA000D01A03C601C1330696028D4509452106B9
:100AB0002296EF30003803C501C1330595022105A8
:100AC0002295EFE07FDE23A4018661B513060002C4
:100AD0008145138501056FD01F919747FF1F83C77D
:100AE000F7F891E723A6018623A201868280973733
:100AF000FF1F83C7B75509476388E700F11793F7CE
:100B0000F70F0547E360F7FE797122D426D24AD069
:100B100006D64ECE52CC56CA5AC8138901C103C458
:100B200001C1EFB00011CA84630105189306800764
:100B3000B305D4029387C1869C43850723A6F1861B
:100B4000CA950387E5006302071613874186184399
:100B50001306170023A2C18611466362E6022254DF
:100B6000B25092540259F249624AD24A424B97C556
:100B700003009385A5E3254545616FA0807403C6F6
:100B800081061387010515E603C501C13305D502AA
:100B90009745FF1F83D5C5EF21054A952254B250D2
:100BA00092540259F249624AD24A424B45616FE07F
:100BB000FFCC638C070E23A6018603280701832838
:100BC00047015C47904DD44D18478849CC4917CB15
:100BD0000300130B2BDC1744FF1F1304A4E8EFF0F2
:100BE000BFA803260B0083264B002A89AE89EF504D
:100BF000E353173AFF1F130A6A4583DAA1066350CD
:100C0000A00497C70300938767D99043D4434A85CC
:100C1000CE85EF50C346634805005C540547B38753
:100C20005741637EF70003250A2583254A254A8616
:100C3000CE86EF40E36F2328AA24232ABA24032870
:100C4000C4021735FF1F0345E5653308584142C606
:100C5000EF60832897C703009387C7D49043D4439A
:100C6000EF40136003260B0083264B00EF40436CDC
:100C700003260A2583264A25EF50A3563248AE871D
:100C80002A8797C503009385A5D325454A86CE8636
:100C9000EFA0206303C501C1930780073305F50268
:100CA0008355C40221052695D5BDB25022549254D5
:100CB0000259F249624AD24A424B456182809147C9
:100CC00063E1C70A17C703001307C7E70A063A9686
:100CD0001C42411122C406C6BA972A84828797D53E
:100CE00003009385E5061145EFA0E048A285114574
:100CF000EFA060482244B24097D5030093850507D2
:100D0000114541016FA02047A9CA9042EF40307CB5
:100D10002244B2400146976500009385E5B33D4506
:100D200041016F30D01E95CA2244C8C2B24003C5EB
:100D3000A6002394B6003686954541016F80E07089
:100D40002244B24041016FE050312244B2402E862D
:100D5000AA85410109456F30C059B2402244410182
:100D600082808280411106C6EF90C038B2404101B6
:100D70006F90C004411122C426C206C613840187A5
:100D80009734FF1F9384944C83C7018791E7B24047
:100D9000224492444101828081452685EFD0C07B68
:100DA0008347040085072388F186F9BF55715810E1
:100DB0009306310213062102930511029307510293
:100DC0001305610286C7EF7080089747FF1F93875E
:100DD00067C983D70700BD9B1747FF1F2314F7C8B8
:100DE000EFF0DF86030305039305E00483566102F9
:100DF000034711028347210203483102834841021D
:100E0000034E510217D603001306067E6316B30085
:100E100017D603001306C669830E15031303500487
:100E2000032F8500832FC50097D503009385456860
:100E300063866E0097D503009385057B0323050128
:100E4000832345017AC41ACC1ECE7EC672C02EC83A
:100E500032C297D503009385A5D61736FF1F130618
:100E6000A6072810EF70533BEF8020782810EF7012
:100E70003342938741879043931505019386010977
:100E80002810C1812D3DBE4069618280411106C696
:100E900023AAB18601C61C4223A8F1089737FF1F79
:100EA00083C7371B8DEB0545EFB0004697C50300A0
:100EB000938585D52545EFA0002C9747FF1F83D745
:100EC00067BAB24093E707011747FF1F231CF7B823
:100ED00041016F80C07005470545639CE700EFB096
:100EE000A0420545EFA0F06597C50300938505D3A3
:100EF000D1B7EFB060410545EFB060440545EFA0C4
:100F0000506497C503009385E5D26DB7411122C4A3
:100F10002A848307D40306C626C22E8589C71307F1
:100F2000F003639CE7029737FF1F83C7F736173735
:100F3000FF1F130777189736FF1F9386D6141736AF
:100F4000FF1F1306361197C503009385E5D9224488
:100F5000B240924441016F70332C9737FF1FA38B2F
:100F6000070E9737FF1FA38007129737FF1FA38530
:100F70000714034704008547AE8463FAE70093052E
:100F8000D4031735FF1F1305F50CEF70532F83079C
:100F9000940791CF03470400894763FAE70093055C
:100FA00094071735FF1F1305150EEF70532D830798
:100FB000540B91CF034704008D4763FAE700930574
:100FC000540B1735FF1F1305350FEF70532B830795
:100FD000140F91CF03470400914763FAE70013050C
:100FE000140FEF60134F9737FF1FA387A72A0146FF
:100FF00097450000938545631305C012EF302071BB
:10100000EF5090519737FF1F83C717291737FF1FDE
:101010001307970A9736FF1F9386F6061736FF1FAA
:101020001306560397C50300938545CF268505B75C
:10103000411126C206C622C4034705008947AE8473
:1010400063F5E7029305D5032A841735FF1F1305BF
:1010500065F9EF70D32213059407EF609347973734
:10106000FF1F2393A7FEEF50B045EF50704997360E
:10107000FF1F83D666FD1736FF1F1306A6F697C51A
:1010800003009385A5222685EF70131985479735B0
:10109000FF1F938565E41735FF1F130565F31737A9
:1010A000FF1FA30BF7E8EF70931D9735FF1F938584
:1010B00075FA1735FF1F130545E8EF70531C973578
:1010C000FF1F938555FC1735FF1F130525EAEF70A9
:1010D000131B9735FF1F938535FE1735FF1F13052B
:1010E00005ECEF70D31997B50300938565FC1735B0
:1010F000FF1F130545F2EF709318EF50703C014647
:10110000974500009385254B7945EF304060224498
:10111000B24092440146976500009385E569130546
:10112000000541016F30A05E411122C426C24AC0B1
:1011300006C68307D503AE8417C90300130989F1D6
:101140001744FF1F1304049289C71307F003639128
:10115000E7041735FF1F034555F9EF50F3570326F2
:10116000090083264900EF40B30FEF60331828C011
:10117000EF60130DAE862A8697C50300938505EEB2
:101180002244B24002492685924441016F70D3083F
:101190001305D503EF60F3339737FF1FA387A7F439
:1011A0001375F50FEF5053530326090083264900AA
:1011B000EF40130BEF60931328C0EF50F035284039
:1011C000EF601308AE862A8697C50300938505EB6A
:1011D00045BFAA870387D7032E8509C79306F00367
:1011E0006315D7029737FF1F83C797E617C603001B
:1011F000130646E389E717C60300130626E397C5DF
:101200000300938525E46F70330141111385D703E3
:1012100006C622C42E84EF60D32B9737FF1FA38905
:10122000A7E2EF50702F9737FF1F83C777E297C56C
:101230000300938525E089E797C50300938505E0C2
:1012400022852244B24041016F707303411126C2CE
:1012500006C6AA8422C48387D4032E8589C71307B0
:10126000F0036396E7049737FF1F83C797DE0547B0
:101270006385E70289CB09476386E702B2402244CF
:1012800092444101828097C50300938565E322441F
:10129000B240924441016F70837E97C503009385ED
:1012A000A5E4F5B797C503009385C5E6CDB793844C
:1012B000D4032E84268597C503009385A5E8EF7097
:1012C00053031DC189471737FF1FA304F7D897C5DC
:1012D0000300938565EB2285EF70637A2244B24068
:1012E000924441016F5050232685EF60931E137581
:1012F000F50F9737FF1FA38EA7D4854797C5030027
:10130000938585E6E309F5FC97C50300938505E41D
:1013100079D18947E30DF5FA1737FF1FA30BF7D2F1
:1013200097C50300938585E87DB741112E8597C544
:1013300003009385A5EF06C6EF70637401469745D9
:101340000000938545277945EF30603CB240014667
:1013500097650000938545461305000541016F30F0
:10136000003B411122C426C206C68307D503AE84C2
:101370001734FF1F130484CD89C71307F003639B41
:10138000E7028306E42017C60300130626F663D699
:10139000060017D603001306A611268597C503007D
:1013A000938505F5EF7043672244B24092444101B2
:1013B0006FA000381305D503EF60B3119737FF1FF7
:1013C000238DA7E8EFA0C0360306E42097C50300ED
:1013D0009385C5F32545EF90D06E8347E4206147A0
:1013E000B10793F7F70F6377F700A1471737FF1F90
:1013F0002305F7E6EF5050128306E42017C60300DA
:101400001306C6EE63D6060017D603001306460A77
:101410002244B2402685924497C50300938585EF08
:1014200041016F70635F79719307D101780893066A
:10143000B1011306A10122D41305E1012E84930505
:10144000910106D626D24AD0EF607020EF90604E10
:101450008348D1010348C1018347B1010347A1017A
:10146000834691010356E10197C50300938585A644
:10147000AA842285EF70435A2285EF706361973703
:10148000FF1F9387275ECC5703A847030566130603
:1014900006E19306C00333F3C50222953377D802E1
:1014A000B378C8023AC09C5733F7D502B3D8D802F4
:1014B0003358C802B356D30233D6C50297C50300CA
:1014C000938585A3EF7043552285EF70635C3309E4
:1014D000A400EF90F00217C603001306669F09C52B
:1014E00017C603001306869E97C503009385C5A4FF
:1014F0004A85EF7063522285EF7083591736FF1FBC
:101500000346865A97C50300938505A42295EF707C
:10151000A3502285EF70C3579040D454CC408947E4
:101520002295058A858A17C703001307279A6386C1
:10153000F50017C703001307A79903A804038945FB
:1015400097C70300938787986306B80097C703007F
:101550009387079897C50300938545A0EF70C34B09
:10156000B25022549254025945618280AA8703875F
:10157000D7032E8509C79306F0036311D702973767
:10158000FF1F83C727AD97B503009385656C89E777
:1015900097B503009385C56E6F70634E4111138537
:1015A000D70322C406C62E84EF60A3721375F50F0D
:1015B0009737FF1F2380A7AA1737FF1F034717A9D5
:1015C00089476316F7000DE91145EFA0807797373B
:1015D000FF1F83C727A897B503009385E56B89E7AD
:1015E00097B503009385856E2285EF7043492244A9
:1015F000B24041016F5040721145EFA0207AC1BF47
:10160000AA870387D7032E8509C79306F003631EB5
:10161000D7029737FF1F83C7C7A30547638DE7002E
:1016200089C70947638EE700828097B503009385D9
:10163000A5726F70C34497B5030093852576D5BF17
:1016400097B503009385457BEDB741111385D7030B
:1016500022C406C62E84EF60C3671375F50F973753
:10166000FF1F2388A79E854797B5030093850573C1
:101670006306F50297B503009385056E05C189479A
:1016800097B5030093854577630AF5001737FF1F69
:101690002301F79C97B503009385C57B2285EF70E6
:1016A000033E2244B24041016F500067AA8703877E
:1016B000D7032E8509C79306F003631CD70017369E
:1016C000FF1F0346A6A297C50300938525906F7060
:1016D000A33441111385D70306C622C42E84EF60BC
:1016E000C35F9737FF1F2383A7A0EF50E0622285D7
:1016F0002244B2401736FF1F0346469F97C503009A
:101700009385058F4101E1B7411122C469452E84BB
:10171000814506C6EF30B058EF50A0562A86228584
:101720002244B24097C503009385058F41016F7035
:10173000A32E411122C41305D5032E8497C503009F
:101740009385C58306C6EF90104711CD0145EF5034
:10175000206797C503009385258322852244B240E4
:1017600041016F70C3310545EF50806597C5030097
:1017700093854583DDB7411122C42A848307D403AE
:1017800006C626C22E8589C71307F003639CE702AD
:101790009737FF1F9387F79E1737FF1F1307579B36
:1017A0009736FF1F83D666AC1736FF1F1306369792
:1017B00097C503009385C5A92244B24092444101D4
:1017C0006F708325AE841735FF1F1305559593055C
:1017D000D403EF70C32A1735FF1F13055594EF701C
:1017E000232B93150501C1811735FF1F1305359371
:1017F000EF90F0778307940789CB13059407EF6088
:10180000434D9737FF1F2392A7A68307540B85CB21
:101810009305540B1735FF1F13059593EF7023267F
:101820001735FF1F1305D592EF7083269315050119
:10183000C1811735FF1F1305B591EF9050738307D2
:10184000140F85CB9305140F1735FF1F13057593E0
:10185000EF70E3221735FF1F1305B592EF70432396
:1018600093150501C1811735FF1F13059591EF9061
:101870001070EF50604A9737FF1F93879790173784
:10188000FF1F1307F78C9736FF1F83D6069E173668
:10189000FF1F1306D68897C503009385A59C268550
:1018A00021BF011106CE2EC6EFA00036854717379F
:1018B000FF1FA303F79AEF5020463245F24097B539
:1018C00003009385A55F05616F70631B011106CE50
:1018D0002EC6EFA0C0349737FF1FA38F0796EF5097
:1018E000A0433245F24097B503009385A55D05619D
:1018F0006F70E318411122C426C206C68307D503C0
:101900002E849724FF1F9384647489C71307F00300
:101910006393E70203A58423EF6083122A8622855E
:101920002244B2409244AE8697C503009385858BCE
:1019300041016F70630E1305D503EF608339EF50DB
:10194000A35997B703009387E7709043D443EF40C0
:101950002311EF60A31923ACA422EF60630E2A8643
:10196000AE86228597C503009385058AEF70C30A6A
:101970002244B240924441016F50003AAA87038743
:10198000D7032E8509C79306F003631CD7001736CB
:10199000FF1F0356A68C97C503009385A58E6F7015
:1019A000A30741111385D70306C622C42E84EF6016
:1019B0004332131605019737FF1F2391A78A4182EF
:1019C00097C503009385458D2285EF70E304972723
:1019D000FF1F83C7B76709476388E700F11793F7CD
:1019E000F70F0547636AF7009737FF1F83D707870D
:1019F00089EB0945EFA0803A2244B24041016F5083
:101A0000A031EFA0002375D51737FF1F03570785B7
:101A10009307B003E3EFE7FC0945EFA08032E9BF8D
:101A2000130101D736C493160501232A5127232811
:101A3000612723261128232481282322912823206B
:101A40002129232E3127232C4127232671272324C4
:101A50008127232291272320A127232EB125230884
:101A60000104C182130760022E8BB28A6374D7000F
:101A70006F10403C97B503009385050E9316250023
:101A8000AE9698422E9702871727FF1F034797723B
:101A9000A1476312F70C19462C101725FF1F1305D9
:101AA000F544EF9050268808230A01028008EF6071
:101AB000337E9727FF1F83D7677B1727FF1F1307E7
:101AC000B7729726FF1F93862641301097C50300F3
:101AD0009385058A2295EF6033748808EF60537B05
