:040000006F2000333A
:1000040000000000000000009000002022050020F5
:10001400A9BDF9F5940000200000000000000000D4
:10002400960000209800002000000000000000005E
:100034009A000020000000009C0000200000000046
:100044009E0000201603002044030020A40000208A
:10005400A6000020A8000020AA000020AC00002078
:10006400AE000020B0000020C60000205A0100208D
:100074009E050020B8000020BA000020BC0000202B
:10008400BE000020EE01002082020020C4000020F7
:1000940001A001A001A001A001A001A001A001A054
:1000A40001A001A001A001A001A001A001A001A044
:1000B40001A001A001A001A001A001A001A001A034
:1000C40001A001A001A037370040834747009946AB
:1000D4004111BD8B638CD70231476384E706114716
:1000E400639EE702A303010017460000034606448B
:1000F40037370040834771006315F6022C001385DF
:10010400016597B000E0E780000109A88347570024
:1001140093F7F70F2304F100834781004101730033
:10012400203083477100834687000C08AE97238CE8
:10013400D7FE83477100850793F7F70FA303F100F8
:1001440055BF2800972001E0E78020811375F50F43
:10015400A303A1000346710055B737370040834716
:10016400474099464111BD8B638CD7023147638464
:10017400E7061147639EE702A30301001746000048
:100184000346E63A37370040834771006315F602A9
:100194002C001385416697B000E0E780C0F709A8FA
:1001A4008347574093F7F70F2304F10083478100F7
:1001B40041017300203083477100834687400C0857
:1001C400AE97238CD7FE83477100850793F7F70F0B
:1001D400A303F10055BF2800972001E0E780A08920
:1001E4001375F50FA303A1000346710055B73747F4
:1001F40000408347478099464111BD8B638CD702E9
:1002040031476384E7061147639EE702A3030100B5
:100214001746000003469631374700408347710074
:100224006315F6022C001385816797B000E0E78020
:1002340080EE09A88347578093F7F70F2304F10052
:100244008347810041017300203083477100834656
:1002540087800C08AE97238CD7FE834771008507EF
:1002640093F7F70FA303F10055BF2800972001E08F
:10027400E78020921375F50FA303A10003467100D4
:1002840055B737470040834747C099464111BD8B56
:10029400638CD70231476384E7061147639EE70204
:1002A400A3030100174600000346A6673747004032
:1002B400834771006315F6022C001385C16897B05B
:1002C40000E0E78040E509A8834757C093F7F70F9C
:1002D4002304F100834781004101730020308347E8
:1002E4007100834687C00C08AE97238CD7FE8347E2
:1002F4007100850793F7F70FA303F10055BF28009A
:10030400972001E0E780A09A1375F50FA303A100DD
:100314000346710055B7411122C637140040835774
:10032400C40913973701635B0700BD450145970076
:1003340001E0E78060FD8567231EF4083244410133
:1003440073002030411122C6371400408357E4095A
:100354008357E4091397170163590700970001E0D5
:10036400E780C0EF9167231FF40832444101730012
:100374002030B7170040930670052380D704130775
:1003840080FA2380E7040100010003C6B704137652
:10039400F60DA385C70423800704137605024DC216
:1003A40003C6A700118A1DE22380D7042380E70433
:1003B4000100010003C7A700136747002385E70076
:1003C4009307004B01000100FD17EDFFB717004034
:1003D400930670052380D704130780FA2380E7046B
:1003E400010001007D892394A700010001000100A0
:1003F4000100238007042380D7042380E70401003D
:100404000100010001003727004093061005A303F3
:10041400D78023800704B717004013077005238093
:10042400E704130780FA2380E7040100010003C7EF
:10043400B70413670708A385E704238007048280B1
:100444001376050441C603C6A700418A1DE2238032
:10045400D7042380E7040100010003C7A700136742
:1004640007012385E7009307007D01000100FD17C4
:10047400EDFFB7170040930670052380D7041307D8
:1004840080FA2380E704010001001376F501136666
:1004940006042394C7000100010001000100238029
:1004A40007042380D704130660042380E704631839
:1004B400C5000100010037270040894689BF0100BB
:1004C4000100372700409306200591B72380D70405
:1004D4002380E7040100010003D787001367070C9A
:1004E4002394E7000DBF4111814601468145114522
:1004F40006C66922B7170040130770052380E70476
:10050400130780FA2380E7040100010003C767048E
:10051400136717002383E70423800704B2404101D3
:1005240082808146014681451145892AB7170040DA
:10053400930670052380D704130780FA2380E70409
:10054400010001007D562396C7022380D70423802F
:10055400E7040100010003C767041367170023833E
:10056400E7042380070401A0BD473305F502010019
:100574007D1575FD8280411122C426C206C6AA8457
:10058400014463179400B2402244924441018280A2
:1005940005041305803E4204C13F4180DDB7B7170F
:1005A4000040130700032388E7028547174700002C
:1005B4002322F75073002030411106C6852DFDBF5C
:1005C4002303048015472303E48001002302A4804D
:1005D400828083076480E3CE07FE23030480828045
:1005E40083076480E3CE07FE03454480828083074B
:1005F4006480E3CE07FE2302A4808280411126C4D6
:100604004AC24EC006C61377F50BAD47AA892E8998
:1006140095446306F70019456537653F8D444E855B
:100624004537FD59FD1463983401B240A244124980
:10063400824941018280135509011375F50F453F25
:100644002209CDB7011126CC06CEB70408005137D4
:100654001545BD37713769372AC6A53F32459377AB
:10066400150089EB136515001375F50FF240E2448C
:1006740005618280FD14E9FC0145CDBF397126DC9A
:100684004ADA4ED852D656D45AD25ED006DE62CE5C
:1006940066CCB7E700E07D5783AA070022C603AA09
:1006A400470023A0E71823A2E718B7170040130751
:1006B40070052380E704130780FA2380E70483C7C7
:1006C4004704930B75FFB684E20793FBFB0F854643
:1006D400AA892E8B328937240040E187015763FAB7
:1006E40076016308D5008946130700026313D50019
:1006F4000157D98F93F7F70FB71C00402382FC04EE
:1007040011472303E4801305F00F5D3D094CD135F7
:10071400636D7C11B7050700DA95378707007955B3
:1007240063F2E504B3879500636EF702370B0800A4
:10073400A94733EB65016399F90689E48144513D86
:1007440026850DA0DA850945553D05090345F9FFC0
:10075400FD14050B693D81C49377FB0FFDF7DD356F
:1007640069FD7D55B7170040130770052380E70422
:10077400130780FA2380E70403C74704418B2382CD
:10078400E704F250B7E700E023A0571123A2471172
:10079400E25432445259C259325AA25A125B825B11
:1007A400724CE24C21618280A5476395F906856904
:1007B4001309F00FB3069900B3742B01B6941349CF
:1007C400F9FFB3749900856B33796901416B9387A1
:1007D400F9FFB3F7270199E363FC340193D9490086
:1007E400C147E3E637FF99BF0569C1697D19D9B7E8
:1007F4001305800D63886901130500026384790180
:1008040013051008CA85DD3B353D21DD4E99B384BF
:100814003441D9B7DA852D45D533CA94E30099F22A
:1008240005097D3BA30FA9FED5BF9387F9FF93F775
:10083400F70F6361FC0C83C71C0413073008631FA4
:10084400F70437070800636BEB04B3079B00B70694
:10085400100063F5D704334BEB0089476393F90623
:100864008980D549E38C04ECDA850945413B1109BB
:100874000327C9FF91472320E48003076480E34EE4
:1008840007FE23033481FD17EDFBFD14110B81C416
:100894009377FB0FE9FF7D3371F5E1B5B71700409E
:1008A40003C75704B70708001377070219E3B7878C
:1008B40007007955E378FBEA33079B00E3FFE7F889
:1008C40055B58547E382F9F2DA852D45053B9389D1
:1008D400F4FFE38504E6293393F7390091EB83268B
:1008E40004800327090093074900E39AE6E43E895C
:1008F400CE84F1BFB5476396F9001305900BC93157
:1009040035BDB1471305B00AE38BF9FE99476391EE
:10091400F904B7050800B365BB002D45C531814412
:100924008D4BA14975396396740183270480232074
:10093400F9008504E39834FF8327048013172B01FF
:10094400635507002312F900D5BB2322F900FDB338
:100954009D476399F90281451305B0044531BD44AF
:100964002320090023220900FD599D3993F77400BF
:10097400CA9703C70700FD14398D2380A700E396A7
:1009840034FF6DBBA1476392F9046D398144630D53
:100994000B008D479304C0036308FB009304000518
:1009A40063048B01930440041375C507E30895D8C9
:1009B4001945393139390545213126850D3909451E
:1009C4003D314931E31C05D669BB91476399F90070
:1009D40013056006F536F53E130590090DB7E38F50
:1009E40009D4F154A9BB19CD91CD09CE81473387E0
:1009F400F500834607003307F50085072300D70079
:100A0400E317F6FE828019C991C909CA910583A723
:100A1400C5FF11057D16232EF5FEC5BF828001C9D1
:100A240019C62A960505A30FB5FEE31DA6FE82800E
:100A340081473307F5000307070019E33E858280E9
:100A44008507C5BF01112E8626CAAA84131506017F
:100A54009305F004418122CC06CE32C6EF108063A8
:100A64002A8401C53246A685BD3F2285F2406244F0
:100A7400D24405618280854715C18DC105C2814775
:100A8400B306F5003387F50083C606000347070065
:100A94006398E6008507E315F6FE85473E85828068
:100AA4008147EDBF9307F6FFBE952A966313C500F1
:100AB4008280FD1583C715000505A30FF5FEFDB75C
:100AC400AA87014581CF09CE3E96850703C7F7FF64
:100AD4006317B700E39BC7FE05458280828001450A
:100AE40082807971976700009387878522D4804339
:100AF40006D626D24AD04ECE52CC56CA5AC85EC664
:100B040062C45DCC37C9C901814B176A0000130A5E
:100B1400AA87976400009384E4821309F937975AEB
:100B24000000938AAA7CB709C0A8370B40578357A3
:100B3400240095E35C44639D0B00176700002321A8
:100B4400F780032CC4002285EF10E061628499A829
:100B540023A6FB00FDB783270A00829783866401DE
:100B64001C4463DB06063307F5406367E9089757BF
:100B7400000023A5077883552400034504009760EB
:100B840001E0E780E0FF5C405844A9CF1444B697E5
:100B94008386640163C5060063E33701DA971CC4E6
:100BA400A28B3A8449F497570000938727749C4B8F
:100BB40009476378F706F917175700002320F774DD
:100BC400B250225492540259F249624AD24A424BD8
:100BD400B24B224C45618280E377F5F83387F940C4
:100BE4002A9761B763970B009757000023AAE7740D
:100BF40089BF23A6EB00B1B7D85009CF63DF060045
:100C04003385A74083A70A016376F5009757000050
:100C140023A6A76EA28B404471B7E3F3A7FECE9739
:100C2400C5B79757000023AB076C59BF411122C4C5
:100C3400175400001304846E1C4006C626C24AC022
:100C440091C782979757000023AA076C5C4091C311
:100C540082971C406391071C9767000083C7978A9B
:100C6400858B9DC797670000A38E078817670000D0
:100C740003477789954763FDE700EF005041976785
:100C8400000083C75788F5178A07A2979C43829769
:100C9400176900001309C98A8347C900918B99C356
:100CA400EF10A0321C4491C38297975400009384A0
:100CB400E4689840175600000346566397570000AF
:100CC40083C7C76293961700BA9683D60600D5CA1F
:100CD4009757000083C7876163EFC70A97570000DF
:100CE400238607601C40639807129767000083C738
:100CF400B78191CF9767000083C7F78089EB976727
:100D04000000A383078097F002E0E780E03A97575A
:100D14000000938767679C43638F070EB707C0A8DB
:100D240017570000232CF75C6D3B975700009387FF
:100D34006761DC53EDC3175700001307275B184B9B
:100D44009757000083C757616367F70C1757000074
:100D54000347777B954763E0E70C8347C900918B92
:100D6400DDEB90409756000083C6565863CBD70AF4
:100D74002244B240924402494101176301E06700F2
:100D840043BD850793F7F70F975600002380F65667
:100D9400E3E6C7F235BF86073E9783550700231065
:100DA4000700975700002399075897570000938727
:100DB400A7569C43175500000345455313172500B8
:100DC400BA979C4382979757000083D7E7561757E3
:100DD40000000347A75193C7F7FF7D8D93171700B2
:100DE40098403E97835707005D8D2310A7009757BF
:100DF400000083C7A74F91C7850717570000230733
:100E0400F74E175700000347674E9757000083C7F4
:100E1400F74DE375F7ECB240224492440249410194
:100E24008280139717003297035707006DF78507E1
:100E340035BFAD6737C70040BD072326F7200F1025
:100E44000000975700009387674AC84F8327872677
:100E5400BD66BD0693C7F7FF99836A052326D7208D
:100E64005D8D82804111B7170040985F3AC6945F48
:100E74003247E39CE6FE32454101828082800327AB
:100E8400851163000712411122C406C68347C500B9
:100E94008345C5042A8493F7C70F2306F5008346C8
:100EA40097000356C70013958601618563F1C50851
:100EB400635A05060345870093F6F607A304D70093
:100EC400054693E627006314C50093E6170023063E
:100ED400D4005C4389075CC3A30AB400032504114E
:100EE4002E864C4309050136832784110346540199
:100EF400D44303D7C700B296118FD4C32396E70017
:100F04008947A30DF400034744039757000083C7A0
:100F140087446378F7048347C40093E707012306F3
:100F2400F40081A093E717002306F40075B79376C5
:100F3400F60F635D050203458700854513E6270028
:100F44006314B50013E617002306C400A30AD400F3
:100F5400A30407008547A30DF400832784119C4351
:100F6400DDF3B240224401454101828093E717003A
:100F74002306F400A30AD400A304070003250411E4
:100F84004C4309058D348327841103465401D4430B
:100F940003D7C700B296118FD4C32396E7008D47B9
:100FA4005DBF05458280975700009387E7539C43B4
:100FB400411122C406C6858B2A84C5EF41651305F9
:100FC40025F5977002E0E780E08845C58347A500D2
:100FD4002315F50083270412BDE72320A41223223E
:100FE400A41285472310F4042320050083476401D9
:100FF40054412316F5000347D4002304E5000547B4
:10100400A304E500175700001307874F184F1385F3
:10101400170215811C437D151375F50F9CC25C43A3
:10102400DCC21C479CC65C47DCC61C4B9CCA5C4BA0
:10103400DCCA1C4F9CCE5C4FDCCE19CD93860602D5
:1010440013070702C1BF8327441288C383570404CC
:101054002322A412850779B79757000083D78757AF
:101064008507175700002317F756B2402244410161
:1010740082808347C40023090400054593C74700C1
:101084002306F400DDB78347850193F7E70FD5EF17
:1010940083479501DDEB034625018346C50009CA54
:1010A40083454503175700000347F72A63E7E50024
:1010B40013F7060141CF014709C6C18A0357651CCE
:1010C40081C68356A51C369751C31307C7121755FB
:1010D400000003552524B335A70237460F004111FC
:1010E40013060624814622C426C206C67D5433054F
:1010F400A702978003E0E78040E49757000083C786
:10110400F725B384A700975700009387274C03A7BC
:1011140007098327070963F387003E84184375FB97
:1011240097570000938747269C43829781476364BF
:10113400A400B307A440B2402244B3B7970093C7B6
:10114400170092443E854101828081473E8582801A
:10115400797126D206D622D44AD04ECE52CC56CA63
:101164005AC85EC68347350303447513AA843E9464
:101174001374F40F9307400263F687001304B4FD5D
:101184001374F40F03AA841383AAC413A38B8412C5
:1011940022865285D685978003E0E78080D405892E
:1011A40015E503CBD41201498149337B6403930BC6
:1011B40050024A865285D685978003E0E78060D244
:1011C400058915C5639169031374F90F238B841280
:1011D400B250225492540259F249624AD24A424BC2
:1011E400B24B456182808509E20993D98941050999
:1011F400E31179FDE1BF832785090356E50379717E
:1012040093D60701BD8EC206C182358E1357764030
:1012140093575640898B058B5D8F93573640918B3E
:101224005D8F93571640A18B5D8F93171600C18B6A
:101234005D8F9317360093F707025D8F931756005F
:101244009355860093F707041E065D8F1376F60FF9
:10125400518F93D7554013D63540118A898BD18F3E
:1012640013D67540D18F13D61540218AD18F13968A
:101274001500418AD18F1396350013760602D18F5B
:1012840013965500137606049E05D18F93F5F50F3A
:10129400CD8FA20745465D8F3307C70222D42A8427
:1012A40026D252CC56CA032A8413832AC4135AC89A
:1012B40006D63697420741839357774013555740D4
:1012C4000989858BC98F135537401189C98F1355E7
:1012D40017402189C98F131517004189C98F131528
:1012E400370013750502C98F1315570093558700EE
:1012F400137505041E07C98F1377F70FD98F13D5FC
:10130400354013D755401189098B498F13D5754042
:10131400498F13D515402189498F139515004189AB
:10132400498F1395350013750502498F13955500A0
:10133400137505049E05498F93F5F50F4D8F22070C
:10134400D98FB387C7024AD04ECE5EC662C4B69761
:10135400C207C18313D7774013D557400989058B3A
:10136400498F13D537401189498F13D517402189E7
:10137400498F139517004189498F139537001375C9
:101384000502498F1395570093D5870013750504FB
:101394009E07498F93F7F70FD98F13D5354013D78D
:1013A40055401189098B498F13D57540498F13D541
:1013B40015402189498F139515004189498F13954B
:1013C400350013750502498F1395550013750504EF
:1013D4009E05498F93F5F50F4D8F2207D98FB3875B
:1013E400C702130650025285D685B697BD8E9394D4
:1013F4000601C18033F6C402137BF60F978003E025
:10140400E78020AE05890DED8347D4120149814957
:10141400B3849702130C5002C1804A865285D68544
:10142400978003E0E780E0AB0589937BF90F11C552
:1014340063863403850993F9F90F0509E31F89FDD0
:10144400230B6413B250225492540259F249624A53
:10145400D24A424BB24B224C456182805E8BCDB75F
:10146400011122CC604126CA4AC84EC652C406CED7
:10147400AA841D4A130965058549BC446364F400C4
:10148400054581A803C7D40083474400631B47056F
:1014940003C784026304F7000040C5B70347540040
:1014A40083C75405E31AF7FE1946CA851305640079
:1014B400EFF06FDCE31235FF0347C40083C79402E7
:1014C400E31CF7FC0357E40083D7A402E316F7FCFC
:1014D4000145F2406244D2444249B249224A05617C
:1014E4008280E31BF7FA0347540083C75405E315CE
:1014F400F7FA1946CA8513056400EFF0CFD7E31D48
:1015040035F9F9B70111975700009387270C22CCBE
:1015140003A4470B26CA06CE2AC42EC6854419E462
:101524000145F2406244D2440561828083479100C0
:1015340003471400858B6304F7000044CDB71946B4
:101544009305A10013052400EFF0EFD2E31795FEF5
:101554000545C1BF011122CC17540000130404FC3B
:1015640018402AC62EC432C206CE3C4B93F7F7F776
:101574003CCB97F002E0E780E0B0184097560000BB
:10158400938606F73C4B93E707083CCB9C423245D5
:10159400A24523A00700034715000348250022079E
:1015A4004208429703480500429703483500620801
:1015B400429798D70347550003486500220742081D
:1015C40042970348450042970348750062084297D2
:1015D400D8D7034795000348A5002207420842973D
:1015E4000348850042970348B5006208429798DB98
:1015F4000347D5000348E500220742084297034801
:10160400C5000345F500429762052A97D8DB03C756
:10161400150003C52500220742052A9703C50500C6
:101624002A9703C5350062052A9798CF03C755004A
:1016340003C56500220742052A9703C545002A977A
:1016440003C5750062052A97D8CF03C7950003C563
:10165400A500220742052A9703C585002A9703C5DA
:10166400B50062052A9798D303C7D50003C5E500E2
:10167400220742052A9703C5C50083C5F5002A97AA
:10168400E2052E97D8D3D843759BD8C3D8431367A4
:101694001700D8C398431367170098C3124698429B
:1016A4005C43858BD1E71C4F01452300F6009C4227
:1016B4009C4FA183A300F6009C429C4FC18323014D
:1016C400F6009C429C4FE183A301F6009C42D84F54
:1016D4002302E600D84F2183A302E600D84F4183BA
:1016E4002303E600D84F6183A303E6009853230441
:1016F400E60098532183A304E6009853418323050D
:10170400E60098536183A305E600D8532306E60058
:10171400D8532183A306E600D85341832307E60068
:10172400DC53E183A307F600F24062440561828042
:101734000100B5B7175700001307C7DB1443411165
:1017440022C49C5E4AC006C6998326C2858B3A840D
:10175400175900001309C9D9D1CB9C5E97540000D6
:10176400938404DA93F7F7F99CDE175700000347D4
:1017740087D993070008631BF700832709009C435C
:1017840093F7070417570000230FF7D683C7040005
:1017940093F707049DC3975700009387E7BE9C43C4
:1017A40082979757000023A5A7D683C7040093F711
:1017B400F70B175700002305F7D483C7440093F7AA
:1017C40007048DE7854717570000A30DF7D29757F5
:1017D40000009387A7D49C43096798C7130700FCAC
:1017E400975600002380E6D2D844F8D31C40985F73
:1017F4001183058B09CB985F3D9B98DF054797566E
:1018040000002381E6D0985F1D83058B11CB985F80
:101814001377F7F798DF8547175700002304F7CEAF
:1018240083270900D8430583058B19C7D843759BC3
:10183400D8C3D843799BD8C3B240224492440249C6
:1018440041018280397106DE16DC1ADA1ED82AD6E6
:101854002ED432D236D03ACE3ECC42CA46C872C614
:1018640076C47AC27EC0F935F250E2525253C25362
:101874003255A255125682567247E2475248C24820
:10188400324EA24E124F824F21617300203097577F
:1018940000009387A7C8944397570000938747C6CF
:1018A40003C70700058B11CB97570000238C07C48F
:1018B40097570000A38807C4828003C71700058BCD
:1018C40065F7F85271FF83C75700DDB7175800005A
:1018D400130848C2032708001C5F9583858BD1E752
:1018E40009C61C5BBD832300F60085CA8327080054
:1018F400985B4607935767016356070093E707C051
:10190400C207C18303970600C207C18709C7BA97F4
:101914000947B3C7E7022390F60085CD8347150036
:101924008DCB9756000083C606BE93F60604138734
:10193400970089478DCA3A9503470500854699471C
:101944001376F7066311D60262076187B947634CC1
:101954000700832708009C5FED838D8B17570000D9
:10196400A305F7BA81473E8582808547EDBF4111C3
:1019740022C406C617540000130444BA184049E9A7
:10198400AE877453FDFE3E85B28597570000238AC7
:1019940007B697E002E0E780E0449757000093879A
:1019A40067B59C43B70680009843558F98C3D857B2
:1019B400719BD8D797570000A38607B497570000A8
:1019C400A38007B41C40094798C3B7F700E003A7F6
:1019D40007D16D9B23A8E7D003A707D15D9B23A85C
:1019E400E7D073005010144017570000130747B195
:1019F40083472700858B89EB83473700858BD9C7BD
:101A040097570000238007B0B240224441018280EE
:101A14008D476310F502975700009387A7AD9C4349
:101A2400B70680009843558F98C3D857719BD8D771
:101A34005DBF8547E319F5FAB567BD075CC70F10AD
:101A440000001C400967094698C7130700F8975619
:101A540000002389E6AA175700001307A7A9144317
:101A6400984231830D8B6319C7001307E043F8D301
:101A74003D673D07D8C785BF984231830D8B01E789
:101A840013076019EDB71307E01BD5B7FC52ADF38C
:101A9400A5BF5D7152DC175A0000130AAAA50327DB
:101AA4000A0086C6A2C4A6C2CAC04EDE1C43975909
:101AB4000000938969AB17590000130929A693F70D
:101AC400F7E793E707081CC383A609003707CEFF8F
:101AD4007D179C46130680022A84F98F9CC68327AF
:101AE4000900130700082800B8CBAE84930510083A
:101AF400EFE0FFF297E002E0E780C05897E002E0F1
:101B0400E780C06583270A009376F41F370FFCFF34
:101B140023A40700984B4E88CA881367F70398CB11
:101B2400F84F130510F8D285137707E0558FF8CFD7
:101B34009843F576FD16758F98C39843B70633001E
:101B4400B70204001377F7E798C398439303401F41
:101B54007D1F1377F7E71367071098C303A70900DE
:101B6400930F800285491C47D58F1CC78327090022
:101B74001307900D3400B8CB1149014713533700B4
:101B840026938347030013767700B3D7C740858B2A
:101B9400DDCF9C41832E0800239C07042390070675
:101BA40003AECE02137EDEFF23A6CE0383AE070070
:101BB400137EF70793FE0EF833EECE0123A0C70180
:101BC40003AE4702336E5E0023A2C70383AE080050
:101BD400014E23A27E0603DA070663074E0303AE13
:101BE4000703038A0600135EFE00620E135E8E4135
:101BF4006358CA0103AE0703135EFE002380C601C7
:101C040003DE0706137EFE0F03AA4E0663060A00D0
:101C140003DA8705E37F49FB03AE4702337EEE0117
:101C240023A2C70383870600635CF400034E03000A
:101C34003396C9001346F6FF3376C6012300C3006A
:101C44003E8663D3A7002A8613158601618505079E
:101C54001377F70F8506E313F7F3B640264496444B
:101C64000649F259625A6161828097560000938650
:101C7400E68A9C42D8471316170163550602984713
:101C840013161701635006027D57B8D71747000093
:101C94001307C765584F0507174600002326E66655
:101CA400116798C798470D83058B1DC3175700000C
:101CB4000347278513671700175600002303E6849C
:101CC400130700F817560000230EE682214798C731
:101CD4009847058B09CF175700000347778213678E
:101CE400170017560000A30DE680054798C79847CC
:101CF4000983058B09E798470583058B31CF9847FE
:101D0400174600001306C67F174500001305857E9D
:101D14000983058B630307101841184331830D8B26
:101D240075EBAC4B184E93F5050203471700CDCD68
:101D340079EF13077006D8CF03470600136717001F
:101D440017460000230EE67A114798C718415C57DE
:101D5400F19B93E717005CD79C4298479316370191
:101D640063D606029756000083C6868DC18A17572C
:101D740000001307A785C5CE03474707136707026B
:101D840097560000238EE68A056798C798479316EE
:101D9400270163D10602174700000347A7766207AD
:101DA400618763570700054797460000238CE67454
:101DB400096798C798479316070163D60602975692
:101DC400000083C6F687858A17570000130707802B
:101DD400ADCE034757071367270097560000A3812A
:101DE400E686216798C7828029D785456315B700A1
:101DF4001307B00689B789456315B7001307F006C2
:101E04001DBF8D456315B700130730072DB71307A2
:101E1400500715B71307600739BF03473600136728
:101E2400170017460000A30EE66C094739BF834626
:101E340047070946BD8A6388C600034747078D469E
:101E44003D8BE313D7F4114725BF83465707918A87
:101E5400C9DA034757071367870041B7397106DEAC
:101E640016DC1ADA1ED82AD62ED432D236D03ACE7E
:101E74003ECC42CA46C872C676C47AC27EC0F53326
:101E8400F250E2525253C2533255A2551256825660
:101E94007247E2475248C248324EA24E124F824F16
:101EA40021617300203017470000130767678346DA
:101EB400B7019747000083C777694C4BB697FD8BF2
:101EC40033D7F50097460000A38CF66497460000CC
:101ED400A38EF666058B15EF174700000347576777
:101EE400B3F7E702814601471305000233D6E50044
:101EF400058A1378F70F19CA6397D700974700002C
:101F0400A38007638280850693F6F60F0507E31F17
:101F1400A7FC828097470000938707479C430111E1
:101F240022CC4EC606CE26CA4AC852C456C282978E
:101F3400974700009387C760804781496305A406DB
:101F4400BE84974700009387E73F038767013E8974
:101F540063550706018D135455009747000083C746
:101F6400C75D9379F501636DF402370AC0A8B70A17
:101F74004057153F9C449746000083C6065C139760
:101F840056003E9783076901158C63C50700636398
:101F9400470156979747000023A8E75AE37BD4FCF0
:101FA4001604B3693401F24062444E85D244424976
:101FB400B249224A924A05618280E37D85F8B707D7
:101FC400C0A833848740229579B797470000938748
:101FD400A73B9C43411122C406C626C28297974759
:101FE40000009387E75580476309A406BE8497479A
:101FF4000000938727358387670163D80704018D21
:10200400135455009747000083C727536367F404AC
:10201400593D98449747000083C727529396570029
:1020240036971D8C9746000023A0E652E372F4FE17
:102034002244B2409244174500000345754E814541
:10204400410117E302E067008358E37A85FAB70792
:10205400C0A833848740229565B7B2402244924495
:102064004101828097470000938707509843B757F0
:1020740002009387079F8326070913965600635827
:102084000600832607091396660063440600FD17BD
:10209400FDF3828071C5AA870145E9C58D07C20792
:1020A400C183F19BC207C18313074003636FF70227
:1020B4001747000013074751084317470000130749
:1020C400275014436398A602174700001307872775
:1020D400185B014541CB4111C20706C60545DD8D9C
:1020E4000297B2400145410182801747000013075F
:1020F400674DD9B70357650035E303574500636F50
:10210400F704B306F7402146637CD6020328050092
:10211400938687001D8FAA96611717460000035601
:10212400461D2392E60023A006012393060014C152
:102134002312F500130786FF97460000239BE61A37
:102144002313B5009745000083D5A51AB387F5403E
:1021540017470000231FF7182105828008419DB707
:102164000145828082800DC1974700009387C7454F
:1021740003A30700974700009387874483A80700B9
:1021840081469A8763E31701828003A80700636D81
:10219400F50A636BA80A13878700E367E5FE03D695
:1021A4006700216705076317E60003C74199050720
:1021B400238AE198974500009385451303D6470089
:1021C40003D76500239307003297420741831745DD
:1021D40000002310E512638A670217450000130507
:1021E400653E08416303F50203D5660019ED83D704
:1021F400460023A0060121073E9621062392C6002D
:10220400974700002397E70EB6879843E30E17F726
:10221400974600009386063B9442E307D7F683561D
:102224006700BDF283D64700035647001843A10652
:10223400B2962392D70098C383D76500A1071747A6
:1022440000002318F70A8280BE86C28725BF0111C9
:10225400974700009387873722CC03A4C70B26CA6D
:102264004AC84EC606CEAA8413092500854915C05E
:1022740083C7140003473400858B6304F700405C74
:10228400FDB71946930544004A85EFE0CFFEE318F5
:1022940035FF2285F2406244D2444249B249056185
:1022A40082804111974700009387473222C403A4D8
:1022B400C70B26C24AC006C693042500054901E897
:1022C4002285B24022449244024941018280A6857B
:1022D4001305A402976003E0E780A07AE30225FFD8
:1022E400405CF1BF4111974700009387272E22C419
:1022F40003A4C70B26C24AC006C693042500054999
:1023040001E82285B240224492440249410182807C
:10231400A6851305A401976003E0E7808076E302B5
:0823240025FF405CF1BF000041
:1023300097110020938181B017610020130181CC97
:102340001305400097E5FF1F9385C5CB17060020B6
:102350001306C6FD63FAC5008322050023A05500BD
:1023600011059105E3EAC5FE17350400130585C67E
:1023700097050020938585FB1386818563FAC50048
:102380008322050023A0550011059105E3EAC5FE4F
:102390001385818597450020938545356377B50082
:1023A000232005001105E36DB5FEFD42739002BCCC
:1023B0008D4273904280B72200009382828873A07E
:1023C000023097E2FF1F9382E2C393E232007390E0
:1023D000523097120100938262407390123473005E
:1023E00020303D432A876373C3029377F700BDEF24
:1023F000ADE5937606FF3D8ABA960CC34CC30CC775
:102400004CC74107E36BD7FE11E28280B306C3409D
:102410008A069702000096966780A6002307B700F9
:10242000A306B7002306B700A305B7002305B7002E
:10243000A304B7002304B700A303B7002303B70026
:10244000A302B7002302B700A301B7002301B7001E
:10245000A300B7002300B700828093F5F50F939691
:102460008500D58D93960501D58D61B7939627008C
:102470009702000096968682E78086FA9680C117BA
:102480001D8F3E96E374C3F8A5B73367B500FD53BF
:102490000D8B79E7B7877F7F9387F7F710419441DA
:1024A000B372F6003363F600BE92B3E26200639744
:1024B000720C6318D6065041D441B372F6003363F0
:1024C000F600BE92B3E262006398720A631BD60400
:1024D00010459445B372F6003363F600BE92B3E242
:1024E00062006391720A631ED6025045D445B372EE
:1024F000F6003363F600BE92B3E26200639A72089C
:102500006311D60210499449B372F6003363F600A2
:10251000BE92B3E26200639372085105D105E30FE6
:10252000D6F61317060193970601631CF70013579D
:10253000060193D706013305F7409375F50F91E92E
:1025400082804183C1833305F7409375F50F91E194
:1025500082801377F70F93F7F70F3305F7408280E8
:102560000346050083C60500050585056313D600EF
:1025700065FA3305D640828011059105E312D6FE37
:10258000014582802105A105E31CD6FC014582801E
:102590003105B105E316D6FC014582804105C10530
:1025A000E310D6FC01458280411106C6EF80E0654C
:1025B000B240AA8617E70300130787A91726002051
:1025C0001306869197E503009385C5A9114541013E
:1025D0006FC01048130101DB23248124232021250F
:1025E0002326112423229124232E3123232C41231B
:1025F000232A51232328612303470500930710044E
:102600002A892E84631FF766034715009307400548
:102610006319F766034725009307E0056313F76620
:102620002E86AA852545EFC050381306D003A28513
:102630004A85EFC0704FAA84635A05003546A285CB
:102640004A85EFC0704EAA84634405089389D4FF7D
:102650009307100363CE37074E8693053900280889
:10266000EFA0C3401C1CBE9917EA0300130ACACD91
:10267000238409DED28A8149594B83254A002808E0
:10268000EFC050440DC18E09D69983D70900554734
:10269000636FF70017E70300130707968A07BA97D7
:1026A0009C43BA9782878509210AE39869FD97E5DB
:1026B00003009385A5C8CDA89305F4FF858D1385E8
:1026C0001400C20581460146C1814A95EF40407E13
:1026D0008320C12403248124832441240329012449
:1026E0008329C123032A8123832A4123032B012326
:1026F0001301012582801306F4FF058E93851400D3
:1027000042064182CA95E800EFC0506A1305D10421
:10271000EFA0E33193150501C1811305D104EFC08A
:10272000507797E50300938525951305D104EFC0F5
:10273000703919CD97E50300938585940545EFC061
:10274000701C172500200345B532EF60A01F49B764
:1027500097E50300938505941305D104EFC09036E7
:1027600019CD97E50300938565930545EFC0901952
:10277000172500200345D52FEF60801F91BF97E5F7
:1027800003009385A5921305D104EFC0B0330DC1AA
:10279000371700408327C70AA16697E50300938592
:1027A0006591D58F2326F70A2545EFC0B0150DB7E3
:1027B00097E503009385C5901305D104EFC09030D1
:1027C00011CD371700408327870AA16697E50300DC
:1027D0009385858FD58F2324F70AF9B797E50300F2
:1027E0009385058F1305D104EFC0D02D11CD371778
:1027F00000408327C70A916697E503009385058EFD
:10280000D58F2326F70A4DB797E503009385058EEC
:102810001305D104EFC0102B11CD371700408327CB
:10282000870A916697E503009385058DD58F23244C
:10283000F70A9DBF97E503009385058D1305D10425
:10284000EFC0502897E503009385C58C31FD97E5CF
:1028500003009385E58C1305D104EFC0B02697E5FE
:1028600003009385A58C29F197E503009385C58C1A
:102870001305D104EFC0102511C59727002023A709
:102880000720B9B597E503009385C58B1305D104DF
:10289000EFC0502301C5EF6070521DBD97E50300E6
:1028A0009385058B1305D104EFC0D02101C5EF60DE
:1028B000105839BD97E503009385458A1305D10467
:1028C000EFC0502001C5EF60606E19B597E50300B9
:1028D000938585891305D104EFC0D01E01C5EF9003
:1028E0003001FDB397E50300938585881305D10476
:1028F000EFC0501D01C5EF901000D9BB97E5030054
:10290000938585871305D104EFC0D01B01C5EF90D7
:10291000E07E7DBB97E503009385C5861305D10452
:10292000EFC0501A01C5EFB0107A5DB397E5030010
:102930009385C5851305D104EFC0D01801C5EFF00C
:10294000702679B397E503009385C5841305D104F8
:10295000EFC0501701CD9727002083D7A710056738
:10296000D98F17270020231FF70E9DB397E503008B
:10297000938585821305D104EFC0D01409C9FD7772
:10298000172700200357070EFD17F98FD9BF13052E
:10299000D104EF90E32D97270020A383A70E137691
:1029A000F50F97D503009385657F0145EFC0500A69
:1029B00005B31306F4FF058E138514004206418209
:1029C00097E50300938545614A95EFC0502317248E
:1029D00000201304240931C597D503009385457D54
:1029E000E800EFA0A303E800EFA0630413160501BD
:1029F0004182EC001385C168EF80704797D50300D2
:102A00009385C57D1145EFC0E06F835704004145B4
:102A100093E71700172700202316F704EFD0402B69
:102A200045B997D503009385257C1145EFC0806D8E
:102A30007D55EFD0802F83570400F99B1DB7AD362D
:102A400041B91306F4FF058E138514004206418236
:102A500097E50300938545584A95EFC0501A17240F
:102A600000201304240029C18357040097D50300D4
:102A700093854578E80093E7170017270020231374
:102A8000F7FEEF90B379E800EF90737A1316050123
:102A9000EC0041821385C168EF80703D97D503003B
:102AA00093850577114511B397D503009385057775
:102AB000E800EF90B376E800EF9073771316050106
:102AC000EC0041821385C168EF80703A835704009F
:102AD00097D5030093854576F99B1727002023138C
:102AE000F7F8C9B7EF70505497270020938787F7FE
:102AF000C85FEF80D36EAE862A8697D50300938594
:102B000065741145EFC0C074E1B6EF50507BC9B693
:102B100017E603001306C64C97D50300938545734B
:102B2000114569B5EF80E01197D5030093850573D2
:102B300035F997D5030093856573ADB73545EF90AB
:102B40004050AA84EF80B3692A86AE86254597D582
:102B500003009385E572EFC0A06F97D703009387BA
:102B600067518843A685171400201304244EEF8074
:102B7000233E2326A422EF8000130325C422EF80E6
:102B80001366AE862A8697D503009385257095BF78
:102B900081450D45EF605011EF8060062A8697D57C
:102BA000030093856571ADBF81452D45EF60D00F62
:102BB00081456945EF60500F81453145EF60D00E8A
:102BC000EF8040042AC6EF80A004B2462A87171679
:102BD00000201306663097D503009385E56E1145F6
:102BE000EFC00067F5B41717002003576768971602
:102BF00000209386B64F171600201306E62D97D5B2
:102C000003009385A56EE1BF854717170020230DAC
:102C1000F766EF80400997D503009385656E59B537
:102C20001717002003474766854797D5030093850C
:102C3000A56DE319F7E6C5B78547171700202308E8
:102C4000F764EF80400697D503009385A56C99BD86
:102C50009717002083C7A76397D503009385056C5A
:102C6000E38207E4CDB7972700209387A7DF885F2B
:102C7000EF80F356AE862A8697D503009385C56A02
:102C800049B50146A2854A85EF60A06391B41D71E4
:102C9000A2CCA6CACAC82A843289AE841306E0032D
:102CA0008145130521013AC486CE36C6EFF06FF395
:102CB0002247B1472308F10093071700A308F1004A
:102CC000230921018D471DC3B2460C08368605062F
:102CD0008347F6FF85052381F500B387C640BA9781
:102CE00093F7F70FEDF70D079377F70F814601473D
:102CF000850613F6F60F636BF6049408BE962380E0
:102D0000E6FC1387170094081377F70F3697B5463C
:102D10002300D7FC9386270093F6F60F1008A685AC
:102D20002285EFF0C074DD47631CF500194597E577
:102D3000030093852596EFC0E03C2285EFF02071DB
:102D4000F6406644D644464925618280100836968E
:102D50000346060032971377F70F59BF011106CECD
:102D60002AC62EC4EFF0105203478500954763141E
:102D7000F70283470500A2463246C18B89CF1C4D1E
:102D800097E503009385058CD58F1CCDF24019453E
:102D900005616FC0E04B1041BA8697E5030093854B
:102DA000658C1182058ADDB75D71A6C2CAC04EDE90
:102DB0002A89AE89B284B6853D46280086C6A2C45B
:102DC000231B01003A84231C0100231D010023154D
:102DD00001022316010223170102EF80336C3D46E6
:102DE000CE856808EF80936B6808EFB0C0626348D7
:102DF0000504930404023D466C082685EF80136A9F
:102E000083470400A3070402680893E7070423002C
:102E1000F400EFB040601375F50FEFB0E05BA30472
:102E2000A40091454A851D3F83069400268697E5B8
:102E300003009385E5861945EFC080418DA0854745
:102E4000639DF4083D46971500209385E50828000A
:102E5000EF90133F21ED930404023D466C08268554
:102E6000EF80D36383470400A3070402268593E71A
:102E700007042300F400EFB0005FA304A400914511
:102E80004A85E93D26873400171600201306C6043C
:102E900097E50300938585841945EFC0603BB640F4
:102EA000264496440649F259616182806808EFB071
:102EB00000676808EFB020561375F50FEFB0C051EA
:102EC000EFB0306D78083400171600201306C600E6
:102ED00097E5030093854585C1B7EFB08053635AEA
:102EE000050097E503009385E5881945EFC0403656
:102EF0007DB7930404023D466C082685EF80135A83
:102F000083470400A3070402268593E707042300F0
:102F1000F400EFB040559145A304A4004A853D3D1F
:102F200003459400EFB0F06683069400268697E58B
:102F300003009385A58601B7011106CE2EC42AC6CB
:102F4000EFF05034A2461C4D324613C7F6FFF24054
:102F5000F98F1CCD97D503009385856C19450561C4
:102F60006FC0002F954763F4C7245D71A6C2931408
:102F70000501C1802AC22685A2C4CAC04EDE2E89A0
:102F8000B28986C652DC56DA5AD85ED662D466D288
:102F90006AD06ECEEFF0B02A2A84124697D503008D
:102FA00093854555630F0510268532C2EFF0D02E6C
:102FB000FD57814612466302F510354C97DC03003D
:102FC000938CCC59172D0020130DCDA997DD03004C
:102FD000938DCD51130A04029374F50FB30BD900EE
:102FE00003C70B00B1476316F70A138846006357FF
:102FF000380B03CB1B00938A360033876A01635A70
:1030000037094A97034707006315870901470146B7
:10301000B385EB0083C5150005071377F70F2E96D0
:103020001376F60FE376EBFE33876B010347270039
:103030006311C7063307590103460700E6851945A2
:103040003AC242C636C4EFC0A0200326CD021247C2
:1030500050CC03470700130610036309C708130683
:1030600020036308C70E13060003A2463248631FFD
:10307000C70003C63B01B30509012DC6D10622874F
:10308000CA9626851533854526857D35DA9A93F6C9
:10309000FA0F850693F6F60FE3E236F5B6402644BE
:1030A00096440649F259625AD25A425BB25B225C9C
:1030B000925C025DF24D6161828097D50300938539
:1030C000A5462644B64096440649F259625AD25A59
:1030D000425BB25B225C925C025DF24D194561611C
:1030E0006FC0001722878146014661BF03C74B00AE
:1030F00003C55B002207598DEF70F35703A60D003F
:1031000083A64D00EF70C307EF80331848D803C87B
:103110006B002308040383C87B0083C78B0042C471
:10312000A208B3E8F800231C140346C2EF80330B57
:10313000924822482A87AE87528697D50300938506
:10314000A5421945EFC0C0105285EFB080488945AF
:1031500025BF83C74B00A9E35285EFB0C02B634462
:1031600005025285EFB0A03B5285EFB0C02A13751F
:10317000F50FEFB06026EFB0D0418347040093F71E
:10318000F7FB2300F40097D50300938565411945AB
:10319000EFC0000C9145CDBD8347040097D50300D7
:1031A0009385854193E707042300F400CDB782801F
:1031B000797103C5818506D622D402C602C802CA27
:1031C00002CC02CEEFF0100C03478500954763193F
:1031D000F70A1C4D2A84CDC713F717000DC797D5E2
:1031E00003009385253F1945EFB0D0710147740066
:1031F00013060003835524010355C400493CB25013
:1032000022544561828013F7470029CF97D50300E8
:103210009385053E1945EFB0F06E1C409983858B70
:103220002306F1008347040093F707049DC3171793
:103230000020130727CA8547C14683454700700011
:103240003E962300B60085070507E398D7FE230EB8
:1032500001006800EF90A37D1377F50F740013064B
:10326000200349BF898B89CF97D503009385C53942
:103270001945EFB0306901477400130610039DBF74
:1032800083C781858507858B238CF1848DBF0111D0
:1032900022CC26CA4AC84EC606CEEFF030082A8491
:1032A000814415499309C00283478400639B270129
:1032B0008347A400850793F7F70F63E0F90223051E
:1032C000F4001304C40381C8F2406244D24442496A
:1032D000B249056182808544C1BF23050400894548
:1032E0002685AD3C8347040093F70704F9FB854529
:1032F0002685AD34F9B7411122C4216493050480B9
:1033000099460146254506C697D0FF1FE7804037FE
:10331000930504802244B24099461386C18529450D
:10332000410117D3FF1F6700A33599E10145828052
:1033300075DD011152C403DA018626CA93548A004E
:103340008504A204C204C18056C2B38A4441C20AA1
:1033500022CC4AC82E862E842A8997D503009385CD
:10336000A555254593DA0A014EC606CE9389C18537
:10337000EFB0106E63ED8A0883D5018693F7F50FE1
:10338000B1CF8D6783D5018693870780A2864A8651
:10339000BE95294597D0FF1FE780802E1375F50F46
:1033A00029ED83D749001566A2972390F18603D7AC
:1033B000018683D7E1856309F70063F3E700B297DD
:1033C000998F139607014182254597D50300938570
:1033D0002550EFB0F0671375F40F0DA08D6793873C
:1033E0000780930600100146BE95254597D0FF1F24
:1033F000E78000291375F50F49D50145F240624475
:10340000D2444249B249224A924A05618280B307B6
:103410009440D297C207C183A18303C7490085079F
:1034200093F7F70F9396870011EB93861700937429
:103430000AF0A206C204C206C180C18283D7E18518
:1034400063F6F40033879600E3C9E7FA0D6A130ABE
:103450000A800146B3854401254597D0FF1FE780C8
:1034600020221375F50F51F983D50186A2864A866D
:10347000D29505B7411122C41384C18522858145A7
:10348000194606C697D0FF1FE780A0599307B0FAE8
:103490002300F4008D352244B24097D50300938574
:1034A000253A254541016FB0F045A1654111994686
:1034B0001386C185938505802D4506C697D0FF1FCD
:1034C000E780001C03C7C1859307B00A6303F700B8
:1034D0005537B24083D6018603D6E18597D50300E0
:1034E0009385C536254541016FB0905683D7C1A05D
:1034F0000145638B071003D5E1A06366F50023A6A1
:1035000001A0014582803385A740D1473355F5029C
:103510001375F50F01E5239601A08280130101BD0B
:103520002324814223261142232291422320214336
:10353000232E3141232C4141232A514195471374B5
:10354000F50F63F3A7001544228697D503009385F2
:10355000E5392545EFB0D04F01498144938901A158
:10356000514AA14A9377F90F03D5E1A0171700201C
:10357000034757C463EA8704D1473304F40226861D
:103580000C082A94239781A0A147631BF7060945DD
:10359000EF40806503D7E1A083D7C1A005456364F0
:1035A000F70023A601A08320C14203248142832483
:1035B0004142032901428329C141032A8141832ACF
:1035C0004141130101438280B30749031408AA97BC
:1035D000CE9733859600631E5701BE85EF40D0021B
:1035E0002317A1008357E1000509BE94C204C180DE
:1035F00095BFAA851306E1003E85EF900072DDB706
:103600000145EF60A06079B78280011106CE22CC1F
:1036100026CA4AC84EC691E901442285F240624456
:10362000D2444249B24905618280AA8975D583D7BF
:10363000018603D6E1852E849564638AC70063748E
:10364000F60015673A961D8E93140601C1802686F2
:1036500097D503009385C51B2545EFB0703F938731
:1036600014F06356F4009307F00F63EA970097D5C0
:1036700003009385651B2545EFB0903D71BF83D452
:10368000018633878400956763C7E700A2854E856E
:103690006939953159B71569330999404209135968
:1036A0000901CA854E85513125D9ED75A695A2959A
:1036B000C20523900186C18133852901D1BF83D6FC
:1036C000C1A081EA97D503009385851C25456FB07D
:1036D000702303D6E1A04111918E97D50300938505
:1036E000251C254506C6EFB0B0361387C1A083550B
:1036F000070083D7E1A0138501A19D8DC2053E95EA
:10370000C1812137B24023A601A04101828041112D
:1037100083D7C1A022C426C206C6AE9713070020D5
:10372000AA842E84635AF700593F97D503009385E6
:10373000E5132545EFB0101D83D7C1A0138501A166
:103740002286A6853E95EF80635503D6C1A02296BA
:1037500042062244B240924441822396C1A097D5AA
:10376000030093852512254541016FB0702E01118C
:1037700026CA06CE22CC4AC84EC652C456C281447E
:1037800059C1D1C183D7E18503D40186638D8706F2
:1037900063F587081D8C42044180AE892A89228600
:1037A00097D50300938545030145EFB0702AA284A5
:1037B00063F38900CE84C2040D6A83D7E18503D701
:1037C0000186C180938AC185130A0A8063FAE704DF
:1037D000A6864A86B38547012D4597D0FF1FE7800F
:1037E00020EA83D72A00A697239FF184EFF0BFB089
:1037F00083D6018603D6E18597D50300938505FF1F
:103800002545EFB0F024F240624426854249D24477
:10381000B249224A924A0561828015673A949DBF57
:1038200015671D8FB385470163D5E400A6864A86D8
:1038300065B79569B389F9406D743E94C20993D90F
:1038400009012694CE864A8642042D4597D0FF1F53
:10385000E78000E34180A28633063901D2852D45F9
:10386000239F018497D0FF1FE78080E183D72A0040
:103870003E94239F81849DBF938701050547238C38
:10388000E70018411045544598C30357450090C7B9
:10389000D4C7104954492392E70090CBD4CB239D41
:1038A000B7008280184193870107104598C30357DA
:1038B0004500544590C72392E70058551049D4C796
:1038C000544998CF97D50300938585100547254522
:1038D00090CBD4CB238EE7006FB0D002397126DABB
:1038E0004AD84ED652D456D25AD006DE22DC62CE08
:1038F00066CC2A89EF90A3139374F50F8149254B69
:10390000E54A17DA0300130A6A0291ECF250625496
:103910004E85D2544259B259225A925A025B724C85
:10392000E24C2161828003470900930707FD93F76A
:10393000F70F637CFB009307F7F993F7F70F63E248
:10394000FA06930797FA93F7F70F139487016184A8
:10395000FD14230089002685EF70E3512A86AE8688
:1039600003250A0083254A0093F4F40F0509EF00AC
:10397000E1182AC422852EC6EF70E34F2246B246D4
:10398000EF6013002A8C4E85AE8CEF70E3552A86CB
:10399000AE866285E685EF509313EF700348AA89DF
:1039A000ADB79306F7FB93F6F60F8147E3EFDAF82E
:1039B000930797FC49BF411122C406C683079502AD
:1039C0002A8499C713059502EF80832A2385A100D5
:1039D0008307D41291CB1305D412EF800329EF8013
:1039E000C30A938781FDC8D3B2402244410182803B
:1039F000011126CA9304150022CC97D503009385A4
:103A000025012A84268506CE4AC84EC6EFB09013FB
:103A1000631E051097D503009385C5FF2685EFB07B
:103A200070126302050E85448307D4036386070C76
:103A300013059402EF80C32385491379F50F13050D
:103A4000D4036387340F8947638CF418EF804322D3
:103A5000A386A100631A3901794681451385F102D5
:103A600023810186EFE0FF978307D40885C3130500
:103A7000D408EF80E31F03C7218693071700238133
:103A8000F186938781FDBA97A38BA7048307D40D92
:103A900085C31305D40DEF80A31D03C721869307AB
:103AA00017002381F186938781FDBA97A38BA70422
:103AB0008307D41285C31305D412EF80631B03C799
:103AC0002186930717002381F186938781FDBA979A
:103AD000A38BA7048307D41785C31305D417EF80DE
:103AE000231903C72186930717002381F186938743
:103AF00081FDBA97A38BA704F2406244D2444249A5
:103B0000B2490561828097D503009385E5F026854B
:103B1000EFB05003E31905F0268597D50300938590
:103B2000E5EFEFB030028944E31005F08144EDBDCC
:103B3000EF8003142387A100631A99007946814519
:103B40001385110123810186EFE0BF898307D40823
:103B500085C31305D408EF80A31103C721869307FB
:103B600017002381F186938781FDBA97A38CA70262
:103B70008307D40D85C31305D40DEF80630F03C7EE
:103B80002186930717002381F186938781FDBA97D9
:103B9000A38CA7028307D41285C31305D412EF8028
:103BA000230D03C72186930717002381F18693878E
:103BB00081FDBA97A38CA7028307D417E38E07F27F
:103BC0001305D417EF80C30A03C721869307170094
:103BD0002381F186938781FDBA97A38CA70229BF21
:103BE000EF800309A387A10001BF411122C406C6CB
:103BF000830795072A8499C713059507EF80430724
:103C0000A385A1008307D40899C71305D408EF80C2
:103C100023062386A1008307540B91CB1305540B75
:103C2000EF80A304EF707366938781FD88D7B2405D
:103C3000224441018280411122C426C206C6830764
:103C400015058144014499C703444505130404FD47
:103C50001374F40F8307550699C713055506EF80B3
:103C600023019374F50F2286A68697D503009385CA
:103C7000E5DB2545EFB0C05D1374B40F8D47631FBE
:103C8000F4009D4763FC97009717002083C7A7DDCA
:103C900093E74700171700202307F7DCB2402244C0
:103CA000924441018280011126CA8146B2840146B4
:103CB00052C456C206CE22CC4AC84EC62A8AAE8A02
:103CC000EF60232F41CD9307E0046386F400930750
:103CD00030056395F40897D90300938929D103A689
:103CE000090083A649005285D685EF606349379461
:103CF0009800EF708312130404682A8933758502D3
:103D0000EF70831E03A6090083A64900EF50334FCE
:103D100097D70300938707CE9043D443EF50334E99
:103D20002A8A33558902AE8AEF70031C2A86AE8632
:103D30005285D685EF50A35913073005AE8763959A
:103D4000E400B7070080AD8FF2406244D24442499C
:103D5000B249224A924ABE85056182800145814767
:103D6000E5B7011126CA8146B284014652C456C243
:103D700006CE22CC4AC84EC62A8AAE8AEF6063239A
:103D800041CD930750046386F40093077005639553
:103D9000F40897D90300938969C503A6090083A68F
:103DA00049005285D685EF60A33D37949800EF70A7
:103DB000C306130404682A8933758502EF70C312A1
:103DC00003A6090083A64900EF50734397D7030069
:103DD000938747C29043D443EF5073422A8A3355A6
:103DE0008902AE8AEF7043102A86AE865285D68548
:103DF000EF50E34D13077005AE876395E400B707F6
:103E00000080AD8FF2406244D2444249B249224A16
:103E1000924ABE850561828001458147E5B7135707
:103E200085009357050113D885009376F50F01118E
:103E30001377F70F93F7F70F618593F5F50F137865
:103E4000F80F99C211C3B9E3230CD100A30CE10010
:103E5000230DF100A30DA1000345910183478101CA
:103E60000347A1012205A30E01014207C98F230EBA
:103E7000B1000345B101D98F0347D1018345C10189
:103E8000620522075D8DD98D05618280329513759B
:103E9000F50F13138501135383415D46635766087D
:103EA00061463363C30285071376D70F114593F735
:103EB000F70F6305A6002545631AA6007946637FC0
:103EC000F60205071377F70F85470DA80946631219
:103ED000C7041386067D93084006B36816036385FE
:103EE000080013F5360011C5130500193366A60244
:103EF00019EE75466374F60085470D47230CD10013
:103F0000A30CE100230DF100A30D6100B1B77146D0
:103F1000D5B77D46E374F6FEB147E314F7FA85069C
:103F200093F6F60F85470547D1BFE35903FC6105BA
:103F3000FD171313850193F7F70F13538341DDFF2B
:103F40007D171377F70F1146F947E309C7FA1946AA
:103F5000E306C7FA2546E303C7FA2D46E300C7FA8E
:103F600089476316F7021386067D93074006B367F9
:103F7000F60291C793F83600F547E38108F89307F6
:103F80000019B367F60293B71700F10785BFFD4725
:103F900035F7FD1693F6F60F31478DB783471500B9
:103FA000034705000111A2075D8F83472500834663
:103FB000350006CEC207D98F03475500834545001B
:103FC00017060020130686080306E620E2062207ED
:103FD00033E5F600D98DA135135885001356050138
:103FE00093D7850013F7F50F93F7F70F93568501D5
:103FF0001376F60F9375F80F1375F50FEF703064A5
:104000009707002083C7970405476385E70011479A
:104010006396E700F24005616F70F071F240056150
:104020008280497123248116138481FD8307340023
:1040300083C8D1FD03C8C1FD03C7A1FD83C691FD9F
:1040400003C681FD97D50300938545A1481023261B
:1040500011162322911623202117232E3115EF80CC
:1040600093154810EF80B31C18485C4803060403FE
:104070003AC03EC2030814035C441844541097D558
:1040800003009385A59F3695EF80F3124810EF80CB
:10409000131A5C103E958307640017D603001306BD
:1040A000669B89C717D603001306469A97D5030067
:1040B00093850529EF8033104810EF805317544C37
:1040C000104C5C1097D503009385459C3E95EF807E
:1040D000930E4810EF80B315030634035C103E9531
:1040E00097D503009385459BEF80F30C4810EF8034
:1040F000131403072403AA8448503ACE138481FD85
:10410000EF70F30D72475C10AE862A8697D50300D8
:104110009385859933859700EF80F3094810EF80E8
:1041200013115C1003C6C10097D503009385459910
:104130003E95EF8053084810EF80730F5C1097D5C1
:1041400003009385E5983E95EF80530D138961FF39
:10415000A28497D903009389291E03C6740519CA3E
:10416000481032CEEF80B30C72465C10CE853E957F
:10417000EF8073048504E39224FF4810EF80330B33
:104180005C1097D50300938525953E95EF80130924
:1041900097D403009384441A0346940319CA481021
:1041A00032CEEF80D30872465C10A6853E95EF8034
:1041B00093000504E31224FF4C102545EFA09074F2
:1041C0008320C11603248116832441160329011676
:1041D0008329C11575618280411122C406C626C299
:1041E000830755012A84B9C7A946938707FDB3877A
:1041F000D70203476501130707FDBA97A38DF1FCAA
:104200000307750183478501130707FD3307D702AD
:10421000938707FD3E97238EE1FC830795010347B3
:10422000A501938707FDB387D702130707FDBA9748
:10423000A38EF1FC8307940281CB130710046391D2
:10424000E7148547238FF1FC8307D403938481FD12
:1042500099C71305D403EF70532188C4CCC4030657
:10426000140509CA8844CC442384C100EFF0BFA3DD
:1042700088C4CCC48307540699C713055406EF704D
:10428000D31E88C8CCC80306940709CA8848CC48FE
:10429000A384C100EFF0FFAC88C8CCC88307D40862
:1042A00099CF1305D408EF70531C97C70300938769
:1042B00067779043D443EF50B36C88CCCCCC830762
:1042C000140A99C71305140AEF70931A239CA1FED0
:1042D0008307540BB9C7A946938707FDB387D70255
:1042E0000347640B130707FDBA97238DF1FC0307FF
:1042F000740B8347840B130707FD3307D70293879B
:1043000007FD3E97A38CE1FC8307940B0347A40BA6
:10431000938707FDB387D702130707FDBA97238C4E
:10432000F1FC83853400856703C6C1FD938707E1EF
:104330001307C0033307E60283C6D1FDB387F50236
:10434000BA97B69723A2F1001707002013078771C9
:10435000835707003A8413F5870039E10385640029
:104360000547631FE50203C7A1FD11EF8844CC4454
:1043700001468146EF50F34305E9238F01FCB9A0C4
:10438000238F01FCD1B5FDD175D2EDD293E7870023
:10439000138581FD170700202316F76CEFF01FC06F
:1043A00083876400E1F7D1BF8848CC480146814645
:1043B000EF50334079D183C7A1FDE1D313068007C5
:1043C000938581FD138501F6EF70530D03C501C17F
:1043D0009D4705053365F50213068007938581FD2A
:1043E0002388A1C0930780073305F502938781C115
:1043F0003E95EF70B30AEFF0DFC25C542244B24046
:104400009244170700202329F76813068007814587
:10441000138581FD41016FD0DFFC0171232C811ECA
:10442000232A911E1306101E2A84AE84680081453B
:10443000232E111E2328211FEFD0BFFA814581476B
:10444000014701465148CD485D436340960899C1F4
:104450002306F1001306A002A6852285EFA0D06CEA
:104460008347C10051473386A440B387E7029305D1
:10447000150078007D16A29585073305F700EF70CB
:10448000F3011306A002A685228503491400EFA0BC
:10449000B069894763C3A7080345C100D147330505
:1044A000F5027C0005053E95EFF04FC3631CA9049F
:1044B000194697C50300938565541305D100EFA0F5
:1044C000107425C56800093B35A8B306C40003C5B0
:1044D0000600930665FD93F6D60F91EA850793F7DC
:1044E000F70F6361F302854501470506B9BFB3863F
:1044F0000703130E011FF296BA96A38EA6E00507D6
:10450000E3D5E8FE8320C11F0324811F8324411FBC
:104510000329011F1301012082803307F4000347A0
:10452000070085073349E900B5B7194697C5030069
:104530009385054D1305D100EFA0706C39E919463C
:1045400097C503009385054C1305D100EFA0306B90
:104550000DED194697C503009385054B1305D10052
:10456000EFA0F06919ED194697C503009385054A38
:104570001305D100EFA0B06851D56800EFF0AFEBA4
:1045800051B76800EFF0CFC6B5BF6800EFF0EFE5B8
:1045900095BF6800EFF02FC2B5B7757122C526C36D
:1045A0004AC1CEDED2DCD6DADAD806C7AA892E898D
:1045B000814401448147130A4002854A354B1397D1
:1045C00004014183636C2701BA402A449A440A4992
:1045D000F659665AD65A465B4961828033879900FC
:1045E0000347070063004703639C5701631D67018E
:1045F0009C18A297A2856800238E07F8393D814751
:10460000850475BF01449C18A29705041374F40F28
:10461000238EE7F893373406E5B7411106C61385B4
:1046200001C183470500130780078145B387E7026F
:1046300013068007A1073E95EFD0BFDAB24081454F
:10464000114541016FB04062138501C183470500E8
:1046500013078007B387E702A1073E958280138581
:1046600001F68280397126DA97C403009384842985
:1046700062CC66CA328CB68C9040D44006DE22DC16
:104680004AD84ED652D456D25AD05ECE6AC842C00C
:1046900046C217C40300130464273AC43EC6EF5051
:1046A000332E1040544017CD0300130DAD26EF50AC
:1046B00003352247B2479040D4402A8AAE8A3A85D1
:1046C000BE85EF50F32B10405440EF5043332A89FE
:1046D000AE892A86AE865285D685EF50F3750326BD
:1046E0000D0083264D00EF50B329EFF0002C2A8BEC
:1046F000AE8B5285D685EFF020222A8AAE8A4A8573
:10470000CE85EFF06021024892482A894286C6860B
:10471000AE896285E685EF5033729040D440EF5009
:10472000332610405440EF50832D03260D0083267E
:104730004D00EF50F324EFF040272A84AE844A86E0
:10474000CE865285D685EF50B3232286A686EF50BB
:1047500033232286A686EF50B3222A84AE845A865B
:10476000DE865A85DE85EF50B3212A86AE86228505
:10477000A685EF40D335EFF0C06AEFF0402C2A86D3
:10478000AE86EF40D33497C7030093872719904331
:10479000D443EF50F31E97C703009387A7189043A5
:1047A000D443EF50F31DF2506254D2544259B259DF
:1047B000225A925A025BF24B624CD24C424D21611A
:1047C00082809707002083C7772A81CF9707002030
:1047D00083D7C7A8FD17C207C1831307A00363755A
:1047E000F70023A40186828071714ECF9389818660
:1047F00083A7090056CB938A01C1850722D526D30A
:1048000052CD5AC95EC762C566C36AC106D74AD1CE
:1048100023A4F18683C401C1014A130C8007568486
:1048200097CC0300938C8C17054D9D4B154B33890A
:10483000840356998307E900F1CF03A60C0083A6F1
:104840004C000325090283254902EF5013086343F6
:10485000050C83470904638FA70B93171A001808E8
:10486000BA97035789022390E7003C00D297238030
:104870009700050A9904B3E47403E31A6AFB03572B
:10488000810183570101998F13D7F741B98F998F10
:10489000939407011307400BC1806358F7009307F7
:1048A0008016B3849740C204C180268697C5030052
:1048B0009385450F6808EF8003106C082545EFA02D
:1048C0007004938714FFC207C1837947636FF708A9
:1048D00003499100130A80078545014533094903BF
:1048E000210922994A86EF80302F8344B100854503
:1048F0000145B3844403A104A2942686EF80D02D01
:104900004A868D450945EF30805226868D450945FA
:10491000EF30E05183A709001707002003570794E1
:1049200063E7E70203C501C19304800733059502DD
:10493000B307A4000387E70019CB03C7C108938519
:104940000107631B070E21052295EFE0BFF5BA5062
:104950002A549A540A59FA496A4ADA4A4A4BBA4BD3
:104960002A4C9A4C0A4D4D6182809307D002E3F3A2
:1049700097FA834B8100930A80078545B38B5B03CD
:104980000145138C8B00229C6286EF80F024034B40
:10499000910085450145330B5B03A29B210B229BB4
:1049A0005A86EF807023034AA10085450145330AEA
:1049B0005A03210A229A5286EF8010220349B1003D
:1049C0008545014533095903210922994A86EF801B
:1049D000B0208344C10085450145B3845403A1043C
:1049E000A2942686EF80501F62868D450945EF30E0
:1049F00000445A868D450945EF30604352868D4507
:104A00000945EF30C0424A868D450945EF302042C6
:104A100026868D450945EF30804183C701C1B38AA1
:104A2000570303A74B03A29A83A74A03E314F7EEA5
:104A300085472380FA04F9BD03A8870183A8C7012D
:104A4000984B9049DC4BD4498845CC45EFF09FC149
:104A50002A86AE862A89AE89680897C503009385A1
:104A600065F5EF7053756C082545EFA0A06917F543
:104A7000FF1F0345A567EF6003402A86AE864A857F
:104A8000CE85EF50A359E354A0EC03C601C1330611
:104A900096028545014521062296EF80F01303C654
:104AA00001C1330696028D45094521062296EF3055
:104AB000003803C501C13305950221052295EFE0B9
:104AC0007FDE23A4018661B51306000281451385AC
:104AD00001056FD01F919707002083C737F991E731
:104AE00023A6018623A20186828097F7FF1F83C732
:104AF000F75509476388E700F11793F7F70F054764
:104B0000E360F7FE797122D426D24AD006D64ECE83
:104B100052CC56CA5AC8138901C103C401C1EFB0AF
:104B2000200ACA846301051893068007B305D402DE
:104B30009387C1869C43850723A6F186CA95038780
:104B4000E500630207161387418618431306170012
:104B500023A2C18611466362E6022254B2509254E7
:104B60000259F249624AD24A424B97C503009385E3
:104B7000E5DD254545616FA0A06D03C6810613875D
:104B8000010515E603C501C13305D50297050020CF
:104B900083D505F021054A952254B250925402590A
:104BA000F249624AD24A424B45616FE0FFCC638CC6
:104BB000070E23A6018603280701832847015C47C7
:104BC000904DD44D18478849CC4917CB0300130B9F
:104BD0006BD6170400201304E4E8EFF0BFA8032607
:104BE0000B0083264B002A89AE89EF50034E17FA3B
:104BF000FF1F130AAA4583DAA1066350A00497C7D2
:104C000003009387A7D39043D4434A85CE85EF50C2
:104C1000E340634805005C540547B3875741637E12
:104C2000F70003250A2583254A254A86CE86EF40CC
:104C3000036A2328AA24232ABA240328C40217F5C6
:104C4000FF1F034525663308584142C6EF60A32283
:104C500097C70300938707CF9043D443EF40335A5D
:104C600003260B0083264B00EF40636603260A25CC
:104C700083264A25EF50C3503248AE872A8797C50E
:104C800003009385E5CD25454A86CE86EFA0405C9E
:104C900003C501C1930780073305F5028355C4029C
:104CA00021052695D5BDB250225492540259F2499D
:104CB000624AD24A424B45618280914763E1C70A0A
:104CC00017C70300130707E20A063A961C42411170
:104CD00022C406C6BA972A84828797D50300938593
:104CE00025011145EFA00042A2851145EFA08041AA
:104CF0002244B24097D503009385450111454101F7
:104D00006FA04040A9CA9042EF40107D2244B240BB
:104D1000014697650000938505AD3D4541016F3023
:104D2000D01E95CA2244C8C2B24003C5A60023942F
:104D3000B6003686954541016F80006A2244B24034
:104D400041016FE0702B2244B2402E86AA854101BA
:104D500009456F30C059B2402244410182808280AF
:104D6000411106C6EF90E031B24041016F80F07D05
:104D7000411122C426C206C61384018797F4FF1F7F
:104D80009384D44C83C7018791E7B2402244924474
:104D90004101828081452685EFD02075834704003C
:104DA00085072388F186F9BF5571581093063102A3
:104DB00013062102930511029307510213056102A4
:104DC00086C7EF70A001970700209387A7C983D7F4
:104DD0000700BD9B170700202316F7C8EFF0DF86FA
:104DE000030305039305E0048356610203471102A0
:104DF000834721020348310283484102034E510296
:104E000017D60300130646786316B30017D60300BF
:104E100013060664830E150313035004032F850045
:104E2000832FC50097D503009385856263866E0046
:104E300097D5030093854575032305018323450119
:104E40007AC41ACC1ECE7EC672C02EC832C297D586
:104E500003009385E5D017F6FF1F1306E607281019
:104E6000EF707335EF8040712810EF70533C9387DB
:104E70004187904393150501938601092810C1814C
:104E80002D3DBE4069618280411106C623AAB186CC
:104E900001C61C4223A8F10897F7FF1F83C7771BA1
:104EA0008DEB0545EFB0203F97C503009385C5CF37
:104EB0002545EFA020259707002083D7A7BAB24049
:104EC00093E7070117070020231EF7B841016F8001
:104ED000E06905470545639CE700EFB0C03B054529
:104EE000EFA0105F97C50300938545CDD1B7EFB014
:104EF000803A0545EFB0803D0545EFA0705D97C550
:104F00000300938525CD6DB7411122C42A84830700
:104F1000D40306C626C22E8589C71307F003639CF7
:104F2000E70297F7FF1F83C7373717F7FF1F1307EE
:104F3000B71897F6FF1F9386161517F6FF1F13066F
:104F4000761197C50300938525D42244B24092443C
:104F500041016F70532697F7FF1FA38D070E97F738
:104F6000FF1FA382071297F7FF1FA38707140347AA
:104F700004008547AE8463FAE7009305D40317F570
:104F8000FF1F1305350DEF7073298307940791CF29
:104F900003470400894763FAE7009305940717F570
:104FA000FF1F1305550EEF7073278307540B91CF26
:104FB000034704008D4763FAE7009305540B17F588
:104FC000FF1F1305750FEF7073258307140F91CF23
:104FD00003470400914763FAE7001305140FEF60DD
:104FE000334997F7FF1FA389A72A01469745000079
:104FF000938525641305C012EF302071EF50B04A3D
:1050000097F7FF1F83C7572917F7FF1F1307D70A03
:1050100097F6FF1F9386360717F6FF1F13069603B2
:1050200097C50300938585C9268505B7411126C21A
:1050300006C622C4034705008947AE8463F5E7022C
:105040009305D5032A8417F5FF1F1305A5F9EF7003
:10505000F31C13059407EF60B34197F7FF1F2395E7
:10506000A7FEEF50D03EEF50904297F6FF1F83D639
:10507000A6FD17F6FF1F1306E6F697C503009385F6
:10508000E51C2685EF703313854797F5FF1F938541
:10509000A5E417F5FF1F1305A5F317F7FF1FA30DD1
:1050A000F7E8EF70B31797F5FF1F9385B5FA17F57B
:1050B000FF1F130585E8EF70731697F5FF1F9385A3
:1050C00095FC17F5FF1F130565EAEF70331597F58B
:1050D000FF1F938575FE17F5FF1F130545ECEF7055
:1050E000F31397B503009385A5F617F5FF1F130576
:1050F00085F2EF70B312EF509035014697450000EE
:105100009385054C7945EF3040602244B24092448B
:10511000014697650000938505631305000541016D
:105120006F30A05E411122C426C24AC006C6830762
:10513000D503AE8417C903001309C9EB1704002077
:105140001304449289C71307F0036391E70417F52A
:10515000FF1F034595F9EF501352032609008326DC
:105160004900EF40D309EF60531228C0EF603307C6
:10517000AE862A8697C50300938545E82244B2404F
:1051800002492685924441016F70F3021305D5034D
:10519000EF60132E97F7FF1FA389A7F41375F50F80
:1051A000EF50734D0326090083264900EF40330575
:1051B000EF60B30D28C0EF50102F2840EF6033028E
:1051C000AE862A8697C50300938545E545BFAA8725
:1051D0000387D7032E8509C79306F0036315D7020B
:1051E00097F7FF1F83C7D7E617C60300130686DDB0
:1051F00089E717C60300130666DD97C5030093858C
:1052000065DE6F70437B41111385D70306C622C448
:105210002E84EF60F32597F7FF1FA38BA7E2EF50D3
:10522000902897F7FF1F83C7B7E297C503009385C0
:1052300065DA89E797C50300938545DA228522441C
:10524000B24041016F70837D411126C206C6AA8417
:1052500022C48387D4032E8589C71307F00363967E
:10526000E70497F7FF1F83C7D7DE05476385E7028B
:1052700089CB09476386E702B24022449244410148
:10528000828097C503009385A5DD2244B2409244F5
:1052900041016F70A37897C503009385E5DEF5B7EC
:1052A00097C50300938505E1CDB79384D4032E847D
:1052B000268597C503009385E5E2EF70637D1DC1E8
:1052C000894717F7FF1FA306F7D897C503009385F3
:1052D000A5E52285EF7083742244B24092444101D7
:1052E0006F50701C2685EF60B3181375F50F97F794
:1052F000FF1FA380A7D6854797C503009385C5E008
:10530000E309F5FC97C50300938545DE79D189470C
:10531000E30DF5FA17F7FF1FA30DF7D297C50300AA
:105320009385C5E27DB741112E8597C5030093850E
:10533000E5E906C6EF70836E014697450000938548
:1053400025287945EF30603CB24001469765000062
:105350009385653F1305000541016F30003B411106
:1053600022C426C206C68307D503AE8417F4FF1FE6
:105370001304C4CD89C71307F003639BE7028306B8
:10538000E42017C60300130666F063D6060017D69E
:1053900003001306E60B268597C50300938545EFAA
:1053A000EF7063612244B240924441016FA020310A
:1053B0001305D503EF60D30B97F7FF1F238FA7E8E3
:1053C000EFA0E02F0306E42097C50300938505EEC8
:1053D0002545EF90F0678347E4206147B10793F7D5
:1053E000F70F6377F700A14717F7FF1F2307F7E6CB
:1053F000EF50700B8306E42017C60300130606E97E
:1054000063D6060017D60300130686042244B24072
:105410002685924497C503009385C5E941016F70C5
:10542000835979719307D10178089306B101130666
:10543000A10122D41305E1012E849305910106D622
:1054400026D24AD0EF609019EF9080478348D1016F
:105450000348C1018347B1010347A101834691017C
:105460000356E10197C503009385C5A0AA84228550
:10547000EF7063542285EF70835B97F7FF1F93876C
:10548000675ECC5703A847030566130606E193063B
:10549000C00333F3C50222953377D802B378C8022C
:1054A0003AC09C5733F7D502B3D8D8023358C80254
:1054B000B356D30233D6C50297C503009385C59D65
:1054C000EF70634F2285EF7083563309A400EF908D
:1054D000007C17C603001306A69909C517C603006A
:1054E0001306C69897C503009385059F4A85EF70FC
:1054F000834C2285EF70A35317F6FF1F0346C65A4D
:1055000097C503009385459E2295EF70C34A228577
:10551000EF70E3519040D454CC4089472295058ADE
:10552000858A17C70300130767946386F50017C7BA
:1055300003001307E79303A80403894597C70300F3
:105540009387C7926306B80097C703009387479273
:1055500097C503009385859AEF70E345B2502254B6
:105560009254025945618280AA870387D7032E850A
:1055700009C79306F0036311D70297F7FF1F83C78C
:1055800067AD97B503009385A56689E797B50300D6
:10559000938505696F70834841111385D70322C431
:1055A00006C62E84EF60C36C1375F50F97F7FF1FC7
:1055B0002382A7AA17F7FF1F034757A98947631636
:1055C000F7000DE91145EFA0A07097F7FF1F83C703
:1055D00067A897B503009385256689E797B503000B
:1055E0009385C5682285EF7063432244B240410130
:1055F0006F50606B1145EFA04073C1BFAA8703874E
:10560000D7032E8509C79306F003631ED70297F7C9
:10561000FF1F83C707A40547638DE70089C70947B4
:10562000638EE700828097B503009385E56C6F7009
:10563000E33E97B5030093856570D5BF97B503002A
:1056400093858575EDB741111385D70322C406C62E
:105650002E84EF60E3611375F50F97F7FF1F238A20
:10566000A79E854797B503009385456D6306F502B0
:1056700097B503009385456805C1894797B5030031
:1056800093858571630AF50017F7FF1F2303F79CC5
:1056900097B50300938505762285EF702338224461
:1056A000B24041016F502060AA870387D7032E853F
:1056B00009C79306F003631CD70017F6FF1F0346C4
:1056C000E6A297C503009385658A6F70C32E4111CA
:1056D0001385D70306C622C42E84EF60E35997F7DB
:1056E000FF1F2385A7A0EF50005C22852244B24013
:1056F00017F6FF1F0346869F97C5030093854589CC
:105700004101E1B7411122C469452E84814506C695
:10571000EF309059EF50C04F2A8622852244B24084
:1057200097C503009385458941016F70C3284111D6
:1057300022C41305D5032E8497B503009385057EF7
:1057400006C6EF90304011CD0145EF50406097B54F
:1057500003009385657D22852244B24041016F702C
:10576000E32B0545EF50A05E97B503009385857D3B
:10577000DDB7411122C42A848307D40306C626C29A
:105780002E8589C71307F003639CE70297F7FF1F75
:105790009387379F17F7FF1F1307979B97F6FF1FF6
:1057A00083D6A6AC17F6FF1F1306769797C503009E
:1057B000938505A42244B240924441016F70A31F17
:1057C000AE8417F5FF1F130595959305D403EF706D
:1057D000E32417F5FF1F13059594EF7043259315E8
:1057E0000501C18117F5FF1F13057593EF90107127
:1057F0008307940789CB13059407EF60634797F7F6
:10580000FF1F2394A7A68307540B85CB9305540B46
:1058100017F5FF1F1305D593EF70432017F5FF1FF2
:1058200013051593EF70A32093150501C18117F59A
:10583000FF1F1305F591EF90706C8307140F85CB54
:105840009305140F17F5FF1F1305B593EF70031D94
:1058500017F5FF1F1305F592EF70631D93150501F2
:10586000C18117F5FF1F1305D591EF903069EF50F7
:10587000804397F7FF1F9387D79017F7FF1F1307F2
:10588000378D97F6FF1F83D6469E17F6FF1F130628
:10589000168997C503009385E596268521BF0111DA
:1058A00006CE2EC6EFA0202F854717F7FF1FA305B2
:1058B000F79AEF50403F3245F24097B50300938589
:1058C000E55905616F708315011106CE2EC6EFA054
:1058D000E02D97F7FF1FA3810798EF50C03C32459A
:1058E000F24097B503009385E55705616F70031388
:1058F000411122C426C206C68307D5032E8497E42D
:10590000FF1F9384A47489C71307F0036393E7020E
:1059100003A58423EF60A30C2A8622852244B2408B
:105920009244AE8697C503009385C58541016F708B
:1059300083081305D503EF60A333EF50C35397B724
:1059400003009387276B9043D443EF40430BEF60F2
:10595000C31323ACA422EF6083082A86AE86228577
:1059600097C5030093854584EF70E3042244B24059
:10597000924441016F502033AA870387D7032E85B5
:1059800009C79306F003631CD70017F6FF1F0356E1
:10599000E68C97C503009385E5886F70C3014111BC
:1059A0001385D70306C622C42E84EF60632C13161A
:1059B000050197F7FF1F2393A78A418297C503002C
:1059C000938585872285EF60137F97E7FF1F83C745
:1059D000F76709476388E700F11793F7F70F054763
:1059E000636AF70097F7FF1F83D7478789EB09455D
:1059F000EFA0A0332244B24041016F50C02AEFA073
:105A0000201C75D517F7FF1F035747859307B00371
:105A1000E3EFE7FC0945EFA0A02BE9BF130101D795
:105A200036C493160501232A5127232861272326EC
:105A30001128232481282322912823202129232E61
:105A40003127232C41272326712723248127232232
:105A500091272320A127232EB12523080104C182E9
:105A6000130760022E8BB28A6374D7006F10403C1C
:105A700097B503009385450893162500AE96984286
:105A80002E97028717E7FF1F0347D772A1476312BC
:105A9000F70C19462C1017E5FF1F13053545EF903D
:105AA000701F8808230A01028008EF60537897E787
:105AB000FF1F83D7A77B17E7FF1F1307F77297E630
:105AC000FF1F93866641301097C503009385458478
:105AD0002295EF60536E8808EF6073759C0817E697
